:020000040800F2
:1000000018020020D12400080D2200080F22000849
:100010001122000813220008152200080000000029
:10002000000000000000000000000000172200088F
:1000300019220008000000001B2200081D220008F1
:10004000192500081D250008212500082525000880
:10005000292500082D250008312500083525000830
:10006000392500083D2500084125000829220008FF
:10007000492500084D250008512500085525000890
:10008000592500085D2500086125000800000000D2
:1000900000000000000000000000000065250008CE
:1000A000692500086D2500087125000875250008E0
:1000B000672200087D2500088125000885250008A5
:1000C000892500088D250008912500089525000840
:1000D000992500089D250008A1250008A5250008F0
:1000E000A9250008AD250008B12500080000000082
:1000F0000000000000000000000000000000000000
:1001000000000000000000000000000000000000EF
:100110000000000000000000B5250008B925000817
:10012000DFF87003006850F00100DFF86813086022
:10013000DFF864030068DFF864130840DFF8581341
:100140000860DFF850030068DFF854130840DFF858
:1001500044130860DFF83C03006830F48020DFF8C7
:1001600034130860DFF83003006830F4FE00DFF875
:10017000281308605FF41F00DFF8281308600020D0
:10018000DFF8241308607047DFF80813096831F4BA
:100190008031DFF800231160DFF8F812096831F4CC
:1001A0008021DFF8F02211600100B1F5803F03D01B
:1001B000B1F5802F09D011E0DFF8D812096851F4A9
:1001C0008031DFF8D022116008E0DFF8C81209683A
:1001D00051F4A021DFF8BC221160FFE7704738B569
:1001E0000020009000240025312000F02AF90500AD
:1001F0000098401C00900098B0F5A06F02D0EDB2BE
:10020000002DF1D0312000F01CF9002802D001208F
:10021000040001E0002004002000C0B232BD002232
:10022000DFF874321B681A0032F4741251EA0003CA
:100230001A43DFF864321A607047C0B2DFF86C12FC
:10024000086070470022DFF860321B681A00DFF890
:1002500060321A4051EA00031A43DFF84C321A6048
:10026000704700218C4A12681100890889000143F7
:10027000894A116070478848006810F00C00704788
:100280000021854A1268110031F0F0010143824AD1
:10029000116070470021804A1268110031F4E0615A
:1002A00001437D4A1160704700217B4A12681100AA
:1002B00031F4605151EAC001774A11607047002162
:1002C000754A1268110031F440410143724A1160CD
:1002D000704770B4002100220023002400256E4ED8
:1002E000366816F00C0631000E00002E04D0042EE5
:1002F00005D0082E06D024E06F4E066023E06F4E36
:10030000066020E0644E366816F470163200624EC5
:10031000366816F480363300920C921C002B04D100
:10032000674E06FB02F606600AE05F4E366816F07E
:100330000F06761C3500614EB6FBF5F65643066097
:1003400001E05D4E0660544E366816F0F00631004E
:1003500009095C4E8E5D34000668E64046604E4EEC
:10036000366816F4E0663100090A564E8E5D340098
:100370004668E6408660484E366816F4605631009E
:10038000C90A504E8E5D34004668E640C660424E53
:10039000366816F440463100890B4B4E8E5D3400B2
:1003A000C668B6FBF4F6066170BC7047C9B2002996
:1003B00005D0464A12680243444B1A6004E0434A9F
:1003C00012688243414B1A607047C9B2002905D0B8
:1003D0003F4A126802433E4B1A6004E03C4A1268EE
:1003E00082433B4B1A607047C9B2002905D0394A95
:1003F00012680243374B1A6004E0364A126882439F
:10040000344B1A607047C9B2002905D0324A1268CD
:100410000243314B1A6004E02F4A126882432E4B8C
:100420001A607047C9B2002905D02C4A12680243ED
:100430002A4B1A6004E0294A12688243274B1A604B
:10044000704710B402000023002400201100C9B23C
:100450004909C9B20B00012B03D10E4909680C00F0
:1004600008E0022B03D1134909680C0002E01C4983
:1004700009680C00D2B212F01F010B002100D94014
:10048000C90702D50121080001E000210800C0B21F
:1004900010BC704700100240041002400000FFF83A
:1004A000FFFFF6FE081002402C100240600042429E
:1004B000F0FFFEFF2010024000127A00001BB70080
:1004C00000093D0000000020100000201410024030
:1004D000181002401C1002400C1002401010024084
:1004E0002410024010B50400DFF85C0384420AD1F6
:1004F00001214FF40060FFF786FF00214FF40060F8
:10050000FFF781FFDDE0B4F1804F08D10121012028
:10051000FFF788FF00210120FFF784FFD1E0DFF81B
:100520002C03844208D101210220FFF77BFF002128
:100530000220FFF777FFC4E0DFF81403844208D1FC
:1005400001210420FFF76EFF00210420FFF76AFF5E
:10055000B7E0DFF80003844208D101210820FFF74B
:1005600061FF00210820FFF75DFFAAE0DFF8E80245
:10057000844208D101211020FFF754FF00211020F0
:10058000FFF750FF9DE0DFF8D402844208D101213B
:100590002020FFF747FF00212020FFF743FF90E0D6
:1005A000DFF8BC0284420AD101214FF40050FFF76A
:1005B0002AFF00214FF40050FFF725FF81E0DFF80C
:1005C000A40284420AD101215FF40020FFF71BFF3F
:1005D00000215FF40020FFF716FF72E0DFF88802C9
:1005E00084420AD101215FF48010FFF70CFF002143
:1005F0005FF48010FFF707FF63E0DFF870028442CA
:100600000AD101215FF40010FFF7FDFE00215FF425
:100610000010FFF7F8FE54E0DFF85402844208D1DE
:1006200001214020FFF7FEFE00214020FFF7FAFEE7
:1006300047E0DFF84002844208D101218020FFF723
:10064000F1FE00218020FFF7EDFE3AE0DFF82802FE
:1006500084420AD101214FF48070FFF7E3FE0021AC
:100660004FF48070FFF7DEFE2BE0DFF810028442CB
:100670000AD101215FF48030FFF7C5FE00215FF44D
:100680008030FFF7C0FE1CE0DFF8F40184420AD19D
:1006900001215FF40030FFF7B6FE00215FF4003067
:1006A000FFF7B1FE0DE0DFF8DC01844209D1012142
:1006B0005FF48020FFF7A7FE00215FF48020FFF7A2
:1006C000A2FE10BD002203881A00DFF87C31984298
:1006D00012D0DFF88C3198420ED0B0F1804F0BD0A1
:1006E000DFF86831984207D0DFF86431984203D0D0
:1006F000DFF86031984204D14FF68F731A404B886F
:100700001A43DFF85431984208D0DFF8503198424C
:1007100004D04FF6FF431A40CB881A4302808B88DF
:1007200083850B880385DFF8203198420FD0DFF8EE
:10073000303198420BD0DFF84431984207D0DFF8CF
:100740004031984203D0DFF83C31984201D10B7A16
:10075000038601238382704770B4002300240022A3
:10076000058C4FF6FE7635400584058C2C00858877
:100770002A00058B2B004FF68F752B404FF6FC752A
:100780002B400D882B434FF6FD752C400D892C43D3
:100790004D882C43DFF8B050A8420FD0DFF8C0508E
:1007A000A8420BD0DFF8D450A84207D0DFF8D050D1
:1007B000A84203D0DFF8CC50A84213D14FF6F7750A
:1007C0002C404D892C434FF6FB752C408D882C43D3
:1007D0004FF6FF652A404FF6FF552A408D892A4380
:1007E000CD892A4382800383CD888586048470BCAA
:1007F00070474FF6FF718180002101800021C18088
:1008000000214180002101727047002101800021F8
:100810004180002181800021C180002101810021CF
:100820004181002181810021C1817047C9B2002925
:1008300004D0028852F00102028004E002884FF6E0
:10084000FE731A4002807047002C014000040040F3
:1008500000080040000C0040001000400014004060
:1008600000340140004C0140005001400054014060
:1008700000180040001C00400020004000400140E3
:10088000004401400048014080B501211C20FFF7D1
:100890009CFD4FF48040ADF8000002208DF802006E
:1008A00010208DF803006946C74800F0ADF94FF4F9
:1008B0008041C54800F046FA0421C44800F03FFAE0
:1008C0000420ADF800006946C04800F09DF90421FD
:1008D000BE4800F034FA4FF40040ADF8000069461D
:1008E000BB4800F091F94FF40041B94800F02AFAF2
:1008F0004FF48050ADF800006946B34800F084F929
:100900004FF48051B04800F01DFAC820ADF8000047
:1009100003208DF8020000208DF803006946AB48E3
:1009200000F072F901BD00B585B001215FF0005003
:10093000FFF75AFD01210520FFF747FD3020ADF8F4
:10094000000000208DF8030003208DF802006946A6
:100950009E4800F059F901A800F059FA00200190D2
:10096000002002900020049001A9002000F036FA37
:1009700001A9102000F032FA0121002000F050FA05
:1009800040F2C961002000F05EFA0121102000F061
:1009900047FA40F2DA71002000F064FA05B000BDB9
:1009A000F8B5040020008B4900F06EFA04D920004D
:1009B000894900F07BFA00D222E00025874E884862
:1009C000210000F085FA0100300000F0EDFA8549C1
:1009D00000F07EFA844900F05BFB050083482900A3
:1009E00000F076FA824900F095FB0700380000F02D
:1009F0000FFC010089B2002000F034FA7D48046049
:100A0000F1BD7D48006830F004007B490860704704
:100A10007948006850F0040077490860704780B555
:100A200040F23461002000F01DFA142000F0DBFCDD
:100A300040F27F61002000F015FA01BD10B5FFF70C
:100A40006FFB5FF48030FFF79FFBFFF7C8FB0400EC
:100A5000E4B2012C26D1102000F024FD022000F089
:100A600015FD0020FFF70CFC0020FFF71DFC002007
:100A7000FFF710FC00210020FFF7E4FB00215FF4EA
:100A80008030FFF7CCFB0120FFF7D7FB3920FFF7C1
:100A9000D8FC0028FAD00220FFF7E3FBFFF7EBFBBE
:100AA0000828FBD110BD00B585B0012144F2080033
:100AB000FFF78BFC01210120FFF787FC8020ADF8B8
:100AC000000003208DF8020004208DF80300694621
:100AD0003D4800F099F84020ADF8000003208DF863
:100AE000020018208DF803006946374800F08CF8A2
:100AF0000121042000F029F95FF47A3001900020F0
:100B0000ADF808000020ADF80A000020ADF80C0098
:100B10000020ADF810000C20ADF80E0001A93748F8
:100B200000F0D2FC0121354800F040FD05B000BDC9
:100B300000B585B001215FF48000FFF755FC01216D
:100B40000820FFF742FC4FF44060ADF8000003209E
:100B50008DF802001C208DF8030069461A4800F049
:100B600053F8274800F048FD01A800F0E1FD0020FF
:100B7000ADF808004BF6FF70ADF80A000020ADF8A4
:100B80000C004FF48060ADF80E004FF48040ADF8DB
:100B900010001C4801900121194800F0D9FD01A95D
:100BA000174800F044FD5FF40031154800F031FEB5
:100BB000002807D00121124800F002FE0021104851
:100BC00000F0FEFD05B000BD000C01400008014032
:100BD000001001400100E64200008C421498B1422E
:100BE0005305833FF9171D3C5C8FA23F00F07F4502
:100BF0003D0A5740000600200C0801400038014023
:100C000000580040801A0600F0B50027002200239B
:100C100000240025002691F803C01CF00F0C674645
:100C200091F803C05FEACC6C03D591F802C05CEA8E
:100C3000070791F800C05FEA0C6C3AD0D0F800C00A
:100C400065465FF0000C6346082B31D25FF0010C63
:100C50001CFA03FC6446B1F800C014EA0C0C6246AE
:100C6000A24223D15FEA830C64465FF00F0C1CFAAA
:100C700004FC6646B54317FA04FC5CEA050591F8E6
:100C800003C0BCF1280F06D15FF0010C1CFA03FC75
:100C9000C0F814C00AE091F803C0BCF1480F05D1B8
:100CA0005FF0010C1CFA03FCC0F810C05B1CCBE722
:100CB0000560B1F800C0BCF1FF0F3FDDD0F804C003
:100CC00065465FF0000C6346082B36D25FF0010CDE
:100CD00013F1080E1CFA0EFC6446B1F800C014EAC9
:100CE0000C0C6246A24226D15FEA830C64465FF098
:100CF0000F0C1CFA04FC6646B54317FA04FC5CEAC8
:100D0000050591F803C0BCF1280F07D15FF0010C75
:100D100013F1080E1CFA0EFCC0F814C091F803C0C1
:100D2000BCF1480F07D15FF0010C13F1080E1CFA5B
:100D30000EFCC0F810C05B1CC6E74560F0BD89B270
:100D40000161704789B241617047F0B4002200230D
:100D500000250024002803D51E4E3668350002E029
:100D60001D4E36683500C0F30346340086B23200AB
:100D700010F44016B6F5401F08D135F07065164ED8
:100D8000366836F07066144F3E6010E0C60206D535
:100D90000326A64033009D4355F0706507E0460DDD
:100DA000F6B2360112FA06F6B54355F07065C9B2CF
:100DB000002905D0460DF6B2360112FA06F6354383
:100DC000002802D5034E356001E0034E3560F0BCCB
:100DD000704700001C0001400400014030B40023B3
:100DE0000022284C2468230040F6FE748440A3436C
:100DF0000C684D682C438D682C43CD682C43220031
:100E000012FA00F423431F4C236030BC70470021CA
:100E1000016000214160002181600021C1607047B4
:100E2000C9B2002907D0174A1268012383401A4328
:100E3000144B1A6006E0134A1268012383409A4358
:100E4000104B1A60704781B0002200920D4A009248
:100E5000009A10F108039A18009289B2009A116062
:100E600001B0704781B000220092064A0092009AB9
:100E700010F114039A18009289B2009A116001B01F
:100E800070470000007400404FF0807C1CEB400F66
:100E900094BF1CEB410F05E040EA010C5FEA4C0CEB
:100EA00001D28142704718BF884270474FF0807C62
:100EB0001CEB400F94BF1CEB410F05E040EA010C16
:100EC0005FEA4C0C01D28842704718BF81427047DC
:100ED000FF2212EAD05C1DBF12EAD153944593421F
:100EE0002BE09C44D30780EA01021A4043EA002029
:100EF00043EA0121A1FB0030410038BF40007CF1F2
:100F00007F010BDBFE294ADA5B0842EAC15153EA52
:100F1000006373F1004C51EB10207047D1F1080CC5
:100F2000DCF120012FDB5B0810FA01F10B4373F1B8
:100F3000004120FA0CF05041704794451CBF02EA72
:100F4000D153934280EA010202F000421DD04000DA
:100F500019D0490017D05BB9634514D00902B1FA22
:100F600081F39940BCEB030CC00140F00040C1E7A5
:100F70000002B0FA80FC10FA0CF0B3EB0C0CC901C3
:100F800041F00041B6E71000704740000AD0490028
:100F900008D010F1807F94BF11F1807F02E042F011
:100FA000FF407047D043704790EA010F44BF81F083
:100FB000004100F075B800BF431A4FF000423EBF39
:100FC0005340C01AC91800BFD3095FEAD05C13EBC5
:100FD000400F34BFB3EB410F40E07CEBD1530CD357
:100FE00042EA012122D8D1EB402009D3400A28BF90
:100FF0005FEA500140EBCC507047401A15D04002D8
:10100000B0FA80F2521C9040400A4FEA3C23B3EB06
:10101000026384BF00EB730007E040F400001A167F
:10102000DB07C2F10102D04018437047182BFCDCEB
:1010300031FA03F202FA03F3591A38BF42F00102FF
:10104000D2EB40203CBF4000ACF1010C5FEACC5C2D
:10105000C20572F100414CEB5020704713EB400F7A
:101060000FD24B0009D0ACEBD153022B03DB49026A
:10107000172BDDDD70479143401A4300D5D1002086
:10108000704713EB410FD0D36FF0000070472C1066
:1010900090EA010F44BF81F00041FFF78DBF00BF10
:1010A000421A3CBF801A89184FF0004CC0F3C75257
:1010B000FF2A24D0C1F3C75313B3D21AD2F11903B4
:1010C00027DD4CEA01214CFA03F321EA0303D14066
:1010D000C20D4CEA0020401834BF20EA0C004CEA54
:1010E0005000D20553EA006373EB0C0C52EB102056
:1010F000420012F1807F38BF7047C00DC0057047B5
:10110000490212BF9A4200EB5120F8E7D2F11703CF
:10111000D9D5704710B5FF2313EAD0541DBF13EA89
:10112000D1529C429A4239E0A41ADA0780EA0103BC
:10113000134042EA012142EA0020421A3CBF641EE9
:1011400001EB4202090AB2FBF1FE01FB1E22120270
:10115000B2FBF1F001FB10226EF30F201202B2FB82
:10116000F1FE4EEA00207F3406DDFE2C24DA53EA3D
:10117000500050EBC45010BDD4F1020401FB1E22FC
:1011800040F08071192C1DDC21FA04F0C4F1200418
:10119000A140114371F10042584110BD9C421ABF59
:1011A00003EAD1529A420FE080EA010E0EF00043AA
:1011B000400004D0490016D143F0FF4010BD490063
:1011C00008BFD343180010BD9C4205D1D21AF7D0F6
:1011D00001F00041484010BD4A0212BF0846484095
:1011E00000F0004010BD4AB90902B1FA81F2914005
:1011F00044B1A418C00140F000409EE7C90141F08D
:10120000004152420002B0FA80F4A040141B94E75F
:101210004100090E7F3915D4D1F11F0114D44000CB
:1012200007D2C00140F00040C84048BF6FF0004006
:101230007047C00140F00040C8404CBF4FF0004034
:10124000404270470020704700424FF0004058BFB6
:10125000C043704710B440B2002808D50A017E4B45
:1012600040B210F00F04E31803F8042C03E00A0165
:101270007A4B40B2C25410BC704710B50400601ED7
:10128000B0F1807F01D301200EE0601E7449086038
:101290000F215FF0FF30FFF7DDFF0020714908608C
:1012A000072071490860002010BD10B586B00024E9
:1012B000FFF7C4FB6846FFF70CF800984FF47A710B
:1012C000B0FBF1F0FFF7D9FF002800D0FEE7FFF7F1
:1012D0002AFBFFF7D9FAFFF7E6FB142000F083F8AA
:1012E000FFF726FCC82000F07EF8FFF78AFBFFF727
:1012F00096FB322000F077F800F0E1FA642000F06D
:1013000072F800F056FB00F0DAFB00F092FC4FF4AC
:10131000FA6000F068F82021544800F05DF90028D8
:10132000F9D0524800F054F904002000C0B200F097
:1013300001F8F0E710B504004D480078002809D006
:10134000E4B2200000F0B0FCFFF72AFB002048497F
:10135000087047E0E4B22000312836D041282BD075
:1013600042282CD043282DD044280DD0452808D021
:10137000482819D04C281BD04D2808D053280FD00E
:1013800026E0FFF73EFB23E0FFF742FB20E000F002
:1013900050FC384800780028FBD000F052F817E0E5
:1013A0003548FFF7FDFA13E03448FFF7F9FA0FE08C
:1013B0003348FFF7F5FA0BE000F0FBFA08E000F025
:1013C00003FB05E000F00DFB02E000F015FBFFE77A
:1013D000E4B2562C03D101202549087002E0002018
:1013E0002349087010BD10B586B0040001A8FEF7AF
:1013F00070FF029842F21071B0FBF1F06043009070
:101400000098002803D00098401E0090F8E706B02E
:1014100010BD70B504000D0000200600B6B2ADB2DC
:10142000AE420DD28021114800F0D6F80028F9D044
:10143000B6B2315D89B20D4800F0C6F8761CEDE712
:1014400070BD80B504210F48FFF7E3FF4FF47A71B8
:101450000D48FFF7DEFF01BD18ED00E000E400E0FD
:1014600014E000E018E000E010E000E00038014087
:10147000090600200A0600200000E6423333C54278
:101480003333A142EC240008180200200021DFF8C9
:1014900034201268110011F038010143DFF82420D4
:1014A00011607047DFF81C10096831F01001DFF897
:1014B00014201160DFF80C1009680143DFF80420E4
:1014C00011607047002002402DE9F04786B004000B
:1014D0000D00002600275FF000085FF000095FF0B4
:1014E000000AA8890028A246208A06004CF6FF7050
:1014F0000640E88806432682A08906004EF6F310CF
:101500000640A88829890843698908430643A681BB
:10151000A08A06004FF6FF400640A8890643A6822F
:101520006846FEF7D6FE2048824502D103980700A0
:1015300001E002980700A089000408D5192000FBEB
:1015400007F029684900B0FBF1F0804607E0192058
:1015500000FB07F029688900B0FBF1F080466420A9
:10156000B8FBF0F0000106003009642101FB108097
:101570008146A089000409D55FEAC90032306421A0
:10158000B0FBF1F010F00700064308E05FEA091035
:1015900032306421B0FBF1F010F00F0006432681D9
:1015A00006B0BDE8F087000000380140C9B200294C
:1015B00004D0828952F40052828104E082894DF67F
:1015C000FF731A4082817047CA05D20D828070472E
:1015D0008088C005C00D70470200002089B2B1F5B7
:1015E000007F13880B4202D00123180001E0002382
:1015F0001800C0B270473C1010B50400484884423F
:101600000AD101215FF40010FEF70CFF00215FF406
:101610000010FEF707FF09E001215FF48000FEF7EC
:1016200001FF00215FF48000FEF7FCFE10BD2DE9F4
:10163000F04385B004000D005FF000090026042788
:10164000DFF8E080A08881464FF6C07010EA0909F3
:101650006846FEF73EFE029880463348B8FBF0F03D
:10166000060056EA0909A4F8049020884FF6FE7196
:10167000084020800020814628682C4988420ED2EC
:1016800028684000B8FBF0F00700BFB2042F01DA71
:101690000420070057EA0909701C208426E0E88826
:1016A0004BF6FF71884206D1286803214843B8FBF6
:1016B000F0F0070007E0286819214843B8FBF0F074
:1016C000070057F48047380501D157F0010757F458
:1016D000004050EA0909B6B24FF4967000FB06F0DC
:1016E0004FF47A7190FBF1F0401C2084A4F81C9018
:1016F000208850F001002080208881464FF6F53088
:1017000010EA0909A8886989084350EA0909A4F878
:101710000090A88929890843208105B0BDE8F0839D
:101720000054004000127A0040420F00A1860100E0
:1017300041F288310160002181804BF6FF71C18048
:1017400000210181002141814FF480418181704756
:10175000C9B2002904D0028852F00102028004E0DC
:1017600002884FF6FE731A4002807047C9B2002902
:1017700004D0028852F48072028004E002884FF69E
:10178000FF631A4002807047C9B2002904D0028862
:1017900052F40072028004E002884FF6FF531A40B0
:1017A00002807047C9B201827047D2B2002A02D0CB
:1017B00051F0010101E011F0FE01C9B20182704750
:1017C000C9B2002904D0028852F40042028003E02A
:1017D00002885204520C0280704770B40200002349
:1017E000002400250020968A3400168B35002D0435
:1017F00055EA04063602360A330011EA03068E4221
:1018000002D10126300001E000263000C0B270BCD9
:10181000704782B002000020002301930023009350
:1018200000920B0F01930902090A019B002B03D0C0
:10183000009B1433009303E0090C009B18330093C2
:10184000009B1B680B4202D00123180001E000231B
:101850001800C0B202B0704780B50221804800F085
:10186000A5FA01BD80B502217E4800F09FFA01BDB6
:1018700080B502217C4800F099FA01BD80B50221B3
:101880007A4800F093FA01BDF8B504000D00160087
:10189000C021002000F047FA2000C0B200F02FFA6B
:1018A00000200700BFB2B6B2B74205D2BFB2785D22
:1018B00000F025FA7F1CF5E700F02FFAF1BD80B5A6
:1018C000FFF7D0FFFFF7D4FF3321694800F06EFA2D
:1018D000FFF7D4FFFFF7C0FF01BD2DE9F04F85B042
:1018E00004000D0016001F005FF008085FF00009FB
:1018F000EB464A464146584600F06EFA0296802072
:1019000000FB05F0B0FBF6F106FB11000390802010
:1019100000FB04F08246802000FB05F0B0FBF6F0EF
:1019200010EB0A0ABAF5007A0298000A8DF8000056
:1019300002988DF801005FEA1A4010F003008DF85C
:1019400002005FEA1A208DF8030050468DF804006B
:101950000298000B10F0F0000399090C11F00F0130
:1019600008188DF805000398000A8DF80600039802
:101970008DF80700082269463800C0B2FFF784FFDF
:1019800005B0BDE8F08FF8B504000D0016001F008B
:101990001A233A0029002000FFF79FFF22233A0074
:1019A00031002000FFF799FFFFF768FFFFF754FFB2
:1019B000F1BD80B500F040F840F2E2430122002181
:1019C0001A20FFF7E0FF01BD80B500F035F840F2C6
:1019D000E24340F221324FF448711E20FFF7D3FF5B
:1019E00001BD80B500F015F840F2E2430422002169
:1019F0001020FFF7C8FF01BD80B500F01DF840F2D0
:101A0000E24340F2B2424FF496611E20FFF7BBFF63
:101A100001BD80B517480088ADF80200164800885F
:101A2000ADF8000002210DF1020000F0BFF9022123
:101A3000684600F0BBF901BD80B510480088ADF8DC
:101A400002000F480088ADF8000002210DF10200ED
:101A500000F0ACF90221684600F0A8F901BD0000D1
:101A6000AE240008A2240008BC250008BE250008FA
:101A7000D42300088E100008F6150008C61C0008C4
:101A80003E1E0008012110F01F0291407B4A40B227
:101A9000430942F82310704710B440B2002808D51B
:101AA0000A01774B40B210F00F04E31803F8042C3E
:101AB00003E00A01734B40B2C25410BC704780B5BA
:101AC00000F005F800F035F800F07AF801BD00B537
:101AD00087B001214FF40060FEF777FC6A48FEF7FB
:101AE00001FD03A8FEF791FE6846FEF782FE052081
:101AF000ADF800004F20ADF804000020ADF806005E
:101B00000020ADF8020069465F48FEF7DBFD60206B
:101B1000ADF80C000020ADF80E002820ADF8120042
:101B20000220ADF8140003A95748FEF715FE07B0D0
:101B300000BD00B585B00020FEF7C1FB012140F2D9
:101B40000120FEF742FC0020009001208DF80400E7
:101B500000208DF805000020029000200390022054
:101B60008DF810006946494800F06AF90223012205
:101B70000621464800F0C8F9022302220721434803
:101B800000F0C2F90121414800F035FA01213F4837
:101B900000F08BF901213D4800F07AF93B4800F054
:101BA00091F93A4800F093F90028FAD1374800F04B
:101BB0009AF9364800F09CF90028FAD105B000BD2A
:101BC00000B58BB001210120FEF7F0FB304800F09A
:101BD00023FA3048009030480190002002904FF4E2
:101BE000FA70039000200490802005904FF48070DC
:101BF00006904FF480600790002008904FF440500A
:101C0000099000200A906946214800F08AFA0121D3
:101C10001F4800F0A5FA012202211D4800F0AEFA8B
:101C20000F210B20FFF738FF0B20FFF72BFF0BB026
:101C300000BD80B500211448FEF7F8FD00211348CF
:101C400000F026F90021124800F08AFA12481349E0
:101C500008604FF4FA701249086001210C4800F046
:101C60007FFA00200F4908700121084800F010F9A0
:101C700001210548FEF7DAFD01BD000000E100E0AA
:101C800018ED00E000E400E0002C014000240140D9
:101C9000080002404C2401401802002014000240B9
:101CA0000C0002400A060020002800BF0AD0B0FA4B
:101CB00080F18840D1F19D01C905020672F1004210
:101CC00041EB102070472C0C70B504000D0000F0A3
:101CD000D2FA060029002000FFF77FFD002804D17A
:101CE00000F0C9FA801B0528F4D300F0C4FA801B69
:101CF000052802D3012027490870012070BD10B5C6
:101D000004002100C9B22448FFF74CFD23492248B2
:101D1000FFF7DAFF0028F9D010BD80B501211E4879
:101D2000FFF732FD01BD70B504000D000020194918
:101D3000087000F0A0FA06005FF400311648FFF7C3
:101D400068FD002804D000F096FA801B0528F3D324
:101D500001211148FFF70AFD11490F48FFF7B4FFB1
:101D60000028F9D02200D2B22900C9B20A48FFF7F0
:101D70001CFDE4B2002C06D10A490748FFF7A4FF76
:101D8000002806D1F8E708490348FFF79DFF00281F
:101D9000F9D070BD080600200058004084000700FC
:101DA00001000300820007000200030070B5040078
:101DB0000D00C0210020FFF7B6FF00200600B6B2DC
:101DC000ADB2AE4205D2B6B2305DFFF798FF761CD9
:101DD000F5E7FFF7A2FF70BD62F30F2262F31F4227
:101DE000401810F0030308D0C91A1FD3DB0748BFFF
:101DF00000F8012D28BF20F8022D130030B414463E
:101E00001546103928BF20E93C00FAD8490728BFF9
:101E100020E90C0048BF40F8042D890028BF20F8B5
:101E2000022D48BF00F8012D30BC7047C91818BFFB
:101E300000F8012DCB0728BF00F8012D70473C0C9E
:101E400030B40023002244682300DFF8C44123405B
:101E50000C680D7954EA0524234343608468230009
:101E6000DFF8B0412340CC688D682C434D7954EAAB
:101E7000450423438360C46A230033F470030C7C5D
:101E8000641E2243D2B253EA0253C36230BC70478D
:101E9000C9B2002904D0826852F00102826003E0D6
:101EA00082685208520082607047C9B2002904D08B
:101EB000826852F48072826003E0826832F4807239
:101EC00082607047816851F00801816070470100AD
:101ED00000208A68120702D50122100001E00022CA
:101EE0001000C0B27047816851F0040181607047F2
:101EF000010000208A68520702D50122100001E08B
:101F000000221000C0B27047F0B400250024C9B20E
:101F10000A2916DBC66835000726B1F10A075FF00B
:101F2000030C0CFB07F7BE403400A543DBB2B1F154
:101F30000A0603277E4313FA06F634002543C560DC
:101F400011E0066935000726032707FB01F7BE40AD
:101F50003400A543DBB2032606FB01F613FA06F6AE
:101F6000340025430561D2B2072A14DA466B3500E6
:101F70001F26571E5FF0050C0CFB07F7BE40340010
:101F8000A543C9B2561E05277E4311FA06F6340052
:101F9000254345632DE0D2B20D2A14DA066B3500D5
:101FA0001F26D71F5FF0050C0CFB07F7BE4034005F
:101FB000A543C9B2D61F05277E4311FA06F63400A1
:101FC0002543056315E0C66A35001F26B2F10D07EB
:101FD0005FF0050C0CFB07F7BE403400A543C9B207
:101FE000B2F10D0605277E4311FA06F634002543AB
:101FF000C562F0BC7047C9B2002904D0826852F4AF
:102000008012826003E0826832F48012826070473E
:10201000FFFEF0FFFDF7F1FF01684FF6FE72114081
:1020200001600021016000214160002181600021E8
:10203000C1606649884206D16549096851F00F01BF
:10204000634A11606CE06349884206D160490968BF
:1020500051F0F0015E4A116062E05F49884206D1AA
:102060005B49096851F47061594A116058E05B4955
:10207000884206D15649096851F47041544A1160AA
:102080004EE05749884206D15149096851F4702100
:102090004F4A116044E05349884206D14C490968CF
:1020A00051F470014A4A11603AE04F49884206D122
:1020B0004749096851F07061454A116030E04B4969
:1020C000884206D14A49096851F00F01484A116017
:1020D00026E04849884206D14549096851F0F00197
:1020E000434A11601CE04449884206D140490968CE
:1020F00051F470613E4A116012E04049884206D1B5
:102100003B49096851F47041394A116008E03C4983
:10211000884205D13649096851F47021344A11606A
:10212000704710B4002203681A006FF30E128B6818
:102130000C6A23430C6923434C6923438C69234372
:10214000CC6923434C6A23438C6A23431A430260BD
:10215000CB6843600B6883604B68C36010BC7047FA
:10216000C9B2002904D0026852F00102026004E002
:1021700002684FF6FE731A4002607047D2B2002A1E
:1021800003D003680B43036002E003688B430360E2
:102190007047010000200022CB0003D5194B1B68BB
:1021A0001A0002E0184B1B681A000A4202D00123F1
:1021B000180001E000231800C0B27047C10002D52A
:1021C0000B49086001E002490860704708000240BE
:1021D000040002401C000240300002404400024063
:1021E000580002406C000240800002400804024097
:1021F000040402401C040240300402404404024033
:102200005804024000040240000002407047FEE70C
:10221000FEE7FEE7FEE77047704770471748006823
:10222000401C16490860704780B50420FFF7B1FFD5
:10223000002803D00420FFF7C1FF13E00220FFF7BE
:10224000A8FF002806D00220FFF7B8FF01200C49A4
:10225000087007E00820FFF79CFF002802D0082044
:10226000FFF7ACFF01BD074800884FF6FE7108403C
:102270000449088070470148006870470406002040
:102280000A0600201000004080B53B48006850F06E
:102290000100394908603948006839490840374920
:1022A00008603548006837490840334908603248BB
:1022B000006830F48020304908603048006830F40D
:1022C000FE002E4908605FF41F002F4908600020BF
:1022D0002E49086000F005F85FF000602C490860A6
:1022E00001BD80B500F001F801BD82B00020019071
:1022F000002000902048006850F480301E4908609B
:102300001D48006810F4003000900198401C0190B6
:102310000098002803D10198B0F5A06FF0D11648BD
:102320000068800302D50120009001E000200090A9
:10233000009801281DD111480068104908600F4815
:1023400000680E4908600D4800680C4908600B4899
:10235000006880088000094908600848006850F05B
:102360000100064908600548006810F00C000428C8
:10237000F9D102B070470000001002400410024082
:102380000000FFF8FFFFF6FE081002402C1002408C
:1023900008ED00E019E050F8041BCB0744BFA9F199
:1023A00001035918121F0023042A41F8043BF9D2F3
:1023B0005FEA827C0B4604D54FF0000CA1F800C008
:1023C0009B1CD10744BF0021197050F8042B002A30
:1023D000E1D170470F004F806F8080808080AA001D
:1023E0000019000AF500001304E2000AF5000336A4
:1023F00000010C00000000000000000000000000D0
:1024000000010C000000000010B450F8041B79B16A
:102410000268436812180830DC0744BFA9F10104C0
:10242000E31852F8044B43F8044B091FF9D1ECE7C9
:1024300010BC704710B5074979441831064C7C44EC
:10244000163404E00A68081D511888470146A14265
:10245000F8D110BD080000002800000039FFFFFF80
:10246000F403000018020020000000009DFFFFFFA1
:1024700014000000480000000000002000000000E0
:1024800000F00BF8002801D0FFF7D4FF0020C04671
:10249000C046FEF70AFF00F002F80120704700F086
:1024A00001B803FF0746384600F002F8FBE703FADD
:1024B0002021090326311820ABBEF9E700000000F7
:1024C00001020304010203040607080902040608C6
:1024D000014880470148004789220008E12400089C
:1024E000C046C046C046C046FFF7CAFF414243440B
:1024F00000000000FFF78ABEFFF789BEFFF788BE25
:10250000FFF787BEFFF786BEFFF785BEFFF784BEE5
:10251000FFF783BEFFF782BEFFF7FEBFFFF7FEBFE8
:10252000FFF7FEBFFFF7FEBFFFF7FEBFFFF7FEBFDF
:10253000FFF7FEBFFFF7FEBFFFF7FEBFFFF7FEBFCF
:10254000FFF7FEBFFFF770BEFFF7FEBFFFF7FEBF4E
:10255000FFF7FEBFFFF7FEBFFFF7FEBFFFF7FEBFAF
:10256000FFF7FEBFFFF7FEBFFFF7FEBFFFF7FEBF9F
:10257000FFF7FEBFFFF7FEBFFFF775BEFFF7FEBF19
:10258000FFF7FEBFFFF7FEBFFFF7FEBFFFF7FEBF7F
:10259000FFF7FEBFFFF7FEBFFFF7FEBFFFF7FEBF6F
:1025A000FFF7FEBFFFF7FEBFFFF7FEBFFFF7FEBF5F
:1025B000FFF7FEBFFFF7FEBFFFF7FEBFBBC0B1AC2A
:04000005080024E1EA
:00000001FF
