:020000040800F2
:1000000020020020A95100084D4900084F4900086E
:1000100051490008534900085549000800000000F4
:100020000000000000000000000000005749000828
:1000300059490008000000005B4900085D490008BC
:100040000152000805520008095200080D5200082C
:100050001152000815520008195200081D520008DC
:100060002152000825520008295200086949000859
:100070003152000835520008395200083D5200083C
:100080004152000845520008495200080000000093
:100090000000000000000000000000004D520008B9
:1000A0005152000855520008595200085D5200088C
:1000B000D349000865520008695200086D520008D3
:1000C0007152000875520008795200087D520008EC
:1000D00081520008A7490008895200088D52000883
:1000E0009152000895520008995200080000000043
:1000F0000000000000000000000000000000000000
:1001000000000000000000000000000000000000EF
:1001100000000000000000009D520008A1520008ED
:100120002DE9F04FA1B08046002017461D460291F0
:100130000B900DF1440A6FF000490AE017F8011B1B
:100140000298C0470028029000F0A1820B98401C42
:100150000B90387808B90B989BE22528EED1002047
:10016000059006900790089009900A9001E040F0F1
:10017000010017F8011F2029F9D023290DD02B29C0
:1001800004D02D2906D030290AD00CE040F002001E
:1001900080B2EEE740F00400FAE740F00800F7E72D
:1001A00040F01000F4E72A290ED12968296051F89F
:1001B000042B2960002A0D9204D5514240F004001E
:1001C0000D9180B27F1C11E000210D9109E00D9985
:1001D000494505D001EB810302EB430130390D9114
:1001E0007F1C3A78A2F130010A29F0D339782E2900
:1001F00003D04FF0FF310C911DE017F8011F2A29A1
:1002000007D1296829607F1C51F8042B29600C92C2
:1002100011E000210C9109E00C99494505D001EB52
:10022000810302EB430130390C917F1C3A78A2F133
:1002300030010A29F0D3ADF838000FF6C420397820
:1002400000F06CFD08B117F8010B8DF83A009DF82D
:100250003A00682802BF39786829622005D06C28E6
:1002600004BF38786C2803D171208DF83A007F1CC8
:1002700011A8049017F8014BB4F1250023D02038C1
:10028000022840F2BB80133800F0E0800B3800F009
:100290004A81401E00F02381401E022840F2AE80B9
:1002A000001F00F01C81401F79D0401E00F0CE805E
:1002B000401E24D0C01E0BD0801E00F0C780C01E80
:1002C00000F0C48039E125208DF8440001203DE193
:1002D0002868286050F8046B286003960C9C002C5A
:1002E00004D5304600F026FD044606E022460021F3
:1002F000304600F03BFD00B1841B069427E12968DD
:1003000029603C2451F8040B29600021CDE900014B
:1003100011A80390DDE90001049E11B908B90C9AF7
:10032000B2B10206120FA0EB02123032D2B2631E3B
:100330003A2AA8BF273200099A5540EA01700909F4
:1003400008BF00281C4603D0039AA3199A42E8D399
:10035000A0190390C4F13C010C980691814209DA7E
:10036000401A08904FF6EF71BDF838000840ADF81C
:100370003800ECE0002840F1EA809DF8380000F0F9
:100380001400102840F0E3800D98059A801A089A0E
:10039000801A441A012CC0F2DA800894D7E09DF844
:1003A0003A0062281AD0682806D06A280CD06C2837
:1003B0001CD0712808D019E02868286050F8041B68
:1003C00028600B980880C2E02868286050F8042B49
:1003D00028600B98C117C2E90001B8E028682860BE
:1003E00050F8041B28600B980870B0E0286828605B
:1003F00050F8041B28600B980860A8E02868C01D0E
:1004000020F007022A60D2E9000108322A60CDE913
:100410000001002902D505982D210AE0BDF8380019
:10042000810702D505982B2103E0C00705D5059863
:10043000202100F80A10401C059011A80599081801
:1004400003902146684600F0E1F980E09DF83A000B
:100450006C280DD0712818BF6A2809D12868C01DE2
:1004600020F007022A60D2E9000108322A6005E084
:100470002968296051F8040B29600021CDE90001A9
:100480009DF83A00682803D1DDE9000180B20BE055
:10049000622803D1DDE90001C0B205E0742818BF6D
:1004A0007A2804D1DDE900010021CDE900019DF8A1
:1004B000380000072ED5DDE90001002908BF00281B
:1004C00028D044F02000782824D10598302100F865
:1004D0000A10401C411C059100F80A401AE09DF8E2
:1004E0003A00294600F0D8F8CDE90001002902DAE7
:1004F00005982D210AE0BDF83800810702D505983E
:100500002B2103E0C00705D50598202100F80A102B
:10051000401C059011A805990818039021466846CB
:1005200000F0F1F813E0012005902868286050F8E9
:10053000041B28608DF8441009E025208DF8440044
:10054000012005901CB18AF80140022005900D9809
:100550000599401A0899401A0699401A0999401AB3
:100560000799401A0A99441A9DF83800400710D498
:100570002020012C8DF840000BDB2646012310AA19
:100580006946404600F0A5FB002840F08080761EBA
:10059000F4D1DDF814B0BBF1000F11AE0CD016F899
:1005A000011B0298C0470028029070D00B98401C95
:1005B000BBF1010B0B90F2D130208DF84000089E6A
:1005C000012E09DB012310AA6946404600F081FB99
:1005D00000285CD1761EF5D1DDF818B0039EBBF182
:1005E000000F0CD016F8011B0298C047002802909B
:1005F0004DD00B98401CBBF1010B0B90F2D1302079
:100600008DF84000099E012E09DB012310AA6946DE
:10061000404600F05EFB002839D1761EF5D10398E4
:100620000699DDF81CB00E18BBF1000F0BD016F8C0
:10063000011B0298C047029048B30B98401CBBF1C5
:10064000010B0B90F3D130208DF840000A9E012E53
:1006500008DB012310AA6946404600F03AFBB0B916
:10066000761EF6D19DF8380040077FF572AD202048
:10067000012C8DF84000FFF66CAD012310AA6946ED
:10068000404600F026FB10B9641EF6D161E54FF03C
:10069000FF3021B0BDE8F08F622826D068281DD039
:1006A0006A2808D06C2827D0712804D0742823D059
:1006B0007A280CD020E00868C01D20F007000860F0
:1006C000D0E90023083008601946104670470A68D0
:1006D0000A6052F8040B0A60002170470A680A6039
:1006E00052F8040B0A6000B20BE00A680A6052F884
:1006F000040B0A6040B204E00A680A6052F8040B76
:100700000A60C11770472DE9FA4E05460A462F695F
:100710006F2A08BF082405D041F02000782814BFB4
:100720000A2410243C26D5E90001642A18BF692A4E
:1007300081468A4605D1002903DAD9F100096AEB1E
:100740004A0ABAF1000F08BFB9F1000F0CD1286BAB
:1007500050B9082C36D195F83800000732D5302032
:100760003B2687F83B002DE0E317484651462246DA
:1007700000F028FBA4FB0023A9EB02023032D2B226
:10078000A6F1010B3A2A5E4603DB9DF80030513B8F
:100790009A180BF8072081465FEA010A08BFB9F1F1
:1007A000000F03D0E868F1198842DDD3082C09D185
:1007B00095F83800000705D5F05D302802D0761E88
:1007C0003020F055C6F13C00A861F119E960296BB1
:1007D000884208DA081A28624FF6EF71288F08401D
:1007E0002887BDE8F38E00290ED595F8381001F062
:1007F0001401102908D1696B6A69891A2A6A891A51
:100800000E1A012EA8BF2E62BDE8F38E2DE9F34F1C
:100810008BB0D0E90089006B002801AF48BF0620EB
:1008200005D404BF41F02000672802D101200B99B4
:10083000086340F2FF720B984168C1F30A5090427E
:1008400020D1080302BF0B98006800280AD10B9939
:10085000032088619DF8300061381A2858D30FF2C0
:10086000B44109E00B99032088619DF8300061389C
:100870001A284AD30FF294410B98C068032200F063
:1008800019FB00E1012807DA0B9800F04EFB012864
:1008900002DB00230026EDE00B9ADFF854B152682A
:1008A00040F2FE3161F31E520B994A6040F2FE3174
:1008B000461A404649460022002300F057FB38BF45
:1008C00089F0004936B247F297507043494990FB8E
:1008D000F1F636B2C6F10707012F92461BDBF80787
:1008E00007D552465B464046494600F057FB8046D6
:1008F00089465046594652465B467F1000F04EFBF3
:10090000002F82468B46EAD126E00FF2FC31B3E796
:100910000FF2FC31B0E77F420024374D12E0F807B8
:1009200007D552465B462046294600F037FB044671
:100930000D465046594652465B4600F02FFB7F104D
:1009400082468B46002FEAD14046494622462B4636
:1009500000F0F6FB804689469DF83000DFF89CB039
:1009600040F02005662D0CBF06F10A0006200B9909
:10097000096B4718142FA8BF132730208DF80400E7
:100980000DF10504012F3BDB4046494600F01AFDFE
:10099000014604F1080204234FF00A0CB1FBFCFCF1
:1009A0000CEB8C04A1EB4401303102F8011C0A214C
:1009B000BCFBF1FE0EEB8E04ACEB440430345B1E4A
:1009C000714602F8024DE7D1083F012F02F10804F9
:1009D000D8DB00F017FD02460B464046494600F0C2
:1009E0001FFD00225B4600F0D9FA80468946CBE71E
:1009F00000002440A08601000000F03F84D797410A
:100A00000DF10500201A0DF1050702E0401E761ECB
:100A10007F1C39783029F9D0662D02D136B2711C8D
:100A200003E0652D0CBF012100210B9A126B8B187E
:100A30001BB29842B8BF03461BB219001AD48142B8
:100A400004DAC85D3528A8BF392000DA3020CA1979
:100A5000521E00E05B1E12F80149491E8442F9D083
:100A6000392802D1C85D401CC855002902D57F1E17
:100A70005B1C761C36B29DF830100B9800961BB2AA
:100A80003A4600F003F80DB0BDE8F08F2DE9F043D1
:100A9000054685B01E46D5F83080012E894617469A
:100AA00002DA01260FF2702749F02000BDF930402C
:100AB000662808BF641C15D0672840F0938014F1A5
:100AC000040F7CDB44457ADA95F83800641C000793
:100AD00002D44645B8BFB04624B2B8EB040848BFBC
:100AE0004FF0000824B2E868A969012C25DA4A1CF5
:100AF00030230B54B8F1010F03DA95F838100907C9
:100B000002D52E211154521CAA6118EB040FB8BF54
:100B1000C8F1000424B26142A0446962B045B8BF84
:100B20004646AB6936B2EE6132463946181800F0D7
:100B3000C1F9A8EB0600A862B4E00818A64218DACA
:100B40003246394600F0B6F9A9697118A01BB8F110
:100B5000010FA961686203DA95F83800000705D52E
:100B6000EA682E208854E869401CE861C5F82880AE
:100B700098E02246394600F09DF9A8692018361BF6
:100B8000B8F1010F03DA95F83810090703D5EA68C0
:100B90002E218154401C36B2A861B045B8BF4646EC
:100BA000E868AB6936B23246E119181800F082F9EC
:100BB000A8693018A861A8EB0600686272E0464593
:100BC00004DA95F83810090758BFB046B8F10108A3
:100BD00048BF4FF00008B9F1670F0CBF4FF065092F
:100BE0004FF04509A969E8684A1CAA61B8F1010FEC
:100BF00017F8013B0B5403DA95F83810090717D59D
:100C0000531CAB612E211154B8F1010F10DB761E7D
:100C100036B2B045B8BF464636B2324639461818E5
:100C200000F048F9A8693018A861A8EB06006862CE
:100C3000E868A9690918200081F8009003D42B20E6
:100C400048708F1C03E02D224A708F1C64420026DE
:100C50000DF1080808E00A22684600F0A1FC01989E
:100C600008F8010B761C009C21B20129F3DA022E50
:100C700006DA49F02000652804BF302007F8010B90
:100C80004EB9302007F8010B07E0761E02A8305C51
:100C9000303007F8010B012EF7DAE868A969081867
:100CA000381AE86195F8380000F0140010280DD1CA
:100CB0006869A9690818696A0818E9690818A96AB9
:100CC0000818696B8842BCBF081A286205B0BDE8E5
:100CD000F083F8B504460D4616461F46002077B14E
:100CE00016F8011BA868A047A86030B1E86A401C4C
:100CF000E86200207F1EF3D1F2BD4FF0FF30F2BD5D
:100D0000686A6C747A4C00006E616E004E414E0051
:100D1000696E6600494E4600300003FF0278C9B292
:100D20008A421AB11CBF10F8012FF9E718BF002042
:100D3000704703FA00F10103810704D010F8011B8A
:100D400089B18107FAD10268B2F10131914311F002
:100D5000803F04BF50F8042FF6E710F8011B11B1D3
:100D600010F8011BFBE7C01A7047BBC0C9B283076C
:100D700006D0521E22D310F8013B9942F7D11FE052
:100D8000083A13D302F1040241EA012141EA014188
:100D900050F8043B121F21BF4B40A3F1013C2CEA49
:100DA000030C1CF0803FF3D0C9B2001F083210F8CA
:100DB000013B521E28BF91EA030FF8D818BF01204B
:100DC000401E70471B4213D1094236D12AB18446D6
:100DD000B0FBF2F002FB10C2704700F0E9BBFCD39D
:100DE0000022002370470B00020000210020704702
:100DF000904271EB030CF6D370B5B1FA81F4B3FAFB
:100E000083F52C1BA340C4F1200532FA05F63343C9
:100E1000A2405FF00046E64002E05B085FEA320273
:100E2000841A71EB030524BF204629467641F4D38A
:100E300002000B003000002170BD012ACFD970B52F
:100E4000140C20D0B1FA81F4B2FA82F5C4F1200476
:100E50006419B4F12006D6D3B2405FF00044F440E8
:100E6000002502E052085FEA3303C61A71EB020E56
:100E700024BF3046714664416D41F3D302000B003C
:100E80002000290070BD0C46B1FBF2F102FB1145B8
:100E90002D0445EA1045B5FBF2F402FB145580B26F
:100EA00040EA0545B5FBF2F002FB105240EA04406F
:100EB00070BDB1AC62B38B0708D0521E11F8013B74
:100EC00000F8013B00F024808B07F6D1830740F047
:100ED000208000BF103A07D330B4B1E83810103A80
:100EE000A0E83810F9D230BC530724BFB1E808108D
:100EF000A0E8081044BF51F8043B40F8043BD20777
:100F000024BF31F8022B20F8022B44BF0B7803706A
:100F10007047083A07D3B1E80810083A40F8043B94
:100F200040F804CBF7D25307E4E730B4436803F04A
:100F3000004201211B031B0B436004BF0368002B0D
:100F400008D10DE00368DD0F45EA440444605B000E
:100F50000360491E4468E302F4D523031B0B43607E
:100F600043681A434260084630BC70474FF4001C87
:100F70001CEB410F94BF1CEB430F09E041EA030C4B
:100F800050EA4C0C52EA0C0C03D2994208BF904232
:100F9000704714BF8B42824270470000B0B581EAAF
:100FA000030C0CF0004C40F2FF7515EA11541DBF04
:100FB00015EA1357AC42AF4239E0E41923EA45532E
:100FC00043F48013C90241F0004141EA505EC70278
:100FD0001100A7FB020200284FF00000EEFB0120E9
:100FE0004FF00001E3FB072118BF42F00102401857
:100FF00000214941E3FB0E01A4F580640F0302D2F6
:1010000052004041494154F101046CDD470872F13E
:10101000004250F1000051EB0451A1F580115CBF7A
:1010200041EA0C01B0BD4CEA05510020B0BD05EA13
:101030001357AC4214BFAF4241E050EA410E1CBF0F
:1010400052EA430E02E061460020B0BD24423C4417
:101050001BD15FEA070EF6D0090302BF014600204C
:10106000AEF1140EB1FA81F7AEEB070401FA07FEF8
:101070000C37C7F1200100FA07F7C8404EEA000E0E
:1010800023EA455343F48013A2E733F00043B3FA55
:1010900083F704BFB2FA82FE77440B3FE41BB7F13B
:1010A000200E2FBF02FA0EF3BB40C7F1200E22FA2A
:1010B0000EFE38BF43EA0E03BA40641C82E750EAD2
:1010C000410E14BF52EA430E6FF000014FF40017B7
:1010D00017EB430F8ABF194617EB410FB5E74CEAF0
:1010E00005510020B0BDD4F10104B4F120070FDA9E
:1010F000C4F12007520828BF42F0010210FA07F598
:1011000001FA07F7E1BF2A43E0403843E1400FE02E
:10111000352C98DCC7F1200452EA400220FA07F28D
:1011200018BF42F0010231FA07F0A1400A43002142
:1011300072F1004250F1000051EB0C01B0BD000013
:101140002DE9F04140F2FF7581EA030C0CF0004CF0
:1011500015EA11541DBF15EA1357AC42AF42E9E03E
:10116000BC41C1F31301C3F31303801A994143F443
:10117000801304D2641E4000494180185941C902BD
:1011800041EA5051B1FBF3F603FB1611A2FB0675C1
:10119000D7EBC020A94102D2761E80185941C9025E
:1011A00041EA5051B1FBF3FE03FB1E11A2FB0E7589
:1011B000D7EBC020A94103D2AEF1010E80185941EE
:1011C000890241EA9051760546EA8E2EB1FBF3F68C
:1011D00003FB1611A2FB0675D7EB8020A94102D2B2
:1011E000761E80185941C90241EA50514EEA060E56
:1011F000B1FBF3F603FB1611A2FB0675D7EBC0207B
:10120000A94102D2761E80185941C90241EA5051C3
:10121000B1FBF3F703FB1711A2FB0735D3EBC0209B
:10122000A94167F100070CBF004247F0010766F3D0
:10123000D5274FEA1E31B80814F5806414DDBD07C8
:1012400075F1004250EB0E5051EB045111F5801F27
:101250005CBF41EA0C01BDE8F0814CF07F6141F0D8
:10126000E0410020BDE8F081BD076D0840EA0E5066
:1012700041F48011D4F10104B4F120060ADAC4F17A
:1012800020060200E04001FA06F3E1401843B240B4
:1012900015430EE0342C14DCC6F1200445EA400569
:1012A0006D0820FA06F2154321FA06F0A1400D431D
:1012B000002175F1004250F1000051EB0C01BDE836
:1012C000F08100205FEA0C01BDE8F081CFB99218EF
:1012D0005B41B3FA83F704BFB2FA82F6BF190B3F42
:1012E000B7F120062FBF02FA06F3BB40C7F1200674
:1012F00022FA06F638BF3343BA401CB1E419641E23
:101300002FE77F4231F00041B1FA81F404BFB0FA17
:1013100080F6A4190B3CB4F120062FBF00FA06F1A9
:10132000A140C4F1200620FA06F638BF3143A040A0
:101330003C1B16E7AC421ABF05EA1357AF4214E054
:1013400050EA41061CBF52EA4306BFE750EA410794
:10135000304661461CBF41EA0551BDE8F08152EAC2
:10136000430C08BFC143BDE8F08100204FF40016D4
:1013700016EB410F98BF16EB430F08BF16EB410F5A
:1013800024BFC14305E016EB430F0CBF61464CEA96
:101390000551BDE8F0810000F446400D40EAC1204F
:1013A000490006D200F014F8004248BF6FF0004038
:1013B000604700F00DF84FF0004188428CBF0846AE
:1013C00040426047400D40EAC120490080F00D8056
:1013D00040F00040490DA1F58061491C05D4D1F1D0
:1013E0001F0154BFC840C01770474FF0000070473E
:1013F000010040F10980F446404200F005F851F048
:1014000000416047010000BF09D0B0FA80F1884078
:10141000C91CC1F58461090501EBD0214005704765
:10142000F0B44FF0004591EA030F44BF6B4000F069
:10143000CBB800BF841A71EB030604D26E40001BC8
:10144000B141121973414FF4001C1CEB410F34BF22
:101450007CEB430684E00C0DA4EB1356362E7DDCAA
:10146000012E43DC45EAC32343EA525312BFD202A2
:1014700092025B08240545EAC12141EA5051D2EBB2
:10148000C020994125D407D1B0FA80F610FA06F1B0
:1014900064D00020203608E0B1FA81F6B140C6F1F0
:1014A000200220FA02F21143B0404FEAF474B4EB88
:1014B000465434F001064FEA74040AD8D6F50016F3
:1014C000760D04F00044F04061FA06F25040F1401D
:1014D0004840C00A40EA415021F0004128BF5FEA7D
:1014E000500550F1000044EBD12137E045EAC32319
:1014F000DB0A45EAC121C90AB6F120050EDD42EA40
:101500000242120CC5F1200603FA06F6EB4042EA4D
:1015100006056D42984161F100010DE062FA06F5A1
:10152000F240554063FA06FC82EA0C02F3405A404E
:101530006D42904161EB030111F4801F05D1641EDF
:10154000620502D06D004041494121F480114308F9
:1015500075F1004350F1000041EB0451F0BC7047BD
:101560001CEB410F15D223F0004352EA43060BD087
:101570004FEA4C0CBCEB410F04D80C0D661E342E08
:10158000B7DDEBE7801A994150EA410608BF002118
:10159000E4E708BF1CEB430F28BF6FF00001DDE755
:1015A00091FBF2F303FB1211C0E900317047000018
:1015B00070470000F0B44FF0004591EA030C44BFBF
:1015C0006B40FFF737BF00BF841A71EB030603D2ED
:1015D000001BB141121973414FF4001C1CEB410F69
:1015E00034BF7CEB430443E00C0DA4EB1356352EC3
:1015F00050DC45EAC323DB0A45EAC121C912B6F132
:1016000020050DDD63FA05F6EB4086EA030512427C
:1016100018BF45F00105C01851F100010CD213E0CC
:1016200062FA06F5F2405540F3415A40B340F340A8
:101630005A408018594107D349085FEA30005FEAF1
:10164000350528BF45F0010501F58011420875F107
:10165000004250F1000041EB0451F0BC4FF4001C7B
:101660001CEB410F38BF70470020090D090570477A
:101670001CEB410F10D252EA43060BD0BCEB410FDA
:1016800005D80C0DAB43661E342EB5DD02E0AB432E
:1016900080185941F0BC7047F0BC7047012110F030
:1016A0001F029140DFF8582440B2430942F823104A
:1016B000704710B440B2002809D50A01DFF844345D
:1016C00040B210F00F04E31803F8042C04E00A0100
:1016D000DFF8343440B2C25410BC704710B5040077
:1016E000601EB0F1807F01D3012011E0601EDFF8A1
:1016F0001C1408600F215FF0FF30FFF7DAFF0020B5
:10170000DFF80C1408600720DFF8081408600020D8
:1017100010BD00B585B000F0C4F8684600F0E7FAE7
:1017200000984FF47A71B0FBF1F0FFF7D7FF002873
:1017300000D0FEE700F0E4FB00F059F800F004F8F8
:1017400000F0E4F805B000BD80B501211C2000F0D8
:101750004AFB4FF48040ADF8000002208DF80200F3
:1017600010208DF803006946DFF8AC0300F0F0FBB1
:101770004FF48041DFF8A00300F088FC0421DFF87B
:101780009C0300F080FC0420ADF800006946DFF8FF
:101790008C0300F0DDFB0421E04800F074FC4FF402
:1017A0000040ADF800006946DD4800F0D1FB4FF481
:1017B0000041DB4800F06AFC4FF48050ADF80000B7
:1017C0006946D54800F0C4FB4FF48051D24800F080
:1017D0005DFCC820ADF8000003208DF80200002059
:1017E0008DF803006946CD4800F0B2FB01BD00B59D
:1017F00085B001215FF0005000F004FB01210520BD
:1018000000F0F1FA3020ADF8000000208DF8030060
:1018100003208DF802006946C04800F099FB01A83A
:1018200000F099FC0020019000200290002004901C
:1018300001A9002000F076FC01A9102000F072FC44
:101840000121002000F090FC40F2C961002000F06E
:101850009EFC0121102000F087FC40F2DA7100208C
:1018600000F0A4FC05B000BDAE48006830F00400F4
:10187000AC4908607047AB48006850F00400A949C3
:101880000860704780B540F23461002000F08EFCA3
:10189000142000F07DFD40F27F61002000F086FC06
:1018A00001BD10B500F04AF95FF4803000F07AF91C
:1018B00000F0A3F90400E4B2012C26D1102000F0BE
:1018C00089FD022000F07AFD002000F0E7F90020F9
:1018D00000F0F8F9002000F0EBF90021002000F002
:1018E000BFF900215FF4803000F0A7F9012000F07B
:1018F000B2F9392000F0B3FA0028FAD0022000F043
:10190000BEF900F0C6F90828FBD110BD00B585B0BE
:10191000012144F2080000F066FA0121012000F0E4
:1019200062FA8020ADF8000003208DF80200042048
:101930008DF803006946784800F00AFB4020ADF8B6
:10194000000003208DF8020018208DF8030069467E
:10195000714800F0FDFA0121042000F09AFB5FF4C9
:101960007A3001900020ADF808000020ADF80A00A0
:101970000020ADF80C000020ADF810000C20ADF8F0
:101980000E00012240F22551674800F0B5FD2520E8
:10199000FFF784FE01A9644800F02EFD0121624892
:1019A00000F09CFD05B000BD00B585B0002000F042
:1019B00094F9012140F2012000F015FA5B4800F093
:1019C0001BFE684600F06FFE0020009000208DF89E
:1019D000040000208DF805005FF4602002900020D4
:1019E000039001208DF810006946504800F033FE46
:1019F00000214E4800F071FE01214C4800F060FECD
:101A00004A4800F077FE494800F079FE0028FAD1F4
:101A1000464800F080FE454800F082FE0028FAD1DA
:101A200005B000BD10B50400042301222100C9B295
:101A30003E4800F08EFE01213C4800F07DFE022170
:101A40003A4800F017FF0028F9D0384800F005FFA9
:101A500010BD80B5FFF7A8FF0820FFF7E3FF34496A
:101A6000088000F032FF01BD00B585B001215FF4B0
:101A7000800000F0C7F90121082000F0B4F94FF40C
:101A80004060ADF8000003208DF802001C208DF8A6
:101A900003006946204800F05BFA264801F09AF8F6
:101AA00001A801F033F90020ADF808004BF6FF70F3
:101AB000ADF80A000020ADF80C004FF48060ADF8DE
:101AC0000E004FF48040ADF810001B48019001213A
:101AD000184801F02BF901A9164801F096F85FF4B7
:101AE0000031144801F083F9002807D00121114882
:101AF00001F054F900210F4801F050F905B000BD84
:101B000000E100E018ED00E000E400E014E000E097
:101B100018E000E010E000E0000C01400008014087
:101B2000001001400C080140003801400024014031
:101B30003006002000580040801A0600DFF87003CD
:101B4000006850F00100DFF868130860DFF86403F4
:101B50000068DFF864130840DFF858130860DFF806
:101B600050030068DFF854130840DFF8441308609E
:101B7000DFF83C03006830F48020DFF8341308609D
:101B8000DFF83003006830F4FE00DFF82813086047
:101B90005FF41F00DFF8281308600020DFF824132B
:101BA00008607047DFF80813096831F48031DFF806
:101BB00000231160DFF8F812096831F48021DFF8A2
:101BC000F02211600100B1F5803F03D0B1F5802F04
:101BD00009D011E0DFF8D812096851F48031DFF83C
:101BE000D022116008E0DFF8C812096851F4A02182
:101BF000DFF8BC221160FFE7704738B50020009085
:101C000000240025312000F02AF905000098401C2E
:101C100000900098B0F5A06F02D0EDB2002DF1D089
:101C2000312000F01CF9002802D00120040001E05E
:101C3000002004002000C0B232BD0022DFF8743260
:101C40001B681A0032F4741251EA00031A43DFF8D9
:101C500064321A607047C0B2DFF86C1208607047D7
:101C60000022DFF860321B681A00DFF860321A4089
:101C700051EA00031A43DFF84C321A607047002122
:101C80008C4A12681100890889000143894A116051
:101C900070478848006810F00C0070470021854AA2
:101CA0001268110031F0F0010143824A116070475F
:101CB0000021804A1268110031F4E06101437D4A3D
:101CC0001160704700217B4A1268110031F46051A5
:101CD00051EAC001774A116070470021754A1268C5
:101CE000110031F440410143724A1160704770B4F1
:101CF000002100220023002400256E4E366816F0D5
:101D00000C0631000E00002E04D0042E05D0082E43
:101D100006D024E06F4E066023E06F4E066020E0A0
:101D2000644E366816F470163200624E366816F449
:101D300080363300920C921C002B04D1674E06FBB8
:101D400002F606600AE05F4E366816F00F06761C53
:101D50003500614EB6FBF5F65643066001E05D4E78
:101D60000660544E366816F0F006310009095C4EE4
:101D70008E5D34000668E64046604E4E366816F4C6
:101D8000E0663100090A564E8E5D34004668E64032
:101D90008660484E366816F460563100C90A504EC7
:101DA0008E5D34004668E640C660424E366816F4E2
:101DB00040463100890B4B4E8E5D3400C668B6FB41
:101DC000F4F6066170BC7047C9B2002905D0464AD6
:101DD00012680243444B1A6004E0434A126882438B
:101DE000414B1A607047C9B2002905D03F4A1268BA
:101DF00002433E4B1A6004E03C4A126882433B4B6C
:101E00001A607047C9B2002905D0394A12680243E6
:101E1000374B1A6004E0364A12688243344B1A602A
:101E20007047C9B2002905D0324A12680243314BCB
:101E30001A6004E02F4A126882432E4B1A607047E2
:101E4000C9B2002905D02C4A126802432A4B1A60F5
:101E500004E0294A12688243274B1A60704710B485
:101E600002000023002400201100C9B24909C9B2B0
:101E70000B00012B03D10E4909680C0008E0022B6E
:101E800003D1134909680C0002E01C4909680C00E1
:101E9000D2B212F01F010B002100D940C90702D5B0
:101EA0000121080001E000210800C0B210BC704709
:101EB00000100240041002400000FFF8FFFFF6FE91
:101EC000081002402C10024060004242F0FFFEFF6A
:101ED0002010024000127A00001BB70000093D00EC
:101EE00000000020100000201410024018100240D2
:101EF0001C1002400C10024010100240241002403E
:101F00001048006850F080700E49086000200E49AB
:101F100008600E48006850F001000C4908607047E6
:101F2000081A704770B5040007480568182000FBC0
:101F300004F6054801682800FFF7F2FFB042F8D325
:101F400070BD0000FCED00E0041000E0001000E0B7
:101F5000F0B500270022002300240025002691F878
:101F600003C01CF00F0C674691F803C05FEACC6C0D
:101F700003D591F802C05CEA070791F800C05FEA58
:101F80000C6C3AD0D0F800C065465FF0000C634698
:101F9000082B31D25FF0010C1CFA03FC6446B1F847
:101FA00000C014EA0C0C6246A24223D15FEA830C03
:101FB00064465FF00F0C1CFA04FC6646B54317FA42
:101FC00004FC5CEA050591F803C0BCF1280F06D1BA
:101FD0005FF0010C1CFA03FCC0F814C00AE091F891
:101FE00003C0BCF1480F05D15FF0010C1CFA03FCE3
:101FF000C0F810C05B1CCBE70560B1F800C0BCF1B5
:10200000FF0F3FDDD0F804C065465FF0000C63466B
:10201000082B36D25FF0010C13F1080E1CFA0EFCEF
:102020006446B1F800C014EA0C0C6246A24226D104
:102030005FEA830C64465FF00F0C1CFA04FC6646F2
:10204000B54317FA04FC5CEA050591F803C0BCF13E
:10205000280F07D15FF0010C13F1080E1CFA0EFCDB
:10206000C0F814C091F803C0BCF1480F07D15FF06D
:10207000010C13F1080E1CFA0EFCC0F810C05B1C1A
:10208000C6E74560F0BD89B20161704789B2416120
:102090007047F0B40022002300250024002803D557
:1020A0001E4E3668350002E01D4E36683500C0F31E
:1020B0000346340086B2320010F44016B6F5401FD5
:1020C00008D135F07065164E366836F07066144FDC
:1020D0003E6010E0C60206D50326A64033009D43AD
:1020E00055F0706507E0460DF6B2360112FA06F6B5
:1020F000B54355F07065C9B2002905D0460DF6B25A
:10210000360112FA06F63543002802D5034E356033
:1021100001E0034E3560F0BC704700001C00014038
:102120000400014030B400230022284C246823001E
:1021300040F6FE748440A3430C684D682C438D68C0
:102140002C43CD682C43220012FA00F423431F4C89
:10215000236030BC704700210160002141600021F4
:1021600081600021C1607047C9B2002907D0174AB9
:102170001268012383401A43144B1A6006E0134A85
:102180001268012383409A43104B1A60704781B054
:10219000002200920D4A0092009A10F108039A184A
:1021A000009289B2009A116001B0704781B000229C
:1021B0000092064A0092009A10F114039A180092B5
:1021C00089B2009A116001B07047000000740040AD
:1021D00080B5FFF79EFA00F02DFE142000F0D8F82D
:1021E000FFF742FCC82000F0D3F8FFF73DFB00F0FA
:1021F0006CFBFFF747FB322000F0CAF801F010F843
:10220000642000F0C5F840F2E243012200211A20C8
:1022100000F0F4FFFFF71DFC00F026F8504801889D
:10222000504801F009F850480188504801F004F87E
:102230004F4801784F4800F0FFFF4948B0F90210BD
:102240004D4800F0F9FF4D48B0F902104C4800F03D
:10225000F3FF4C48B0F902104B4800F0EDFF404846
:10226000008800F050F8D5E780B540F2E243012243
:1022700000211A2000F0C2FF4FF49670FFF752FEC3
:1022800000F007FC3649086040F2E24340F2213298
:102290004FF448711E2000F0B1FF4FF49670FFF725
:1022A00041FE00F0F6FB3549086040F2E24340F29F
:1022B000B1424FF496611E2000F0A0FF4FF49670DB
:1022C000FFF730FE00F0E5FB2E49086001BD10B5B8
:1022D0000400E4B22000442809D0452804D048284E
:1022E00008D04C280AD00DE0FFF7BEFA0AE0FFF74D
:1022F000C2FA07E05F2000F02FFC03E0502000F05E
:102300002BFCFFE710BD10B50400194800785028D9
:1023100002D05F280AD012E0A4B2032C0FDBA4B2D3
:10232000962C02DA5F2000F017FC08E0A4B240F619
:102330009900844202DB502000F00EFCFFE710BD44
:1023400010B504002100C9B289B2104800F0FFF8AE
:1023500080210E4800F003F90028F9D0200010BDBC
:1023600020060020885100083006002098510008FF
:1023700018000020B85100084C5100082406002025
:102380006051000828060020745100080038014000
:1023900010B586B0040001A8FFF7A9FC029842F22C
:1023A0001071B0FBF1F0604300900098002803D05A
:1023B0000098401E0090F8E706B010BD0021DFF83D
:1023C00034201268110011F038010143DFF8242095
:1023D00011607047DFF81C10096831F01001DFF858
:1023E00014201160DFF80C1009680143DFF80420A5
:1023F00011607047002002402DE9F04786B00400CC
:102400000D00002600275FF000085FF000095FF074
:10241000000AA8890028A246208A06004CF6FF7010
:102420000640E88806432682A08906004EF6F3108F
:102430000640A88829890843698908430643A6817C
:10244000A08A06004FF6FF400640A8890643A682F0
:102450006846FFF74CFC2048824502D103980700EC
:1024600001E002980700A089000408D5192000FBAC
:1024700007F029684900B0FBF1F0804607E0192019
:1024800000FB07F029688900B0FBF1F0804664206A
:10249000B8FBF0F0000106003009642101FB108058
:1024A0008146A089000409D55FEAC9003230642161
:1024B000B0FBF1F010F00700064308E05FEA0910F6
:1024C00032306421B0FBF1F010F00F00064326819A
:1024D00006B0BDE8F087000000380140C9B200290D
:1024E00004D0828952F40052828104E082894DF640
:1024F000FF731A4082817047F0B400230024002546
:10250000002689B240F66A17B94206000F00FFB2F2
:102510007F09FFB23B0089B211F01F073C00012781
:10252000A7403D00012B01D10C3604E0022B01D164
:10253000103600E01436D2B2002A03D037682F4399
:10254000376002E03768AF433760F0BC7047CA05B8
:10255000D20D828070478088C005C00D7047020090
:10256000002089B2B1F5007F13880B4202D001230D
:10257000180001E000231800C0B2704789B28A0534
:1025800089B2CA430280704770B403000024002659
:102590000025002089B240F66A1291420A00D2B2A8
:1025A0005209D2B2150089B211F01F0216000122A1
:1025B00012FA06F6012D02D19A89164006E0022D84
:1025C00002D11A8A164001E09A8A16400A0092B295
:1025D000120A92B21400012212FA04F41A8814406A
:1025E000002E04D0002C02D00122100001E00022B5
:1025F0001000C0B270BC704710B50400DFF8600274
:1026000084420AD101214FF40070FFF70AFC002137
:102610004FF40070FFF705FC1CE0DFF8480284422D
:102620000AD101214FF48060FFF7FBFB00214FF43A
:102630008060FFF7F6FB0DE0DFF82C02844209D141
:1026400001214FF40040FFF7ECFB00214FF4004064
:10265000FFF7E7FB10BD30B40023002244682300DD
:10266000DFF8084223400C680D7954EA052423431F
:10267000436084682300DFF8F8412340CC688D680C
:102680002C434D7954EA450423438360C46A2300F4
:1026900033F470030C7C641E2243D2B253EA02531B
:1026A000C36230BC7047002101600021017100212C
:1026B0004171002181600021C160012101747047D6
:1026C000C9B2002904D0826852F00102826003E09E
:1026D00082685208520082607047C9B2002904D053
:1026E000826852F48072826003E0826832F4807201
:1026F00082607047816851F0080181607047010075
:1027000000208A68120702D50122100001E0002291
:102710001000C0B27047816851F0040181607047B9
:10272000010000208A68520702D50122100001E052
:1027300000221000C0B27047C9B2002904D08268DC
:1027400052F4A002826003E0826832F4A002826048
:102750007047F0B400250024C9B20A2916DBC66808
:1027600035000726B1F10A075FF0030C0CFB07F7F1
:10277000BE403400A543DBB2B1F10A0603277E4315
:1027800013FA06F634002543C56011E006693500EA
:102790000726032707FB01F7BE403400A543DBB241
:1027A000032606FB01F613FA06F6340025430561FD
:1027B000D2B2072A14DA466B35001F26571E5FF087
:1027C000050C0CFB07F7BE403400A543C9B2561EEA
:1027D00005277E4311FA06F63400254345632DE0B4
:1027E000D2B20D2A14DA066B35001F26D71F5FF010
:1027F000050C0CFB07F7BE403400A543C9B2D61F39
:1028000005277E4311FA06F634002543056315E0DB
:10281000C66A35001F26B2F10D075FF0050C0CFBF0
:1028200007F7BE403400A543C9B2B2F10D06052733
:102830007E4311FA06F634002543C562F0BC7047AA
:10284000C9B2002904D0826852F48012826003E089
:10285000826832F4801282607047C06C80B2704728
:102860000024014000280140003C0140FFFEF0FF31
:10287000FDF7F1FF020000201368C9B20B4202D03D
:102880000123180001E000231800C0B270470000C7
:10289000012110F01F029140BC4A40B2430942F8A6
:1028A0002310704710B440B2002808D50A01B84B75
:1028B00040B210F00F04E31803F8042C03E00A01FF
:1028C000B44B40B2C25410BC704780B500F005F85C
:1028D00000F035F800F080F801BD00B587B00121A7
:1028E0004FF40060FFF77FFAAB4800F0B7FC03A895
:1028F00000F047FE684600F038FE0520ADF8000005
:102900004F20ADF804000020ADF806000020ADF81F
:1029100002006946A04800F091FD6020ADF80C006F
:102920000020ADF80E002820ADF812000220ADF80E
:10293000140003A9984800F0CBFD07B000BD00B516
:1029400085B00020FFF7C9F9012140F20120FFF70F
:102950004AFA9248FFF750FE6846FFF7A4FE0020AF
:10296000009001208DF8040000208DF80500002063
:1029700002900020039002208DF8100069468748DD
:10298000FFF769FE0223012203218448FFF7E1FEDD
:102990000223022207218148FFF7DBFE01217F4845
:1029A000FFF74EFF01217D48FFF797FE01217B488D
:1029B000FFF786FE7948FFF79DFE7848FFF79FFEF8
:1029C0000028FAD17548FFF7A6FE7448FFF7A8FE65
:1029D0000028FAD105B000BD00B58BB0012101205F
:1029E000FFF7F2F96E4800F00BFE6E4800906E485B
:1029F0000190002002904FF4FA70039000200490A0
:102A0000802005904FF4807006904FF4806007900E
:102A1000002008904FF44050099000200A90694629
:102A20005F4800F072FE01215D4800F08DFE01223A
:102A300002215B4800F096FE0F210B20FFF732FFCA
:102A40000B20FFF725FF0BB000BD80B500215248D9
:102A500000F0A8FD00215148FFF732FE0021504848
:102A600000F072FE5048514908604FF4FA70504926
:102A7000086001214A4800F067FE00204D490870B7
:102A800001214648FFF71CFE0121434800F08AFD62
:102A900001BDFEB5484800680090484800680190B4
:102AA0004748006802900025002400200600F6B286
:102AB000052E21DAFFF7C9FF3E4800780028FBD039
:102AC000394800F0D6F901903E4800F0D2F9029062
:102AD000BDF80600BDF80A10401A040024B2002C0C
:102AE00001D514F56164BDF8040045193648F6B205
:102AF00020F81640761CDAE70520B5FBF0F0ADF8BB
:102B000000000521304800F03DFAADF80200BDF8A4
:102B100002702E480278BDF800102D48008800F0A1
:102B200086FAC019ADF80200BDF90200002806D5EA
:102B3000BDF8020010F56160ADF802000AE0BDF9D1
:102B40000200B0F5616F05DDBDF80200B0F561600F
:102B5000ADF802000098FEBD10B50400E4B22000FC
:102B6000502802D05F2808D00FE040F27F6100209B
:102B7000FFF71CFB1548047007E040F2AA51002043
:102B8000FFF714FB11480470FFE710BD00E100E0FF
:102B900018ED00E000E400E0002C014000240140BA
:102BA000080002404C240140200200201400024092
:102BB0000C00024033060020D0510008D451000818
:102BC000D85100082202002008060020180000202A
:102BD0003006002010B50400484884420AD1012183
:102BE0005FF40010FFF72CF900215FF40010FFF7ED
:102BF00027F909E001215FF48000FFF721F90021A6
:102C00005FF48000FFF71CF910BD2DE9F04385B09B
:102C100004000D005FF0000900260427DFF8E080C3
:102C2000A08881464FF6C07010EA09096846FFF790
:102C30005EF8029880463348B8FBF0F0060056EA8A
:102C40000909A4F8049020884FF6FE7108402080FE
:102C50000020814628682C4988420ED2286840000E
:102C6000B8FBF0F00700BFB2042F01DA0420070020
:102C700057EA0909701C208426E0E8884BF6FF71AA
:102C8000884206D1286803214843B8FBF0F00700CA
:102C900007E0286819214843B8FBF0F0070057F413
:102CA0008047380501D157F0010757F4004050EA3A
:102CB0000909B6B24FF4967000FB06F04FF47A7132
:102CC00090FBF1F0401C2084A4F81C90208850F068
:102CD00001002080208881464FF6F53010EA09096E
:102CE000A8886989084350EA0909A4F80090A889CE
:102CF00029890843208105B0BDE8F08300540040D5
:102D000000127A0040420F00A186010041F2883192
:102D10000160002181804BF6FF71C180002101819B
:102D2000002141814FF4804181817047C9B200295F
:102D300004D0028852F00102028004E002884FF6BB
:102D4000FE731A4002807047C9B2002904D002887D
:102D500052F48072028004E002884FF6FF631A404A
:102D600002807047C9B2002904D0028852F4007270
:102D7000028004E002884FF6FF531A400280704739
:102D8000C9B201827047D2B2002A02D051F00101CB
:102D900001E011F0FE01C9B201827047C9B20029F9
:102DA00004D0028852F40042028003E002885204F8
:102DB000520C0280704770B40200002300240025EA
:102DC0000020968A3400168B35002D0455EA04063F
:102DD0003602360A330011EA03068E4202D101267A
:102DE000300001E000263000C0B270BC704782B0F5
:102DF00002000020002301930023009300920B0F98
:102E000001930902090A019B002B03D0009B143394
:102E1000009303E0090C009B18330093009B1B6890
:102E20000B4202D00123180001E000231800C0B2B9
:102E300002B0704780B5A548A54900F0DBFC00F062
:102E4000DDFCA4490860A148A14900F01FFD00F085
:102E5000D5FCA1490860A048006800F01BFD0022D5
:102E60005FF08043FEF79AF800F0C8FC9B490860C9
:102E700001BD2DE9F04F83B00400DFF8648200202B
:102E800005000020060000200700002082461FFAEF
:102E90008AFABAF1FA0F17DA90480068310000F0A8
:102EA00021FD390000F08AFD83461FFA8AFA34F8C2
:102EB0002A0000F0F7FD594600F004FE0500370037
:102EC0002E001AF1010AE2E783480068390000F099
:102ED00009FD0100300000F071FD414600F034FEB4
:102EE00001907C480068390000F0FCFC414600F08D
:102EF0002BFE00900099019800F004F881464846A6
:102F0000BDE8FE8F2DE9F84304000D0028002900DC
:102F100000F0E8FC06002000210000F0E3FC310096
:102F200000F0D0FD0600300000F0B4FC00F08AFE96
:102F3000FEF748FAADF80000200000F0ABFC0200FC
:102F40000B0090469946280000F0A4FC42464B46F0
:102F500000F0F0FE00F052FC07006248390000F07B
:102F6000C1FC00F097FC604A604BFEF7E9F800F006
:102F700045FC0700380000F043FFADF80200009860
:102F8000BDE8F28370B402000023002000252C006D
:102F9000A4B289B28C420FD2A4B232F91450962D49
:102FA00006DBA4B232F9145040F67B56B54201DB81
:102FB00001252B00641CEBE7DBB2002B10D10025B0
:102FC0002C00A4B289B28C4205D2A4B232F91450BA
:102FD0002818641CF5E789B290FBF1F000B224E0F8
:102FE00000252C00A4B289B28C4214D2A4B232F9CA
:102FF0001450B5F5E16F06DD41F21855A4B232F96F
:103000001460AD1B04E0A4B232F91450D5F5E165AB
:103010002818641CE6E789B290FBF1F0D0F5E16076
:10302000002801D510F5616000B270BC70472DE931
:10303000F843804689461600002700240025F6B292
:10304000502E0BD11FFA88F87FF0450000FB08F0E6
:103050004FF4806190FBF1F0070026E0F6B25F2E9E
:1030600023D11FFA88F84046FEF7CCF90022204B06
:10307000FEF7A0FA00221F4BFEF762F800F0E2FE16
:1030800000221D4BFDF78AFF04000D0020002900DF
:10309000FEF782F907001FFA89F97FF0630099FBB8
:1030A000F0F0381AB0F11407373F3800FEF7A0F9F6
:1030B0000022124BFDF772FF04000D0020002900D2
:1030C000FEF76AF900B2BDE8F283000003799A7650
:1030D0002F1BE43F14060020180600201C060020C9
:1030E0000000FA420000E14444174154FB2109402A
:1030F000008086C000807140000024C00000F03FC6
:1031000080B502210D4800F039FF01BD80B50221D4
:103110000B4800F033FF01BD80B50221094800F0E3
:103120002DFF01BD80B50221074800F027FF01BD3A
:1031300080B53321054800F021FF01BD320D0008A4
:103140001A0D00086A0D0008B20E00083050000881
:103150002DE9F04F85B004000D0016001F005FF050
:1031600008085FF00009EB464A464146584600F021
:1031700037FF0296802000FB05F0B0FBF6F106FB5E
:1031800011000390802000FB04F08246802000FBA9
:1031900005F0B0FBF6F010EB0A0ABAF5007A0298D7
:1031A000000A8DF8000002988DF801005FEA1A40CD
:1031B00010F003008DF802005FEA1A208DF803007A
:1031C00050468DF804000298000B10F0F0000399AF
:1031D000090C11F00F0108188DF805000398000A7A
:1031E0008DF8060003988DF807000822694638001C
:1031F000C0B200F0D9FE05B0BDE8F08FF8B504000C
:103200000D0016001F001A233A0029002000FFF7C6
:103210009FFF22233A0031002000FFF799FFF1BD04
:1032200080B5FFF773FFFFF777FFFFF781FFFFF729
:1032300079FFFFF765FF01BD0EB400B582B003A9A9
:10324000009102466B460121034878440A30FCF79E
:1032500067FF06BC5DF810FBDD1E000010B5040022
:10326000DFF85C0384420AD101214FF40060FEF7CD
:10327000D8FD00214FF40060FEF7D3FDDDE0B4F18E
:10328000804F08D101210120FEF7DAFD0021012045
:10329000FEF7D6FDD1E0DFF82C03844208D10121EE
:1032A0000220FEF7CDFD00210220FEF7C9FDC4E09B
:1032B000DFF81403844208D101210420FEF7C0FD89
:1032C00000210420FEF7BCFDB7E0DFF800038442D4
:1032D00008D101210820FEF7B3FD00210820FEF7E8
:1032E000AFFDAAE0DFF8E802844208D101211020F6
:1032F000FEF7A6FD00211020FEF7A2FD9DE0DFF8FD
:10330000D402844208D101212020FEF799FD00213A
:103310002020FEF795FD90E0DFF8BC0284420AD140
:1033200001214FF40050FEF77CFD00214FF40050C6
:10333000FEF777FD81E0DFF8A40284420AD1012183
:103340005FF40020FEF76DFD00215FF40020FEF722
:1033500068FD72E0DFF8880284420AD101215FF43F
:103360008010FEF75EFD00215FF48010FEF759FD2E
:1033700063E0DFF8700284420AD101215FF400109B
:10338000FEF74FFD00215FF40010FEF74AFD54E008
:10339000DFF85402844208D101214020FEF750FD9D
:1033A00000214020FEF74CFD47E0DFF84002844258
:1033B00008D101218020FEF743FD00218020FEF787
:1033C0003FFD3AE0DFF8280284420AD101214FF4A0
:1033D0008070FEF735FD00214FF48070FEF730FD60
:1033E0002BE0DFF8100284420AD101215FF4803023
:1033F000FEF717FD00215FF48030FEF712FD1CE0A0
:10340000DFF8F40184420AD101215FF40030FEF7B5
:1034100008FD00215FF40030FEF703FD0DE0DFF84A
:10342000DC01844209D101215FF48020FEF7F9FC20
:1034300000215FF48020FEF7F4FC10BD0022038819
:103440001A00DFF87C31984212D0DFF88C319842B4
:103450000ED0B0F1804F0BD0DFF86831984207D022
:10346000DFF86431984203D0DFF86031984204D12C
:103470004FF68F731A404B881A43DFF85431984245
:1034800008D0DFF85031984204D04FF6FF431A407D
:10349000CB881A4302808B8883850B880385DFF8ED
:1034A000203198420FD0DFF8303198420BD0DFF84E
:1034B0004431984207D0DFF84031984203D0DFF81A
:1034C0003C31984201D10B7A0386012383827047F5
:1034D00070B4002300240022058C4FF6FE763540A0
:1034E0000584058C2C0085882A00058B2B004FF65F
:1034F0008F752B404FF6FC752B400D882B434FF6F4
:10350000FD752C400D892C434D882C43DFF8B050BD
:10351000A8420FD0DFF8C050A8420BD0DFF8D4503B
:10352000A84207D0DFF8D050A84203D0DFF8CC5033
:10353000A84213D14FF6F7752C404D892C434FF616
:10354000FB752C408D882C434FF6FF652A404FF6C3
:10355000FF552A408D892A43CD892A4382800383DF
:10356000CD888586048470BC70474FF6FF718180DA
:10357000002101800021C1800021418000210172D1
:1035800070470021018000214180002181800021BD
:10359000C180002101810021418100218181002120
:1035A000C1817047C9B2002904D0028852F00102DB
:1035B000028004E002884FF6FE731A4002807047D2
:1035C000002C01400004004000080040000C0040B6
:1035D000001000400014004000340140004C014045
:1035E000005001400054014000180040001C004001
:1035F00000200040004001400044014000480140DC
:1036000001684FF6FE721140016000210160002147
:103610004160002181600021C1606649884206D175
:103620006549096851F00F01634A11606CE0634914
:10363000884206D16049096851F0F0015E4A116084
:1036400062E05F49884206D15B49096851F47061C4
:10365000594A116058E05B49884206D156490968C9
:1036600051F47041544A11604EE05749884206D1E6
:103670005149096851F470214F4A116044E053499F
:10368000884206D14C49096851F470014A4A1160D8
:103690003AE04F49884206D14749096851F07061C4
:1036A000454A116030E04B49884206D14A490968D1
:1036B00051F00F01484A116026E04849884206D17E
:1036C0004549096851F0F001434A11601CE0444942
:1036D000884206D14049096851F470613E4A116040
:1036E00012E04049884206D13B49096851F47041D3
:1036F000394A116008E03C49884205D136490968D9
:1037000051F47021344A1160704710B400220368EC
:103710001A006FF30E128B680C6A23430C69234363
:103720004C6923438C692343CC6923434C6A23436C
:103730008C6A23431A430260CB6843600B68836042
:103740004B68C36010BC7047C9B2002904D002683E
:1037500052F00102026004E002684FF6FE731A4064
:1037600002607047D2B2002A03D003680B430360A3
:1037700002E003688B4303607047010000200022D1
:10378000CB0003D5194B1B681A0002E0184B1B68CD
:103790001A000A4202D00123180001E00023180099
:1037A000C0B27047C10002D50B49086001E0024970
:1037B0000860704708000240040002401C000240FC
:1037C0003000024044000240580002406C000240B9
:1037D0008000024008040240040402401C0402402D
:1037E00030040240440402405804024000040240F5
:1037F00000000240002200F027BC00004FEAF17CEC
:10380000BCF1E04C2CBFBCF5001F11E05FEA4C0C92
:1038100034BFBCF17F5F2EE05FEA9C0C4FEA0C1CCA
:103820004FEA3C0CC10071F100414CEB5070704705
:10383000C90241EA5051C00218BF41F0010141F0F4
:1038400000414FEA6C50C0F10900212810D240EA33
:10385000CC7CCCF1200C11FA0CF070F10040CCF1D2
:10386000200C21FA0CF00CF0004C40EB0C007047DF
:103870004FEACC707047490011F5001F04D84FEA99
:10388000CC10FF30C0057047C8177047012200F008
:10389000DBBB00005FF0FF0C1CEAD05114BF614598
:1038A00006E0C110400721F0E04101F1605170478E
:1038B00079B900F0004100020AD0B0FA80FC00FAA9
:1038C0000CF001F16051A1EB0C5101EBD02140054E
:1038D000704741020CBF40F4E0016FF0000100208E
:1038E00070470000FF2212EAD05C1DBF12EAD153DC
:1038F000944593422BE09C44D30780EA01021A408E
:1039000043EA002043EA0121A1FB0030410038BF17
:1039100040007CF17F010BDBFE294ADA5B0842EABA
:10392000C15153EA006373F1004C51EB1020704712
:10393000D1F1080CDCF120012FDB5B0810FA01F15A
:103940000B4373F1004120FA0CF05041704794454D
:103950001CBF02EAD153934280EA010202F0004206
:103960001DD0400019D0490017D05BB9634514D071
:103970000902B1FA81F39940BCEB030CC00140F09D
:103980000040C1E70002B0FA80FC10FA0CF0B3EB83
:103990000C0CC90141F00041B6E71000704740002F
:1039A0000AD0490008D010F1807F94BF11F1807FC8
:1039B00002E042F0FF407047D043704790EA010FA9
:1039C00044BF81F0004100F085B800BF431A4FF0BA
:1039D00000423EBF5340C01AC91800BFD3095FEA76
:1039E000D05C13EB400F34BFB3EB410F40E07CEBF6
:1039F000D1530CD342EA012122D8D1EB402009D384
:103A0000400A28BF5FEA500140EBCC507047401A93
:103A100015D04002B0FA80F2521C9040400A4FEAA2
:103A20003C23B3EB026384BF00EB730007E040F478
:103A300000001A16DB07C2F10102D040184370479C
:103A4000182BFCDC31FA03F202FA03F3591A38BFDF
:103A500042F00102D2EB40203CBF4000ACF1010C2F
:103A60005FEACC5CC20572F100414CEB502070471C
:103A700013EB400F0FD24B0009D0ACEBD153022B0C
:103A800003DB4902172BDDDD70479143401A4300E9
:103A9000D5D10020704713EB410FD0D36FF0000059
:103AA00070470000002800BF0AD0B0FA80F18840BB
:103AB000D1F19D01C905020672F1004241EB1020CF
:103AC0007047000090EA010F44BF81F00041FFF70A
:103AD0007DBF00BF421A3CBF801A89184FF0004CCE
:103AE000C0F3C752FF2A24D0C1F3C75313B3D21A6D
:103AF000D2F1190327DD4CEA01214CFA03F321EA44
:103B00000303D140C20D4CEA0020401834BF20EA24
:103B10000C004CEA5000D20553EA006373EB0C0C26
:103B200052EB1020420012F1807F38BF7047C00D69
:103B3000C0057047490212BF9A4200EB5120F8E7D6
:103B4000D2F11703D9D5704710B5FF2313EAD0542B
:103B50001DBF13EAD1529C429A4239E0A41ADA07F7
:103B600080EA0103134042EA012142EA0020421A9E
:103B70003CBF641E01EB4202090AB2FBF1FE01FBED
:103B80001E221202B2FBF1F001FB10226EF30F2095
:103B90001202B2FBF1FE4EEA00207F3406DDFE2C5D
:103BA00024DA53EA500050EBC45010BDD4F10204A3
:103BB00001FB1E2240F08071192C1DDC21FA04F05B
:103BC000C4F12004A140114371F10042584110BDDD
:103BD0009C421ABF03EAD1529A420FE080EA010EDA
:103BE0000EF00043400004D0490016D143F0FF40DE
:103BF00010BD490008BFD343180010BD9C4205D139
:103C0000D21AF7D001F00041484010BD4A0212BF5D
:103C10000846484000F0004010BD4AB90902B1FA18
:103C200081F2914044B1A418C00140F000409EE7E9
:103C3000C90141F0004152420002B0FA80F4A040B4
:103C4000141B94E740F2FF7C0B0D4DD0634566D208
:103C500030B421EA035141F4801103F2FD3C5FEAE4
:103C60005C0C01D300184941890041EA9071800041
:103C70004FF440140023E202D50AB1F5100107D435
:103C80006D081DD2091B641900184941491BF7D55D
:103C90006D080AD20919641B00184941491BEFD568
:103CA0006D08F7D301E0520817D0C01861419B1A84
:103CB000AC4100184941801AA941F4D452080AD0F5
:103CC000C01AA1419B186C4100184941801AA941B2
:103CD000E9D45208F4D15B1C6C4161084FEA33000F
:103CE00001EB0C5130BC704750EA0103FBD030B4FB
:103CF000B1FA81F311B9B0FA80F41B190B3BB3F19F
:103D000020042FBF00FA04F19940C3F1200420FAE7
:103D100004F438BF21439840D3F101039DE7634584
:103D2000E1D011F5801FDED850EA4101DBD0D94344
:103D300000F09EBB38B50FB4DDE9020100F09EFB38
:103D40000546DDE9000100F099FB0246012DB8BFF0
:103D5000012A2CDA0198002807D5DDE9000181F05D
:103D60000041CDE90001082400E000240398002868
:103D700007D5DDE9020181F00041CDE9020184F0BF
:103D80000604DDE90201DDE90023FDF7EFF802D2C8
:103D9000FDF7D6F927E0002D06D5DDE90001DDE9C4
:103DA0000223FDF7CDF920E0002000211DE0022ACA
:103DB00008BFDDE900011ED0022D08BFDDE90201C8
:103DC00019D0954207BF00200C4900200021019B1B
:103DD000002B4CBF08240024039B002B48BF84F019
:103DE0000604012A01D184F00204224605B0BDE890
:103DF000304000F05DBB05B030BD00BF0000F03FBB
:103E00004100090E7F3915D4D1F11F0114D44000AF
:103E100007D2C00140F00040C84048BF6FF00040EA
:103E20007047C00140F00040C8404CBF4FF0004018
:103E3000404270470020704700424FF0004058BF9A
:103E4000C043704783B5C1F30A5240F2FF739A42F0
:103E500082B008D0002A04BF090350EA11300DD106
:103E60000C4905B000BD090350EA11300DD103988B
:103E700000280AD50020002105B000BD00200090D8
:103E80000022044B02A800F003FCDDE9020105B0AA
:103E900000BD00BF0000F03F70B504000D0000F051
:103EA000A0FD060029002000FEF785FF002804D1B0
:103EB00000F097FD801B0528F4D300F092FD801BD5
:103EC000052802D3012027490870012070BD10B5D4
:103ED00004002100C9B22448FEF752FF23492248BA
:103EE000FFF7DAFF0028F9D010BD80B501211E4888
:103EF000FEF738FF01BD70B504000D000020194920
:103F0000087000F06EFD06005FF400311648FEF701
:103F10006EFF002804D000F064FD801B0528F3D359
:103F200001211148FEF710FF11490F48FFF7B4FFB8
:103F30000028F9D02200D2B22900C9B20A48FEF7FF
:103F400022FFE4B2002C06D10A490748FFF7A4FF7C
:103F5000002806D1F8E708490348FFF79DFF00282D
:103F6000F9D070BD320600200058004084000700E0
:103F700001000300820007000200030070B5040086
:103F80000D00C0210020FFF7B6FF00200600B6B2EA
:103F9000ADB2AE4205D2B6B2305DFFF798FF761CE7
:103FA000F5E7FFF7A2FF70BDF8B504000D0016009D
:103FB000C0210020FFF79FFF2000C0B2FFF787FF5E
:103FC00000200700BFB2B6B2B74205D2BFB2785DDB
:103FD000FFF77DFF7F1CF5E7FFF787FFF1BD0000CE
:103FE00062F30F2262F31F42401810F0030308D05F
:103FF000C91A1FD3DB0748BF00F8012D28BF20F8DE
:10400000022D130030B414461546103928BF20E99C
:104010003C00FAD8490728BF20E90C0048BF40F807
:10402000042D890028BF20F8022D48BF00F8012D7B
:1040300030BC7047C91818BF00F8012DCB0728BF46
:1040400000F8012D704700002DE9F04C04460D46A4
:10405000164683B0DFF87803DFF8781322462B4644
:10406000FCF79CFF8B4621F00041DFF86C23DFF862
:104070006C33FCF77BFF074680F0F3805946002243
:10408000002300F0B9FC104694BFDFF85413DFF8AA
:1040900054133A465B46FDF78DFAFDF77DF90700AC
:1040A00051D0FDF7A5F90022CF4BFCF777FF8246F0
:1040B0008B464FF0A040CD4952465B46FCF76EFF61
:1040C00002460B4620462946FDF7AAF904460D464E
:1040D0004FF0C040C64952465B46FCF75FFF0246C0
:1040E0000B4620462946FDF79BF904460D464FF046
:1040F0000050C04952465B46FCF750FF02460B4653
:1041000020462946FDF78CF904460D460020BA49A1
:1041100052465B46FCF742FF02460B4620462946C4
:10412000FDF77EF904460D464FF00050B349524664
:104130005B46FCF733FF02460B4620462946FDF757
:104140006FF904460D4607F00300861920462946FC
:104150006FF00102AA4B00F04FFC0BD800224FF089
:104160007953FCF703FF05D2F00740F12B810024BF
:10417000A44D27E122462B46FCF710FF0746F00727
:104180008B4631D5A048A1493A465B46FCF706FF6D
:104190009F4AA04BFDF70EFA3A465B46FCF7FEFE3F
:1041A0009D4A9E4BFDF706FA3A465B46FCF7F6FE43
:1041B0009B4A9C4BFDF7FEF93A465B46FCF7EEFE48
:1041C000994A9A4BFDF7F6F93A465B46FCF7E6FE4C
:1041D0006FF05102964BFDF7EDF93A465B46FCF75E
:1041E000DDFE0022874B37E03A465B4620462946F3
:1041F000FCF7D4FECDE900013A468E488E495B4675
:10420000FCF7CCFE8D4A8E4BFDF7D4F93A465B465F
:10421000FCF7C4FE8B4A8C4BFDF7CCF93A465B4663
:10422000FCF7BCFE894A8A4BFDF7C4F93A465B4667
:10423000FCF7B4FE874A884BFDF7BCF93A465B466B
:10424000FCF7ACFE854A864BFDF7B4F9DDE90023A7
:10425000FCF7A4FE22462B46FDF7ACF904460D46BA
:10426000B0E0C5F30A5240F2FF739A420BD0002A25
:1042700004BF280354EA103013D1002E00F0F2805E
:104280000024604DEEE0280354EA103040F0EA804C
:1042900000F0CAFB212101604FF0FF306FF00041B8
:1042A000E2E0CDE90045684600F0C4FBDDE90045E9
:1042B0008619204629466FF00102514B00F09CFB05
:1042C0000AD800224FF07953FCF750FE04D2F007D1
:1042D00078D500244B4D75E022462B46FCF75EFE58
:1042E0000746F0078B4631D5474848493A465B4672
:1042F000FCF754FE464A474BFDF75CF93A465B46ED
:10430000FCF74CFE444A454BFDF754F93A465B46F0
:10431000FCF744FE424A434BFDF74CF93A465B46F4
:10432000FCF73CFE404A414BFDF744F93A465B46F8
:10433000FCF734FE6FF051023D4BFDF73BF93A4676
:104340005B46FCF72BFE00222E4B37E03A465B46DD
:1043500020462946FCF722FECDE900013A463548C1
:1043600035495B46FCF71AFE344A354BFDF722F916
:104370003A465B46FCF712FE324A334BFDF71AF918
:104380003A465B46FCF70AFE304A314BFDF712F91C
:104390003A465B46FCF702FE2E4A2F4BFDF70AF920
:1043A0003A465B46FCF7FAFD2C4A2D4BFDF702F925
:1043B000DDE90023FCF7F2FD22462B46FDF7FAF873
:1043C00004460D46B0074DD585F0004120464BE030
:1043D00083C8C96D305FE43F0000A0FFFFFFDF41ED
:1043E0000000E03F0000E0BF0000303EFB21B9418B
:1043F000B410114026A6513E5C14D33C9A833B3B3B
:10440000FFFF3FBE0000F03F09260A1039BA213EE7
:104410003BA861C6F97D92BE63AC30909F01FA3E25
:10442000F6FB51166CC156BFB10255555555A53F07
:10443000FFFFDFBFB08F2FC310D8E53D8F0C73A1F6
:10444000E1E55ABE4DADE44FE31DC73E3EE3B5196D
:10445000A0012ABFFAF010111111813F42555555A4
:104460005555C5BF2046294603B0BDE8F08C000075
:104470001FB500F0D9FA212101601FBDC1F30A5216
:1044800040F2FF739A420AD012B14FF0FF307047EA
:10449000090350EA113009D06FF001007047090399
:1044A00050EA113001D0022070470120704700000F
:1044B0002DE9F04D1746504A504B00F09DFA044646
:1044C0000D461CD84E4EDFF83C8132464346FCF781
:1044D00065FD00224C4BFDF76DF882468B46324657
:1044E000434620462946FDF765F802460B465046EE
:1044F0005946FCF725FE04460D4647F001072046C5
:1045000029460022414BFCF731FD05D301224FF033
:10451000795300F071FA53D822462B46FCF73EFD42
:10452000064688463246434620462946FCF736FD75
:1045300082468B463648374932464346FCF72EFDC5
:10454000354A364BFDF736F832464346FCF726FD32
:10455000334A344BFDF72EF852465B46FCF71EFDFE
:1045600022462B46FDF726F804460D462E482F49D5
:1045700032464346FCF712FD2D4A2E4BFDF71AF842
:1045800032464346FCF70AFD2B4A2C4BFDF712F846
:1045900032464346FCF702FD294A2A4BFDF70AF84A
:1045A00032464346FCF7FAFC0022274BFDF702F89F
:1045B00002460B4620462946FCF7C2FD04460D463E
:1045C000B80748BF85F0004517F007000BD00FF281
:1045D000800101EBC0022B46D2E900012246FCF724
:1045E000E9FF04460D46380747BF85F000412046E5
:1045F00020462946BDE8F08D57CD9E5E1426D13F5A
:10460000AA4C58E87AB6FB3F0000F0BF000040BE5D
:10461000845D57134B57B03FB2934C19ED5EE43FA6
:10462000BEDE02B90240F83FDE39028FC7C0743FD8
:104630008AAB1283000CC83F24D7E508B6D8F03FF8
:104640000F34580E5895FD3F0000F03F0000000069
:10465000000000000000000066732D3852C1E03FEA
:10466000182D4454FB21F93F66732D3852C1F03F99
:10467000182D4454FB21F93F66732D3852C1004078
:10468000182D4454FB2109403FD038C6A6F1044000
:104690002DE9F04D804686B0D8E9006714461D46E6
:1046A00030463946FFF7EAFE824620462946FFF7A4
:1046B000E5FEBAF1000F06D500284DD4022806D138
:1046C000C8E900453FE1BAF1020FF7D121E050B946
:1046D0000022524B3046394600F05CFA0FD0C8E950
:1046E000004500202FE1012815D100224C4B304617
:1046F000394600F04FFA18BFC8E900454FD100F025
:1047000093F9212101604FF0FF306FF00041C8E9BB
:104710000001022017E1BAF1000F0FD1C8E90045EE
:104720000E99404600F046FA040018BF012C40F0F4
:10473000098100F079F92221016003E10022374B61
:104740003046394600F026FA0DD120462946FCF7BE
:1047500025FCC8E9000122E0304639460022314BF1
:10476000FCF704FC0AD2002320462946FCF716FC7D
:10477000C8E9000106B00020BDE8F08D01222A4BF7
:1047800000F03AF90DD80022244B20462946FCF7C8
:1047900005FCC8E9000100F047F922210160012071
:1047A000D1E0224A224BFCF7F9FB00220023FCF760
:1047B000DDFB34BF1F4B414BFCF7FCFEFCF7ECFD6F
:1047C0000290FCF715FE82468B464FF078421A4B5A
:1047D000FCF7E4FB02460B4630463946FCF720FE68
:1047E00006460F46154A164B50465946FCF7D6FB6F
:1047F00002460B4630463946FCF712FE6FF00102C6
:10480000104B00F0F9F806460F461FD800220E4B59
:10481000FCF7ACFB1AD22046294683E00000F07F6B
:104820000000F0FF00C89CC000C89C40FE822B65C1
:104830004715F73F0000E0BF422EE63FF2E4D5BC4B
:10484000E7E84B3EFFFF8FBC0000903C32463B4602
:10485000FCF7A4FB82468B46194A1A4BFCF79EFBD9
:10486000194A1A4BFCF7A6FE02460B46504659461B
:10487000FCF794FBCDE90401154A164B5046594606
:10488000FCF78CFB144A154BFCF794FE02460B46D2
:1048900050465946FCF782FB0022084BFCF78AFE83
:1048A00002460B4630463946FCF778FBDDE9042327
:1048B00006468B46FCF77EFE094F13E00000E03F02
:1048C000112E5781A03F503F5843128C8F71BC3F2F
:1048D0004BE8A541B752013F0BBDF3DAE8708C3FBE
:1048E0000000F03F02460B4600203946FCF762FE0E
:1048F000CDE900013246DDE904015B46FCF790FD9D
:1049000002460B4600203946FCF754FE02460B4691
:10491000DDE90001FCF714FC02460B46204629465F
:10492000FCF73CFBC8E9000102980E9909184046C3
:1049300000F040F9040018BF012C03D100F074F816
:1049400022210160204606B0BDE8F08D7047FEE7E9
:10495000FEE7FEE7FEE770477047704722480068B1
:10496000401C21490860704780B50420FEF705FF10
:10497000002803D00420FEF715FF13E00220FEF705
:10498000FCFE002806D00220FEF70CFF012017498C
:10499000087007E00820FEF7F0FE002802D008208B
:1049A000FEF700FF01BD10B540F225511048FDF79C
:1049B000EBFD00280CD040F225510D48FDF7DEFD3F
:1049C0000B48FDF7C8FD04002000C0B2FDF77FFCD6
:1049D00010BD084800884FF6FE7108400549088060
:1049E00070470148006870472C06002033060020FD
:1049F00000380140100000404FF4001C1CEB410F38
:104A000094BF1CEB430F09E041EA030C50EA4C0C45
:104A100052EA0C0C03D28B4208BF8242704714BF8B
:104A20009942904270470000014800F049B90000E7
:104A3000140000202DE97C4C064647484749D6E93A
:104A4000004522462B46FCF7A9FACDE900010022D9
:104A50000023FFF7D1FFDDE9002399BF0020404983
:104A600000204049FCF7A6FDCDE900010021684681
:104A700000F027F9DDE900230020002100F08AF88A
:104A80004ED03949FCF78AFA82468B464FF0A04057
:104A9000364952465B46FCF781FA02460B462046F1
:104AA0002946FCF7BDFC04460D464FF0C040304996
:104AB00052465B46FCF772FA02460B4620462946F0
:104AC000FCF7AEFC04460D464FF000502949524613
:104AD0005B46FCF763FA02460B4620462946FCF784
:104AE0009FFC04460D460020234952465B46FCF7D6
:104AF00055FA02460B4620462946FCF791FC04462F
:104B00000D464FF000501D4952465B46FCF746FAF1
:104B100002460B4620462946FCF782FC04460D4619
:104B2000C6E90045DDE90001154A164BFCF71EFAFF
:104B300004D3154A154BFFF75FFF05D80022144B2D
:104B400000F0FCF8CDE90001DDE90001FCF724FCF0
:104B500000F00300BDE8768C83C8C96D305FE43F88
:104B60000000E03F0000E0BF0000303EFB21B94103
:104B7000B410114026A6513E5C14D33C9A833B3BB3
:104B80000000C0FFFFFFDFC10100C0FFFFFFDF41EA
:104B90000000E04190420CD141EA030C50EA4C0C79
:104BA00007D0994205D14FF4001C1CEB410F38BFD0
:104BB0008942704770B504460D466068C0F30A50DC
:104BC00040F2FF71884207D16068000304BF20688B
:104BD000002817D0022070BD20B92046FCF7A5F9A7
:104BE000012866DA012D0FDB40F2FF71091A8D42B0
:104BF0000AD36068002847BF00202F4900202F49B2
:104C0000C4E90001012070BD4142A942616806DA91
:104C10006FF31E51401941EA0050606040E0401EB1
:104C200063684519012205F1350062F31F533528E9
:104C300001F00041636003D361600020206070BD1B
:104C4000002015F11F0F04DA2068236000222035B0
:104C500062606A4212D0401E25688041C2F1200382
:104C6000C0439D4045EAD07025686668D54006FA85
:104C700003F32B4323606368D340636062680A4395
:104C8000B0F1004F626003D80DD12078C0070AD57B
:104C90002068401C2060206828B96068401C606063
:104CA0004FF0FF3070BD6068884204BF2068002864
:104CB000F6D1002070BD00BF0000F0FF0000F07FC3
:104CC00070474268C2F30A5240F2FF739A4207D11A
:104CD0004168090303BF00680028012002207047D3
:104CE00043685B0004BF0368002B25D040F23343C8
:104CF0009A1A521A012A1FDB352A06DB416801F095
:104D0000004141600021016013E0012102F01F0316
:104D10009940491E920607D5426811404A404260B8
:104D200002681143002202E0026811404A4002601A
:104D300011B14FF0FF3070470020704770B540F25E
:104D4000FF7601F0004C5B0006EA11545D0D1ABFBE
:104D5000B442B54278E0B3EB410F08BF82424BD278
:104D6000C3F3530343F48013C1F3130141F48011DF
:104D7000641B0B3C13D9C90241EA5051B1FBF3FE4D
:104D800003FB1E11A2FB0EE6DEEBC020B14101D2F7
:104D90008018594150EA010653D00B3CEBD80B3434
:104DA000C4F12006A14020FA06F6A0403143B1FB31
:104DB000F3FE03FB1E11A2FB0EE6B0EB0E00B141A9
:104DC00001D28018594102BF0146203D0020C1B3E5
:104DD000B1FA81F39940C3F1200220FA02F21143A3
:104DE0009840ED1A0A3509DBC00A40EA41504CEA06
:104DF000D12101EB055170BD23D070BDD5F10B055C
:104E0000B5F120020DDAC5F120020300E84001FAF5
:104E100002F6E940934073F10043704151EB0C01FD
:104E200070BD402D0DDC430821FA02F0C2F12005CF
:104E300011FA05F6334373F1004370415CF1000150
:104E400070BD6146002070BD53EA020E1ABFB44225
:104E5000B54237E0B3EB410F08BF8242CCD25B08CA
:104E6000B3FA83F504BFB2FA82F6AD190B3DB5F182
:104E7000200624BF02FA06F305E0AB40C5F1200688
:104E800022FA06F63343AA40D5F1010524427FF405
:104E90006BAF31F00041B1FA81F404BFB0FA80F693
:104EA000A4190B3CB4F1200624BF00FA06F105E07A
:104EB000A140C4F1200620FA06F63143A040D4F107
:104EC000010455E74FF4001515EB410F2CBF6FF0AF
:104ED0000041EB4218BF6FF00041BDE87040FFF4A5
:104EE000C7AA704780B53B48006850F001003949B7
:104EF0000860394800683949084037490860354832
:104F0000006837490840334908603248006830F487
:104F10008020304908603048006830F4FE002E4997
:104F200008605FF41F002F49086000202E490860C8
:104F300000F005F85FF000602C49086001BD80B505
:104F400000F001F801BD82B0002001900020009027
:104F50002048006850F480301E4908601D480068F1
:104F600010F4003000900198401C01900098002837
:104F700003D10198B0F5A06FF0D116480068800306
:104F800002D50120009001E0002000900098012847
:104F90001DD111480068104908600F4800680E498B
:104FA00008600D4800680C4908600B4800688008DC
:104FB0008000094908600848006850F0010006496F
:104FC00008600548006810F00C000428F9D102B010
:104FD0007047000000100240041002400000FFF87B
:104FE000FFFFF6FE081002402C10024008ED00E022
:104FF00019E050F8041BCB0744BFA9F1010359186D
:10500000121F0023042A41F8043BF9D25FEA827C94
:105010000B4604D54FF0000CA1F800C09B1CD10733
:1050200044BF0021197050F8042B002AE1D17047C9
:105030000F004F806F8080808080AA000019000AD6
:10504000F500001304E2000AF500033600010C002D
:1050500000000000000000000000000000010C0043
:105060000000000010B450F8041B79B102684368D6
:1050700012180830DC0744BFA9F10104E31852F804
:10508000044B43F8044B091FF9D1ECE710BC7047FF
:1050900010B5074979441831064C7C44163404E0B5
:1050A0000A68081D511888470146A142F8D110BD71
:1050B000080000002800000039FFFFFF1404000072
:1050C00020020020000000009DFFFFFF1C000000E8
:1050D00048000000000000200000000000F00BF875
:1050E000002801D0FFF7D4FF0020C046C046FDF7DE
:1050F0006FF800F002F80120704700F001B80000DE
:105100000746384600F002F8FBE7000020210903BB
:1051100026311820ABBEF9E70000000001020304AD
:105120000102030406070809020406080000000043
:105130005000000038B504460D462846FDF700F93A
:10514000A84218BF0024204632BD00006672657177
:10515000415F70686173653A25640D0A00000000C4
:1051600066726571425F70686173653A25640D0A05
:105170000000000066726571435F70686173653A94
:1051800025640D0A0000000066726571415F616D63
:10519000703A25640D0A00004150442074656D701A
:1051A0003A25640D0A000000014880470148004785
:1051B000E54E0008C5510008566F6C743A25640D21
:1051C0000A000000C046C046C046C046FFF786FF42
:1051D000000000000000000000000000FFF7B6BB68
:1051E000FFF7B5BBFFF7B4BBFFF7B3BBFFF7B2BB2D
:1051F000FFF7B1BBFFF7B0BBFFF7AFBBFFF7AEBB2D
:10520000FFF7FEBFFFF7FEBFFFF7FEBFFFF7FEBFD2
:10521000FFF7FEBFFFF7FEBFFFF7FEBFFFF7FEBFC2
:10522000FFF7FEBFFFF7FEBFFFF7FEBFFFF79CBB18
:10523000FFF7FEBFFFF7FEBFFFF7FEBFFFF7FEBFA2
:10524000FFF7FEBFFFF7FEBFFFF7FEBFFFF7FEBF92
:10525000FFF7FEBFFFF7FEBFFFF7FEBFFFF7FEBF82
:10526000FFF7B7BBFFF7FEBFFFF7FEBFFFF7FEBFBD
:10527000FFF7FEBFFFF7FEBFFFF7FEBFFFF7FEBF62
:10528000FFF7FEBFFFF78FBBFFF7FEBFFFF7FEBFC5
:10529000FFF7FEBFFFF7FEBFFFF7FEBFFFF7FEBF42
:0452A000FFF7FEBF57
:04000005080051C5D9
:00000001FF
