:020000040800F2
:10000000880A002075010008511F0008E11500084A
:1000100000000000000000000000000000000000E0
:10002000000000000000000000000000A121000806
:100030000000000000000000FD200008A5210008CD
:100040008701000887010008870100088701000870
:100050008701000887010008870100088701000860
:1000600000000000A51500088701000887010008AE
:100070008701000887010008870100088701000840
:100080008701000887010008870100088701000830
:1000900000000000870100088701000887010008B0
:1000A0008701000887010008870100088701000810
:1000B0008701000887010008000000008701000890
:1000C00000F002F800F046F80CA030C808382418F8
:1000D0002D18A246671EAB4654465D46AC4201D180
:1000E00000F038F87E460F3E0FCCB646012633426C
:1000F00000D0FB1AA246AB46334318472C420000FF
:100100004C420000103A02D378C878C1FAD852079E
:1001100001D330C830C101D504680C6070470000BD
:100120000023002400250026103A01D378C1FBD813
:10013000520700D330C100D50B60704710B5642959
:1001400002D100F077F810BD002010BD1FB51FBD13
:1001500010B510BD01F0F6F91146FFF7F7FF03F0F7
:1001600003FC01F00EFA03B4FFF7F2FF03BC01F049
:1001700011FA00000748804707480047FEE7FEE7FE
:10018000FEE7FEE7FEE7FEE704480549054A064BA1
:100190007047000055220008C100000888040020B4
:1001A000880A002088060020880600200FB4054930
:1001B00010B503AA029800F073FB10BC08BC04B091
:1001C0001847000020000020F8B50E460446002025
:1001D00020622046E1688847002829D0252802D0DF
:1001E0006268A16820E0E168204600278847050092
:1001F0001ED028464138192802D80127FF02203591
:100200003246204627602946FFF798FF002808D08D
:10021000012804D0F61DF608F6000836D9E7361D89
:10022000D7E762682846A1689047206A401CCFE75C
:10023000206AF8BDF7B5002575291068009914A645
:1002400011D0C046C046002802DA404211A608E09C
:10025000009909688A0701D50FA602E0490704D56D
:100260000EA6012501E0C046C046009F00242437A9
:1002700004E000F029FB30313955641C0028F8D126
:100280002B4632462146009800F0B1FAFEBD000030
:10029000000000002D0000002B00000020000000E6
:1002A00001E004C0091F0429FBD28B0701D502809D
:1002B000801CC90700D00270704700290BD0C3070B
:1002C00002D00270401C491E022904D3830702D5C4
:1002D0000280801C891EE3E70022EEE70022DFE7B0
:1002E000002203098B422CD3030A8B4211D3002333
:1002F0009C464EE003460B433CD4002243088B420D
:1003000031D303098B421CD3030A8B4201D3944699
:100310003FE0C3098B4201D3CB01C01A524183098C
:100320008B4201D38B01C01A524143098B4201D346
:100330004B01C01A524103098B4201D30B01C01A71
:100340005241C3088B4201D3CB00C01A52418308EB
:100350008B4201D38B00C01A524143088B4201D318
:100360004B00C01A5241411A00D201465241104678
:1003700070475DE0CA0F00D04942031000D34042ED
:10038000534000229C4603098B422DD3030A8B4223
:1003900012D3FC22890112BA030A8B420CD38901C1
:1003A00092118B4208D3890192118B4204D38901A7
:1003B0003AD0921100E08909C3098B4201D3CB01E5
:1003C000C01A524183098B4201D38B01C01A52419A
:1003D00043098B4201D34B01C01A524103098B429E
:1003E00001D30B01C01A5241C3088B4201D3CB0089
:1003F000C01A524183088B4201D38B00C01A52416C
:10040000D9D243088B4201D34B00C01A5241411A42
:1004100000D20146634652415B10104601D3404270
:10042000002B00D54942704763465B1000D3404221
:1004300001B50020C046C04602BD704770477047F6
:100440000246C80FC00781434B0030B54B405B00EC
:100450009B0D20D01923DB06C91801231B059942E7
:1004600020DB0324A40704251346AB400BD3002B49
:1004700004D1EB0613409B00E34204D4012464073B
:10048000002312195941FF231B0599420BD2C900C1
:100490000143500F09E0CB0204D501430803024396
:1004A00005D0054830BDFF21C905084330BD0846C9
:1004B00007210905884330BD0000C07F0346CA02FA
:1004C000400D10B510430A1504D00124E407204361
:1004D000002A05DB0A4CA21A04D4D040FF2A00DD12
:1004E000002010BD4A00002B01D0012000E00020B8
:1004F000101801225205D042F2D8C817C04310BDCF
:100500001E0400000121C9050123411842001B06F9
:10051000D3185B0E0AD0C1100722D20689184007F3
:100520005242D14201D5520089187047090208D5BC
:100530000146002A03D0C10FC907002070471046AA
:100540007047420202D00020024970470721090586
:100550000143F4E70000F87FF0B5FF252D04C6093C
:10056000C209FF2704462E400137CB093E434840CD
:100570002A402B400746002A6BD0002B69D0AA42A4
:1005800067D0AB4265D0002800DA32460125ED0580
:1005900029432C4309022002090AD21A4B0C7F245A
:1005A000E31A434C000A7C44E35C7D2424041219C2
:1005B00014145B00A218884201D3521C00E04000D2
:1005C00049420C465C4324115C43DB016415E3188B
:1005D000040A5C43C502200D0C4644436419250AF5
:1005E0005D432303EC0C0D46654300030019EB1833
:1005F0004C42A34201D35B18401CD4052018002BA9
:1006000007D05B00C91804D3401C002901D1400861
:1006100040003F2189048A4209D3002A08DC1106E0
:10062000090F04D0032149074018C00FC007F0BDCF
:1006300001224100120689187F2252069142F6D209
:1006400005214907C84201D59010F0BDFF20C00523
:10065000F0BD002F00DA32461648AA4207D2AB425C
:1006600005D21902090E17D0F80FC007F0BDFF25FB
:1006700063002D06AB42F9D84900A942F6D8AB4237
:1006800001D1A942F2D0A94201D1002101E06100CB
:100690004908D0050843F0BD1102090EFBD0FF2028
:1006A0000243D005F0BD0A460146104654E700005B
:1006B000FE3A00000000C07F10B501469E240002F3
:1006C000CA15A307002A02D01843002A04DBA21A85
:1006D000002A0CDDD04010BD1206120E01D14000E0
:1006E0004008A21A03D4D04040420028F3DDFF2284
:1006F00048001206904201D9002010BDC817C0431F
:10070000584010BD0102C21504D00123DB07194374
:10071000002A0ADB9E239A1A02D40846D04070476A
:10072000FF2241001206914201D900207047C017F4
:10073000C04370471F22030C02D10F2200041CD0BB
:10074000030E01D10002083A030F01D10001121F6C
:10075000830F01D18000921E002801DB4000521E51
:10076000D2055118021251181922904004D3491C85
:10077000002801D14908490008467047C10FC90740
:1007800000D04042012292071143D3E7012189079B
:10079000D0E7000010B5FF22C30D134009D05A4026
:1007A00007D0914205DA5C42A14202DDC905081872
:1007B00010BDC40FE407002B06D0002A06D0002984
:1007C00002DBFF20C0050443204610BD4102FCD0DF
:1007D000004810BD0000C07F10B500F0D9FC0068D3
:1007E00010BD10B5044600F0D3FC046010BDFFB589
:1007F00004460D4681B0243000902168880604D557
:100800001022E0699143216000E00120A84201DD4F
:10081000471B00E000270498A1697A191018081AEC
:10082000A0612078C00602D42046C046C0460026FB
:1008300008E003986268A168805D9047206A401CC8
:10084000761C206204988642F3DB2078C0060AD525
:100850002046C046C04606E06268A1683020904746
:10086000206A401C206238467F1E0028F4DC07E026
:1008700000986268A168405D9047206A401C206231
:1008800028466D1E0028F3DC2046C046C04620786E
:10089000000602D5022005B0F0BD0120FBE70000F4
:1008A000084B70B50D467B4400F07BFC044628469F
:1008B00000F08AFC002802D00020C04370BD204612
:1008C00070BD0000BB29000001468008081A02091B
:1008D0001018020A1018020C1018C0088200121812
:1008E0005200891A01E0401C0A390A29FBD27047DC
:1008F000F0B50C46871A9C410D46861A9D4103D2DD
:10090000C01BA141D21963410D0D1F0DC94EEC1B37
:10091000AE435CD07F057F0D0026002F51D02D0502
:10092000AC46A943DD020123ED0A1B051D4320232C
:100930001B1B24D41746E740381871412F46E74067
:10094000CC199D402818314661410C0D27D16144D6
:100950009A4013D50023401C594152000ED1400843
:10096000400001224B005205D34207D30520400727
:10097000C14201D5B04900E0B0493046F0BD6B003E
:10098000002A00D001229A181F23203C1B1B01D5EE
:10099000002302E0E540281871410C0DD7D0012456
:1009A00024050919C407CD0740084908E40F284366
:1009B0006144002CD5D00024401C61419A40D0D124
:1009C000CDE76A05520DD9D1C90FC907D5E79C4DAE
:1009D0004E00002801D0012400E0002434195F00FB
:1009E000002A01D0012600E00026BE19954FAC4236
:1009F0000CD8AE420AD8B44206D001256D05EC42AF
:100A0000BCD010461946F0BD9942FCD000203946B2
:100A1000F0BDF0B51FB40C460F46811A9F41254624
:100A2000861A9D4106D20125ED076F40401ABC4150
:100A300052187B41210D1E0D8D1BAC467D4D8D4303
:100A40007ED075056D0D7CD00D05AE46AC431B0305
:100A50001B0B794D52429D41202366469B1B14D3AC
:100A60001746F740381800260090744160462F461C
:100A70000741E41900989D402818664116D4714634
:100A800071189A4025D5012320E093182A466A411F
:100A90005200002B00D0521C1E23203E9B1B002B1B
:100AA00061DD3541EE1728186641E8D5001876411A
:100AB0005B1C9A4000D3401C4B05F3181524E340FF
:100AC00010D3002B52D071467118D30FC01802D327
:100AD000491C05B0F0BD0123DB079A42F9D140085B
:100AE0004000F6E701225205B21801D1002853D088
:100AF0000123CC0ADB029943891E002A08D1020C8B
:100B000003D0020C0004103902E002460020203914
:100B10000023550B05D112020823550B01D15201B8
:100B20000D23550C01D112011B1DD50C01D19200D2
:100B30009B1C150D01D152005B1C2025EE1A01E013
:100B40002CE022E00546F54015439840CA1AE1071B
:100B500069181305C918002ABBDA032040070818D2
:100B6000C10FC9070FE071466118B2E7F1074008ED
:100B70000843711071444A000CD001235B059A426E
:100B8000A7D2C90FC9070020A3E74905490D26D1FF
:100B9000002001E00028F4D100219AE7284D6600EA
:100BA000002801D0012100E0002171185F00002A17
:100BB00001D0012600E00026BE19224FA94210D81C
:100BC000AE420ED8B14208D001256D05E94206D0EB
:100BD0001946A802414010467BE79C4201D02146BD
:100BE00077E70020394674E710B50C465C4005D520
:100BF0000124E4076340FFF70CFF10BDFFF778FE08
:100C000010BD30B40C465C4004D50124E4076340B9
:100C100030BC6DE630BCFCE670B50124E4076140F1
:100C20000D465D4002D4FFF763FE70BD6340FFF7E1
:100C3000F0FE70BDFF0700000000F0FF0000F07F35
:100C40000000E0FF0000F87FF0B5F94D0C091E0927
:100C50002C402E402F468BB0A7437DD0B543FCD00F
:100C6000002E7AD0002CFCD00D465D40ED0F2543C0
:100C7000AC1BFF25AD0464190894C502440DC902DC
:100C80002143500DDC0204430120C007014304430B
:100C9000D2020191200C110C00958C4601042346D0
:100CA0008B430A9161460904E24D8A430991010A86
:100CB0007D4449198039097805464D4301266D1850
:100CC000F605751B6943C90C640B891C4C436418F9
:100CD000B5012C1B250C2E04B4434C434D43210C71
:100CE000691889090591009DE90701D00121C9070B
:100CF00004912C4601996708CD072F434C08059DA8
:100D0000E10B4D432D0C29466646754302950D4671
:100D100045432E46029D7D1BB44100950D465D4323
:100D200001942C0C2F040D465543AE462D0C3D432B
:100D3000029503947546049C2D04641B049406D20A
:100D4000029C039D641C002675410395029401AC2E
:100D500070CC009F7D1B01E03EE162E1B4410904DB
:100D60000095079101940599A4086143090C0C466C
:100D70004443650BE7040C4666467443A646640B81
:100D80003C43039502947446049DE4042C1B049494
:100D900006D2029C039D641C0026754103950294B3
:100DA00001AC70CC009F7D1BB44101940C465C43A8
:100DB0000095650FE7000C465443A646640F3C437C
:100DC000039502947446049DE4002C1B049406D2FF
:100DD000029C039D641C002675410395029401AC9E
:100DE00070CC009F7D1BB441AE09AF06049DC900C5
:100DF000AD092F43049DA406AD060495079D344319
:100E000069180791059DE10B4D432D0C2946664657
:100E1000754302950D4645432E46029D7D1BB44108
:100E200000950D465D4301942C0C2F040D4655434F
:100E3000AE462D0C3D43029503947546049C2D044B
:100E4000641B049406D2029C039D641C0026754119
:100E50000395029401AC70CC009F7D1BB4410194BA
:100E60008C050694079C890A611800950791019CDE
:100E70000599A4086143090C0D464543680BEF042E
:100E80000D46644665436C0B3C43049FED047D1B9B
:100E9000AC4602D20025641C6841009E019D371BB0
:100EA00085410846584301950C46460FC5005443FA
:100EB000600F28436546E4002C1B02D20025401C2D
:100EC0006E41019D3F1AB5412846BD098006284361
:100ED0008446A009BF064E020699A4067618074369
:100EE000079D002068410A99079019430020099B3B
:100EF00000906046FF1913434041E20F64003A43FB
:100F0000A4460446D71A8C41A04203D90120009080
:100F100020463A46C70F941840416246D20F2243FA
:100F2000644664000494009CBE466400D71AA4463C
:100F3000044602978C417746002F01D1A04204D984
:100F40006046401C8446029A2046C40FA646941868
:100F50004041049A0546D20F224364466400D31AE6
:100F60008D417146002901D1A84202D928461A466E
:100F7000641C10430122002800D0164361020020A7
:100F8000079B891904465C410223002C02DB4918A7
:100F900013466441089DCE0A2D145D194B05670563
:100FA000E10A2C050D1908993E43C9076940002B39
:100FB00008D0934006D30022761C5141002B01D16A
:100FC000760876001C4A002D43DB154241D0AA4327
:100FD0003FD030460BB0F0BD06180D464D41174CC2
:100FE0007642AC411AD395181C465C41134A6D42B7
:100FF000A24113D3012252054C00D4420AD15C0015
:10100000D4420BD04B4002D592021143E2E7490093
:101010004908DFE75940C90FC90718E0002008490F
:10102000D8E7054801420DD10342F7D0F2E70000AE
:101030000000FF07343400000000F07F0000E0FFF4
:101040000000F87F114859400143C0124140002080
:10105000C0E70123089A9B069A4205DC0322520747
:101060008918C90FC907B5E7052252078918074A29
:101070001143D2125140ADE770B515461C460246E9
:101080000B4628462146FFF7DFFD70BDFFFFFF7FBF
:10109000F0B53D4B02460C461C400020002C63D0AE
:1010A0003A4D8B4366D000296BDB0B0D1D05A94320
:1010B00001252D0529430124FD33E34001D3921876
:1010C0004941FF3381339C468B02940D0121234318
:1010D00089074C42920200271B198C105D1A04D418
:1010E0002D1B02D42B466500491992185B416408F8
:1010F000F4D15C1A08D40125ED07EE175519744197
:1011000002D42A462346491C94185B4101229207C7
:101110001D46E61B8D4106D4B61A854103D42B46E5
:10112000550034467F1924195B415208802AEFD1BB
:10113000234300D0022338460A22D04001D30122A3
:1011400013438A0510436246890A12058918002B49
:1011500009D00122D34002D30022401C5141002B70
:1011600001D140084000F0BD0B03134307D0C90F65
:10117000C907F0BD0803104303D1002901DB104665
:10118000F0BD00202946F0BD0000F07F0000F87F90
:10119000004870472404002001694A1C0261087855
:1011A000704700B58FB00291002105910549019368
:1011B00079440391114604906846FFF705F80FB093
:1011C00000BD0000E5FFFFFFC068802108407047B8
:1011D00030B50346CA02400D1043164D164C0A1591
:1011E00002D02043002A06DBAA1A002A12DDD040D2
:1011F000FF2A0BDC30BD5205520D01D140004008E2
:10120000AA1A07D4D0404042FF2A01DD002030BD99
:101210000028FCDD4A00002B01D0012000E0002066
:10122000101801225205D042F0D8C817C0436040C0
:1012300030BD00001E040000000000801F22030CCF
:1012400002D10F22000402D0030E03D004E00020DC
:10125000014670470002083A030F01D10001121F36
:10126000830F01D18000921E002801DB4000521E36
:10127000120551184205C012411810467047C10F9F
:10128000C90700D04042012292071143D6E701214D
:101290008907D3E7F0B58B4C0F09254689B0BD43CC
:1012A0007BD01D092646AE43FAD00E465E4027404D
:1012B000F60F3E43254071D024012142FBD0FF248C
:1012C000AD19A4042D1B039501252D05DB02DB0AB6
:1012D000C9022B43C90A29431E010901040F130F38
:1012E000050121431701880B820391432D098C4688
:1012F000A90B1E438A039543B30B9A0396433F09F8
:10130000BA0B9403A74302962E467E430497B64633
:101310004E19D7190C460196544305977E43371B47
:101320007646BF1B3601B646BE0B3619009676468A
:10133000BC043719009C01D3641C00946400002F86
:1013400001D001263443029E049F754366467E43C6
:101350000496760034196E0034190094029C019EA4
:101360001C196643751BAE46069465464519059CD7
:1013700005956C43594375460891691A0191049E7D
:1013800001465143A41B0491611A009C0791E10698
:1013900005D061090122114302E072E06EE06109AB
:1013A000089D00272C0A2D066918049D7C412A0AF5
:1013B0002D066918019D6241AC0DAD026D185441B6
:1013C000079A910D920255196141029A6446584359
:1013D0005443069B059A5A43121A131B9A0E9B01FB
:1013E0005B187A41010B0005C3185141220A2006FF
:1013F00044195A419A4200D2491C012040028142BC
:1014000003D315230226F64302E014230326F643F2
:101410002020C51AA9401746AF40DA400A432046AB
:101420000399D8400914731819055118039A3843C1
:10143000D2075140AC4009D00122944006D300228B
:10144000401C5141002C01D1400840001E4A9342EB
:1014500012D3012203989206904207DB0520400731
:1014600009181A480143C012414004E00320400714
:101470000818C10FC907002009B0F0BD0020F1070E
:10148000FAE705180C464C4111486D42A04115D3AE
:1014900094181A465A410E48644290410ED30120D6
:1014A0004A004005824209D35A00824206D359407D
:1014B000C90F084AC90700201143DDE7002006498B
:1014C000DAE700000000FF07FE070000FFFFFF7FD4
:1014D0000000E0FF0000F07F0000F87F70B50546D7
:1014E0004800440D124B0020002C0AD0634008D065
:1014F0009A4206DA6642B24203DD120540195141B2
:1015000070BD002C08D0002B09D0C90FC907002AD4
:10151000F6DB084A114370BDC90FC90770BD2846E4
:101520000A03104302D00020034970BD284670BD55
:10153000FF0700000000F07F0000F87F00487047C0
:10154000240400207546FFF7F9FFAE460500694602
:101550005346C008C000854618B020B5FEF714FEFB
:1015600060BC00274908B6460026C0C5C0C5C0C536
:10157000C0C5C0C5C0C5C0C5C0C5403D49008D4639
:10158000704710B50446C046C0462046FEF7EBFD46
:1015900010BD000001491820ABBEFEE72600020086
:1015A000704700000B4801684907C90F01D00421AA
:1015B0000EE001688907C90F05D002214160064984
:1015C00001200870704701688907C90FFAD0082107
:1015D00041607047000002402400002072B6FEE720
:1015E000FEE70000F7B5294A0F46156882B00146AC
:1015F000274883691B04DB0F03D013685B1B0A2B8E
:10160000F7D3224A1268234C521B20260A2A2CD2D6
:10161000214B01931A0300923B4600221C4800F024
:1016200069F900211A48194B10E082699207D20F1C
:1016300003D11A68521B0A2AF7D31A68521B0A2AC6
:1016400013D2049A525C8262491CC9B2B942ECD3EB
:10165000194682699206D20F03D10A68521B0A2AE0
:10166000F7D30968491B0A2908D36188491C61809E
:10167000C1693143C161012005B0F0BDC169314389
:10168000C1612088401C20800020F5E72800002050
:101690000054004000000020002000800548012187
:1016A000026B09050A430263026B8A43026300204E
:1016B000704700000010024070B583680022DB070D
:1016C000DB0F02D00122104670BD8C684B68C568E4
:1016D0002343CC68054E35402C432343C360036944
:1016E00009689B009B080B430361ECE7C73FFFFFC2
:1016F000F0B5C26800230122C46852058468E4077B
:10170000E40F02D001231846F0BDC568104C154205
:1017100002D04D68F02D08D08E680D680F693543F2
:10172000CE683E4335434E6905E0CE680D684F698B
:1017300035430E693E433543C66826403543C56090
:10174000C4681442DFD04968826A0A438262DAE7D9
:101750003CC2FEFF10B543690424214007248C409D
:10176000A3438A401343436110BD000008B50449F8
:101770000A6802430A6009680140009108BD000040
:101780004010024002490A6B02430A63704700009E
:101790000010024002490A6B82430A63704700004E
:1017A00000100240F0B5084C0546059E0C35675CFC
:1017B0000830102E03D03A50605C4351F0BD7A518E
:1017C000615C0B50F0BD0000FE3F0008034A515C15
:1017D000425801231A43425070470000FE3F000860
:1017E000044B001D595C0B581B0C1B0413430B507E
:1017F00070470000FE3F0008F0B500244CE00123D4
:10180000A3401A4047D04B68012B01D0022B0FD1C7
:101810008E688568134653435F00DF19BD437343E9
:101820001D438560CB684568534395431D43456020
:101830000F69C668134653435D005D19AE435F43AD
:101840003E43C6604E68022E1FD1FF2A0ED81746AF
:101850004A69066A94461A467A437A431701BF1AC0
:10186000BE4367467A43164306620EE0160A3246C6
:1018700072434F6972437243BC461601B71A466AF7
:10188000BE4367467A43164346624A680668534336
:10189000AE431E430660641C0A681346E340AED1A3
:1018A0000020F0BD10B5036849434C000C19A34358
:1018B00051430B43036010BD02460B4B00200B4904
:1018C0009A4202D10122520504E0094B9A4208D102
:1018D00001229205CB6A1343CB62CB6A9343CB625E
:1018E0007047012070470000005400400010024083
:1018F00000580040F0B5069C4568660D11431A0477
:101900001143044F059A3E431143B54321430D4310
:101910004560F0BDFF7BFF0330B5026852085200FE
:1019200002608C68CA6803681F252D021202AB434F
:101930002243134303604A680261026801231A4389
:10194000026083680122D203934383608C690B6930
:1019500085682343ED0AED021D4385600B69002B6A
:1019600002D08368134383600C68036803252D0548
:10197000AB43234303604B69416891431943416082
:10198000002030BD08B504494A6B02434A63496BE5
:101990000140009108BD00000010024010B57D21FB
:1019A000C900FEF79DFC0449401E48610020886183
:1019B0000520086110BD000000E000E010B50446FD
:1019C00000F0BEFB206000F09BFB606000F0A8FB15
:1019D000A06010BD10B50024032823D1124840692F
:1019E00003218007800F09040843C94340180AD027
:1019F00001280CD0022810D000F0A2FB00F080FBE0
:101A000000F08EFB01E000F09BFB04460AE000F0D2
:101A10000FF8012806D1054C04E000F011F8012868
:101A200000D1C403204610BD401002400024F40041
:101A3000024800684005C00F7047000000100240D7
:101A40000248C0698007C00F704700004010024084
:101A50000248C06870210840704700000010024032
:101A60000248C0688007800F7047000000100240E5
:101A70000248C0684004400E704700000010024059
:101A800003494A699200920802434A617047000084
:101A90004010024002480069C003C00F70470000B8
:101AA00000E000E0014908607047000038000020B5
:101AB00070B51C490024884201D1C51428E00122D8
:101AC00092071949904208D1CA6A01200243CA62AA
:101AD000C86A40084000C86222E0144A904207D118
:101AE000CA6A02200243CA62CA6A8243CA6217E013
:101AF0000F49884201D1C5130AE00E49884202D13C
:101B000001256D0404E00C49884208D10125AD048B
:101B10002846FFF737FE2846FFF73CFE00E0012489
:101B2000204670BD002C014000100240000400401F
:101B3000002000400044014000480140F0B5026828
:101B40001A4B0124A4071A4D984203D0A04201D099
:101B5000A84203D17026B2434E683243154E164F49
:101B600098420AD0A04208D0A84206D0134CA04206
:101B700003D0B04201D0B84204D103242402A243CE
:101B8000CC68224302608A68C2620A8882629842F4
:101B900003D0B04201D0B84201D109690163416963
:101BA0000122114341610020F0BD0000002C0140E2
:101BB0000004004000440140004801400020004073
:101BC000012910D0042910D0102910D0402910D09C
:101BD000CA1FF93A05D00122920291420BD1052188
:101BE00016E0042114E0002112E0012110E002219E
:101BF0000EE003210CE001221203914201D10621E3
:101C000006E001221204914201D1072100E00821DF
:101C1000064A1830525C10180268044B09335B5CAA
:101C2000042199408A43026070470000EC3F00089D
:101C3000012910D0042910D0102910D0402910D02B
:101C4000CA1FF93A05D00122920291420BD1052117
:101C500016E0042114E0002112E0012110E002212D
:101C60000EE003210CE001221203914201D1062172
:101C700006E001221204914201D1072100E008216F
:101C8000064A1830525C10180268044B09335B5C3A
:101C9000082199400A43026070470000EC3F0008A9
:101CA000F8B50D4601210C032F1B0023504EA54211
:101CB00045D007DC012D35D0102D37D0FF3D012D4B
:101CC00038D138E00F2424033D1B67D02401A542FE
:101CD00030D1016A01252D05A9430162016A446DD5
:101CE000444F3C4017683F023C436F00B943178A9A
:101CF0003F053943A94395882D052943B04205D0B6
:101D00003D4DA84202D03D4DA84207D1456801266D
:101D1000B604B5439669B602354345604465D2685A
:101D2000C26561E0114600F015F902E0114600F0CD
:101D300055F901465AE0114600F098F9F9E7016AB1
:101D400001242403A1430162016A4568C469032791
:101D50003F02BC43274F3C4017683F023C430127EA
:101D60007F03B94317693F03394301273F03B94351
:101D700057683F033943B04205D01F4EB04202D0EE
:101D80001E4EB04205D10126B603B5439669B60191
:101D900035434560C461D268026425E0016A0125CB
:101DA0002D04A9430162016A446D154F3C40176838
:101DB0003C436F00B943178A3F0439439788A943CE
:101DC0003F043943B04205D00B4EB04202D00B4E17
:101DD000B04205D14668AE4395692D022E43466058
:101DE0004465D268846D8265016219460846F8BD73
:101DF000002C0140FF8FFFFE0044014000480140DD
:101E00008FFFFEFF0021016041608160C1600161C0
:101E100041618161C16170470021018041604A1EBA
:101E2000C16082600161704702460E4B00200E497E
:101E30009A4208D101220B6B920313430B630B6B85
:101E400093430B637047094B9A4208D10122CB6A36
:101E500052041343CB62CB6A9343CB627047012099
:101E6000704700000038014000100240004400406C
:101E7000FEB5044600680D46012738405CD129694B
:101E8000A868EA69084369691143084321682B4A35
:101E9000114008432060E968606803221203904300
:101EA00008436060A969A068121190430843A060CC
:101EB0002348844203D10320FFF78CFD06E021482C
:101EC000844232D16846FFF779FD029800282CD071
:101ED0006E68002E29D029680027EA690B2924D8CA
:101EE0000123DB039A4213D109068A0D164989584A
:101EF000FEF7F6F94000710840183146FEF7F0F998
:101F000081B2124808400907490F0143E1600CE023
:101F100009068A0D0C498958FEF7E2F97108401844
:101F20003146FEF7DDF980B2E0602888E16A80B2D0
:101F3000090909010143E1623846FEBDF369FFEF7B
:101F4000003801400044004018400008F0FF000045
:101F5000FEE7000030B5026A520852000262026ACF
:101F600043688469194DA408A4002C400D682C43D3
:101F70000225AA430D692A4352084D6852002A439C
:101F8000134DA84205D0134DA84202D0124DA842CD
:101F900014D10825AA434D69AD002A430425AA435C
:101FA0008D68AD002A43FF250135AB438D692B4376
:101FB00001256D02AB43CD696D002B434360846105
:101FC000C96841630262002030BD00008FFFFEFF40
:101FD000002C0140004401400048014070B5026AF5
:101FE0001025AA430262026A436884690326360206
:101FF000B4431A4E34400E68360234432026B243AE
:102000000E6936013243AA434D682D012A43144D0F
:10201000A84205D0134DA84202D0134DA84215D1B5
:102020008025AA434D69AD012A434025AA438D6806
:10203000AD012A430125AD02AB438D69AD002B43B1
:102040000125ED02AB43CD69ED002B434360846174
:10205000C96881630262002070BD0000FF8FFFFE2F
:10206000002C0140004401400048014070B5026A64
:10207000FF250135AA430262026A4368C4691B4E08
:10208000A408A40034400E6834436E00B2430E69C5
:1020900036023243AA434D682D022A43144DA8420A
:1020A00005D0144DA84202D0134DA84217D10125E6
:1020B000ED02AA434D69AD022A430125AD02AA43B0
:1020C0008D68AD022A4301252D03AB438D692D0197
:1020D0002B4301256D03AB43CD696D012B43436059
:1020E000C461C968C1630262002070BD8FFFFEFF3A
:1020F000002C0140004401400048014070470000AE
:10210000054989688A093C210A400A400349895CDB
:10211000C906C90EC8407047001002404840000878
:1021200005498968054A4904490F8900515CC90677
:10213000C90EC840704700000010024088400008E7
:1021400070B5154EB06838210840144C082809D0E5
:102150006500102808D0306801218004400F8140BC
:10216000284616E0204670BDFFF77AFC022801D011
:10217000032800D02C46F068450F6D1CFFF768FC63
:102180000609761CFFF774FC60433146FEF7A8F899
:102190002946FEF7A5F870BD0010024000127A0033
:1021A0007047000002484168491C416070470000C8
:1021B0002400002010B5224802210268D208D20073
:1021C0000A43026001684907490F0229FAD11D48F4
:1021D000016882151143016001684905C90FFBD0F0
:1021E0001949C268194B1A401143C16001680122A4
:1021F000120611430160C16812011143C1600168F8
:102200008901C90FFBD081680F22120291438160BE
:1022100082680221D208D2000A4382603822816893
:1022200011401029FBD1816807221203914381607C
:10223000074C2046FFF7B2FB2046FFF733FC10BDEA
:102240000020024000100240020800208C80FF1F86
:102250000090D0037047F0B4040C8BB2264682B2D3
:102260005E430D0C1046370C58433604801900218C
:10227000794116466E43370C36048019794126465B
:102280006E438919F0BC70474900CA02024310002E
:1022900000D004204A0D01D001221043044A490D08
:1022A000914201D102210843012800D10520704745
:1022B000FF070000F7B596B014460021A160D16079
:1022C000179909914D00CD496D088D4205DC17998C
:1022D00061602060002019B0F0BDC949C94E8D422F
:1022E00038DAD32709997F050029C74A1799334659
:1022F00017DDFEF786FCB54206D0C44AC44BFEF794
:1023000080FC6160206009E03A46C14BFEF779FC31
:10231000C04AC14BFEF775FC61602060012019B016
:10232000F0BDFEF761FCB54206D0B84AB84BFEF7E7
:102330005BFC6160206009E03A46B54BFEF754FC57
:10234000B44AB54BFEF750FC616020600020C043EA
:1023500019B0F0BDB1498D42179977DC49004908A1
:102360000746AF4AAF4B0491FEF794FF0022AE4BF5
:10237000FEF73AFCFEF72CFF0A90FEF780FFA24A18
:10238000334603910290FEF785FF3A46049BFEF721
:1023900043FC06460F469D4A9D4B03990298FEF763
:1023A00079FF2A0D01250C9232463B46FEF734FC9C
:1023B00061602060032D39D04800410D0C98401A0F
:1023C000690169181139814230DA98492801794444
:1023D00008960D90081804974368026803990298BC
:1023E000FEF758FF02460B4607910690049908989D
:1023F000FEF707FC06460F46049B089AFEF70CFC06
:10240000079B069AFEF7FDFB0591894904907944E4
:102410000D984018C368826803990298FEF73AFF46
:10242000059B049AFEF7EDFB6D1CBDE7099800289B
:1024300009DA01226068D207504060600A9819B03A
:102440004042F0BD02E00A9819B0F0BD0903012234
:10245000090B12050E9089181798109140007549C4
:10246000400D40184111C006C00E0D91139020215F
:10247000081A14900020069005250790139800284C
:102480000D980CD0401982006B48784487581399F6
:102490008F40101841681498C1400F4304E0401960
:1024A000810066487844475810993846FFF7D3FEB4
:1024B00006460A9138460E99FFF7CDFE8A190A9B07
:1024C0008A4201D2012100E00021C9188C46AF00E8
:1024D000694679188B684E68C318834201D201207F
:1024E00000E0002096193618002802D0964202D942
:1024F00003E0964201D2012000E00020624612185B
:102500004E6068468B60C25128466D1E0028B5DCBF
:102510000121029849074018800F139002980599ED
:102520008000039E049D0B91FEF7A9FE07463046EE
:102530000891FEF7ACFE1D22D243FEF7CFFF1090AC
:102540000F912846FEF7A3FE3D22D243FEF7C6FFB9
:102550000E900D910B98FEF79AFE5D22D243FEF786
:10256000BDFF0B910C900D9B0E9AFEF73DFB0F9B50
:10257000109AFEF739FB3A46089BFEF735FB00251B
:102580000E463A462846089BFEF73BFB0F9B109AE7
:10259000FEF737FB0D9B0E9AFEF733FB0B9B0C9A55
:1025A000FEF73AFB264A274BFEF774FE07460D91CD
:1025B000254A264B31462846FEF76CFE3A460D9BCF
:1025C000FEF712FB0F4615220C9092061D4B31466A
:1025D0002846FEF75FFE3B460C9AFEF705FB179A6E
:1025E000002A05DA139A524213920122D20751406F
:1025F00061602060139819B0F0BD0000FB21E93F35
:102600007CD90240FB21F93F000040543163621A3B
:1026100061B4D03D7370032E8A19A33BFB2139416D
:1026200083C8C96D305FE43F0000E03F661E0000D4
:10263000261E00000BFCFFFFDA1D0000C01D00007D
:10264000182D4454FB21F93D3326A611460B113CAD
:10265000F0B51FB44E00F9207608800584B00F460F
:10266000864204DA0498FEF7B3FD002838D0049AB5
:102670003B4610461946FEF70DFE044602462C481E
:102680000D460B460621784400F05CF822462B46A6
:10269000FEF700FE019100903946079B069A0498C8
:1026A000FEF7F8FD0746029120462946019B009A55
:1026B000FEF7F0FD3A46029BFEF7A3FA074600221A
:1026C0000091D24320462946FEF708FF194A964258
:1026D0000ADA3A46009BFEF794FA0022164B23E0F2
:1026E0000020154909B0F0BD144A964202DD0024CD
:1026F000134D03E001225205B51A002422462B4651
:10270000FEF77FFA0646019122462B4600200A4931
:10271000FEF777FA0D4604463A463046009B01998B
:10272000FEF76FFA22462B46FEF776FA09B0F0BDA7
:10273000761B00003333D33F0000F03F0000E93F39
:102740000000D23FF8B504464F1EC80008382118D3
:1027500015461E46086849683A4606239A4310D033
:102760002A463346FEF796FD3A46D200083AA318A9
:102770001A687F1E5B68FEF737FA06223B469343D2
:10278000EED1022F23D0042F11D0062F2FD12A46AD
:102790003346FEF77FFDE36AA26AFEF725FA2A4672
:1027A0003346FEF777FD636A226AFEF71DFA2A4672
:1027B0003346FEF76FFDE369A269FEF715FA2A4674
:1027C0003346FEF767FD63692269FEF70DFA2A4674
:1027D0003346FEF75FFDE368A268FEF705FA2A4676
:1027E0003346FEF757FD63682268FEF7FDF9F8BD32
:1027F000F0B51FB4054648000C46F921400889058C
:1028000086B088420BDA28462146FFF73DFD0428B2
:1028100001D100F075F8284621460BB0F0BD2A46DC
:10282000234610461946FEF735FD06460F462A4652
:102830002346FEF72FFD00902548019132463B4686
:1028400005217844FFF77EFF02901098039100283D
:1028500029D0204A204B01990098FEF71BFD0490D7
:10286000059168460FC8FEF715FD00220191009002
:10287000D24309990898FEF731FE019B009AFEF7B2
:10288000C0F932463B46FEF705FD099B089AFEF764
:10289000B8F9059B049AFEF7B4F92A462346FEF7D9
:1028A000BBF90BB0F0BD0B4630463946029AFEF735
:1028B000F1FC084A084BFEF797F9019B009AFEF7D6
:1028C000E9FC2A462346FEF78FF90BB0F0BD000065
:1028D000BA1A0000495555555555C5BF10B50122C6
:1028E000FEF7FCFD10BD10B5FEF77EF910BD00220D
:1028F00010B5134610461146FEF7A6F910BD0000AC
:10290000034A10B500201107FEF7E8FD10BD0000D6
:1029100001FDFFFFF0B589B004460D464800069161
:1029200072494008884215DB7149884203DC8842BD
:1029300007D1002C05D020462946FFF7CFFF09B06C
:10294000F0BD6C48002D02DD6B4909B0F0BD6B494C
:1029500009B0F0BD6A49884211DA6A4988420BDA47
:1029600020462946FFF790FC042801D1FFF7C8FF55
:102970002046294609B0F0BD0026F6435DE06D0013
:1029800061496D08884232DA6049884219DA0026C6
:10299000012332469B0720462946FEF725F90746C4
:1029A0000191012220462946FEF798FD0022584B4E
:1029B000FEF727F93A46019BFEF746F904460D4615
:1029C0003BE001260022524B20462946FEF70CF937
:1029D0000746009100224E4B20462946FEF711F98A
:1029E0003A46009BFEF730F904460D4625E049497A
:1029F000884219DA02260022474B20462946FEF774
:102A000049FC0022424BFEF7EFF8074602910022F4
:102A1000414B20462946FEF7F4F83A46029BFEF762
:102A200013F904460D4608E0032622462B460020F3
:102A30003A49FEF709F904460D4622462B46104650
:102A40001946FEF727FC07460B4602460191FEF7A2
:102A500021FC0246029032480B460391062178443D
:102A6000FFF770FE3A46019BFEF714FC00902D48DC
:102A7000019105217844039B029AFFF763FE039BB3
:102A8000029AFEF707FC02460B4601990098002EB9
:102A90000BDAFEF7A9F822462B46FEF7FBFB22468F
:102AA0002B46FEF7B9F809B0F0BDFEF79DF82246B7
:102AB0002B46FEF7EFFB1C4AF6007A4493191A687E
:102AC0005B68FEF79EF822462B46FEF79AF8174AF7
:102AD0007A4493191A685B68FEF79EF8069A002AF2
:102AE000E1DA0122D207514009B0F0BD00001044E4
:102AF0000000F07F182D4454FB21F93FFB21F9BF62
:102B00000000DC3F0000203E0000F33F0000E63FF5
:102B10000000F03F008003400000F83F0000F0BFDD
:102B20006E17000030170000CA160000941600004F
:102B3000F0B51FB4039B54425D00164626439C46E5
:102B4000F40F6D084B004E4E5B082C438E46B4428A
:102B500005D847420743FC0F1C43B44204D96346DF
:102B6000FFF7C1FE05B0F0BD464E6644164309D0DE
:102B7000CC0F6646B61702273E40264304461C4348
:102B800004D00BE0FFF7C6FE05B0F0BD002EFBD071
:102B9000012EF9D0022E32D0032E34D014462C430D
:102BA0000BD0374CA54216D1A3420AD10121890787
:102BB0008D438B43194603950DE0704600280FDBCB
:102BC00025E0314F7F44002E0ED0012E10D0022E72
:102BD00015D0032E17D0A3421DD17046002816DA57
:102BE0002A482B4905B0F0BD7968386805B0F0BDBA
:102BF00001227968D2073868514005B0F0BD2348FA
:102C0000244905B0F0BD2148234905B0F0BD1F4857
:102C1000224905B0F0BD5B1B1B153C2B02DD1B4898
:102C20001E490FE06446002C05DA3C24E34202DA38
:102C30000020014606E0039BFEF706F8490049081C
:102C4000FFF768FE002EE4D0012E0BD0144A154B7E
:102C5000022E0CD0FDF7D5FF0C4A0E4BFDF7D1FF2D
:102C600005B0F0BD0122D207514005B0F0BDFDF71F
:102C7000C8FF064A074BFDF7CFFF05B0F0BD0000C7
:102C80000000F07F000010C068160000182D4454AA
:102C9000FB21F9BFFB210940FB2109C0FB21F93FC2
:102CA000075C143326A6A13C10B506480449006809
:102CB00001F0D0F8044901F087F800F09BFF10BD47
:102CC000A323F93E1C0000200000BC4270B5002484
:102CD0000346204622461A4D07E056009E5F963E68
:102CE000AE4200D30124521C92B28A42F5D3002C8A
:102CF00004D00022E124E400124E15E0002204E09A
:102D000054001C5F2018521C92B28A42F8D3FDF77F
:102D1000F1FA12E055005D5FA54201DD751B00E090
:102D2000651B2818521C92B28A42F3D3FDF7E2FACF
:102D3000201A02D5E1210901401800B270BD00003F
:102D4000E50C0000181500001846704770B50B4DD3
:102D5000FDF71CFD04460A4901F07CF8294601F004
:102D600033F805462046074901F074F8214601F082
:102D700071F8294601F028F870BD00009EAF854229
:102D8000FB40F2BCAF670E3610B500F013F80648F2
:102D900000F09CF805490880FFF7D8FF0449086057
:102DA00000F006FF10BD0000000100200800002018
:102DB0001C000020F0B58BB00025069507950895FE
:102DC000182168460995FDF789FA0020FEF758FE9C
:102DD00001200005FEF7CAFC01263948FEF75EFC1B
:102DE000384CF7070795089506A9204606970995D8
:102DF000FEF762FCE06871058843E060F020019016
:102E00004812009505900295039504956946204661
:102E1000FEF76EFCE0680425A843E0602069B0433B
:102E200020612069E10488432061A06A49150843B4
:102E3000A06207E0FEF72EFE002803D0761E01D226
:102E4000FEF7CCFB20688004C00FF3D001204003C4
:102E50002060062200212046FEF77CFC6068A84323
:102E600060606068082188436060A068164D49066C
:102E700028400843A060012000F026F9A06817212F
:102E800088433843A060022000F01EF9A068C00FFC
:102E900001D0FEF7A3FBA0682840401CA0600325DA
:102EA00007E0FEF7F7FD002803D06D1E01D2FEF704
:102EB00095FB2068C007C00FF3D00BB0F0BD000039
:102EC0000827014000240140E8FFFF7F09498A6A82
:102ED0004003400B02438A628868074A1040001D85
:102EE000886008684007C00FFBD002484030006887
:102EF00080B2704700240140E8FFFF7F10B5012138
:102F000033A000F0DFFD012132A000F0DBFD022143
:102F100031A000F0D7FD022130A000F0D3FD022146
:102F20002FA000F0CFFD02212EA000F0CBFD02214A
:102F30002DA000F0C7FD02212CA000F0C3FD02214E
:102F40002BA000F0BFFD02212AA000F0BBFD022152
:102F500029A000F0B7FD022128A000F0B3FD022156
:102F600027A000F0AFFD022126A000F0ABFD02215A
:102F700025A000F0A7FD022124A000F0A3FD02215E
:102F800023A000F09FFD022122A000F09BFD022162
:102F900021A000F097FD022120A000F093FD022166
:102FA0001FA000F08FFD02211EA000F08BFD02216A
:102FB0001DA000F087FD02211CA000F083FD64200D
:102FC00000F082F800F09AFD00F084FD10BD0000D2
:102FD000B600000001000000028000000430000084
:102FE0000532000006300000070B000008F4000066
:102FF0001080000011040000208000002102000069
:1030000022420000300000003100000032020000C7
:103010003301000060800000610200006242000095
:1030200070000000710000007202000073010000D7
:1030300000B54A00224B520887B09A4202DC0022B7
:10304000134625E01F4B9A4208D1002808D10120E1
:10305000FDF7C7FBFFF74BFC07B000BD9A4203DB4F
:10306000FFF73CFC07B000BD02AAFFF723F9810778
:10307000890F0BD0012001290ED0022916D0009013
:1030800002A80FC8FFF7B4FB07B000BD02A80FC825
:10309000FFF7DEFA07B000BD009002A80FC8FFF7E7
:1030A000A7FB0122D207514007B000BD02A80FC8FC
:1030B000FFF7CEFA0122D207514007B000BD000051
:1030C000FB21E93F0000F07F034A116813685B1A97
:1030D0008342FBD37047000028000020002001211C
:1030E0008907C86370470000FEB50020E125009005
:1030F00006460446214F2D01029000F023FE387849
:103100000028FCD01E4800F0B7F800901C48801C36
:1031100000F0B2F80290684641894088081A00B26F
:10312000002801DA401900B26946098862008E1948
:103130001449641C24068852240EDED0B4B26946B9
:103140000C8001210F48FFF7C1FD06460E480068BC
:10315000FDF7D8FAC2B20D48334621460088FFF782
:10316000F3FD69464880002801DA401902E0A842D0
:1031700001DD401B48800098FEBD000024000020B7
:103180003C000020040000200C000020080000206B
:10319000F8B50E460546014600F05CFE0446314691
:1031A000084600F057FE214600F00EFEFDF7AAF992
:1031B00000F0A4FDFDF782F9694608802846FDF776
:1031C000A1F905460C463046FDF79CF92A462346F0
:1031D000FFF7AEFCFDF734F9054900F03BFE054969
:1031E000FDF7BAF9FDF768FA694648800098F8BD1E
:1031F0000000E144DB0F494038B500F07FFC0120BE
:10320000FFF762FFFFF770FF0090124C68460088DE
:10321000208168464088608100F08EFC0120FFF725
:1032200053FFFFF761FF009068460088A081684661
:103230004088E08100F09EFC0120FFF745FFFFF78A
:1032400053FF00906846008820826846408860826C
:1032500038BD000008000020FF2041300106C8638F
:10326000704700000349CA691206D20FFBD0C2B2F0
:103270008A62704700380140F1B582B01A48009068
:103280001A48002680683546344601900298A1000D
:10329000405AFDF77BFA07463146019800F0DAFD07
:1032A000294600F03BFE394600F08EFD641C354691
:1032B000A4B20646FA2CE9D30C4C2846616800F00B
:1032C000C9FD314600F01EFE0099FDF745F906469E
:1032D0002846216800F0BEFD0099FDF73DF9014642
:1032E0003046FFF755FFFEBD0000FA422C000020DB
:1032F000F0B58BB00025069507950895182168460E
:103300000995FCF7EBFF0020FEF7BAFB0120000552
:10331000FEF72CFA01264148FEF7C0F9404CF707AA
:103320000795089506A9204606970995FEF7C4F962
:10333000E06871058843E060112080010090F02072
:103340000190481205900295039504956946204620
:10335000FEF7CEF9E0680425A8432843E060206921
:10336000B04320612069E10488432061A06A3021D4
:103370000843A06207E0FEF78DFB002803D0761E0D
:1033800001D2FEF72BF920688004C00FF3D0012092
:1033900040032060C110E06803229202904308437A
:1033A000E060042200212046FEF7D4F96068A843BB
:1033B00060606068082188436060A068194D490614
:1033C00028400843A0600120FFF77EFEA068172177
:1033D00088433843A0600220FFF776FEA068C00F44
:1033E00001D0FEF7FBF8A0682840401CA060032530
:1033F00007E0FEF74FFB002803D06D1E01D2FEF759
:10340000EDF82068C007C00FF3D0E16801208908FB
:1034100089000143E1600BB0F0BD000008270140C6
:1034200000240140E8FFFF7F38B534480121826B5A
:103430000A438263806B324C08400090314805217A
:10344000036800229B099B010B4303602E4D2878E3
:1034500020582E49084029786050287803212058A8
:103460000903884308432978605028782058202190
:10347000884329786050287820584021884329784B
:10348000605028782058802188430843297860506C
:103490002878A115205803231B0298430843297854
:1034A00060502878211520589B00984308432978BC
:1034B00060500092164B174A00212046FEF772F921
:1034C000FF22F53200212046FEF78AF9287820589D
:1034D00002210843297860500F490868FF22120230
:1034E000904303229203104308600C496015086062
:1034F00000212046FEF76AF938BD000000100240A6
:103500000000024000080240FE3F0008EFBFFFFF3E
:103510003C0000204024014008E400E000E100E01D
:10352000F0B58DB0142108A8FCF7D8FE202168461C
:10353000FCF7D4FE0120C002FEF718F908A8FEF738
:103540006BFC6846FEF75EFC1E4C2046FEF7B0FAA8
:103550000720694608841C4F1C4E39463068FCF72A
:10356000BFFE80B2401E00250A900B9508A9099560
:103570002046FEF7E3FA60200090012002950190BA
:1035800039463068FCF7ACFE0004400C0390022082
:10359000C10204906A462046FEF782FB0C480949A6
:1035A0008079183140180168094A09329379082254
:1035B0009A4011430160606C0121C90308436064B3
:1035C0000DB0F0BD002C0140801A0600380000202C
:1035D0000340000810B500F025F800F063F900F092
:1035E000E9F81420FFF770FD10BD000070B501254B
:1035F0000A4EED072846314600F032FBFCF720FF6B
:10360000074C314620602846FFF712FDFCF718FFF3
:1036100001216060FDF7BEF8A06070BD2F1BE43F84
:103620002C00002070B586B00120FEF7ABF9022017
:10363000FEF7A8F90420FEF7A5F9052424070122C6
:1036400080212046FEF72EF96068802188430026FD
:103650006060A1624D00012229462046FEF722F952
:103660006068A8436060A5621D4D01224021284684
:10367000FEF718F96868402188436860A961032251
:1036800010212046FEF70EF9032220212046FEF7E6
:1036900009F9032201211348FEF704F9022204214B
:1036A0002046FEF7FFF8022204212046FEF7FAF832
:1036B00018216846FCF712FE022500950296039633
:1036C00001956946204604960595FEF795F8042075
:1036D0000595009069462046FEF78EF806B070BD4D
:1036E000000800500004005070B58EB01C2106A8E0
:1036F000FCF7F4FD18216846FCF7F0FD28494869FD
:1037000003221203904300254861254C0220403CCF
:10371000616B01436163616B224E01404020009068
:1037200002200D9101900120039006200590029542
:10373000049569463046FEF75FF8802000906946A0
:103740003046FEF759F8E16BF0020143E163E16BAB
:10375000154C014020460D91FEF7AEF813480C952C
:1037600006950790089509950A950B9506A9204698
:10377000FEF7D2F86068F10308436060E0680C4926
:103780000840E060E068E1138843E06020680901D8
:103790008843206020688910884320600EB070BD87
:1037A00040100240000400500054004073216000AB
:1037B00001F8FFFF70B590B0202106A8FCF78EFD40
:1037C00018216846FCF78AFD344841698908890058
:1037D000002541610121026889030A4302600068F3
:1037E00008400E900120FEF7CDF801204002009025
:1037F00002200524012624070190029503956946BD
:10380000059604952046FDF7F7FFB0020090694643
:1038100004962046FDF7F0FF214C2046FEF704FBFE
:103820007D20C002079006950C2008950B90099505
:103830000A950C9506A90D952046FEF719FBEFF3A6
:10384000108086F31088A168C900C908A16080F3C0
:103850001088EFF3108086F31088A16807225206C3
:103860009143A16080F3108820687107884320602D
:1038700060680921C90288436060A0682A218843E2
:10388000A060206830432060E0698002C00FFBD058
:10389000E0694002C00FF7D010B070BD4010024088
:1038A00000380140F0B58FB0142108A8FCF716FDD0
:1038B00020216846FCF712FD29480121C26B0A430A
:1038C000C263C06B8C0708400D902046FEF7F0F8ED
:1038D00008A8FEF7A1FA6846FEF794FA00256846A4
:1038E000058420480A90099508A90B952046FEF703
:1038F00025F90A20039002207026012704900197E1
:103900000096029510212046FEF75AF9A11520468F
:10391000FEF756F9206880252843206010212046B4
:10392000FEF786F9A1152046FEF782F96A461021B6
:103930002046FEF7B5F96A46A1152046FEF7B0F914
:103940006068B0436060A068A843A060FF21206A5F
:103950001131084320622068384320600FB0F0BD69
:10396000001002407F02000008B5354801210268BE
:103970000A43026000680840009031480907403857
:10398000C26B0A43C263C06B08400090FEF712FC92
:103990002C480169022211430161FFF71BFEFFF76A
:1039A000A3FEC820FFF790FBFFF756FC264800F067
:1039B00021F9FFF71BFE3220FFF786FBFFF79EFA87
:1039C00000F0F6F86420FFF77FFB6420FFF77CFB34
:1039D0001E4C1F4E2546083D271DFFF70DFCFFF727
:1039E000D3F921881BA0FCF7E1FB1EA0FCF7DEFB4E
:1039F00029881EA0FCF7DAFB6868FCF783FE81B219
:103A00001EA0FCF7D3FB0221615E1FA0FCF7CEFBDA
:103A10000221795E21A0FCF7C9FB0C480221083085
:103A2000415E23A0FCF7C2FB2088FFF73DF9F06957
:103A30008006C00FD1D0706AC0B200F0C1F8CCE7E8
:103A40004010024000E000E03333CF42100000207D
:103A50000038014066726571415F616D703A25649E
:103A60000D0A00004232410D0A000000415044207E
:103A700074656D703A25640D0A000000566F6C7411
:103A80003A25640D0A00000066726571415F706836
:103A90006173653A25640D0A000000006672657165
:103AA000425F70686173653A25640D0A000000008A
:103AB00066726571435F70686173653A25640D0ACB
:103AC0000000000010B50246C9B2C020FDF78AFD13
:103AD00010BD000010B5022105A0FFF7F3FF022181
:103AE00004A0FFF7EFFF022103A0FFF7EBFF10BDDB
:103AF00011540000043300000633000010B5052106
:103B000007A0FFF7DFFF022107A0FFF7DBFF05217A
:103B100006A0FFF7D7FF022106A0FFF7D3FF10BDD5
:103B20002502C71C720000002D0100006502C7229B
:103B3000100000006D01000010B5052107A0FFF77F
:103B4000C1FF022107A0FFF7BDFF052106A0FFF777
:103B5000B9FF022106A0FFF7B5FF10BD250261865F
:103B6000180000002D0100006502618A3900000084
:103B70006D01000010B5052107A0FFF7A3FF02218A
:103B800007A0FFF79FFF052106A0FFF79BFF02217B
:103B900006A0FFF797FF10BD250253594D00000006
:103BA0002D0100006502535D3E0000006D01000024
:103BB00010B5FFF7B5FCFFF79BFBFFF735FC10BD19
:103BC00010B544280CD0452807D048280BD04C28E5
:103BD00002D1064800F00EF810BDFFF73DFB10BD06
:103BE000FFF77CFA10BD0248F4E700003333A1422E
:103BF0003333CF4270B5044610481149201888422B
:103C00001AD2104D1049204600F024F9294600F040
:103C100085F90E4900F01EF90D4900F073F90D49C0
:103C200000F018F90C49FCF797FCFCF76BFD80B22B
:103C3000290788630948046070BD0000000074BD56
:103C400001005A001498B1425305833FF9171D3CF7
:103C50005C8FA23F00002044333353400C0000200F
:103C600000B54A00234B520887B09A4203DC002279
:103C70001346009229E0204B9A4208D1002808D12F
:103C80000120FCF7AEFDFEF732FE07B000BD9A4200
:103C900003DBFEF723FE07B000BD02AAFEF70AFB16
:103CA0008107890F012000290CD0012911D0022998
:103CB00015D002A80FC8FEF7CBFC0122D207514055
:103CC00007B000BD009002A80FC8FEF791FD07B035
:103CD00000BD02A80FC8FEF7BBFC07B000BD0090F6
:103CE00002A80FC8FEF784FD0122D207514007B099
:103CF00000BD0000FB21E93F0000F07FF8B506465B
:103D00000C46FDF7C5F9051E0F4600D00120014302
:103D100049000B484908411AC90F0DD0002E01D0A7
:103D2000012100E000210C4361004908401AC00F46
:103D300002D10120FCF755FD28463946F8BD0000A8
:103D40000000F07FF8B5194C206840084000206062
:103D5000174DA868174908401030A8601748164E3C
:103D60000178715800784908490031500027104AFD
:103D7000134B4032394630460097FDF713FDFF22C2
:103D8000F53200213046FDF72BFD00213046FDF7CE
:103D90001DFD0C480770A86806490840001DA86072
:103DA0002068012108432060F8BD0000002C01407C
:103DB00000240140E8FFFF7F00000240FE3F0008B2
:103DC0003C0000202400002070B501250400ED0710
:103DD0004C4020D4441A01D2001B0919C60D4B00D7
:103DE000F2B2FF2A29D01B0E2CD000020C02D31AEB
:103DF0002C43DC402843051910D2280A02D3401C6A
:103E00006D0611D0761EF6058019FF2A00DA70BD06
:103E1000C00DC00570BD694000F086F80120054363
:103E2000C541521C761CE8E764089C40C90161400A
:103E30008900E7D10124A043E4E71B0E440200D02F
:103E4000034870BD002AFCD1C00FC00770BD00BF81
:103E50000000C07F70B5420064414B005C41120E0F
:103E600039D01B0E38D0FF2A3CD0FF2B3AD040026D
:103E70004902400A490A060045184E43000A090A49
:103E8000D2184843ED017F3A0104731A4019190C06
:103E90004318990F04D001215B0849075B1A521C93
:103EA000D80904D3401CF50301D19D0607D0FF2A91
:103EB00008D2D50506D0E4072043401970BD01257E
:103EC000A843F4E7002A01DCE00770BD2402FF20CC
:103ED0002043C00570BD1B0EFF2A03D0FF2B01D06D
:103EE000E00770BDFF2645003606B54206D84D00F6
:103EF000B54203D8D218FF2A00D0E7E7004870BDCA
:103F00000000C07F70B50125ED07684004004C40FB
:103F100002D5694000F008F8FFF75CFF70B5012595
:103F20000400ED074C4022D4441A02D26C40001B1E
:103F30000919C60D4B00F2B2FF2A4BD01B0E50D010
:103F400000020C02D31A2C43DC40A843051B05D504
:103F5000AD0019D36D08761E521E37D0F605280A1B
:103F600001D2801970BD70416D0603D070BD6940EB
:103F7000FFF730FF9C4009026140490001D0401E1C
:103F800070BD0124A04370BD6D081DD001202B0C15
:103F900001D12D0410302B0E01D12D0208302B0F32
:103FA00001D12D01001DAB0F01D1AD00801CEB0F25
:103FB00001D16D00401C6D00361A121A680AF50511
:103FC0004019012A02DB70BD002070BDC036300AE6
:103FD000C00770BD1B0E440201D1FF2B00D1024867
:103FE00070BD002AF0D070BD0000C07F000000004E
:103FF0000404043C3C000008000000080008081C01
:10400000304458000000000404043C3C0000080058
:10401000000008000800000001000000020000008D
:104020000400000006000000080000000A00000074
:104030000C00000010000000200000004000000004
:1040400080000000000100000000000000000000EF
:104050000000000000000000000000000000000060
:10406000000000000000000001000000020000004D
:10407000030000000400000006000000070000002C
:10408000080000000900000000000000000000001F
:10409000000000000000000001000000020000001D
:1040A00003000000040000008182838485868788E5
:1040B000898B8C8D8E8F919293959697999A9C9DD2
:1040C0009FA0A2A3A5A7A8AAACAEB0B2B3B5B7B93A
:1040D000BCBEC0C2C5C7C9CCCED1D4D7D9DCDFE203
:1040E000E6E9ECF0F3F7FAFE80807F7E7D7C7B7A58
:1040F0007978777676757473727171706F6E6E6D94
:104100006C6C6B6A6A696868676666656464636339
:1041100062616160605F5F5E5E5D5D5C5C5B5B5ABF
:104120005A5959585857575656555555545453532C
:1041300052525251515050504F4F4F4E4E4D4D4D87
:104140004C4C4C4B4B4B4A4A4A49494948484847D2
:104150004747474646464545454444444443434310
:1041600043424242424141414FBB610567ACDD3FA2
:10417000182D4454FB21E93F9BF681D20B73EF3F8E
:10418000182D4454FB21F93FE2652F227F2B7A3C06
:10419000075C143326A6813CBDCBF07A8807703CBF
:1041A000075C143326A6913CC4EB98999999C9BF32
:1041B000711623FEC671BCBF6D9A74AFF2B0B3BF67
:1041C0009AFDDE522DDEADBF2F6C6A2C44B4A2BF27
:1041D0000D5555555555D53FFF8300922449C23F93
:1041E0006E204CC5CD45B73F513DD0A0660DB13FC7
:1041F000EB0D76244B7BA93F11DA22E33AAD903FD9
:104200004C5555555555A53F7751C1166CC156BFF4
:104210009015CB19A001FA3EAD529C804F7E92BE04
:10422000C4B1B4BD9EEE213ED43888BEE9FAA8BD23
:10423000000000000000000000004054FB21F93F96
:104240003163621A61B4D03D0000601A61B4D03DA0
:104250007370032E8A19A33B0000002E8A19A33B1A
:10426000C14920259A837B3900000000000000002E
:104270006E83F9A22915444ED15727FCC0DD34F5D1
:10428000999562DB4190433CAB6351FE61C5BBDE57
:104290003A6E24B7E0D24D42EA2E49061C92D1096B
:1042A0001CEB1DFE3EA729B1F53582E88444BB2EE8
:1042B00026709CE9417E5FB439D69139F439538335
:1042C0008B5F849C3B28F9BDFF97F81F0F9805DE94
:1042D0008B112FEF1F6D0A5ACF7E366DB709CB2792
:1042E000663F464F2DEA5F9EC7BA27757BF1E5EB27
:1042F000F739073DEA92528AB15FFB6B085D8D1F6B
:10430000A6F810111111813FD561C119A0012ABF72
:104310007DFEB157E31DC73EEB9C2B8AE6E55ABEF6
:104320007CD5CF5A3AD9E53D48430008000000202B
:104330003C00000004010008844300083C00002009
:104340004C0A0000200100080000000000000000EE
:10435000000000000000A04200000000000000007B
:10436000000000000000F04100000000000000001C
:10437000000000000000000000000000000000003D
:044380000024F40021
:04000005080000C12E
:00000001FF
