:020000040800F2
:1000000020040020611200081111000813110008DB
:1000100000000000000000000000000000000000E0
:1000200000000000000000000000000015110008A2
:10003000000000000000000017110008191100085E
:100040003707000800000000CB070008CF0A0008AF
:10005000E70E0008EB0E00083713000843130008F2
:100060000000000023110008651300086713000852
:10007000691300086B1300086D13000800000000EE
:100080006F1300080000000000000000711300085A
:10009000731300087513000877130008791300081C
:1000A0007B1300087D1300087F13000881130008EC
:1000B0008313000800B58BB000F0A6F8684600F086
:1000C000E3F90098FA21890000F0DEFA401E802151
:1000D0004904884218D2AD494860AD48026812020E
:1000E000120AC0231B061343036000208860072008
:1000F000086000F00AF800F0ABF8142000F031F9C5
:1001000000F0EFF80BB000BDFEE7F0B583B00121C1
:100110008C20C00300F064FA8020009000266C461A
:100120006671012020719027FF056946380000F0B4
:1001300003FB8021380000F036FB80256D00009520
:100140006946380000F0F8FA2900380000F02BFB6F
:100150000225009569468F4800F0EEFA02218D488D
:1001600000F01FFB30200090032060712071694671
:10017000380000F0E1FA00956671A67125716946B4
:10018000380000F0D9FA02220121380000F00DFBFE
:10019000042000906946380000F0CEFA02220221C5
:1001A000380000F002FBF7BD10B504007A4900F0FA
:1001B0000DFB20D9794900F01DFB1CD378482100A4
:1001C00000F02BFB774900F080FB774900F025FB1E
:1001D0000100764800F0B1FB754900F01EFB75493F
:1001E00000F003FC00F056FC81B28020C00500F056
:1001F000A3FD7148046010BD80B5C021FFE78020D9
:10020000C00500F09BFD01BD80B500F0DDF80120C8
:1002100000F0CDFD012000F0C3FD002000F01CF92E
:10022000002000F01EF9A0218903002000F0F3F85F
:10023000012000F0FBF8192000F0FCF90028FAD0AA
:10024000022000F0FFF800F002F90828FBD101BD00
:10025000F0B589B00121012000F0CCF98024E4053B
:10026000200000F035FC03A800F05CFD684600F0BB
:10027000B1FC002069460880FF22E032019208812B
:100280004880200000F07AFC03AD70202880012710
:100290006F800A2005900226AE8103A9200000F09D
:1002A000D7FC702028806F80C0200590AE8103A904
:1002B000200000F007FD0821200000F043FD082188
:1002C000200000F046FD0121200000F08CFC0121FF
:1002D000200000F09FFC0121200000F08EFC09B0FE
:1002E000F0BD30B589B00121480500F083F9C02088
:1002F000C0000090002468464471012181710221F0
:1003000001719025ED056946280000F015FA0422D8
:100310000A21280000F049FA04220921280000F0EF
:1003200044FA264D280000F051FD02A800F08CFD93
:10033000059406940794089421480290012128000E
:1003400000F08DFD02A9280000F052FDE90B280005
:1003500000F0C0FD002802D0280000F08BFD09B09D
:1003600030BD10B58CB0040001A800F08DF80298E3
:10037000144900F089F9604301E00098401E0090A4
:1003800000980028F9D10CB010BD000010E000E08A
:1003900020ED00E0001400480100E64200008C421D
:1003A0005305833F1498B1C2F9171D3C5C8FA23FDF
:1003B0000000F0433333534010000020005400404D
:1003C0000B020000102700002948016801220A439F
:1003D00002604168274A0A4042600168264A0A4092
:1003E00002600168254A0A4002604168244A0A40C6
:1003F0004260C16A0F229143C162016B214A0A40E7
:100400000263416B01229143416300218160704787
:1004100010430860704710B56E4A13686E4C1C405C
:100420001460136801431943116010BD104900287E
:10043000086803D080225204024301E0674A024068
:100440000A60704763490A6803239A43E0E76148FA
:1004500001680C20084070475E490A68F0239A43FF
:10046000D6E75C490A686D4B134018430860704733
:10047000001002400CB8FF08FFFFF6FEFFFFFBFF75
:10048000FFFFC0FFACFEF0FFF0B504000020514DAF
:100490002968734E0C220A40082A02D00C2A17D071
:1004A00018E0286829688002070FBF1CC02040029E
:1004B000084003D138007108484307E0A96A3000BA
:1004C0000907090F491C00F0DFF87843010002E03A
:1004D000644900E0310021602B68634922681B06F3
:1004E0001B0FCB5CDA4062602B685B055B0FC95C5D
:1004F000CA40A260E96AC90501D45C4905E02968DF
:10050000490401D4510800E09108E160802109020A
:10051000EA6A520601D4564A00E00A002261EA6AF9
:10052000D20601D4320000E0226862610322EB6A45
:10053000134001D1A26804E0EB6A1340012B02D101
:100540002268A2610AE0EB6A1340022B01D1A1618B
:1005500004E0EB6A1A40032A00D1A661C02292028D
:10056000EB6A134001D1A26805E0EB6A13404F002B
:10057000BB4202D12268E2610BE0EB6A13408F00BC
:10058000BB4201D1E16104E0EB6A1340934200D128
:10059000E661C0221203EB6A134001D1A1680BE0AF
:1005A000EB6A1340CF00BB4201D1216804E0EB6A43
:1005B00013400F01BB4201D1216204E0E96A1140FE
:1005C000914200D12662E96A090600D4254860629A
:1005D000F0BD000004100240FF7FC2FFFFFFFFFEDE
:1005E000244A0029116802D00843106070478143F3
:1005F00011607047204A0029116802D0084310603A
:1006000070478143116070471C4A0029116802D06D
:10061000084310607047814311607047FFF8FFFF87
:10062000174A0029116802D00843106070478143BF
:10063000116070474109134A002901D1116808E08F
:10064000012901D1116A04E0022901D1516A00E0B7
:10065000516BC006C00EC140C807C00F70470000F4
:1006600000127A00006CDC0200000020809FD500A0
:1006700012800000141002401C1002400C100240B6
:1006800010100240001002400022030A8B420BD2DD
:1006900003098B4219D243088B422ED2411A00D251
:1006A0000146524110467047FF2209023FD0120610
:1006B0008B4205D3121209028B4201D31212090296
:1006C00003098B4219D300E0090AC3098B4201D305
:1006D000CB01C01A524183098B4201D38B01C01A4E
:1006E000524143098B4201D34B01C01A52410309C5
:1006F0008B4201D30B01C01A5241C3088B4201D374
:10070000CB00C01A524183088B4201D38B00C01A20
:10071000524143088B4201D34B00C01A52418842D8
:1007200000D3401A5241CFD201461046704708B557
:1007300000F0DAFB08BDFEE7F0B5002301229A4085
:100740000C681440944228D15C000326A640F5436F
:100750000E79012E01D0022E0FD186682E408660C0
:1007600086684F79A740374387608688964386809E
:1007700082888E799E401643868002682A400260F5
:1007800002680E79A64016430660C2681540C5602F
:10079000C268CD79A5401543C5605B1C102BCDD335
:1007A000F0BD816170470185704710B5CB089B0093
:1007B000C0184907C90E036A0F248C40A343036283
:1007C000036A8A401A43026210BDFEE70CB401229C
:1007D00012060318DA4207D84B18DA4204D802008E
:1007E0000A43921802D281420CBC7047FCD0884266
:1007F0000CBC70470CB4012212060318DA4207D869
:100800004B18DA4204D802000A43921802D28842F6
:100810000CBC7047FCD08142FAE730B405004D4073
:100820000122D20715404B180418240E2ED01B0E9F
:1008300032D0FF2C34D0FF2B3AD0E418000209024A
:1008400010431143000A090A9446C2B24A43000AFF
:10085000C3B24B43000A4843110A5B181A43D2B291
:10086000190A091801D44918641E080A7F3C23DBC1
:10087000FE2C08DAE40509061143634699416041FC
:10088000284330BC7047FF20C005F9E728001B0E45
:10089000FF2BF6D1D043F4E72800FF2CF1D1F9E784
:1008A0004002F7D1FF2B01D14902F3D1E005E7E780
:1008B000D8054902E4D0EDE743020020641CDFD1F3
:1008C0005B129B1CDCD9D805DAE70122D2070300B2
:1008D0004B402ED4431A01D2C01AC91830B44B1859
:1008E0000418240E1B0E22D0FF2C20D0E31A182B44
:1008F0001DDC09021143C40D641E0002104394461E
:100900001925ED1A0A00AA40D940451801D36D08EF
:10091000A41CE405D209280A2D062A436546AA41EB
:10092000604103181B0EFF2B01D3C00DC00530BC66
:100930007047514006E05140CCE70122D207030046
:100940004B40F8D4431A03D2C01AC9185040514042
:1009500030B44B18090211430418240E1B0E40D06A
:10096000FF2C3AD025009D410BD31ED8C50D400267
:10097000401A0BD3ED050100400AC90591416841B9
:10098000D5E7C50D40024918401AD0D001214008D2
:10099000491C0018FCD58C4204D36D1A000AED05E1
:1009A0004019C4E7E8051040C1E7182DBFDCAC1CB6
:1009B0000D00E140E5414D40012D4941C40D0002CB
:1009C0001043451A01D46D199543641EE405280AA5
:1009D0002D069541604130BC7047FF2BA7D1D8430D
:1009E000A5E72442A3D10020A1E730B405004D4083
:1009F0000122D20715404B180418240E28D01B0ED4
:100A00002FD0FF2C34D0FF2B37D0E41A000209027C
:100A10001043114343084808D10D1B1A02D2641E2B
:100A2000DB181B18DB18834200D31B1A4941F9D38A
:100A30007F3426DDFE2C08DAE4054808C90719438F
:100A400091416041284330BC7047FF20C005F9E761
:100A500028001B0E03D0FF2BF5D14902F3D0D04361
:100A6000F1E7FF2C01D14002F9D1FF20C005E9E7F1
:100A70004002F4D1FF2BF8D1F1E728004902E2D07F
:100A8000EDE70B0200202442DCD15B129B1CD9D97C
:100A9000D805D7E70122D2070118090E7F3910D4F3
:100AA00049421F310FD4001805D2C0011043C8407D
:100AB00000D5D0437047C0011043C84005D4404220
:100AC0007047002070470042F3D510007047FEE7E2
:100AD00010B54F49884201D1CC0C46E08021C905B0
:100AE000884206D101210120FFF79AFD0021012053
:100AF00027E05149884206D101210220FFF790FDED
:100B0000002102201DE04D49884206D1012110201C
:100B1000FFF786FD0021102013E04949884206D1E5
:100B200001212020FFF77CFD0021202009E045491C
:100B3000884209D18C0D01212000FFF771FD0021B1
:100B40002000FFF76DFD10BD3F49884202D180248F
:100B500064020AE03D49884202D18024A40204E0F4
:100B60006F49884209D18024E40201212000FFF767
:100B70004BFD00212000FFF747FD10BD10B5038895
:100B8000234A904206D08024E405A04202D02A4C99
:100B9000A04203D1494C1C404B882343274CA04220
:100BA00003D0474C1C400B89234303804B68C3622E
:100BB0000B880385904208D0234A904205D0234AEF
:100BC000904202D0564A904201D1897A0186012191
:100BD000818210BD0021C943416000210180018153
:100BE0004180817270470029018802D080220A4327
:100BF00001E05F4A0A40028070470029018802D064
:100C000001220A4301E04E4A0A4002807047000078
:100C1000002C0140002907D04421415A80221202B1
:100C20000A434430028070474421415A4904490C28
:100C30004430018070470000000400400010004074
:100C400000140040002000400040014000440140EA
:100C500070B5028C484B13400384048C8288038B4C
:100C6000464D1D400B881B022B43454D25408C896A
:100C70004E88264334012C43394DA84202D0414EC0
:100C8000B04215D1404E16400A8A92003243A84223
:100C90000ED1374D2540CC8924012C433B4D2540B6
:100CA0008C8824012C433A4D15404A8A92002A43ED
:100CB0008280038389688163048470BD8FFF000094
:100CC000FFFC000070B5028C324B13400384058C8E
:100CD0008288838B214C1C400B8823432E4C2C4054
:100CE0008D894E882E43350225431D4CA04210D1DC
:100CF000274C2C40CD892D022543234C2C408D8838
:100D00002D022543254C14400A8A4E8A164332018F
:100D10002243828083838968C163058470BD00009B
:100D200000480140002101804180818081608181F3
:100D3000C18101824182704781637047C1637047FE
:100D4000FEFF0000028B124B13400902194301837E
:100D50007047828B074B134006E000008CFF0000B9
:100D6000002C0140134009021943818370470000A1
:100D70007FFF0000F7FF0000EFFF0000FF8C000086
:100D8000DFFF000000400140FFFB0000BFFF00004C
:100D9000FFF70000FFFE0000FFFD0000FFCF000096
:100DA00009490A6801239A431043086070470649BD
:100DB0000028086803D0102202430A6070471022FE
:100DC00090430860704700000020024010B53A4987
:100DD000884202D18024A40301E08024E40301219D
:100DE0002000FFF71DFC00212000FFF719FC10BDBB
:100DF000026801239A4302600268304B13404A683C
:100E00001A438B681B02134303600A682C4B134080
:100E10000361026801231343036000228260C26001
:100E20008A690B6913438360826880231B02134322
:100E300083600268CB68134303604268214B134010
:100E40004969194341607047002101604160816038
:100E5000C1600161802212024261816170470029F4
:100E6000016803D001220A430260704701229143C6
:100E700001607047016801229143016001680168C7
:100E80000A43026070470029416803D08022D201E2
:100E90000A4301E00C4A0A404260704730B544689A
:100EA0000A4D25408905890D294312040A4313433D
:100EB00003991943416030BD00540040FFE0CF006A
:100EC000FFFFFFF0FF7FFF07FFBFFFFF009800FC61
:100ED00081627047020000209269114000D0012019
:100EE0007047C1617047FEE77047FEE780B5022199
:100EF00043A000F0A7F8022143A000F0A3F833219B
:100F000043A000F09FF8022140A000F09BF800BF32
:100F1000022100BF3BA000F095F801BDFEB5060020
:100F20000F00140068460021002206C0F8012100CD
:100F3000FFF7AAFB0D00F601F8012100FFF7A4FB63
:100F40003018214940186946220A0A704C70820301
:100F5000920F8A70020ACA700871200BF0220240B8
:100F60002803000F10184871280A8871CD710822D3
:100F70006846007A00F078F8F7BD000070B505000B
:100F800016001C001A232200FFF7C8FF22232200AC
:100F900031002800FFF7C2FF022100BF1BA000F0B4
:100FA00051F8022117A000F04DF870BD80B500F097
:100FB0000FF8064B012200211A2001E0511E1E20CD
:100FC000FFF7DCFF01BD000000FEFFFFE2040000B0
:100FD00080B500A8801C00BF07A10A88028068466F
:100FE00006A10A8802800221801C00F02BF8022151
:100FF000684600F027F801BD2C0C00003C0C0000F6
:1010000003FF000003FA0000BBC00000B1AC000009
:101010000F004F806F8080808080AA000019000A36
:10102000F500001304E2000AF500033600010C008D
:1010300000000000000000000000000000010C00A3
:101040000000000070B505000C00C02000F03EF864
:10105000002603E0A85D00F01DF8761CB6B2A6429B
:10106000F8D300F024F870BD70B504000D00160030
:10107000C02000F02BF8200000F00CF8002403E062
:10108000285D00F007F8641CA4B2B442F8D300F065
:101090000EF870BD10B51C4C01002000FFF718FFC2
:1010A00080212000FFF716FF0028F9D010BD10B5F1
:1010B000154C01212000FFF7E6FE00212000FFF77C
:1010C000E2FE20212000FFF70CFF10BD70B582B0BA
:1010D000040000200D49087000F024F806000A4DB5
:1010E000680C0090C302012221002800FFF7D6FE01
:1010F00002212800FFF7EEFE002804D100F012F8CC
:10110000801B0528F4D373BD005400401800002054
:101110007047FEE77047704704480168491C01604A
:1011200070477047014800687047000014000020B5
:1011300082B03348016801220A4302604168314AA3
:101140000A4042600168304A0A40026001682F4A42
:101150000A40026041682E4A0A404260C16A0F227A
:101160009143C162016B2B4A0A400263416B012229
:101170009143416300218160019100910168120453
:101180000A43026001688022920211400091019995
:10119000491C01910099002904D10199A022D20192
:1011A0009142EFD101688903CA0F00920099012989
:1011B00024D11121184A11604168416041684160A1
:1011C0004168164A0A4042604168882252030A4335
:1011D00042600168802252040A430260016889016A
:1011E000FCD54168032291434160416802220A43D1
:1011F000426041680C220A40082AFAD102B07047C6
:10120000001002400CB8FF08FFFFF6FEFFFFFBFFD7
:10121000FFFFC0FFACFEFFFF00200240FF7FC0FFCA
:1012200080B5FA208000FFF79CF8FEF743FFC82046
:10123000FFF797F8FEF7E0FF0848FEF7B5FF32200A
:10124000FFF78FF8FFF752FE6420FFF78AF8FFF7E9
:10125000ADFEFA204000FFF784F8FEE73333C942C1
:10126000094880F3088804200168090E1F22914272
:1012700005D10648012101600548002101600548AB
:101280008047054800470000200400201810024055
:1012900000000140311100085913000830B5016801
:1012A0004118446862088A188368E40701D54C46EF
:1012B0001B190C30914200D130BD0C7864B2491C2E
:1012C0000D78491C1D705B1C002C02D5641CF9D1E3
:1012D000F0E7641EF4D5EDE710B5074979441831FD
:1012E000064C7C44163404E0081D0A6889188847B7
:1012F0000100A142F8D110BD080000001400000058
:101300009DFFFFFF80000000220000000000002081
:1013100000F00BF8002801D0FFF7DEFF0020C046E8
:10132000C046FFF77DFF00F002F80120704780B54E
:1013300000F002F801BDFEE70746384600F002F86B
:10134000FBE7FEE780B5C046C046024A1100182000
:10135000ABBEFBE726000200C046C046C046C04602
:10136000FFF7D6FFFEE7FEE7FEE7FEE7FEE7FEE754
:10137000FEE7FEE7FEE7FEE7FEE7FEE7FEE7FEE745
:10138000FEE7FEE7FC000B01020304010203040672
:05139000070809F70049
:040000050800135983
:00000001FF
