:020000040800F2
:1000000028040020B14E0008C1490008C349000877
:10001000C5490008C7490008C94900080000000098
:10002000000000000000000000000000CB490008B4
:10003000CD49000800000000CF490008D149000860
:10004000F14E0008F54E0008F94E0008FD4E00087C
:10005000014F0008054F0008094F00080D4F000828
:10006000114F0008154F0008194F0008DB49000820
:10007000214F0008254F0008294F00082D4F000888
:10008000314F0008354F0008394F000800000000CC
:100090000000000000000000000000003D4F0008CC
:1000A000414F0008454F0008494F00084D4F0008D8
:1000B000654A0008554F0008594F00085D4F000879
:1000C000614F0008654F0008694F00086D4F000838
:1000D000714F0008334A0008794F00087D4F00082F
:1000E000814F0008854F0008894F0008000000007C
:1000F0000000000000000000000000000000000000
:1001000000000000000000000000000000000000EF
:1001100000000000000000008D4F0008914F000813
:100120002DE9F04FA1B08046002017461D460291F0
:100130000B900DF1440A6FF000490AE017F8011B1B
:100140000298C0470028029000F0A1820B98401C42
:100150000B90387808B90B989BE22528EED1002047
:10016000059006900790089009900A9001E040F0F1
:10017000010017F8011F2029F9D023290DD02B29C0
:1001800004D02D2906D030290AD00CE040F002001E
:1001900080B2EEE740F00400FAE740F00800F7E72D
:1001A00040F01000F4E72A290ED12968296051F89F
:1001B000042B2960002A0D9204D5514240F004001E
:1001C0000D9180B27F1C11E000210D9109E00D9985
:1001D000494505D001EB810302EB430130390D9114
:1001E0007F1C3A78A2F130010A29F0D339782E2900
:1001F00003D04FF0FF310C911DE017F8011F2A29A1
:1002000007D1296829607F1C51F8042B29600C92C2
:1002100011E000210C9109E00C99494505D001EB52
:10022000810302EB430130390C917F1C3A78A2F133
:1002300030010A29F0D3ADF838000FF6C420397820
:1002400000F070FD08B117F8010B8DF83A009DF829
:100250003A00682802BF39786829622005D06C28E6
:1002600004BF38786C2803D171208DF83A007F1CC8
:1002700011A8049017F8014BB4F1250023D02038C1
:10028000022840F2BB80133800F0E0800B3800F009
:100290004A81401E00F02381401E022840F2AE80B9
:1002A000001F00F01C81401F79D0401E00F0CE805E
:1002B000401E24D0C01E0BD0801E00F0C780C01E80
:1002C00000F0C48039E125208DF8440001203DE193
:1002D0002868286050F8046B286003960C9C002C5A
:1002E00004D5304600F02AFD044606E022460021EF
:1002F000304600F03FFD00B1841B069427E12968D9
:1003000029603C2451F8040B29600021CDE900014B
:1003100011A80390DDE90001049E11B908B90C9AF7
:10032000B2B10206120FA0EB02123032D2B2631E3B
:100330003A2AA8BF273200099A5540EA01700909F4
:1003400008BF00281C4603D0039AA3199A42E8D399
:10035000A0190390C4F13C010C980691814209DA7E
:10036000401A08904FF6EF71BDF838000840ADF81C
:100370003800ECE0002840F1EA809DF8380000F0F9
:100380001400102840F0E3800D98059A801A089A0E
:10039000801A441A012CC0F2DA800894D7E09DF844
:1003A0003A0062281AD0682806D06A280CD06C2837
:1003B0001CD0712808D019E02868286050F8041B68
:1003C00028600B980880C2E02868286050F8042B49
:1003D00028600B98C117C2E90001B8E028682860BE
:1003E00050F8041B28600B980870B0E0286828605B
:1003F00050F8041B28600B980860A8E02868C01D0E
:1004000020F007022A60D2E9000108322A60CDE913
:100410000001002902D505982D210AE0BDF8380019
:10042000810702D505982B2103E0C00705D5059863
:10043000202100F80A10401C059011A80599081801
:1004400003902146684600F0E1F980E09DF83A000B
:100450006C280DD0712818BF6A2809D12868C01DE2
:1004600020F007022A60D2E9000108322A6005E084
:100470002968296051F8040B29600021CDE90001A9
:100480009DF83A00682803D1DDE9000180B20BE055
:10049000622803D1DDE90001C0B205E0742818BF6D
:1004A0007A2804D1DDE900010021CDE900019DF8A1
:1004B000380000072ED5DDE90001002908BF00281B
:1004C00028D044F02000782824D10598302100F865
:1004D0000A10401C411C059100F80A401AE09DF8E2
:1004E0003A00294600F0D8F8CDE90001002902DAE7
:1004F00005982D210AE0BDF83800810702D505983E
:100500002B2103E0C00705D50598202100F80A102B
:10051000401C059011A805990818039021466846CB
:1005200000F0F1F813E0012005902868286050F8E9
:10053000041B28608DF8441009E025208DF8440044
:10054000012005901CB18AF80140022005900D9809
:100550000599401A0899401A0699401A0999401AB3
:100560000799401A0A99441A9DF83800400710D498
:100570002020012C8DF840000BDB2646012310AA19
:100580006946404600F0A5FB002840F08080761EBA
:10059000F4D1DDF814B0BBF1000F11AE0CD016F899
:1005A000011B0298C0470028029070D00B98401C95
:1005B000BBF1010B0B90F2D130208DF84000089E6A
:1005C000012E09DB012310AA6946404600F081FB99
:1005D00000285CD1761EF5D1DDF818B0039EBBF182
:1005E000000F0CD016F8011B0298C047002802909B
:1005F0004DD00B98401CBBF1010B0B90F2D1302079
:100600008DF84000099E012E09DB012310AA6946DE
:10061000404600F05EFB002839D1761EF5D10398E4
:100620000699DDF81CB00E18BBF1000F0BD016F8C0
:10063000011B0298C047029048B30B98401CBBF1C5
:10064000010B0B90F3D130208DF840000A9E012E53
:1006500008DB012310AA6946404600F03AFBB0B916
:10066000761EF6D19DF8380040077FF572AD202048
:10067000012C8DF84000FFF66CAD012310AA6946ED
:10068000404600F026FB10B9641EF6D161E54FF03C
:10069000FF3021B0BDE8F08F622826D068281DD039
:1006A0006A2808D06C2827D0712804D0742823D059
:1006B0007A280CD020E00868C01D20F007000860F0
:1006C000D0E90023083008601946104670470A68D0
:1006D0000A6052F8040B0A60002170470A680A6039
:1006E00052F8040B0A6000B20BE00A680A6052F884
:1006F000040B0A6040B204E00A680A6052F8040B76
:100700000A60C11770472DE9FA4E05460A462F695F
:100710006F2A08BF082405D041F02000782814BFB4
:100720000A2410243C26D5E90001642A18BF692A4E
:1007300081468A4605D1002903DAD9F100096AEB1E
:100740004A0ABAF1000F08BFB9F1000F0CD1286BAB
:1007500050B9082C36D195F83800000732D5302032
:100760003B2687F83B002DE0E317484651462246DA
:1007700000F02CFBA4FB0023A9EB02023032D2B222
:10078000A6F1010B3A2A5E4603DB9DF80030513B8F
:100790009A180BF8072081465FEA010A08BFB9F1F1
:1007A000000F03D0E868F1198842DDD3082C09D185
:1007B00095F83800000705D5F05D302802D0761E88
:1007C0003020F055C6F13C00A861F119E960296BB1
:1007D000884208DA081A28624FF6EF71288F08401D
:1007E0002887BDE8F38E00290ED595F8381001F062
:1007F0001401102908D1696B6A69891A2A6A891A51
:100800000E1A012EA8BF2E62BDE8F38E2DE9F34F1C
:100810008BB0D0E90089006B002801AF48BF0620EB
:1008200005D404BF41F02000672802D101200B99B4
:10083000086340F2FF720B984168C1F30A5090427E
:1008400020D1080302BF0B98006800280AD10B9939
:10085000032088619DF8300061381A2858D30FF2C0
:10086000B44109E00B99032088619DF8300061389C
:100870001A284AD30FF294410B98C068032200F063
:100880001DFB00E1012807DA0B9800F052FB01285C
:1008900002DB00230026EDE00B9ADFF854B152682A
:1008A00040F2FE3161F31E520B994A6040F2FE3174
:1008B000461A404649460022002300F05BFB38BF41
:1008C00089F0004936B247F297507043494990FB8E
:1008D000F1F636B2C6F10707012F92461BDBF80787
:1008E00007D552465B464046494600F05BFB8046D2
:1008F00089465046594652465B467F1000F052FBEF
:10090000002F82468B46EAD126E00FF2FC31B3E796
:100910000FF2FC31B0E77F420024374D12E0F807B8
:1009200007D552465B462046294600F03BFB04466D
:100930000D465046594652465B4600F033FB7F1049
:1009400082468B46002FEAD14046494622462B4636
:1009500000F0FAFB804689469DF83000DFF89CB035
:1009600040F02005662D0CBF06F10A0006200B9909
:10097000096B4718142FA8BF132730208DF80400E7
:100980000DF10504012F3BDB4046494600F01EFDFA
:10099000014604F1080204234FF00A0CB1FBFCFCF1
:1009A0000CEB8C04A1EB4401303102F8011C0A214C
:1009B000BCFBF1FE0EEB8E04ACEB440430345B1E4A
:1009C000714602F8024DE7D1083F012F02F10804F9
:1009D000D8DB00F01BFD02460B464046494600F0BE
:1009E00023FD00225B4600F0DDFA80468946CBE716
:1009F00000002440A08601000000F03F84D797410A
:100A00000DF10500201A0DF1050702E0401E761ECB
:100A10007F1C39783029F9D0662D02D136B2711C8D
:100A200003E0652D0CBF012100210B9A126B8B187E
:100A30001BB29842B8BF03461BB219001AD48142B8
:100A400004DAC85D3528A8BF392000DA3020CA1979
:100A5000521E00E05B1E12F80149491E8442F9D083
:100A6000392802D1C85D401CC855002902D57F1E17
:100A70005B1C761C36B29DF830100B9800961BB2AA
:100A80003A4600F003F80DB0BDE8F08F2DE9F043D1
:100A9000054685B01E46D5F83080012E894617469A
:100AA00002DA01260FF2702749F02000BDF930402C
:100AB000662808BF641C15D0672840F0938014F1A5
:100AC000040F7CDB44457ADA95F83800641C000793
:100AD00002D44645B8BFB04624B2B8EB040848BFBC
:100AE0004FF0000824B2E868A969012C25DA4A1CF5
:100AF00030230B54B8F1010F03DA95F838100907C9
:100B000002D52E211154521CAA6118EB040FB8BF54
:100B1000C8F1000424B26142A0446962B045B8BF84
:100B20004646AB6936B2EE6132463946181800F0D7
:100B3000C5F9A8EB0600A862B4E00818A64218DAC6
:100B40003246394600F0BAF9A9697118A01BB8F10C
:100B5000010FA961686203DA95F83800000705D52E
:100B6000EA682E208854E869401CE861C5F82880AE
:100B700098E02246394600F0A1F9A8692018361BF2
:100B8000B8F1010F03DA95F83810090703D5EA68C0
:100B90002E218154401C36B2A861B045B8BF4646EC
:100BA000E868AB6936B23246E119181800F086F9E8
:100BB000A8693018A861A8EB0600686272E0464593
:100BC00004DA95F83810090758BFB046B8F10108A3
:100BD00048BF4FF00008B9F1670F0CBF4FF065092F
:100BE0004FF04509A969E8684A1CAA61B8F1010FEC
:100BF00017F8013B0B5403DA95F83810090717D59D
:100C0000531CAB612E211154B8F1010F10DB761E7D
:100C100036B2B045B8BF464636B2324639461818E5
:100C200000F04CF9A8693018A861A8EB06006862CA
:100C3000E868A9690918200081F8009003D42B20E6
:100C400048708F1C03E02D224A708F1C64420026DE
:100C50000DF1080808E00A22684600F0A5FC01989A
:100C600008F8010B761C009C21B20129F3DA022E50
:100C700006DA49F02000652804BF302007F8010B90
:100C80004EB9302007F8010B07E0761E02A8305C51
:100C9000303007F8010B012EF7DAE868A969081867
:100CA000381AE86195F8380000F0140010280DD1CA
:100CB0006869A9690818696A0818E9690818A96AB9
:100CC0000818696B8842BCBF081A286205B0BDE8E5
:100CD000F083F8B504460D4616461F46002077B14E
:100CE00016F8011BA868A047A86030B1E86A401C4C
:100CF000E86200207F1EF3D1F2BD4FF0FF30F2BD5D
:100D0000686A6C747A4C00006E616E004E414E0051
:100D1000696E6600494E460030000268531C03604D
:100D2000117070470278C9B28A421AB11CBF10F81C
:100D3000012FF9E718BF00207047000000F1010300
:100D4000810704D010F8011B89B18107FAD102682C
:100D5000B2F10131914311F0803F04BF50F8042FEC
:100D6000F6E710F8011B11B110F8011BFBE7C01AE0
:100D700070470000C9B2830706D0521E22D310F874
:100D8000013B9942F7D11FE0083A13D302F1040264
:100D900041EA012141EA014150F8043B121F21BF01
:100DA0004B40A3F1013C2CEA030C1CF0803FF3D034
:100DB000C9B2001F083210F8013B521E28BF91EA49
:100DC000030FF8D818BF0120401E70471B4213D1F3
:100DD000094236D12AB18446B0FBF2F002FB10C2C0
:100DE000704700F0E9BBFCD30022002370470B00E2
:100DF0000200002100207047904271EB030CF6D3F3
:100E000070B5B1FA81F4B3FA83F52C1BA340C4F199
:100E1000200532FA05F63343A2405FF00046E64073
:100E200002E05B085FEA3202841A71EB030524BF1B
:100E3000204629467641F4D302000B003000002101
:100E400070BD012ACFD970B5140C20D0B1FA81F44D
:100E5000B2FA82F5C4F120046419B4F12006D6D3A5
:100E6000B2405FF00044F440002502E052085FEA1F
:100E70003303C61A71EB020E24BF3046714664413B
:100E80006D41F3D302000B002000290070BD0C4619
:100E9000B1FBF2F102FB11452D0445EA1045B5FB0B
:100EA000F2F402FB145580B240EA0545B5FBF2F0BE
:100EB00002FB105240EA044070BD000062B38B0791
:100EC00008D0521E11F8013B00F8013B00F02480CD
:100ED0008B07F6D1830740F0208000BF103A07D37C
:100EE00030B4B1E83810103AA0E83810F9D230BC6C
:100EF000530724BFB1E80810A0E8081044BF51F818
:100F0000043B40F8043BD20724BF31F8022B20F801
:100F1000022B44BF0B7803707047083A07D3B1E83F
:100F20000810083A40F8043B40F804CBF7D25307C6
:100F3000E4E730B4436803F0004201211B031B0BBC
:100F4000436004BF0368002B08D10DE00368DD0F88
:100F500045EA440444605B000360491E4468E302C0
:100F6000F4D523031B0B436043681A4342600846D1
:100F700030BC70474FF4001C1CEB410F94BF1CEBBE
:100F8000430F09E041EA030C50EA4C0C52EA0C0C06
:100F900003D2994208BF9042704714BF8B428242ED
:100FA00070470000B0B581EA030C0CF0004C40F231
:100FB000FF7515EA11541DBF15EA1357AC42AF4235
:100FC00039E0E41923EA455343F48013C90241F0A0
:100FD000004141EA505EC7021100A7FB020200284F
:100FE0004FF00000EEFB01204FF00001E3FB072172
:100FF00018BF42F00102401800214941E3FB0E01F5
:10100000A4F580640F0302D252004041494154F1DB
:1010100001046CDD470872F1004250F1000051EB11
:101020000451A1F580115CBF41EA0C01B0BD4CEA4E
:1010300005510020B0BD05EA1357AC4214BFAF42C2
:1010400041E050EA410E1CBF52EA430E02E0614605
:101050000020B0BD24423C441BD15FEA070EF6D00D
:10106000090302BF01460020AEF1140EB1FA81F768
:10107000AEEB070401FA07FE0C37C7F1200100FAB6
:1010800007F7C8404EEA000E23EA455343F48013A5
:10109000A2E733F00043B3FA83F704BFB2FA82FE4B
:1010A00077440B3FE41BB7F1200E2FBF02FA0EF37B
:1010B000BB40C7F1200E22FA0EFE38BF43EA0E03F2
:1010C000BA40641C82E750EA410E14BF52EA430E54
:1010D0006FF000014FF4001717EB430F8ABF19465A
:1010E00017EB410FB5E74CEA05510020B0BDD4F134
:1010F0000104B4F120070FDAC4F12007520828BF19
:1011000042F0010210FA07F501FA07F7E1BF2A439E
:10111000E0403843E1400FE0352C98DCC7F1200473
:1011200052EA400220FA07F218BF42F0010231FAF7
:1011300007F0A1400A43002172F1004250F1000083
:1011400051EB0C01B0BD00002DE9F04140F2FF75FC
:1011500081EA030C0CF0004C15EA11541DBF15EA8E
:101160001357AC42AF42E9E0BC41C1F31301C3F3F2
:101170001303801A994143F4801304D2641E400083
:10118000494180185941C90241EA5051B1FBF3F677
:1011900003FB1611A2FB0675D7EBC020A94102D2B2
:1011A000761E80185941C90241EA5051B1FBF3FE45
:1011B00003FB1E11A2FB0E75D7EBC020A94103D281
:1011C000AEF1010E80185941890241EA905176052D
:1011D00046EA8E2EB1FBF3F603FB1611A2FB067551
:1011E000D7EB8020A94102D2761E80185941C9024E
:1011F00041EA50514EEA060EB1FBF3F603FB16111D
:10120000A2FB0675D7EBC020A94102D2761E80183A
:101210005941C90241EA5051B1FBF3F703FB1711E1
:10122000A2FB0735D3EBC020A94167F100070CBF33
:10123000004247F0010766F3D5274FEA1E31B80890
:1012400014F5806414DDBD0775F1004250EB0E50BB
:1012500051EB045111F5801F5CBF41EA0C01BDE860
:10126000F0814CF07F6141F0E0410020BDE8F08169
:10127000BD076D0840EA0E5041F48011D4F101041D
:10128000B4F120060ADAC4F120060200E04001FAB7
:1012900006F3E1401843B24015430EE0342C14DC51
:1012A000C6F1200445EA40056D0820FA06F2154310
:1012B00021FA06F0A1400D43002175F1004250F1E2
:1012C000000051EB0C01BDE8F08100205FEA0C0149
:1012D000BDE8F081CFB992185B41B3FA83F704BF40
:1012E000B2FA82F6BF190B3FB7F120062FBF02FA00
:1012F00006F3BB40C7F1200622FA06F638BF334397
:10130000BA401CB1E419641E2FE77F4231F000415E
:10131000B1FA81F404BFB0FA80F6A4190B3CB4F121
:1013200020062FBF00FA06F1A140C4F1200620FAE2
:1013300006F638BF3143A0403C1B16E7AC421ABF4B
:1013400005EA1357AF4214E050EA41061CBF52EAC7
:101350004306BFE750EA4107304661461CBF41EAF9
:101360000551BDE8F08152EA430C08BFC143BDE816
:10137000F08100204FF4001616EB410F98BF16EBDA
:10138000430F08BF16EB410F24BFC14305E016EB26
:10139000430F0CBF61464CEA0551BDE8F0810000E7
:1013A000F446400D40EAC120490006D200F014F88E
:1013B000004248BF6FF00040604700F00DF84FF06A
:1013C000004188428CBF084640426047400D40EAD9
:1013D000C120490080F00D8040F00040490DA1F58A
:1013E0008061491C05D4D1F11F0154BFC840C0170A
:1013F00070474FF000007047010040F10980F4464B
:10140000404200F005F851F000416047010000BF84
:1014100009D0B0FA80F18840C91CC1F58461090582
:1014200001EBD02140057047F0B44FF0004591EA40
:10143000030F44BF6B4000F0CBB800BF841A71EBC0
:10144000030604D26E40001BB141121973414FF4E0
:10145000001C1CEB410F34BF7CEB430684E00C0DF9
:10146000A4EB1356362E7DDC012E43DC45EAC32364
:1014700043EA525312BFD20292025B08240545EAA6
:10148000C12141EA5051D2EBC020994125D407D166
:10149000B0FA80F610FA06F164D00020203608E099
:1014A000B1FA81F6B140C6F1200220FA02F21143EE
:1014B000B0404FEAF474B4EB465434F001064FEAFE
:1014C00074040AD8D6F50016760D04F00044F040F6
:1014D00061FA06F25040F1404840C00A40EA4150EB
:1014E00021F0004128BF5FEA500550F1000044EBB5
:1014F000D12137E045EAC323DB0A45EAC121C90A05
:10150000B6F120050EDD42EA0242120CC5F12006BA
:1015100003FA06F6EB4042EA06056D42984161F196
:1015200000010DE062FA06F5F240554063FA06FC50
:1015300082EA0C02F3405A406D42904161EB030194
:1015400011F4801F05D1641E620502D06D00404178
:10155000494121F48011430875F1004350F1000026
:1015600041EB0451F0BC70471CEB410F15D223F046
:10157000004352EA43060BD04FEA4C0CBCEB410F40
:1015800004D80C0D661E342EB7DDEBE7801A9941A6
:1015900050EA410608BF0021E4E708BF1CEB430FF7
:1015A00028BF6FF00001DDE791FBF2F303FB12119E
:1015B000C0E900317047000070470000F0B44FF000
:1015C000004591EA030C44BF6B40FFF737BF00BFF3
:1015D000841A71EB030603D2001BB1411219734147
:1015E0004FF4001C1CEB410F34BF7CEB430443E081
:1015F0000C0DA4EB1356352E50DC45EAC323DB0A51
:1016000045EAC121C912B6F120050DDD63FA05F6E0
:10161000EB4086EA0305124218BF45F00105C018E9
:1016200051F100010CD213E062FA06F5F240554088
:10163000F3415A40B340F3405A408018594107D310
:1016400049085FEA30005FEA350528BF45F001052B
:1016500001F58011420875F1004250F1000041EBA4
:101660000451F0BC4FF4001C1CEB410F38BF704715
:101670000020090D090570471CEB410F10D252EAFA
:1016800043060BD0BCEB410F05D80C0DAB43661ED7
:10169000342EB5DD02E0AB4380185941F0BC7047F1
:1016A000F0BC704700B585B000F01EF9684600F048
:1016B00076FB00984FF47A71B0FBF1F0401EB0F168
:1016C000807F15D2DFF868154860F02081F8130D8F
:1016D000002088600720086000F008FC00F087F810
:1016E00000F007F800F036F900F086F905B000BD0B
:1016F000FEE7F0B581B001211C2000F0A2FB012122
:10170000DFF83005DFF83065DFF83045DFF8307599
:1017100000F076FC4FF48040ADF8000069460220EE
:101720008DF802004FF4004510208DF8030030467C
:1017300000F0FCFB4FF48041304600F05FFC4FF4BA
:101740008070ADF800006946204600F0EFFB4FF4D2
:101750008071204600F050FC4FF40060ADF80000AE
:101760006946204600F0E2FB4FF40061204600F09D
:1017700045FC0421204600F03FFC0420ADF80000A9
:101780006946204600F0D2FB0421204600F034FCDC
:10179000ADF800506946384600F0C8FB2946384687
:1017A00000F02CFC4FF48050ADF800006946304644
:1017B00000F0BCFB4FF48051304600F01FFCC82005
:1017C000ADF80000694603208DF8020000208DF876
:1017D0000300204600F0AAFB28208DF80300ADF896
:1017E00000506946204600F0A1FB01B0F0BD00B5F5
:1017F00085B001214FF0005000F02CFB01210520A5
:1018000000F01FFB3020ADF80000694600208DF885
:10181000030003208DF80200DFF8200400F086FBAF
:1018200001A800F031FC002001900290049001A971
:1018300000F016FC01A9102000F012FC012100208C
:1018400000F028FC40F2C961002000F02FFC0121CB
:10185000102000F01FFC40F2DA71002000F033FC91
:1018600005B000BDDFF8DC03016821F00401016070
:101870007047DFF8D003016841F004010160704750
:1018800000B581B040F23461002000F01CFC14204F
:1018900000F016FD01B05DF804EB40F27F6100201E
:1018A00000F011BC10B50446DFF89C03214600F09F
:1018B00033FDDFF8981300F071FD0146DFF8900367
:1018C00000F0D8FDDFF88C1300F068FDDFF8881316
:1018D00000F044FE00F0C0FE81B2002000F0F3FBF7
:1018E000DFF87803046010BD00B581B000F0D0F9D6
:1018F0004FF4803000F0E7F900F0FFF9012827D11C
:10190000102000F0D3FE022000F0C8FE002000F0FE
:1019100029FA002000F034FA002000F02AFA002111
:10192000002000F009FA00214FF4803000F0F9F9AE
:10193000012000F0FEF9392000F0A7FA0028FAD0C3
:10194000022000F003FA00BF00F007FA0828FBD1DC
:1019500001B000BD10B586B0012144F2080000F0CE
:1019600070FA0121012000F06CFA8020ADF800002F
:1019700003208DF8020004208DF803006946AE4C68
:10198000204600F0D3FA4020ADF80000694602205E
:101990008DF8020018208DF80300204600F0C6FAEA
:1019A0000121042000F02CFB4FF47A30019000203C
:1019B0000290ADF80C00ADF810000C20ADF80E0050
:1019C0000122A74C40F22551204600F0B3FFA54864
:1019D000A02180F8211320210160204601A900F0F8
:1019E0004FFF01228021204600F0BCFF012120464C
:1019F00000F096FF06B010BD10B58CB0012101209B
:101A000000F016FA984C204600F0E6FF9748009048
:101A10006946002001901020029080200390002051
:101A200004908020059000200690079008904FF4C5
:101A30008050099000200A90204601F045F80121CD
:101A4000204601F05CF80CB010BD70B504460D46A0
:101A5000854E0021304601F052F8F4607560304642
:101A6000BDE87040012101F04AB810B586B00020F1
:101A700000F08EF9012140F2012000F0E2F97C4CE7
:101A8000204601F07FF8684601F0C6F8002000907B
:101A9000ADF8040069464FF46020029000200390E6
:101AA00001208DF81000204601F098F80021204612
:101AB00001F0C4F80121204601F0B7F8204601F0FA
:101AC000C6F8204601F0C8F80028FAD1204601F0F7
:101AD000C8F8204601F0CAF80028FAD106B010BDB7
:101AE00030B581B0FFF7C1FF614C0423012208210A
:101AF000204601F0C9F80121204601F0BCF802217E
:101B0000204601F017F90028F9D0204601F004F929
:101B10005849088001F020F904465748214600F052
:101B20003DFC564900F0F8FB05465548214600F0BB
:101B300035FC214600F032FC294600F0EDFB51490E
:101B4000086001B0BDE8304001F016B910B586B0AC
:101B500001214FF4800000F07DF90121082000F000
:101B600070F94FF44060ADF80000694603208DF82D
:101B700002001C208DF80300434C2F4800F0D6F9DA
:101B8000204601F0F7F901A801F070FA0020ADF845
:101B9000080001214BF6FF70ADF80A000020ADF8F7
:101BA0000C004FF48060ADF80E004FF48040ADF8AB
:101BB000100036480190204601F067FA01A920463E
:101BC00001F0F3F94FF40031204601F09CFA38B1EE
:101BD0000121204601F081FA0021204601F07DFA22
:101BE00006B010BD30B581B04FF41674DFF8485020
:101BF0004FF48041284600F0FFF9FA2000F083F905
:101C00004FF48041284600F0F9F9FA2000F07BF902
:101C1000641EEDD101B030BD00B581B04FF400417C
:101C2000064800F0E2F9012818BF002001B000BD0D
:101C300010E000E000023000000C0140000801400C
:101C4000001001400C0801401498B1C2F9171D3C66
:101C50005C8FA23F00F07F453D0A57400000002006
:101C60000038014004E100E0440002400438014033
:101C7000002401401C000020FB40F2BC9EAF8542C6
:101C8000AF670E36780F00200058004040420F002A
:101C90008648874A016841F00101016041681140AE
:101CA0004160844A016811400160016821F480218B
:101CB0000160416821F4FE0141604FF41F01816021
:101CC0000021C162704779490A6822F480320A60B3
:101CD000B0F5803F0A6822F480220A6003D0B0F594
:101CE000802F05D07047086840F480300860704746
:101CF000086840F4A0200860704781B00020009080
:101D00006A490A68009B5B1C0093009BB3F5A06FB7
:101D100001D09203F5D50968890348BF012001B0BD
:101D20007047654A136823F474131843084310601E
:101D30007047624908607047614ADFF888C11368DC
:101D40000CEA030318430843106070475A490A68B5
:101D5000920840EA8200086070475748006800F027
:101D60000C00704754490A6822F0F00210430860E2
:101D7000704751490A6822F4E062104308607047D6
:101D80004D490A6822F4605242EAC0000860704778
:101D900049490A6822F440421043086070474649A6
:101DA0000A6802F00C02042A02D0082A02D014E0C9
:101DB000454A13E00A680B68C2F38342921CDB03B6
:101DC00058BF424B07D58B6ADFF8FCC003F00F0306
:101DD0005B1CBCFBF3F35A4300E03D4A02600B6816
:101DE0003C4AD0F800C0C3F303139B5C2CFA03FCFD
:101DF000C0F804C00B68D0F804C0C3F302239B5C96
:101E00002CFA03FCC0F808C00B68D0F804C0C3F378
:101E1000C2239B5C2CFA03FCC0F80CC00968C368A1
:101E2000C1F381318918097CB3FBF1F1016170477D
:101E3000294A0029116814BF084321EA00001060F4
:101E40007047264A0029116814BF084321EA0000A0
:101E500010607047224A0029116814BF084321EA24
:101E60000000106070471F4A0029116814BF084322
:101E700021EA0000106070471B4A0029116814BF56
:101E8000084321EA0000106070474109074A012910
:101E900008BF116803D002290CBF116A516A00F013
:101EA0001F00C14001F00100704700000010024017
:101EB0000000FFF8FFFFF6FE0410024060004242FF
:101EC0002C100240F0FFFEFF001BB70000093D0090
:101ED00000127A0004000020141002401810024082
:101EE0001C1002400C100240101002400C48016807
:101EF00041F08071016000210A484160016841F0B1
:101F000001010160704708490A6800EB4003D800EE
:101F10000B689B1A8342FBD37047034800687047E5
:101F2000FCED00E0001000E0041000E02DE9F041BD
:101F3000CC78002204F00F03E40644BF8C782343DE
:101F40000C88E5B225B3D0F800C001255FF00F067C
:101F500005FA02F707EA0408B84514D14FEA820EE1
:101F600006FA0EF82CEA080C03FA0EFE4EEA0C0CE8
:101F700091F803E0BEF1280F08BF476103D0BEF11E
:101F8000480F08BF0761521C082AE1D3C0F800C0FF
:101F9000FF2C28DDD0F804C0002201255FF00F06D9
:101FA00002F1080705FA07F707EA0408B84515D152
:101FB0004FEA820E06FA0EF82CEA080C03FA0EFE1F
:101FC0004EEA0C0C91F803E0BEF1280F08BF476100
:101FD00091F803E0BEF1480F08BF0761521C082AC0
:101FE000DED3C0F804C0BDE8F0818068002208425A
:101FF00018BF012210467047016170474161704768
:1020000070B4164A00284CBF9469146800F4401656
:10201000B6F5401FC0F3034583B206D1156825F01D
:10202000706524F0706415600CE0C60203D50326C9
:1020300006FA05F503E0450D2D0103FA05F5AC435D
:1020400044F0706421B1410D090103FA01F10C4320
:1020500000284CBF9461146070BC704704000140BC
:1020600030B41F4A13684D6840F6FE748440A343A1
:102070000C682C438D68C9682C43214301FA00F099
:102080001843106030BC70470021016041608160DE
:10209000C1607047012202FA00F0114A002911685C
:1020A00014BF084321EA00001060704781B000228D
:1020B000009208300A4A0092009A80180090009816
:1020C000016001B0704781B0002200921430044AD0
:1020D0000092009A801800900098016001B070474B
:1020E0000074004010B586B0FFF7DCFA01F026F866
:1020F00001F0B5FB01A8FFF752FE029842F2107101
:10210000B0FBF1F000EB8001880000900098A8B1CE
:102110000098401E0090009880B10098401E0090EA
:10212000009858B10098401E00900098002805D0F3
:102130000098401E009000980028E9D1FFF706FDA6
:1021400001A8FFF72CFE029842F21071B0FBF1F0EB
:10215000C821484300900098A8B10098401E009004
:10216000009880B10098401E0090009858B10098E7
:10217000401E00900098002805D00098401E009056
:1021800000980028E9D1FFF76DFB00F0F5FDFFF79F
:1021900077FB01A8FFF703FE029842F21071B0FB33
:1021A000F1F03221484300900098A8B10098401EF9
:1021B0000090009880B10098401E0090009858B19F
:1021C0000098401E00900098002805D00098401EFE
:1021D000009000980028E9D101F048FC01A8FFF721
:1021E000DEFD029842F21071B0FBF1F06421484329
:1021F00000900098A8B10098401E0090009880B10F
:102200000098401E0090009858B10098401E009021
:102210000098002805D00098401E009000980028E3
:10222000E9D101F0DBFB0FF2E800234C01F060FC88
:102230002078012803D101F0F7F801F061F9607806
:10224000012803D101F0D0F900206070FFF7E4FC11
:102250000028EDD001206070EAE700B5432881B086
:1022600013D015D3452802D008D301B000BDFFF725
:10227000F9FA11490120087001B000BDFFF7F9FA21
:102280000D490020087001B000BD0B4901204870C5
:1022900001B000BD30B50446084D81B0E1B228461A
:1022A00000F068FB8021284600F06CFB0028F9D084
:1022B000204601B030BD00001E0000200038014063
:1022C00010B586B0044601A8FFF769FD029842F2F6
:1022D0001071B0FBF1F0604300900098A8B1009835
:1022E000401E0090009880B10098401E0090009819
:1022F00058B10098401E00900098002805D0009822
:10230000401E009000980028E9D106B010BD0000E2
:1023100053746172740D0A0090EA010F44BF81F09A
:10232000004100F0AFB800BF421A3CBF801A8918C4
:102330004FF0004CC0F3C752FF2A24D0C1F3C7535B
:1023400013B3D21AD2F1190327DD4CEA01214CFA5A
:1023500003F321EA0303D140C20D4CEA00204018E8
:1023600034BF20EA0C004CEA5000D20553EA006367
:1023700073EB0C0C52EB1020420012F1807F38BF3F
:102380007047C00DC0057047490212BF9A4200EB6A
:102390005120F8E7D2F11703D9D57047FF2212EA8E
:1023A000D05C1DBF12EAD153944593422BE09C446C
:1023B000D30780EA01021A4043EA002043EA0121E0
:1023C000A1FB0030410038BF40007CF17F010BDBF6
:1023D000FE294ADA5B0842EAC15153EA006373F10D
:1023E000004C51EB10207047D1F1080CDCF12001BA
:1023F0002FDB5B0810FA01F10B4373F1004120FA67
:102400000CF05041704794451CBF02EAD1539342EF
:1024100080EA010202F000421DD0400019D04900BC
:1024200017D05BB9634514D00902B1FA81F3994022
:10243000BCEB030CC00140F00040C1E70002B0FA61
:1024400080FC10FA0CF0B3EB0C0CC90141F0004118
:10245000B6E71000704740000AD0490008D010F1DC
:10246000807F94BF11F1807F02E042F0FF4070470F
:10247000D043704790EA010F44BF81F00041FFF75D
:1024800053BF00BF431A4FF000423EBF5340C01A33
:10249000C91800BFD3095FEAD05C13EB400F34BF0B
:1024A000B3EB410F40E07CEBD1530CD342EA012166
:1024B00022D8D1EB402009D3400A28BF5FEA50015F
:1024C00040EBCC507047401A15D04002B0FA80F271
:1024D000521C9040400A4FEA3C23B3EB026384BF96
:1024E00000EB730007E040F400001A16DB07C2F1AE
:1024F0000102D04018437047182BFCDC31FA03F27C
:1025000002FA03F3591A38BF42F00102D2EB40201D
:102510003CBF4000ACF1010C5FEACC5CC20572F13B
:1025200000414CEB5020704713EB400F0FD24B0093
:1025300009D0ACEBD153022B03DB4902172BDDDDB5
:1025400070479143401A4300D5D10020704713EBE8
:10255000410FD0D36FF000007047000010B5FF238B
:1025600013EAD0541DBF13EAD1529C429A4239E07B
:10257000A41ADA0780EA0103134042EA012142EA81
:102580000020421A3CBF641E01EB4202090AB2FB62
:10259000F1FE01FB1E221202B2FBF1F001FB102240
:1025A0006EF30F201202B2FBF1FE4EEA00207F34E0
:1025B00006DDFE2C24DA53EA500050EBC45010BD67
:1025C000D4F1020401FB1E2240F08071192C1DDCA5
:1025D00021FA04F0C4F12004A140114371F100423A
:1025E000584110BD9C421ABF03EAD1529A420FE0F3
:1025F00080EA010E0EF00043400004D0490016D1DD
:1026000043F0FF4010BD490008BFD343180010BD80
:102610009C4205D1D21AF7D001F00041484010BDCC
:102620004A0212BF0846484000F0004010BD4AB9B7
:102630000902B1FA81F2914044B1A418C00140F0FE
:1026400000409EE7C90141F0004152420002B0FA49
:1026500080F4A040141B94E74100090E7F3915D483
:10266000D1F11F0114D4400007D2C00140F0004056
:10267000C84048BF6FF000407047C00140F00040C4
:10268000C8404CBF4FF000404042704700207047A8
:1026900000424FF0004058BFC0437047DFF8C811F8
:1026A0000A6802F03802104308607047DFF8B8117A
:1026B0000A6822F010020A600A6810430860704736
:1026C000DFF8A801DFF8A8110160DFF8A8110160A8
:1026D0007047DFF8A401016841F080010160704794
:1026E000DFF8983130B41D6804214FF43022ED0733
:1026F000144648BF01210ED41D686D0748BF022152
:1027000009D41D68ED0606D5032104E01D68ED0619
:1027100048BF0321641E01290BD15CB11D6804214F
:10272000ED0748BF0121F5D41D686D07EED50221E4
:10273000F0E704B90521042932D1596841F00201BA
:10274000596098600421586840F04000586018684B
:10275000C00748BF01210ED41868400748BF0221B6
:1027600009D41868C00606D5032104E01868C0061D
:1027700048BF0321521E01290BD15AB11868042108
:10278000C00748BF0121F5D418684007EED50221E3
:10279000F0E702B90521586841F6FD721040586013
:1027A000084630BC7047000070B4DFF8D04026689F
:1027B00004224FF40053F6071D4648BF01220ED4F1
:1027C0002668760748BF022209D42668F60606D591
:1027D000032204E02668F60648BF03226D1E012A84
:1027E0000BD15DB126680422F60748BF0122F5D45B
:1027F00026687607EED50222F0E705B90522042AFD
:102800002ED1626842F001026260018004222068D9
:10281000C00748BF01220ED42068400748BF0222EB
:1028200009D42068C00606D5032204E02068C0064B
:1028300048BF03225B1E012A0BD15BB12068042232
:10284000C00748BF0122F5D420684007EED5022218
:10285000F0E703B90522606841F6FE710840606048
:10286000104670BC70470000002002400420024067
:1028700023016745AB89EFCD102002400C200240B8
:1028800030B5044685B00D46208A4CF6FF710840ED
:10289000E988084320824EF6F311A0890840A988F0
:1028A00008432989084369890843A0814FF6FF41FD
:1028B000A08A0840A9890843A0826846FFF76FFAFA
:1028C0001648296884420CBF039802981922504385
:1028D000A28912044CBF49008900B0FBF1F16420C9
:1028E000B1FBF0F000010209642303FB1211A2897D
:1028F000120409D5C9003231B1FBF3F101F007012F
:102900000843208105B030BD09013231B1FBF3F13C
:1029100001F00F010843208105B030BD00380140AF
:102920000029818912BF41F400514DF6FF72114018
:10293000818170470B065B0F4FF0010C01F01F0106
:10294000012B0CFA01F108BF0C3003D0022B0CBF95
:1029500010301430002A026814BF114322EA01012A
:1029600001607047002A828A14BF114322EA0101E4
:1029700081827047C905C90D818070478088C00574
:10298000C00D704700880022084218BF012210467F
:102990007047C9430180704730B40A4613060021CE
:1029A0005B0F012402F01F05012B04FA05F508BF97
:1029B000838903D0022B0CBF038A838A120A008802
:1029C00004FA02F22B401040002B1CBF002801210A
:1029D00030BC08467047000001684FF6FE72114097
:1029E00001600021016041608160C16057498842F7
:1029F00005D15748016841F00F0101607047554902
:102A0000884205D15248016841F0F00101607047E9
:102A10005149884205D14E48016841F47061016016
:102A200070474E49884205D14948016841F47041D8
:102A3000016070474A49884205D14548016841F420
:102A40007021016070474749884205D140480168BC
:102A500041F47001016070474349884205D13C4808
:102A6000016841F07061016070474049884205D1BA
:102A70003748D0F8001441F00F0122E03C49884269
:102A800005D13348D0F8001441F0F00119E039497C
:102A9000884205D12E48D0F8001441F4706110E04E
:102AA0003549884205D12A48D0F8001441F47041D4
:102AB00007E03249884206D12548D0F8001441F495
:102AC0007021C0F80014704702688B686FF30E1213
:102AD0001A430B6A1A430B691A434B691A438B69F1
:102AE0001A43CB691A434B6A1A438B6A1A43026032
:102AF000CA6842600A6882604968C16070470029FC
:102B0000016812BF41F001014FF6FE7211400160F1
:102B10007047002A026814BF114322EA01010160D4
:102B200070470021164AC3004CBFD2F80024126837
:102B3000024218BF0121084670470549C2004CBF38
:102B4000C1F800040860704700000000080002405F
:102B5000040002401C0002403000024044000240D9
:102B6000580002406C00024080000240080402400D
:102B70001C04024030040240440402405804024055
:102B80000000024000B56649884281B008D10121A9
:102B90004FF40070FFF767F900214FF4007016E062
:102BA0006049884208D101214FF48060FFF75BF94A
:102BB00000214FF480600AE05B4988420CD101217A
:102BC0004FF40040FFF74FF900214FF4004001B0EF
:102BD0005DF804EBFFF747B901B000BD4268534B05
:102BE0001A400B681A430B7942EA03224260504BA9
:102BF00082681A40CB681A438B681A434B7942EAC1
:102C000043028260C26A097C491E22F47002C9B282
:102C100042EA0151C16270470021016001714171B6
:102C20008160C1600121017470470029816812BF71
:102C300041F001014908490081607047002981681D
:102C400014BF41F4807121F4807181607047816804
:102C500041F00801816070478068C00800F0010001
:102C60007047816841F00401816070478068800886
:102C700000F0010070470029816814BF41F4A001F1
:102C800021F4A0018160704770B407240A290BDB8E
:102C9000A1F10A0505EB4505C668AC4026EA040427
:102CA000AB402343C36008E001EB41050669AC403B
:102CB00026EA0404AB40234303611F24072A0ADAEF
:102CC000521E02EB8202436B9440A343914019438E
:102CD000416370BC70470D2A0ADAD21F02EB8202F0
:102CE000036B9440A34391401943016370BC704748
:102CF0000D3A02EB8202C36A9440A3439140194308
:102D0000C16270BC70470029816814BF41F4801112
:102D100021F4801181607047C06C80B27047000060
:102D20000024014000280140003C0140FFFEF0FF6C
:102D3000FDF7F1FF00680022084218BF012210468B
:102D400070470000002840F10980F446404200F03E
:102D500005F850F000406047002800BF0AD0B0FAE4
:102D600080F18840D1F19D01C905020672F100424F
:102D700041EB10207047000000B581B000F006F86C
:102D800000F036F801B05DF804EB7DE010B588B0D6
:102D900001214FF40060FFF754F86F4C204600F01B
:102DA000B9FE03A801F022F8684601F016F80020E9
:102DB000ADF8000069464320ADF804000020ADF8EE
:102DC0000600ADF80200204600F07CFF6020ADF860
:102DD0000C0003A90020ADF80E002220ADF812006F
:102DE0000220ADF81400204600F0B7FF08B010BD77
:102DF00010B586B00020FEF7CBFF012140F2012084
:102E0000FFF71FF8554C2046FFF7BCFE6846FFF75A
:102E100003FF00200090694601208DF80400002087
:102E20008DF805000290039002208DF810002046D6
:102E3000FFF7D4FE0023012206212046FFF724FFDE
:102E40000023022207212046FFF71EFF0121204612
:102E5000FFF759FF01212046FFF7F0FE0121204630
:102E6000FFF7E3FE2046FFF7F2FE2046FFF7F4FEF1
:102E70000028FAD12046FFF7F4FE2046FFF7F6FEC1
:102E80000028FAD106B010BD10B58CB00121012088
:102E9000FEF7CEFF324C2046FFF79EFD31480090F2
:102EA000694631480190002002904FF48C700390E5
:102EB00000200490802005904FF4807006904FF41D
:102EC00080600790002008904FF440500990002047
:102ED0000A902046FFF7F8FD01212046FFF70FFE7C
:102EE000012202212046FFF714FE2048F02180F83D
:102EF0000B134FF4006101600CB010BDF0B5044637
:102F0000154D81B00021284600F07AFF134E0021B4
:102F10003046FFF78AFE124F00213846FFF7EFFDDB
:102F2000FC604FF48C7078600420FFF706FE0220EE
:102F3000FFF703FE01213846FFF7E1FD0C490020B1
:102F4000087001213046FFF770FE284601B0BDE849
:102F5000F040012100F054BF002C0140002401404A
:102F6000080002404C2401408A08002000E100E0F3
:102F7000850F002000B53A49884281B008D101216F
:102F80004FF40010FEF778FF00214FF4001007E027
:102F900001214FF48000FEF76FFF00214FF4800005
:102FA00001B05DF804EBFEF767BF70B5044686B06C
:102FB000A6880D466846FEF7F2FE029929484FF6AC
:102FC000C072B1FBF0F032400243A2804FF6FE73B4
:102FD00022881A402280244B2A689A4208D2520042
:102FE000B1FBF2F18AB2042AB8BF042189B220E011
:102FF000EB884BF6FF76B34204D102EB4202B1FB01
:10300000F2F106E019235A43B1FBF2F141F4804199
:1030100089B20A0580B24FF4967204BF41F00101F3
:1030200089B2504341F400414FF47A7289B290FB67
:10303000F2F0401C2084A1834FF6F531208840F047
:103040000100208020880840A98808436989084336
:1030500020802989A8890843208106B070BD00001E
:103060000054004040420F00A186010041F2883127
:103070000160002181804BF6FF71C1800021018138
:1030800041814FF48041818170470029018812BF3E
:1030900041F001014FF6FE72114001807047002996
:1030A000018812BF41F480714FF6FF621140018028
:1030B00070470029018812BF41F400714FF6FF529A
:1030C00011400180704701827047002A14BF41F00F
:1030D000010101F0FE01018270470029018812BF41
:1030E00041F400414904490C01807047838A008BF8
:1030F00043EA0040084000020022000A884208BF5C
:1031000001221046704782B00246002001900090D4
:1031100000920A0F01920902019A090A12B1009A5B
:10312000143202E0009A090C18320092009A1268D8
:103130000A4218BF012002B0704700002DE9F04696
:10314000DFF8B8A2DFF8B89281B000260AF50C7754
:10315000B0B2FEF75BF9AB4AAB4BFDF723FF044679
:103160000D46002200F076FE00224B46FDF71AFFC6
:10317000FEF716F94AF8040B01222046294600F012
:1031800069FE00224B46FDF70DFFFEF709F9761C9C
:103190008C2E47F8040BDBDB01B0BDE8F086F0B500
:1031A000964B81B00024002503F50C71232206887C
:1031B00053F8047B06FB074451F8047B06FB0755D4
:1031C000868853F8047B06FB074451F8047B06FB12
:1031D0000755068953F8047B06FB074451F8047B26
:1031E00006FB0755868953F8047B06FB074451F814
:1031F000047B1030521E06FB0755D8D1462095FBA4
:10320000F0F0FFF79FFD0546462094FBF0F0FFF736
:1032100099FD044628462946FFF7C0F80646204691
:103220002146FFF7BBF83146FFF776F801F026F8A4
:1032300006462146284601F05AF804464FF06A50E7
:103240003146FFF7ABF8FFF707FAADF8000021466B
:103250006E48FFF7A3F801F0AFF86D4A6D4BFDF72C
:1032600073FF01F0D1F8FFF7F7F9ADF8020000980D
:1032700001B0F0BDF0B502460027002000298446C9
:1032800066D011F003039E4640F6E54400F00B8043
:1032900032F91C50963DA54228BF0127BEF1010E10
:1032A0000CF1010CF4D18E08B64622D032F91C5034
:1032B000963DA54228BF01270CF1010C32F91C50A4
:1032C000963DA54228BF01270CF1010C32F91C5094
:1032D000963DA54228BF01270CF1010C32F91C5084
:1032E000963DA54228BF0127BEF1010E0CF1010C4D
:1032F000DCD1002F844600F00D8041F2185440F2DA
:10330000097573B332F91C70AF42ACBFE71BC7F548
:10331000E16721E03BB100BF32F91C4020185B1E81
:103320000CF1010CF8D19EB132F91C3018180CF1D7
:10333000010332F9134020185B1C32F913402018A6
:103340005B1C32F913402018761E03F1010CEBD1FF
:1033500090FBF1F000B2F0BD38185B1E0CF1010CCF
:10336000D0D13EB332F91C30AB42ACBFE31AC3F547
:10337000E16318180CF1010332F91370AF42ACBFCE
:10338000E71BC7F5E16738185B1C32F91370AF42D1
:10339000ACBFE71BC7F5E16738185B1C32F9137047
:1033A000AF42ACBFE71BC7F5E1673818761E03F1E3
:1033B000010CD7D190FBF1F0D0F5E16048BF00F5EA
:1033C000616000B2F0BD30B5134881B004681348A5
:1033D0002146FEF7E3FF054611482146FEF7DEFFD2
:1033E0002146FEF7DBFF2946FEF796FF0D49FEF763
:1033F000D5FFFFF731F900B201B030BD280400203D
:1034000000009040DFAEF9627FFAC63F0000E14461
:1034100044174154FB210940780F0020DF6B683EC0
:10342000EB45A3BB000020C110B5DFF84C44A078E9
:10343000012864D0607800BB00F0D0FA9620FEF737
:1034400062FD2078401CC0B20428A8BF0120207073
:103450002078022806D003280CBFDFF82004DFF80C
:10346000200401E0DFF81C04012100F8021BFFF733
:1034700045FD01206070A07010BD6078022821D148
:1034800000F0B4FA9620FEF73EFD2078401CC0B252
:103490000428A8BF012020702078022806D0032825
:1034A0000CBFDFF8D803DFF8D80301E0DFF8D4035E
:1034B000022100F8021BFFF721FD032060700120AC
:1034C000A07010BD6078042819D100206070FEF74C
:1034D00007FBDFF8B4030168DFF8B003FEF75EFF17
:1034E000DFF8AC13FEF718FFDFF8A81300F0D4FFE5
:1034F00098BFDFF8A403BDE81040FEF7D3B910BDB4
:1035000030B5DFF8744381B0A07800286AD06078C5
:10351000012836D1FEF701FDDFF880532969411AF1
:103520001822B1FBF2F1E96028612078012806D069
:10353000DFF84C130A78022A06D0022808D0DFF8F8
:1035400044130A78022A01D1881C09E0032806D016
:10355000DFF828030178022908BF801C00D0002072
:1035600000F03FF968602B88AA680FF25C3105F122
:10357000140000F0A3FF81B205F11400FEF765FA14
:103580002EE0607803282DD1DFF814534FF400614A
:103590002846FEF731FD2078012806D0DFF8E0123A
:1035A0000A78012A06D0022808D0DFF8D8120A7853
:1035B000012A01D1881C09E0032806D0DFF8BC02EB
:1035C0000178012908BF801C00D0002000F009F913
:1035D000DFF8C81208604FF400612846FEF70EFDC0
:1035E0000020A07001B030BD70B5C2B0FEF7FAFA8D
:1035F0000FF2E02000F07CFAFEF734F9DFF8A412B5
:10360000012008704FF4C870FEF75AFEFEF768FA02
:10361000DFF874020168DFF87402FEF7BFFEDFF81E
:103620007012FEF779FEDFF86C1200F035FF98BFDC
:10363000DFF86402FEF736F900F0D0F96420FEF7F7
:103640003FFE00F072F80090BDF80000052865DB31
:10365000DFF854020068FEF7FFFFC1B20FF2DC2072
:1036600000F046FA21AC402500F05FF80090BDF86C
:1036700000000A2852DBBDF8020024F8020B6D1E80
:10368000F2D1402121A8FFF7F5FD044621460FF2B3
:10369000582000F02DFA00F0A9F96420FEF710FE82
:1036A00001AD402600F041F80090BDF800000A2866
:1036B00034DBBDF8020025F8020B761EF2D1402162
:1036C00001A8FFF7D7FD054629460FF23020774EB7
:1036D00000F00EFA764804804580FEF7F1FF304690
:1036E000FEF7FEFF41F234213046FFF75DF8A1B24C
:1036F0007048FFF759F8A9B26F48FFF755F8002155
:103700006E48FFF751F8FEF7E4FFFEF76BFA0FF291
:10371000002000F0EDF9012042B070BD0FF2002052
:1037200000F0E6F9002042B070BD2DE9F0415248AA
:1037300086B000214170817000240FF21420604F88
:1037400000684F4D00900DF10C080326A81CFFF7F0
:10375000D5FB38780028FCD0A81CFFF720FD01908D
:10376000281DFFF71CFD0290BDF80A10BDF80600E9
:10377000401A00B2002848BF00F56160BDF804108F
:1037800028F8020B0C19761EE0D10320B4FBF0F0F0
:10379000ADF80000032103A8FFF76CFD0446424882
:1037A0000068ADF80240FEF757FFC2B24548BDF8C9
:1037B00000100088FFF707FE0019ADF80200BDF900
:1037C0000200010048BF00F5616004D4B0F5616FEC
:1037D00003DDA0F56160ADF80200009806B0BDE819
:1037E000F08110B504460FF26C1084B000680090B0
:1037F0002046FFF7D4FC0190A01CFFF7D0FC0290FC
:10380000BDF80A10BDF80600441A24B2002C48BFC7
:1038100004F56164BDF80400ADF80000ADF80240A5
:1038200021480068FEF718FFC2B22648BDF8001014
:103830000088FFF7C8FD0019ADF80200BDF90200CD
:10384000010048BF00F5616004D4B0F5616F03DD8D
:10385000A0F56160ADF80200009804B010BD1348F7
:10386000018841F23422914204D1114942880A80F0
:10387000808848807047000020000020F00C002065
:1038800088080020BC0A0020780F0020612CF93E37
:10389000B2DDC5420100EE420000EE42240F0020DE
:1038A000000801401E00002000000020007C0008ED
:1038B0007C0F0020027C0008047C0008067C0008C5
:1038C000850F00201C000020253035643B25303456
:1038D000640D0A0043616C69622053746172742044
:1038E000373031410D0A00005A65726F205068610F
:1038F000736520313A2025640D0A00005A65726F05
:1039000020506861736520323A2025640D0A00005A
:1039100043616C696220446F6E650D0A000000000F
:1039200043616C6962204641494C3A204C6F7720D4
:103930005369676E616C0D0A0000000043616C6999
:103940006220766F6C746167653A25640D0A000029
:10395000000000000000000070B582B06C46002539
:10396000002660C4C901B1FBF2F48DF8012002FB0E
:10397000141104EBC010A0F500748DF80440100A77
:10398000120B02F0F0028DF800008DF80710200CE9
:1039900000F003008DF80200250A0C0C04F00F045F
:1039A000A2188DF805208DF803500A0A8DF806201C
:1039B00069460822184600F00FFE02B070BD70B5CF
:1039C00015461E4604461A233246FFF7C5FF324607
:1039D00029462046BDE870402223BDE740F2E2437D
:1039E0004FF46E7240F2B6311B20E8E700B583B0A9
:1039F00068460021002206C0E2218DF80110042053
:103A00000D218DF803108DF800007A218DF8041037
:103A10008DF802204C218DF805208DF806008DF8D8
:103A20000710082269461A2000F0D6FD68460021DA
:103A3000002206C0E2218DF8011004200D218DF82E
:103A400003108DF800007B218DF804108DF8022002
:103A50006A218DF805208DF806208DF807100822C0
:103A60006946222000F0B8FD03B000BD00B581B06A
:103A700002210FF2380000F03BFD02210FF234006A
:103A800000F036FD33210FF2340000F031FD022149
:103A90000FF2240000F02CFD01B05DF804EB0221D0
:103AA0000FF20C0000F024BD0000000003FF000036
:103AB00003FA0000BBC00000B1AC00000F004F8053
:103AC0006F8080808080AA000019000AF500001332
:103AD00004E2000AF500033600010C0000000000BB
:103AE000000000000000000000010C0000000000C9
:103AF0000EB400B582B003A9009102466B460121C5
:103B0000034878440A30FCF70BFB06BC5DF810FB59
:103B10008913000000B5DFF8FC12884281B008D19B
:103B200001214FF40060FEF79EF900214FF4006080
:103B3000C1E0B0F1804F06D101210120FEF79CF9D0
:103B4000002101208CE0DFF8D012884206D101214B
:103B50000220FEF791F90021022081E0DFF8BC127B
:103B6000884206D101210420FEF786F900210420B5
:103B700076E0DFF8AC12884206D101210820FEF77A
:103B80007BF9002108206BE0DFF89812884206D10B
:103B900001211020FEF770F90021102060E0DFF80D
:103BA0008812884206D101212020FEF765F9002104
:103BB000202055E0DFF87412884208D101214FF42B
:103BC0000050FEF750F900214FF4005073E0DFF889
:103BD0006012884208D101214FF40020FEF743F91A
:103BE00000214FF4002066E0DFF84812884208D137
:103BF00001214FF48010FEF736F900214FF48010B8
:103C000059E0DFF83412884208D101214FF4001046
:103C1000FEF729F900214FF400104CE0DFF81C12E8
:103C2000884206D101214020FEF726F900214020DC
:103C300016E0DFF80C12884206D101218020FEF741
:103C40001BF9002180200BE0DFF8F81188420CD12D
:103C500001214FF48070FEF70FF900214FF48070BE
:103C600001B05DF804EBFEF707B9DFF8DC1188421C
:103C700008D101214FF48030FEF7F5F800214FF410
:103C8000803018E0DFF8C411884208D101214FF4D8
:103C90000030FEF7E8F800214FF400300BE0DFF8C9
:103CA000B01188420CD101214FF48020FEF7DBF8DF
:103CB00000214FF4802001B05DF804EBFEF7D3B88B
:103CC00001B000BD0388DFF84C2190421CBFDFF833
:103CD0005CC160450ED0B0F1804F1CBFDFF838C129
:103CE000604507D0DFF834C160451CBFDFF830C144
:103CF000604507D14FF68F7C0CEA0303B1F802C090
:103D00004CEA0303DFF81CC160451CBFDFF818C193
:103D1000604507D04FF6FF4C0CEA0303B1F806C02C
:103D20004CEA0303038090428B8883850B880385CC
:103D30001CBFDFF8F82090420AD0DFF80C21904237
:103D40001FBFDFF808219042DFF80421904201D123
:103D5000097A018601218182704730B4028C4FF6C6
:103D6000FE731A4002844FF68C75048C8288038B94
:103D70002B400D882B434FF6FD752C400D892C43AD
:103D80004D882C43DFF88C50A8421CBFDFF89C50B4
:103D9000A8420AD0DFF8B050A8421FBFDFF8AC50ED
:103DA000A842DFF8AC50A84210D14FF6F7752C406E
:103DB0004D892C434FF6FB752C408D882C434FF6D4
:103DC000FF452A408D892A43CD892A438280038377
:103DD000C9888186048430BC70474FF6FF718180AA
:103DE00000210180C1804180017270470021018063
:103DF00041808180C180018141818181C181704781
:103E00000029018812BF41F001014FF6FE721140F6
:103E100001807047002C0140000400400008004071
:103E2000000C00400010004000140040003401402D
:103E3000004C014000500140005401400018004077
:103E4000001C0040002000400040014000440140B0
:103E5000004801402DE9F04C04460D46164683B05B
:103E6000DFF87803DFF8781322462B46FDF79AF83F
:103E70008B4621F00041DFF86C23DFF86C33FDF74F
:103E800079F8074680F0F38059460022002300F0BD
:103E900037FC104694BFDFF85413DFF854133A464A
:103EA0005B46FDF78BFBFDF77BFA070051D0FDF772
:103EB000A3FA0022CF4BFDF775F882468B464FF0F0
:103EC000A040CD4952465B46FDF76CF802460B46D2
:103ED00020462946FDF7A8FA04460D464FF0C0409B
:103EE000C64952465B46FDF75DF802460B46204642
:103EF0002946FDF799FA04460D464FF00050C04997
:103F000052465B46FDF74EF802460B4620462946D0
:103F1000FDF78AFA04460D460020BA4952465B4630
:103F2000FDF740F802460B4620462946FDF77CFA8D
:103F300004460D464FF00050B34952465B46FDF72C
:103F400031F802460B4620462946FDF76DFA044635
:103F50000D4607F003008619204629466FF001023E
:103F6000AA4B00F0CDFB0BD800224FF07953FDF7A0
:103F700001F805D2F00740F12B810024A44D27E180
:103F800022462B46FDF70EF80746F0078B4631D543
:103F9000A048A1493A465B46FDF704F89F4AA04B6A
:103FA000FDF70CFB3A465B46FCF7FCFF9D4A9E4B37
:103FB000FDF704FB3A465B46FCF7F4FF9B4A9C4B3B
:103FC000FDF7FCFA3A465B46FCF7ECFF994A9A4B40
:103FD000FDF7F4FA3A465B46FCF7E4FF6FF0510256
:103FE000964BFDF7EBFA3A465B46FCF7DBFF002207
:103FF000874B37E03A465B4620462946FCF7D2FF1E
:10400000CDE900013A468E488E495B46FCF7CAFF6F
:104010008D4A8E4BFDF7D2FA3A465B46FCF7C2FF5B
:104020008B4A8C4BFDF7CAFA3A465B46FCF7BAFF5F
:10403000894A8A4BFDF7C2FA3A465B46FCF7B2FF63
:10404000874A884BFDF7BAFA3A465B46FCF7AAFF67
:10405000854A864BFDF7B2FADDE90023FCF7A2FFA3
:1040600022462B46FDF7AAFA04460D46B0E0C5F3FA
:104070000A5240F2FF739A420BD0002A04BF280371
:1040800054EA103013D1002E00F0F2800024604D6D
:10409000EEE0280354EA103040F0EA8000F048FBDC
:1040A000212101604FF0FF306FF00041E2E0CDE9E7
:1040B0000045684600F042FBDDE9004586192046D0
:1040C00029466FF00102514B00F01AFB0AD800227A
:1040D0004FF07953FCF74EFF04D2F00778D5002457
:1040E0004B4D75E022462B46FCF75CFF0746F00778
:1040F0008B4631D5474848493A465B46FCF752FF64
:10410000464A474BFDF75AFA3A465B46FCF74AFFE8
:10411000444A454BFDF752FA3A465B46FCF742FFEC
:10412000424A434BFDF74AFA3A465B46FCF73AFFF0
:10413000404A414BFDF742FA3A465B46FCF732FFF4
:104140006FF051023D4BFDF739FA3A465B46FCF7FA
:1041500029FF00222E4B37E03A465B46204629468F
:10416000FCF720FFCDE900013A46354835495B466A
:10417000FCF718FF344A354BFDF720FA3A465B4608
:10418000FCF710FF324A334BFDF718FA3A465B460C
:10419000FCF708FF304A314BFDF710FA3A465B4610
:1041A000FCF700FF2E4A2F4BFDF708FA3A465B4614
:1041B000FCF7F8FE2C4A2D4BFDF700FADDE9002351
:1041C000FCF7F0FE22462B46FDF7F8F904460D46B3
:1041D000B0074DD585F0004120464BE083C8C96D3E
:1041E000305FE43F0000A0FFFFFFDF410000E03F41
:1041F0000000E0BF0000303EFB21B941B410114087
:1042000026A6513E5C14D33C9A833B3BFFFF3FBE46
:104210000000F03F09260A1039BA213E3BA861C6CA
:10422000F97D92BE63AC30909F01FA3EF6FB5116C9
:104230006CC156BFB10255555555A53FFFFFDFBFB5
:10424000B08F2FC310D8E53D8F0C73A1E1E55ABEA6
:104250004DADE44FE31DC73E3EE3B519A0012ABFB3
:10426000FAF010111111813F425555555555C5BFF2
:104270002046294603B0BDE8F08C00004FF4000250
:10428000C10D23D0FF2929D230EAC15010437D311E
:10429000490828BF001880004FF0C073B0F190604B
:1042A00006D452080ED2C01A9B18D2EB4000F8D5A3
:1042B000520806D2C0189B1AD2EB4000F1D5520822
:1042C000F8D35B1E580850EBC1507047B0FA80F12C
:1042D00008398840F9D0D1F10101D8E7FF29F4D09D
:1042E000D042F2D84000F0D0C84300F0D7BA38B579
:1042F0000B46C3F3C751FF29024609D011B14FF055
:10430000FF3409E058020CBF00246FF0010403E001
:10431000580214BF02240124C2F3C751FF2908D058
:1043200011B14FF0FF3108E0500206D06FF00101EB
:1043300003E0500214BF02210121012CB8BF012962
:104340001CDA002A46BF82F0004208250025002B17
:1043500044BF83F0004385F006051846114600F07F
:10436000A3FA02D2FEF7FAF81FE0002C04D510469B
:104370001946FEF7F3F81AE0002018E0022901D1EF
:10438000104632BD022C01D1184632BD8C420CBF02
:104390004FF07E500020002A4CBF08250025002B3E
:1043A00048BF85F00605012901D185F0020529469F
:1043B000BDE8344000F08ABA5FF0FF0C1CEAD0512F
:1043C00014BF614506E0C110400721F0E04101F152
:1043D0006051704779B900F0004100020AD0B0FA8C
:1043E00080FC00FA0CF001F16051A1EB0C5101EBE3
:1043F000D0214005704741020CBF40F4E0016FF04E
:1044000000010020704700004FEAF17CBCF1E04C55
:104410002CBFBCF5001F11E05FEA4C0C34BFBCF1AF
:104420007F5F2EE05FEA9C0C4FEA0C1C4FEA3C0CCD
:10443000C10071F100414CEB50707047C90241EA74
:104440005051C00218BF41F0010141F000414FEA54
:104450006C50C0F10900212810D240EACC7CCCF18C
:10446000200C11FA0CF070F10040CCF1200C21FA74
:104470000CF00CF0004C40EB0C0070474FEACC7095
:104480007047490011F5001F04D84FEACC10FF30E7
:10449000C0057047C81770474FF0807C1CEB400F79
:1044A00094BF1CEB410F05E040EA010C5FEA4C0CA5
:1044B00001D28142704718BF884270470CB41CB5C6
:1044C000044604A801900A46009401AB69460748D7
:1044D00078441830FBF724FE009A00211170002860
:1044E0005CBF0098001B16BC5DF80CFB2FC8FFFFDB
:1044F0002DE9F04304467D4E81B0002030700D461A
:1045000000F0B7FA4FEA0007DFF8E4814FF400311A
:104510004046FEF7F8FD20B100F0ABFAC01B0528BD
:10452000F4D301214046FEF7BAFD00F0A2FA074697
:10453000DFF8C49149464046FEF7D8FD20B900F0A7
:1045400098FAC01B0528F5D3DFF8B09100F091FA76
:10455000C01B052824BF012030700022C021404626
:10456000FEF7B3FD00F085FA074649464046FEF7E0
:10457000BDFD20B900F07DFAC01B0528F5D300F081
:1045800078FAC01B052824BF01203070EDB1594FC7
:1045900021784046FEF797FD00F06BFA81463946D8
:1045A0004046FEF7A3FD28B900F063FAA0EB09002E
:1045B0000528F4D300F05DFAA0EB0900052824BF1C
:1045C00001203070641C6D1EE2D1404601B0BDE890
:1045D000F0430121FEF76DBD2DE9F0478046434EC3
:1045E000DFF80C91002030700C46154600F041FABF
:1045F0004FEA00074FF400314846FEF784FD20B132
:1046000000F037FAC01B0528F4D301214846FEF715
:1046100046FD00F02EFA0746DFF8DCA0514648467A
:10462000FEF764FD20B900F024FAC01B0528F5D37D
:10463000DFF8C8A000F01DFAC01B052824BF012028
:1046400030700022C0214846FEF73FFD00F011FA0D
:10465000074651464846FEF749FD20B900F009FAE1
:10466000C01B0528F5D300F004FAC01B052824BFA1
:104670000120307041464846FEF725FD00F0F9F96B
:104680000746DFF8708041464846FEF72FFD20B907
:1046900000F0EFF9C01B0528F5D300F0EAF9C01BC4
:1046A000052824BF01203070D5B121784846FEF797
:1046B0000AFD00F0DEF9074641464846FEF716FDC2
:1046C00020B900F0D6F9C01B0528F5D300F0D1F9C8
:1046D000C01B052824BF01203070641C6D1EE4D16E
:1046E0004846BDE8F0470121FEF7E3BC840F0020F7
:1046F000005800408400070001000300820007000A
:104700004FF4001C1CEB410F94BF1CEB430F09E05E
:1047100041EA030C50EA4C0C52EA0C0C03D28B42D7
:1047200008BF8242704714BF994290427047000010
:10473000014800F0ABB90000180000202DE97C4CC6
:10474000064647484749D6E9004522462B46FCF72E
:1047500029FCCDE9000100220023FFF7D1FFDDE9AC
:10476000002399BF0020404900204049FCF726FF64
:10477000CDE900010021684600F089F9DDE9002358
:104780000020002100F0C0F94ED03949FCF70AFCA6
:1047900082468B464FF0A040364952465B46FCF7B6
:1047A00001FC02460B4620462946FCF73DFE044626
:1047B0000D464FF0C040304952465B46FCF7F2FBD5
:1047C00002460B4620462946FCF72EFE04460D46BF
:1047D0004FF00050294952465B46FCF7E3FB024686
:1047E0000B4620462946FCF71FFE04460D460020D6
:1047F000234952465B46FCF7D5FB02460B46204652
:104800002946FCF711FE04460D464FF000501D49A5
:1048100052465B46FCF7C6FB02460B46204629463D
:10482000FCF702FE04460D46C6E90045DDE900013D
:10483000154A164BFCF79EFB04D3154A154BFFF7A0
:104840005FFF05D80022144B00F06EF9CDE900019E
:10485000DDE90001FCF7A4FD00F00300BDE8768C63
:1048600083C8C96D305FE43F0000E03F0000E0BF57
:104870000000303EFB21B941B410114026A6513E44
:104880005C14D33C9A833B3B0000C0FFFFFFDFC1B9
:104890000100C0FFFFFFDF410000E0411FB5FFF74F
:1048A00047FF212101601FBD4FF0807C1CEB400FB2
:1048B00094BF1CEB410F05E040EA010C5FEA4C0C91
:1048C00001D28842704718BF81427047F8B50C4644
:1048D0002B49FFF7E1FD054612D82A4E3146FDF778
:1048E0005DFD2949FDF718FD074628463146FDF7CD
:1048F00013FD01463846FDF731FE054644F001043C
:1049000028462249FFF7D0FF03D32149FFF7C4FD12
:1049100021D82946FDF742FD064628463146FDF7D7
:104920003DFD1C49FDF73AFD2946FDF7F5FC05461E
:1049300019483146FDF732FD1849FDF7EDFC3146C7
:10494000FDF72CFD4FF07E51FDF7E6FC01462846B1
:10495000FDF704FE0546A00748BF85F0004514F0AA
:10496000070007D00FF2380151F820002946FDF763
:10497000D3FC0546200748BF85F000452846F2BD18
:10498000A430893ED7B3DD3F000080BF000080B96E
:10499000010080396AD5033F2B94A93DB82A593FBD
:1049A00000000000920A063FDB0FC93F920A863FD3
:1049B000DB0FC93F920A0640DB0F4940368D274086
:1049C0007047FEE7FEE7FEE7FEE770477047704777
:1049D00029480168491C0160704700B581B0022078
:1049E000FEF79FF898B10220FEF7A7F823490120AF
:1049F000087023480178012908BF022104D00178FA
:104A000003290CBF04210021017001B000BD042066
:104A1000FEF787F808B1042004E00820FEF781F8CB
:104A200028B1082001B05DF804EBFEF786B801B0AC
:104A300000BD30B5134C40F2255581B029462046C3
:104A4000FDF7AAFF60B129462046FDF7A2FF2046E8
:104A5000FDF794FF01B0BDE83040C0B2FDF7FDBBEB
:104A600001B030BD084801884FF6FE721140018048
:104A70007047014800687047800F0020850F0020B4
:104A800021000020003801401000004070474268BB
:104A9000C2F30A5240F2FF739A4207D141680903F8
:104AA00003BF0068002801200220704743685B00B4
:104AB00004BF0368002B25D040F233439A1A521AE0
:104AC000012A1FDB352A06DB416801F00041416005
:104AD0000021016013E0012102F01F039940491EEB
:104AE000920607D5426811404A404260026811436D
:104AF000002202E0026811404A40026011B14FF00A
:104B0000FF3070470020704790420CD141EA030CFF
:104B100050EA4C0C07D0994205D14FF4001C1CEB15
:104B2000410F38BF8942704770B540F2FF7601F0FF
:104B3000004C5B0006EA11545D0D1ABFB442B54249
:104B400078E0B3EB410F08BF82424BD2C3F353036B
:104B500043F48013C1F3130141F48011641B0B3C37
:104B600013D9C90241EA5051B1FBF3FE03FB1E11F8
:104B7000A2FB0EE6DEEBC020B14101D28018594104
:104B800050EA010653D00B3CEBD80B34C4F120069D
:104B9000A14020FA06F6A0403143B1FBF3FE03FB2F
:104BA0001E11A2FB0EE6B0EB0E00B14101D280183F
:104BB000594102BF0146203D0020C1B3B1FA81F343
:104BC0009940C3F1200220FA02F211439840ED1AF5
:104BD0000A3509DBC00A40EA41504CEAD12101EB19
:104BE000055170BD23D070BDD5F10B05B5F1200284
:104BF0000DDAC5F120020300E84001FA02F6E940AF
:104C0000934073F10043704151EB0C0170BD402D96
:104C10000DDC430821FA02F0C2F1200511FA05F675
:104C2000334373F1004370415CF1000170BD614694
:104C3000002070BD53EA020E1ABFB442B54237E0FD
:104C4000B3EB410F08BF8242CCD25B08B3FA83F5C5
:104C500004BFB2FA82F6AD190B3DB5F1200624BFB0
:104C600002FA06F305E0AB40C5F1200622FA06F68B
:104C70003343AA40D5F1010524427FF46BAF31F0F4
:104C80000041B1FA81F404BFB0FA80F6A4190B3CDC
:104C9000B4F1200624BF00FA06F105E0A140C4F1FA
:104CA000200620FA06F63143A040D4F1010455E76E
:104CB0004FF4001515EB410F2CBF6FF00041EB4294
:104CC00018BF6FF00041BDE87040FFF4E7AD7047DA
:104CD0002748284A82B0016841F00101016041681B
:104CE00011404160244A016811400160016821F4CB
:104CF00080210160416821F4FE0141604FF41F01F1
:104D000081600021C16201910091016841F480310C
:104D10000160016801F4003100910199491C019181
:104D2000009919B90199B1F5A06FF2D10168490C48
:104D300001F0010100910099012912D141684160FF
:104D4000416841604168416041688908890041606B
:104D5000416841F001014160416801F00C01042902
:104D6000FAD14FF000600549086002B070470000BA
:104D7000001002400000FFF8FFFFF6FE08ED00E023
:104D800019E050F8041BCB0744BFA9F101035918DF
:104D9000121F0023042A41F8043BF9D25FEA827C07
:104DA0000B4604D54FF0000CA1F800C09B1CD107A6
:104DB00044BF0021197050F8042B002AE1D170473C
:104DC00010B450F8041B79B1026843681218083017
:104DD000DC0744BFA9F10104E31852F8044B43F87F
:104DE000044B091FF9D1ECE710BC704710B5074917
:104DF00079441831064C7C44163404E00A68081DD6
:104E0000511888470146A142F8D110BD2C0000007E
:104E10004C0000003333A1420000000001020304F3
:104E20000102030406070809020406080000000046
:104E3000E80301000100000049FFFFFF600B0000D4
:104E4000280400200000000079FFFFFF240000007C
:104E5000C4FFFFFF000000200000000000F00BF87E
:104E6000002801D0FFF7C2FF0020C046C046FDF772
:104E700039F900F002F80120704700F001B8000095
:104E80000746384600F002F8FBE70000202109033E
:104E900026311820ABBEF9E738B504460D46284642
:104EA000FDF7F8F9A84218BF0024204632BD0000E3
:104EB0000148804701480047D14C0008C14E000816
:104EC000C046C046C046C046FFF7C8FFFFF778BDE2
:104ED000FFF777BDFFF776BDFFF775BDFFF774BD30
:104EE000FFF773BDFFF772BDFFF771BDFFF770BD30
:104EF000FFF7FEBFFFF7FEBFFFF7FEBFFFF7FEBFE6
:104F0000FFF7FEBFFFF7FEBFFFF7FEBFFFF7FEBFD5
:104F1000FFF7FEBFFFF7FEBFFFF7FEBFFFF75DBD68
:104F2000FFF7FEBFFFF7FEBFFFF7FEBFFFF7FEBFB5
:104F3000FFF7FEBFFFF7FEBFFFF7FEBFFFF7FEBFA5
:104F4000FFF7FEBFFFF7FEBFFFF7FEBFFFF7FEBF95
:104F5000FFF788BDFFF7FEBFFFF7FEBFFFF7FEBFFD
:104F6000FFF7FEBFFFF7FEBFFFF7FEBFFFF7FEBF75
:104F7000FFF7FEBFFFF75DBDFFF7FEBFFFF7FEBF08
:104F8000FFF7FEBFFFF7FEBFFFF7FEBFFFF7FEBF55
:044F9000FFF7FEBF6A
:0400000508004EC1E0
:00000001FF
