:020000040800F2
:100000002004002091520008994D00089B4D0008E3
:100010009D4D00089F4D0008A14D00080000000004
:10002000000000000000000000000000A34D0008D8
:10003000A54D000800000000A74D0008A94D0008CC
:10004000D1520008D5520008D9520008DD520008EC
:10005000E1520008E5520008E9520008ED5200089C
:10006000F1520008F5520008F9520008B34D00089B
:100070000153000805530008095300080D530008F8
:100080001153000815530008195300080000000020
:100090000000000000000000000000001D530008E8
:1000A0002153000825530008295300082D53000848
:1000B000474E000835530008395300083D530008E7
:1000C0004153000845530008495300084D530008A8
:1000D00051530008154E0008595300085D5300089D
:1000E00061530008655300086953000800000000D0
:1000F0000000000000000000000000000000000000
:1001000000000000000000000000000000000000EF
:1001100000000000000000006D530008715300084B
:100120002DE9F04FA1B08046002017461D460291F0
:100130000B900DF1440A6FF000490AE017F8011B1B
:100140000298C0470028029000F0A1820B98401C42
:100150000B90387808B90B989BE22528EED1002047
:10016000059006900790089009900A9001E040F0F1
:10017000010017F8011F2029F9D023290DD02B29C0
:1001800004D02D2906D030290AD00CE040F002001E
:1001900080B2EEE740F00400FAE740F00800F7E72D
:1001A00040F01000F4E72A290ED12968296051F89F
:1001B000042B2960002A0D9204D5514240F004001E
:1001C0000D9180B27F1C11E000210D9109E00D9985
:1001D000494505D001EB810302EB430130390D9114
:1001E0007F1C3A78A2F130010A29F0D339782E2900
:1001F00003D04FF0FF310C911DE017F8011F2A29A1
:1002000007D1296829607F1C51F8042B29600C92C2
:1002100011E000210C9109E00C99494505D001EB52
:10022000810302EB430130390C917F1C3A78A2F133
:1002300030010A29F0D3ADF838000FF6C420397820
:1002400000F070FD08B117F8010B8DF83A009DF829
:100250003A00682802BF39786829622005D06C28E6
:1002600004BF38786C2803D171208DF83A007F1CC8
:1002700011A8049017F8014BB4F1250023D02038C1
:10028000022840F2BB80133800F0E0800B3800F009
:100290004A81401E00F02381401E022840F2AE80B9
:1002A000001F00F01C81401F79D0401E00F0CE805E
:1002B000401E24D0C01E0BD0801E00F0C780C01E80
:1002C00000F0C48039E125208DF8440001203DE193
:1002D0002868286050F8046B286003960C9C002C5A
:1002E00004D5304600F02AFD044606E022460021EF
:1002F000304600F03FFD00B1841B069427E12968D9
:1003000029603C2451F8040B29600021CDE900014B
:1003100011A80390DDE90001049E11B908B90C9AF7
:10032000B2B10206120FA0EB02123032D2B2631E3B
:100330003A2AA8BF273200099A5540EA01700909F4
:1003400008BF00281C4603D0039AA3199A42E8D399
:10035000A0190390C4F13C010C980691814209DA7E
:10036000401A08904FF6EF71BDF838000840ADF81C
:100370003800ECE0002840F1EA809DF8380000F0F9
:100380001400102840F0E3800D98059A801A089A0E
:10039000801A441A012CC0F2DA800894D7E09DF844
:1003A0003A0062281AD0682806D06A280CD06C2837
:1003B0001CD0712808D019E02868286050F8041B68
:1003C00028600B980880C2E02868286050F8042B49
:1003D00028600B98C117C2E90001B8E028682860BE
:1003E00050F8041B28600B980870B0E0286828605B
:1003F00050F8041B28600B980860A8E02868C01D0E
:1004000020F007022A60D2E9000108322A60CDE913
:100410000001002902D505982D210AE0BDF8380019
:10042000810702D505982B2103E0C00705D5059863
:10043000202100F80A10401C059011A80599081801
:1004400003902146684600F0E1F980E09DF83A000B
:100450006C280DD0712818BF6A2809D12868C01DE2
:1004600020F007022A60D2E9000108322A6005E084
:100470002968296051F8040B29600021CDE90001A9
:100480009DF83A00682803D1DDE9000180B20BE055
:10049000622803D1DDE90001C0B205E0742818BF6D
:1004A0007A2804D1DDE900010021CDE900019DF8A1
:1004B000380000072ED5DDE90001002908BF00281B
:1004C00028D044F02000782824D10598302100F865
:1004D0000A10401C411C059100F80A401AE09DF8E2
:1004E0003A00294600F0D8F8CDE90001002902DAE7
:1004F00005982D210AE0BDF83800810702D505983E
:100500002B2103E0C00705D50598202100F80A102B
:10051000401C059011A805990818039021466846CB
:1005200000F0F1F813E0012005902868286050F8E9
:10053000041B28608DF8441009E025208DF8440044
:10054000012005901CB18AF80140022005900D9809
:100550000599401A0899401A0699401A0999401AB3
:100560000799401A0A99441A9DF83800400710D498
:100570002020012C8DF840000BDB2646012310AA19
:100580006946404600F0A5FB002840F08080761EBA
:10059000F4D1DDF814B0BBF1000F11AE0CD016F899
:1005A000011B0298C0470028029070D00B98401C95
:1005B000BBF1010B0B90F2D130208DF84000089E6A
:1005C000012E09DB012310AA6946404600F081FB99
:1005D00000285CD1761EF5D1DDF818B0039EBBF182
:1005E000000F0CD016F8011B0298C047002802909B
:1005F0004DD00B98401CBBF1010B0B90F2D1302079
:100600008DF84000099E012E09DB012310AA6946DE
:10061000404600F05EFB002839D1761EF5D10398E4
:100620000699DDF81CB00E18BBF1000F0BD016F8C0
:10063000011B0298C047029048B30B98401CBBF1C5
:10064000010B0B90F3D130208DF840000A9E012E53
:1006500008DB012310AA6946404600F03AFBB0B916
:10066000761EF6D19DF8380040077FF572AD202048
:10067000012C8DF84000FFF66CAD012310AA6946ED
:10068000404600F026FB10B9641EF6D161E54FF03C
:10069000FF3021B0BDE8F08F622826D068281DD039
:1006A0006A2808D06C2827D0712804D0742823D059
:1006B0007A280CD020E00868C01D20F007000860F0
:1006C000D0E90023083008601946104670470A68D0
:1006D0000A6052F8040B0A60002170470A680A6039
:1006E00052F8040B0A6000B20BE00A680A6052F884
:1006F000040B0A6040B204E00A680A6052F8040B76
:100700000A60C11770472DE9FA4E05460A462F695F
:100710006F2A08BF082405D041F02000782814BFB4
:100720000A2410243C26D5E90001642A18BF692A4E
:1007300081468A4605D1002903DAD9F100096AEB1E
:100740004A0ABAF1000F08BFB9F1000F0CD1286BAB
:1007500050B9082C36D195F83800000732D5302032
:100760003B2687F83B002DE0E317484651462246DA
:1007700000F02CFBA4FB0023A9EB02023032D2B222
:10078000A6F1010B3A2A5E4603DB9DF80030513B8F
:100790009A180BF8072081465FEA010A08BFB9F1F1
:1007A000000F03D0E868F1198842DDD3082C09D185
:1007B00095F83800000705D5F05D302802D0761E88
:1007C0003020F055C6F13C00A861F119E960296BB1
:1007D000884208DA081A28624FF6EF71288F08401D
:1007E0002887BDE8F38E00290ED595F8381001F062
:1007F0001401102908D1696B6A69891A2A6A891A51
:100800000E1A012EA8BF2E62BDE8F38E2DE9F34F1C
:100810008BB0D0E90089006B002801AF48BF0620EB
:1008200005D404BF41F02000672802D101200B99B4
:10083000086340F2FF720B984168C1F30A5090427E
:1008400020D1080302BF0B98006800280AD10B9939
:10085000032088619DF8300061381A2858D30FF2C0
:10086000B44109E00B99032088619DF8300061389C
:100870001A284AD30FF294410B98C068032200F063
:100880001DFB00E1012807DA0B9800F052FB01285C
:1008900002DB00230026EDE00B9ADFF854B152682A
:1008A00040F2FE3161F31E520B994A6040F2FE3174
:1008B000461A404649460022002300F05BFB38BF41
:1008C00089F0004936B247F297507043494990FB8E
:1008D000F1F636B2C6F10707012F92461BDBF80787
:1008E00007D552465B464046494600F05BFB8046D2
:1008F00089465046594652465B467F1000F052FBEF
:10090000002F82468B46EAD126E00FF2FC31B3E796
:100910000FF2FC31B0E77F420024374D12E0F807B8
:1009200007D552465B462046294600F03BFB04466D
:100930000D465046594652465B4600F033FB7F1049
:1009400082468B46002FEAD14046494622462B4636
:1009500000F0FAFB804689469DF83000DFF89CB035
:1009600040F02005662D0CBF06F10A0006200B9909
:10097000096B4718142FA8BF132730208DF80400E7
:100980000DF10504012F3BDB4046494600F01EFDFA
:10099000014604F1080204234FF00A0CB1FBFCFCF1
:1009A0000CEB8C04A1EB4401303102F8011C0A214C
:1009B000BCFBF1FE0EEB8E04ACEB440430345B1E4A
:1009C000714602F8024DE7D1083F012F02F10804F9
:1009D000D8DB00F01BFD02460B464046494600F0BE
:1009E00023FD00225B4600F0DDFA80468946CBE716
:1009F00000002440A08601000000F03F84D797410A
:100A00000DF10500201A0DF1050702E0401E761ECB
:100A10007F1C39783029F9D0662D02D136B2711C8D
:100A200003E0652D0CBF012100210B9A126B8B187E
:100A30001BB29842B8BF03461BB219001AD48142B8
:100A400004DAC85D3528A8BF392000DA3020CA1979
:100A5000521E00E05B1E12F80149491E8442F9D083
:100A6000392802D1C85D401CC855002902D57F1E17
:100A70005B1C761C36B29DF830100B9800961BB2AA
:100A80003A4600F003F80DB0BDE8F08F2DE9F043D1
:100A9000054685B01E46D5F83080012E894617469A
:100AA00002DA01260FF2702749F02000BDF930402C
:100AB000662808BF641C15D0672840F0938014F1A5
:100AC000040F7CDB44457ADA95F83800641C000793
:100AD00002D44645B8BFB04624B2B8EB040848BFBC
:100AE0004FF0000824B2E868A969012C25DA4A1CF5
:100AF00030230B54B8F1010F03DA95F838100907C9
:100B000002D52E211154521CAA6118EB040FB8BF54
:100B1000C8F1000424B26142A0446962B045B8BF84
:100B20004646AB6936B2EE6132463946181800F0D7
:100B3000C5F9A8EB0600A862B4E00818A64218DAC6
:100B40003246394600F0BAF9A9697118A01BB8F10C
:100B5000010FA961686203DA95F83800000705D52E
:100B6000EA682E208854E869401CE861C5F82880AE
:100B700098E02246394600F0A1F9A8692018361BF2
:100B8000B8F1010F03DA95F83810090703D5EA68C0
:100B90002E218154401C36B2A861B045B8BF4646EC
:100BA000E868AB6936B23246E119181800F086F9E8
:100BB000A8693018A861A8EB0600686272E0464593
:100BC00004DA95F83810090758BFB046B8F10108A3
:100BD00048BF4FF00008B9F1670F0CBF4FF065092F
:100BE0004FF04509A969E8684A1CAA61B8F1010FEC
:100BF00017F8013B0B5403DA95F83810090717D59D
:100C0000531CAB612E211154B8F1010F10DB761E7D
:100C100036B2B045B8BF464636B2324639461818E5
:100C200000F04CF9A8693018A861A8EB06006862CA
:100C3000E868A9690918200081F8009003D42B20E6
:100C400048708F1C03E02D224A708F1C64420026DE
:100C50000DF1080808E00A22684600F0A5FC01989A
:100C600008F8010B761C009C21B20129F3DA022E50
:100C700006DA49F02000652804BF302007F8010B90
:100C80004EB9302007F8010B07E0761E02A8305C51
:100C9000303007F8010B012EF7DAE868A969081867
:100CA000381AE86195F8380000F0140010280DD1CA
:100CB0006869A9690818696A0818E9690818A96AB9
:100CC0000818696B8842BCBF081A286205B0BDE8E5
:100CD000F083F8B504460D4616461F46002077B14E
:100CE00016F8011BA868A047A86030B1E86A401C4C
:100CF000E86200207F1EF3D1F2BD4FF0FF30F2BD5D
:100D0000686A6C747A4C00006E616E004E414E0051
:100D1000696E6600494E460030000268531C03604D
:100D2000117070470278C9B28A421AB11CBF10F81C
:100D3000012FF9E718BF00207047000000F1010300
:100D4000810704D010F8011B89B18107FAD102682C
:100D5000B2F10131914311F0803F04BF50F8042FEC
:100D6000F6E710F8011B11B110F8011BFBE7C01AE0
:100D700070470000C9B2830706D0521E22D310F874
:100D8000013B9942F7D11FE0083A13D302F1040264
:100D900041EA012141EA014150F8043B121F21BF01
:100DA0004B40A3F1013C2CEA030C1CF0803FF3D034
:100DB000C9B2001F083210F8013B521E28BF91EA49
:100DC000030FF8D818BF0120401E70471B4213D1F3
:100DD000094236D12AB18446B0FBF2F002FB10C2C0
:100DE000704700F0E9BBFCD30022002370470B00E2
:100DF0000200002100207047904271EB030CF6D3F3
:100E000070B5B1FA81F4B3FA83F52C1BA340C4F199
:100E1000200532FA05F63343A2405FF00046E64073
:100E200002E05B085FEA3202841A71EB030524BF1B
:100E3000204629467641F4D302000B003000002101
:100E400070BD012ACFD970B5140C20D0B1FA81F44D
:100E5000B2FA82F5C4F120046419B4F12006D6D3A5
:100E6000B2405FF00044F440002502E052085FEA1F
:100E70003303C61A71EB020E24BF3046714664413B
:100E80006D41F3D302000B002000290070BD0C4619
:100E9000B1FBF2F102FB11452D0445EA1045B5FB0B
:100EA000F2F402FB145580B240EA0545B5FBF2F0BE
:100EB00002FB105240EA044070BD000062B38B0791
:100EC00008D0521E11F8013B00F8013B00F02480CD
:100ED0008B07F6D1830740F0208000BF103A07D37C
:100EE00030B4B1E83810103AA0E83810F9D230BC6C
:100EF000530724BFB1E80810A0E8081044BF51F818
:100F0000043B40F8043BD20724BF31F8022B20F801
:100F1000022B44BF0B7803707047083A07D3B1E83F
:100F20000810083A40F8043B40F804CBF7D25307C6
:100F3000E4E730B4436803F0004201211B031B0BBC
:100F4000436004BF0368002B08D10DE00368DD0F88
:100F500045EA440444605B000360491E4468E302C0
:100F6000F4D523031B0B436043681A4342600846D1
:100F700030BC70474FF4001C1CEB410F94BF1CEBBE
:100F8000430F09E041EA030C50EA4C0C52EA0C0C06
:100F900003D2994208BF9042704714BF8B428242ED
:100FA00070470000B0B581EA030C0CF0004C40F231
:100FB000FF7515EA11541DBF15EA1357AC42AF4235
:100FC00039E0E41923EA455343F48013C90241F0A0
:100FD000004141EA505EC7021100A7FB020200284F
:100FE0004FF00000EEFB01204FF00001E3FB072172
:100FF00018BF42F00102401800214941E3FB0E01F5
:10100000A4F580640F0302D252004041494154F1DB
:1010100001046CDD470872F1004250F1000051EB11
:101020000451A1F580115CBF41EA0C01B0BD4CEA4E
:1010300005510020B0BD05EA1357AC4214BFAF42C2
:1010400041E050EA410E1CBF52EA430E02E0614605
:101050000020B0BD24423C441BD15FEA070EF6D00D
:10106000090302BF01460020AEF1140EB1FA81F768
:10107000AEEB070401FA07FE0C37C7F1200100FAB6
:1010800007F7C8404EEA000E23EA455343F48013A5
:10109000A2E733F00043B3FA83F704BFB2FA82FE4B
:1010A00077440B3FE41BB7F1200E2FBF02FA0EF37B
:1010B000BB40C7F1200E22FA0EFE38BF43EA0E03F2
:1010C000BA40641C82E750EA410E14BF52EA430E54
:1010D0006FF000014FF4001717EB430F8ABF19465A
:1010E00017EB410FB5E74CEA05510020B0BDD4F134
:1010F0000104B4F120070FDAC4F12007520828BF19
:1011000042F0010210FA07F501FA07F7E1BF2A439E
:10111000E0403843E1400FE0352C98DCC7F1200473
:1011200052EA400220FA07F218BF42F0010231FAF7
:1011300007F0A1400A43002172F1004250F1000083
:1011400051EB0C01B0BD00002DE9F04140F2FF75FC
:1011500081EA030C0CF0004C15EA11541DBF15EA8E
:101160001357AC42AF42E9E0BC41C1F31301C3F3F2
:101170001303801A994143F4801304D2641E400083
:10118000494180185941C90241EA5051B1FBF3F677
:1011900003FB1611A2FB0675D7EBC020A94102D2B2
:1011A000761E80185941C90241EA5051B1FBF3FE45
:1011B00003FB1E11A2FB0E75D7EBC020A94103D281
:1011C000AEF1010E80185941890241EA905176052D
:1011D00046EA8E2EB1FBF3F603FB1611A2FB067551
:1011E000D7EB8020A94102D2761E80185941C9024E
:1011F00041EA50514EEA060EB1FBF3F603FB16111D
:10120000A2FB0675D7EBC020A94102D2761E80183A
:101210005941C90241EA5051B1FBF3F703FB1711E1
:10122000A2FB0735D3EBC020A94167F100070CBF33
:10123000004247F0010766F3D5274FEA1E31B80890
:1012400014F5806414DDBD0775F1004250EB0E50BB
:1012500051EB045111F5801F5CBF41EA0C01BDE860
:10126000F0814CF07F6141F0E0410020BDE8F08169
:10127000BD076D0840EA0E5041F48011D4F101041D
:10128000B4F120060ADAC4F120060200E04001FAB7
:1012900006F3E1401843B24015430EE0342C14DC51
:1012A000C6F1200445EA40056D0820FA06F2154310
:1012B00021FA06F0A1400D43002175F1004250F1E2
:1012C000000051EB0C01BDE8F08100205FEA0C0149
:1012D000BDE8F081CFB992185B41B3FA83F704BF40
:1012E000B2FA82F6BF190B3FB7F120062FBF02FA00
:1012F00006F3BB40C7F1200622FA06F638BF334397
:10130000BA401CB1E419641E2FE77F4231F000415E
:10131000B1FA81F404BFB0FA80F6A4190B3CB4F121
:1013200020062FBF00FA06F1A140C4F1200620FAE2
:1013300006F638BF3143A0403C1B16E7AC421ABF4B
:1013400005EA1357AF4214E050EA41061CBF52EAC7
:101350004306BFE750EA4107304661461CBF41EAF9
:101360000551BDE8F08152EA430C08BFC143BDE816
:10137000F08100204FF4001616EB410F98BF16EBDA
:10138000430F08BF16EB410F24BFC14305E016EB26
:10139000430F0CBF61464CEA0551BDE8F0810000E7
:1013A000F446400D40EAC120490006D200F014F88E
:1013B000004248BF6FF00040604700F00DF84FF06A
:1013C000004188428CBF084640426047400D40EAD9
:1013D000C120490080F00D8040F00040490DA1F58A
:1013E0008061491C05D4D1F11F0154BFC840C0170A
:1013F00070474FF000007047010040F10980F4464B
:10140000404200F005F851F000416047010000BF84
:1014100009D0B0FA80F18840C91CC1F58461090582
:1014200001EBD02140057047F0B44FF0004591EA40
:10143000030F44BF6B4000F0CBB800BF841A71EBC0
:10144000030604D26E40001BB141121973414FF4E0
:10145000001C1CEB410F34BF7CEB430684E00C0DF9
:10146000A4EB1356362E7DDC012E43DC45EAC32364
:1014700043EA525312BFD20292025B08240545EAA6
:10148000C12141EA5051D2EBC020994125D407D166
:10149000B0FA80F610FA06F164D00020203608E099
:1014A000B1FA81F6B140C6F1200220FA02F21143EE
:1014B000B0404FEAF474B4EB465434F001064FEAFE
:1014C00074040AD8D6F50016760D04F00044F040F6
:1014D00061FA06F25040F1404840C00A40EA4150EB
:1014E00021F0004128BF5FEA500550F1000044EBB5
:1014F000D12137E045EAC323DB0A45EAC121C90A05
:10150000B6F120050EDD42EA0242120CC5F12006BA
:1015100003FA06F6EB4042EA06056D42984161F196
:1015200000010DE062FA06F5F240554063FA06FC50
:1015300082EA0C02F3405A406D42904161EB030194
:1015400011F4801F05D1641E620502D06D00404178
:10155000494121F48011430875F1004350F1000026
:1015600041EB0451F0BC70471CEB410F15D223F046
:10157000004352EA43060BD04FEA4C0CBCEB410F40
:1015800004D80C0D661E342EB7DDEBE7801A9941A6
:1015900050EA410608BF0021E4E708BF1CEB430FF7
:1015A00028BF6FF00001DDE791FBF2F303FB12119E
:1015B000C0E900317047000070470000F0B44FF000
:1015C000004591EA030C44BF6B40FFF737BF00BFF3
:1015D000841A71EB030603D2001BB1411219734147
:1015E0004FF4001C1CEB410F34BF7CEB430443E081
:1015F0000C0DA4EB1356352E50DC45EAC323DB0A51
:1016000045EAC121C912B6F120050DDD63FA05F6E0
:10161000EB4086EA0305124218BF45F00105C018E9
:1016200051F100010CD213E062FA06F5F240554088
:10163000F3415A40B340F3405A408018594107D310
:1016400049085FEA30005FEA350528BF45F001052B
:1016500001F58011420875F1004250F1000041EBA4
:101660000451F0BC4FF4001C1CEB410F38BF704715
:101670000020090D090570471CEB410F10D252EAFA
:1016800043060BD0BCEB410F05D80C0DAB43661ED7
:10169000342EB5DD02E0AB4380185941F0BC7047F1
:1016A000F0BC704700B585B000F012F9684600F054
:1016B0006AFB00984FF47A71B0FBF1F0401EB0F174
:1016C000807F15D2DFF850154860F02081F8130DA7
:1016D000002088600720086000F0FCFB00F07AF82A
:1016E00000F007F800F02AF900F07AF905B000BD23
:1016F000FEE7F0B581B001211C2000F096FB01212E
:10170000DFF81805DFF81865DFF81845DFF81875F9
:1017100000F06AFC4FF48040ADF8000069460220FA
:101720008DF802004FF4004510208DF8030030467C
:1017300000F0F0FB4FF48041304600F053FC4FF4D2
:101740008070ADF800006946204600F0E3FB4FF4DE
:101750008071204600F044FC0421204600F040FC4B
:101760000420ADF800006946204600F0D3FB0421B8
:10177000204600F035FCADF800506946384600F0D0
:10178000C9FB2946384600F02DFC4FF48050ADF8D7
:1017900000006946304600F0BDFB4FF480513046F2
:1017A00000F020FCC820ADF80000694603208DF849
:1017B000020000208DF80300204600F0ABFB28203B
:1017C0008DF80300ADF800506946204600F0A2FBFA
:1017D00001B0F0BD00B585B001214FF0005000F020
:1017E0002DFB0121052000F020FB3020ADF800008A
:1017F000694600208DF8030003208DF80200DFF811
:10180000240400F087FB01A800F032FC00200190C6
:101810000290049001A900F017FC01A9102000F02B
:1018200013FC0121002000F029FC40F2C9610020D6
:1018300000F030FC0121102000F020FC40F2DA71B1
:10184000002000F034FC05B000BDDFF8E0030168C3
:1018500021F0040101607047DFF8D003016841F016
:1018600004010160704700B581B040F2346100208E
:1018700000F01DFC142000F017FD01B05DF804EB32
:1018800040F27F61002000F012BC10B50446DFF882
:10189000A003214600F034FDDFF8981300F072FD3C
:1018A0000146DFF8940300F0D9FDDFF8901300F053
:1018B00069FDDFF88C1300F045FE00F0C1FE81B237
:1018C000002000F0F4FBDFF87C03046010BD000092
:1018D00000B581B000F0D0F94FF4803000F0E7F9A6
:1018E00000F0FFF9012827D1102000F0D3FE0220DC
:1018F00000F0C8FE002000F029FA002000F034FAC1
:10190000002000F02AFA0021002000F009FA00214E
:101910004FF4803000F0F9F9012000F0FEF9392091
:1019200000F0A7FA0028FAD0022000F003FA00BF66
:1019300000F007FA0828FBD101B000BD10B586B051
:10194000012144F2080000F070FA0121012000F0AA
:101950006CFA8020ADF8000003208DF8020004200E
:101960008DF803006946AE4C204600F0D3FA4020C3
:10197000ADF80000694602208DF8020018208DF8AD
:101980000300204600F0C6FA0121042000F02CFBE1
:101990004FF47A30019000200290ADF80C00ADF8C1
:1019A00010000C20ADF80E000122A74C40F225518A
:1019B000204600F0B3FFA548A02180F82113202184
:1019C0000160204601A900F04FFF0122802120463E
:1019D00000F0BCFF0121204600F096FF06B010BDCC
:1019E00010B58CB00121012000F016FA984C204669
:1019F00000F0E6FF97480090694600200190102013
:101A00000290802003900020049080200590002008
:101A10000690079008904FF48050099000200A909B
:101A2000204601F045F80121204601F05CF80CB099
:101A300010BD70B504460D46854E0021304601F0BC
:101A400052F8F46075603046BDE87040012101F045
:101A50004AB810B586B0002000F08EF9012140F29E
:101A6000012000F0E2F97C4C204601F07FF8684646
:101A700001F0C6F800200090ADF8040069464FF46C
:101A8000602002900020039001208DF81000204675
:101A900001F098F80021204601F0C4F80121204609
:101AA00001F0B7F8204601F0C6F8204601F0C8F86A
:101AB0000028FAD1204601F0C8F8204601F0CAF803
:101AC0000028FAD106B010BD30B581B0FFF7C1FFD4
:101AD000614C042301220821204601F0C9F80121AC
:101AE000204601F0BCF80221204601F017F9002839
:101AF000F9D0204601F004F95849088001F016F9A0
:101B000004465748214600F03DFC564900F0F8FBDA
:101B100005465548214600F035FC214600F032FCD0
:101B2000294600F0EDFB5149086001B0BDE83040A6
:101B300001F00CB910B586B001214FF4800000F01F
:101B40007DF90121082000F070F94FF44060ADF8F4
:101B50000000694603208DF802001C208DF8030068
:101B6000434C2F4800F0D6F9204601F0EDF901A8CA
:101B700001F066FA0020ADF8080001214BF6FF7075
:101B8000ADF80A000020ADF80C004FF48060ADF80D
:101B90000E004FF48040ADF810003648019020460A
:101BA00001F05DFA01A9204601F0E9F94FF4003196
:101BB000204601F092FA38B10121204601F077FA6F
:101BC0000021204601F073FA06B010BD30B581B097
:101BD0004FF41674DFF848504FF48041284600F067
:101BE000FFF9FA2000F083F94FF48041284600F015
:101BF000F9F9FA2000F07BF9641EEDD101B030BD97
:101C000000B581B04FF40041064800F0E2F9012828
:101C100018BF002001B000BD10E000E0000230005D
:101C2000000C014000080140001001400C08014078
:101C30001498B1C2F9171D3C5C8FA23F00F07F459C
:101C40003D0A5740000000200038014004E100E058
:101C50004400024004380140002401401C000020E0
:101C6000FB40F2BC9EAF8542AF670E363C100020B1
:101C700000580040801A06008648874A016841F0F3
:101C800001010160416811404160844A01681140CE
:101C90000160016821F480210160416821F4FE01A6
:101CA00041604FF41F0181600021C1627047794992
:101CB0000A6822F480320A60B0F5803F0A6822F494
:101CC00080220A6003D0B0F5802F05D070470868E5
:101CD00040F4803008607047086840F4A020086035
:101CE000704781B0002000906A490A68009B5B1C25
:101CF0000093009BB3F5A06F01D09203F5D509685E
:101D0000890348BF012001B07047654A136823F476
:101D100074131843084310607047624908607047A5
:101D2000614ADFF888C113680CEA030318430843CB
:101D3000106070475A490A68920840EA82000860B9
:101D400070475748006800F00C00704754490A6813
:101D500022F0F00210430860704751490A6822F4EB
:101D6000E0621043086070474D490A6822F46052EF
:101D700042EAC0000860704749490A6822F44042BC
:101D800010430860704746490A6802F00C02042AB2
:101D900002D0082A02D014E0454A13E00A680B6812
:101DA000C2F38342921CDB0358BF424B07D58B6AB8
:101DB000DFF8FCC003F00F035B1CBCFBF3F35A43DA
:101DC00000E03D4A02600B683C4AD0F800C0C3F313
:101DD00003139B5C2CFA03FCC0F804C00B68D0F81A
:101DE00004C0C3F302239B5C2CFA03FCC0F808C0B8
:101DF0000B68D0F804C0C3F3C2239B5C2CFA03FC2D
:101E0000C0F80CC00968C368C1F381318918097C26
:101E1000B3FBF1F101617047294A0029116814BF31
:101E2000084321EA000010607047264A0029116823
:101E300014BF084321EA000010607047224A0029BD
:101E4000116814BF084321EA0000106070471F4A60
:101E50000029116814BF084321EA00001060704790
:101E60001B4A0029116814BF084321EA00001060D2
:101E700070474109074A012908BF116803D00229A8
:101E80000CBF116A516A00F01F00C14001F001004F
:101E900070470000001002400000FFF8FFFFF6FE50
:101EA00004100240600042422C100240F0FFFEFF8E
:101EB000001BB70000093D0000127A00040000205A
:101EC00014100240181002401C1002400C10024076
:101ED000101002400C48016841F08071016000213F
:101EE0000A484160016841F00101016070470849FA
:101EF0000A6800EB4003D8000B689B1A8342FBD3AF
:101F00007047034800687047FCED00E0001000E0F7
:101F1000041000E02DE9F041CC78002204F00F031A
:101F2000E40644BF8C7823430C88E5B225B3D0F88F
:101F300000C001255FF00F0605FA02F707EA040862
:101F4000B84514D14FEA820E06FA0EF82CEA080CB6
:101F500003FA0EFE4EEA0C0C91F803E0BEF1280FD6
:101F600008BF476103D0BEF1480F08BF0761521C8C
:101F7000082AE1D3C0F800C0FF2C28DDD0F804C047
:101F8000002201255FF00F0602F1080705FA07F7A6
:101F900007EA0408B84515D14FEA820E06FA0EF892
:101FA0002CEA080C03FA0EFE4EEA0C0C91F803E042
:101FB000BEF1280F08BF476191F803E0BEF1480F5A
:101FC00008BF0761521C082ADED3C0F804C0BDE870
:101FD000F08180680022084218BF01221046704735
:101FE000016170474161704770B4164A00284CBFC8
:101FF0009469146800F44016B6F5401FC0F3034519
:1020000083B206D1156825F0706524F07064156000
:102010000CE0C60203D5032606FA05F503E0450DDC
:102020002D0103FA05F5AC4344F0706421B1410D74
:10203000090103FA01F10C4300284CBF94611460BC
:1020400070BC70470400014030B41F4A13684D68EB
:1020500040F6FE748440A3430C682C438D68C96825
:102060002C43214301FA00F01843106030BC704744
:102070000021016041608160C1607047012202FA65
:1020800000F0114A0029116814BF084321EA00003A
:102090001060704781B00022009208300A4A009216
:1020A000009A801800900098016001B0704781B0DC
:1020B000002200921430044A0092009A8018009086
:1020C0000098016001B070470074004010B586B000
:1020D000FFF7E8FA01F01CF801F0BEFB01A8FFF7DA
:1020E00052FE029842F21071B0FBF1F000EB800159
:1020F000880000900098A8B10098401E00900098B9
:1021000080B10098401E0090009858B10098401E81
:1021100000900098002805D00098401E009000987C
:102120000028E9D1FFF706FD01A8FFF72CFE029871
:1021300042F21071B0FBF1F0C821484300900098C2
:10214000A8B10098401E0090009880B10098401EF1
:102150000090009858B10098401E00900098002808
:1021600005D00098401E009000980028E9D1FFF7A4
:102170006CFB00F0EBFDFFF776FB01A8FFF703FE19
:10218000029842F21071B0FBF1F032214843009006
:102190000098A8B10098401E0090009880B1009867
:1021A000401E0090009858B10098401E0090009882
:1021B000002805D00098401E009000980028E9D122
:1021C00001F070FC01A8FFF7DEFD029842F21071E9
:1021D000B0FBF1F06421484300900098A8B100984A
:1021E000401E0090009880B10098401E009000981A
:1021F00058B10098401E00900098002805D0009823
:10220000401E009000980028E9D101F0FDFB0FF27C
:10221000E800234C01F088FC2078012803D101F06C
:10222000F1F801F044F96078012803D101F094F944
:1022300000206070FFF7E4FC0028EDD00120607002
:10224000EAE700B5432881B013D015D3452802D062
:1022500008D301B000BDFFF7F8FA1149012008705A
:1022600001B000BDFFF7F8FA0D490020087001B079
:1022700000BD0B490120487001B000BD30B50446D7
:10228000084D81B0E1B2284600F068FB8021284665
:1022900000F06CFB0028F9D0204601B030BD0000F2
:1022A0001E0000200038014010B586B0044601A889
:1022B000FFF769FD029842F21071B0FBF1F0604344
:1022C00000900098A8B10098401E0090009880B13E
:1022D0000098401E0090009858B10098401E009051
:1022E0000098002805D00098401E00900098002813
:1022F000E9D106B010BD000053746172740D0A007C
:1023000090EA010F44BF81F0004100F0AFB800BF78
:10231000421A3CBF801A89184FF0004CC0F3C752D4
:10232000FF2A24D0C1F3C75313B3D21AD2F1190331
:1023300027DD4CEA01214CFA03F321EA0303D140E3
:10234000C20D4CEA0020401834BF20EA0C004CEAD1
:102350005000D20553EA006373EB0C0C52EB1020D3
:10236000420012F1807F38BF7047C00DC005704732
:10237000490212BF9A4200EB5120F8E7D2F117034D
:10238000D9D57047FF2212EAD05C1DBF12EAD153A3
:10239000944593422BE09C44D30780EA01021A4003
:1023A00043EA002043EA0121A1FB0030410038BF8D
:1023B00040007CF17F010BDBFE294ADA5B0842EA30
:1023C000C15153EA006373F1004C51EB1020704788
:1023D000D1F1080CDCF120012FDB5B0810FA01F1D0
:1023E0000B4373F1004120FA0CF0504170479445C3
:1023F0001CBF02EAD153934280EA010202F000427C
:102400001DD0400019D0490017D05BB9634514D0E6
:102410000902B1FA81F39940BCEB030CC00140F012
:102420000040C1E70002B0FA80FC10FA0CF0B3EBF8
:102430000C0CC90141F00041B6E7100070474000A4
:102440000AD0490008D010F1807F94BF11F1807F3D
:1024500002E042F0FF407047D043704790EA010F1E
:1024600044BF81F00041FFF753BF00BF431A4FF054
:1024700000423EBF5340C01AC91800BFD3095FEAEB
:10248000D05C13EB400F34BFB3EB410F40E07CEB6B
:10249000D1530CD342EA012122D8D1EB402009D3F9
:1024A000400A28BF5FEA500140EBCC507047401A09
:1024B00015D04002B0FA80F2521C9040400A4FEA18
:1024C0003C23B3EB026384BF00EB730007E040F4EE
:1024D00000001A16DB07C2F10102D0401843704712
:1024E000182BFCDC31FA03F202FA03F3591A38BF55
:1024F00042F00102D2EB40203CBF4000ACF1010CA5
:102500005FEACC5CC20572F100414CEB5020704791
:1025100013EB400F0FD24B0009D0ACEBD153022B81
:1025200003DB4902172BDDDD70479143401A43005E
:10253000D5D10020704713EB410FD0D36FF00000CE
:102540007047000010B5FF2313EAD0541DBF13EAF3
:10255000D1529C429A4239E0A41ADA0780EA010378
:10256000134042EA012142EA0020421A3CBF641EA5
:1025700001EB4202090AB2FBF1FE01FB1E2212022C
:10258000B2FBF1F001FB10226EF30F201202B2FB3E
:10259000F1FE4EEA00207F3406DDFE2C24DA53EAF9
:1025A000500050EBC45010BDD4F1020401FB1E22B8
:1025B00040F08071192C1DDC21FA04F0C4F12004D4
:1025C000A140114371F10042584110BD9C421ABF15
:1025D00003EAD1529A420FE080EA010E0EF0004366
:1025E000400004D0490016D143F0FF4010BD49001F
:1025F00008BFD343180010BD9C4205D1D21AF7D0B2
:1026000001F00041484010BD4A0212BF0846484050
:1026100000F0004010BD4AB90902B1FA81F29140C0
:1026200044B1A418C00140F000409EE7C90141F048
:10263000004152420002B0FA80F4A040141B94E71B
:102640004100090E7F3915D4D1F11F0114D4400087
:1026500007D2C00140F00040C84048BF6FF00040C2
:102660007047C00140F00040C8404CBF4FF00040F0
:10267000404270470020704700424FF0004058BF72
:10268000C0437047DFF8C8110A6802F038021043EF
:1026900008607047DFF8B8110A6822F010020A607B
:1026A0000A68104308607047DFF8A801DFF8A81136
:1026B0000160DFF8A81101607047DFF8A40101682C
:1026C00041F0800101607047DFF8983130B41D6837
:1026D00004214FF43022ED07144648BF01210ED4E7
:1026E0001D686D0748BF022109D41D68ED0606D597
:1026F000032104E01D68ED0648BF0321641E012983
:102700000BD15CB11D680421ED0748BF0121F5D450
:102710001D686D07EED50221F0E704B905210429F3
:1027200032D1596841F0020159609860042158681B
:1027300040F0400058601868C00748BF01210ED41F
:102740001868400748BF022109D41868C00606D59A
:10275000032104E01868C00648BF0321521E012966
:102760000BD15AB118680421C00748BF0121F5D424
:1027700018684007EED50221F0E702B90521586834
:1027800041F6FD7210405860084630BC70470000AA
:1027900070B4DFF8D040266804224FF40053F607E7
:1027A0001D4648BF01220ED42668760748BF022284
:1027B00009D42668F60606D5032204E02668F60644
:1027C00048BF03226D1E012A0BD15DB12668042289
:1027D000F60748BF0122F5D426687607EED5022217
:1027E000F0E705B90522042A2ED1626842F0010201
:1027F0006260018004222068C00748BF01220ED415
:102800002068400748BF022209D42068C00606D5C8
:10281000032204E02068C00648BF03225B1E012A91
:102820000BD15BB120680422C00748BF0122F5D458
:1028300020684007EED50222F0E703B90522606860
:1028400041F6FE7108406060104670BC70470000A1
:10285000002002400420024023016745AB89EFCDF0
:10286000102002400C20024030B5044685B00D46D1
:10287000208A4CF6FF710840E988084320824EF612
:10288000F311A0890840A988084329890843698968
:102890000843A0814FF6FF41A08A0840A989084358
:1028A000A0826846FFF76FFA1648296884420CBF79
:1028B0000398029819225043A28912044CBF490080
:1028C0008900B0FBF1F16420B1FBF0F000010209D6
:1028D000642303FB1211A289120409D5C900323105
:1028E000B1FBF3F101F007010843208105B030BDD1
:1028F00009013231B1FBF3F101F00F0108432081EE
:1029000005B030BD003801400029818912BF41F473
:1029100000514DF6FF721140818170470B065B0F2D
:102920004FF0010C01F01F01012B0CFA01F108BF5F
:102930000C3003D0022B0CBF10301430002A026878
:1029400014BF114322EA010101607047002A828A04
:1029500014BF114322EA010181827047C905C90DE4
:10296000818070478088C005C00D704700880022B4
:10297000084218BF012210467047C94301807047C2
:1029800030B40A46130600215B0F012402F01F0534
:10299000012B04FA05F508BF838903D0022B0CBF75
:1029A000038A838A120A008804FA02F22B4010403C
:1029B000002B1CBF0028012130BC084670470000D6
:1029C00001684FF6FE721140016000210160416014
:1029D0008160C1605749884205D15748016841F07C
:1029E0000F01016070475549884205D1524801687E
:1029F00041F0F001016070475149884205D14E48CD
:102A0000016841F47061016070474E49884205D108
:102A10004948016841F47041016070474A49884261
:102A200005D14548016841F470210160704747496C
:102A3000884205D14048016841F470010160704747
:102A40004349884205D13C48016841F0706101600A
:102A500070474049884205D13748D0F8001441F00A
:102A60000F0122E03C49884205D13348D0F80014D8
:102A700041F0F00119E03949884205D12E48D0F8DB
:102A8000001441F4706110E03549884205D12A48AC
:102A9000D0F8001441F4704107E03249884206D171
:102AA0002548D0F8001441F47021C0F80014704794
:102AB00002688B686FF30E121A430B6A1A430B6994
:102AC0001A434B691A438B691A43CB691A434B6A01
:102AD0001A438B6A1A430260CA6842600A688260BD
:102AE0004968C16070470029016812BF41F00101C7
:102AF0004FF6FE72114001607047002A026814BF51
:102B0000114322EA0101016070470021164AC30007
:102B10004CBFD2F800241268024218BF01210846B7
:102B200070470549C2004CBFC1F8000408607047F7
:102B30000000000008000240040002401C000240A7
:102B40003000024044000240580002406C00024045
:102B500080000240080402401C040240300402408D
:102B600044040240580402400000024000B5664997
:102B7000884281B008D101214FF40070FFF767F956
:102B800000214FF4007016E06049884208D101210D
:102B90004FF48060FFF75BF900214FF480600AE09A
:102BA0005B4988420CD101214FF40040FFF74FF9F7
:102BB00000214FF4004001B05DF804EBFFF747B986
:102BC00001B000BD4268534B1A400B681A430B79A1
:102BD00042EA03224260504B82681A40CB681A4393
:102BE0008B681A434B7942EA43028260C26A097CCD
:102BF000491E22F47002C9B242EA0151C162704713
:102C000000210160017141718160C1600121017485
:102C100070470029816812BF41F00101490849004D
:102C2000816070470029816814BF41F4807121F4EC
:102C3000807181607047816841F008018160704750
:102C40008068C00800F001007047816841F004010D
:102C5000816070478068800800F00100704700299B
:102C6000816814BF41F4A00121F4A0018160704784
:102C700070B407240A290BDBA1F10A0505EB450511
:102C8000C668AC4026EA0404AB402343C36008E0B6
:102C900001EB41050669AC4026EA0404AB4023433E
:102CA00003611F24072A0ADA521E02EB8202436BD9
:102CB0009440A34391401943416370BC70470D2A6F
:102CC0000ADAD21F02EB8202036B9440A3439140C5
:102CD0001943016370BC70470D3A02EB8202C36A6C
:102CE0009440A34391401943C16270BC70470029CE
:102CF000816814BF41F4801121F480118160704714
:102D0000C06C80B2704700000024014000280140E0
:102D1000003C0140FFFEF0FFFDF7F1FF00680022DC
:102D2000084218BF0122104670470000002800BF6B
:102D30000AD0B0FA80F18840D1F19D01C9050206A0
:102D400072F1004241EB10207047000000B581B0E5
:102D500000F006F800F036F801B05DF804EB7DE015
:102D600010B588B001214FF40060FFF75EF86F4C9A
:102D7000204600F0EBFE03A801F054F8684601F08D
:102D800048F80520ADF8000069464F20ADF8040072
:102D90000020ADF80600ADF80200204600F0AEFFBE
:102DA0006020ADF80C0003A90020ADF80E0028202B
:102DB000ADF812000220ADF81400204600F0E9FF43
:102DC00008B010BD10B586B00020FEF7D5FF012178
:102DD00040F20120FFF729F8554C2046FFF7C6FEC8
:102DE0006846FFF70DFF00200090694601208DF82E
:102DF000040000208DF805000290039002208DF859
:102E000010002046FFF7DEFE0423012206212046A3
:102E1000FFF72EFF0423022207212046FFF728FF99
:102E200001212046FFF763FF01212046FFF7FAFE4C
:102E300001212046FFF7EDFE2046FFF7FCFE20466D
:102E4000FFF7FEFE0028FAD12046FFF7FEFE2046DF
:102E5000FFF700FF0028FAD106B010BD10B58CB006
:102E600001210120FEF7D8FF324C2046FFF7A8FDD4
:102E700031480090694631480190002002904FF49B
:102E8000FA70039000200490802005904FF4807029
:102E900006904FF480600790002008904FF4405057
:102EA000099000200A902046FFF702FE01212046EB
:102EB000FFF719FE012202212046FFF71EFE2048DF
:102EC000F02180F80B134FF4006101600CB010BDCD
:102ED000F0B50446154D81B00021284600F0ACFF46
:102EE000134E00213046FFF794FE124F0021384662
:102EF000FFF7F9FDFC604FF4FA7078600420FFF7EB
:102F000010FE0220FFF70DFE01213846FFF7EBFD12
:102F10000C490020087001213046FFF77AFE284650
:102F200001B0BDE8F040012100F086BF002C014057
:102F300000240140080002404C24014020040020ED
:102F400000E100E04D10002000B53A49884281B010
:102F500008D101214FF40010FEF782FF00214FF449
:102F6000001007E001214FF48000FEF779FF0021F7
:102F70004FF4800001B05DF804EBFEF771BF70B54F
:102F8000044686B0A6880D466846FEF7FCFE029908
:102F900029484FF6C072B1FBF0F032400243A280E4
:102FA0004FF6FE7322881A402280244B2A689A42E8
:102FB00008D25200B1FBF2F18AB2042AB8BF042150
:102FC00089B220E0EB884BF6FF76B34204D102EBE6
:102FD0004202B1FBF2F106E019235A43B1FBF2F1D0
:102FE00041F4804189B20A0580B24FF4967204BF61
:102FF00041F0010189B2504341F400414FF47A722B
:1030000089B290FBF2F0401C2084A1834FF6F53189
:10301000208840F00100208020880840A9880843CB
:103020006989084320802989A8890843208106B03E
:1030300070BD00000054004040420F00A186010016
:1030400041F288310160002181804BF6FF71C1801F
:103050000021018141814FF4804181817047002925
:10306000018812BF41F001014FF6FE72114001804C
:1030700070470029018812BF41F480714FF6FF624A
:103080001140018070470029018812BF41F400718E
:103090004FF6FF5211400180704701827047002AAD
:1030A00014BF41F0010101F0FE01018270470029C7
:1030B000018812BF41F400414904490C0180704766
:1030C000838A008B43EA0040084000020022000A85
:1030D000884208BF01221046704782B00246002095
:1030E0000190009000920A0F01920902019A090AC8
:1030F00012B1009A143202E0009A090C18320092C0
:10310000009A12680A4218BF012002B070470000FE
:1031100010B50022AB48AC49AC4C00F0B7FE01F052
:10312000C9F820600122A748A74900F0AFFE01F0CE
:10313000C1F8606001464FF08040FFF723F9A060BE
:1031400010BD2DE9F043A14C81B00027A568814650
:10315000B8467D2628463946FFF714F94146FFF761
:103160007DF9804639F8040BFFF7E0FD4146FFF793
:10317000C7F8804628464146FFF704F93946FFF76D
:103180006DF9074639F8040BFFF7D0FD3946FFF714
:10319000B7F8761E0746DDD120684146FFF7F2F802
:1031A0008B49FFF7CFF9064660684146FFF7EAF81A
:1031B00001463846FFF752F98549FFF7C3F907463C
:1031C00030463146FFF7DEF8044638463946FFF709
:1031D000D9F82146FFF794F801F0B4F801F0DAF8D5
:1031E00004468946384601F0ADF807460D4630469C
:1031F00001F0A8F83A462B4601F044F906460F467E
:1032000020464946FEF7E2F8ADF800003946304660
:1032100001F050F86F49FFF7B5F801F093F86E4AE6
:103220006E4BFDF791FF01F045F8FFF709FAADF895
:103230000200009801B0BDE8F0830000F0B502463E
:10324000002700200029844666D011F003039E4623
:1032500040F6E54400F00B8032F91C50963DA54243
:1032600028BF0127BEF1010E0CF1010CF4D18E082C
:10327000B64622D032F91C50963DA54228BF012700
:103280000CF1010C32F91C50963DA54228BF0127D4
:103290000CF1010C32F91C50963DA54228BF0127C4
:1032A0000CF1010C32F91C50963DA54228BF0127B4
:1032B000BEF1010E0CF1010CDCD1002F844600F0B0
:1032C0000D8041F2185440F2097573B332F91C7045
:1032D000AF42ACBFE71BC7F5E16721E03BB100BFE0
:1032E00032F91C4020185B1E0CF1010CF8D19EB184
:1032F00032F91C3018180CF1010332F91340201870
:103300005B1C32F9134020185B1C32F91340201863
:10331000761E03F1010CEBD190FBF1F000B2F0BD91
:1033200038185B1E0CF1010CD0D13EB332F91C30C1
:10333000AB42ACBFE31AC3F5E16318180CF101030B
:1033400032F91370AF42ACBFE71BC7F5E16738181D
:103350005B1C32F91370AF42ACBFE71BC7F5E167E6
:1033600038185B1C32F91370AF42ACBFE71BC7F5CE
:10337000E1673818761E03F1010CD7D190FBF1F00C
:10338000D0F5E16048BF00F5616000B2F0BD30B536
:10339000134881B0046813482146FEF7F3FF054641
:1033A00011482146FEF7EEFF2146FEF7EBFF2946C6
:1033B000FEF7A6FF0D49FEF7E5FFFFF741F900B262
:1033C00001B030BD03799A762F1BE43F3010002006
:1033D0000000FA420000E14444174154FB21094037
:1033E0003C100020DF6B683EEB45A3BB000020C112
:1033F000962803DB40F67B51884201DB01207047B1
:103400000020704710B5DFF86C44607901284DD07A
:10341000207968B900F0F8FA4FF49670FEF767FD6E
:10342000DFF85404FFF754FD01202071607110BDD6
:10343000207902280BD100F0EDFA4FF49670FEF7D8
:1034400056FDDFF83804FFF743FD03200DE0207937
:1034500004280ED100F0E6FA4FF49670FEF747FD0F
:10346000DFF81C04FFF734FD052020710120607196
:1034700010BD2079062819D100202071FEF724FB09
:10348000DFF800040168DFF80004FEF77BFFDFF8D7
:10349000FC13FEF735FFDFF8F81301F059F898BF79
:1034A000DFF8F003BDE81040FEF7EFB910BD10B52E
:1034B000DFF8C04382B0607900284BD02079012822
:1034C0001CBF207902282AD1FEF71BFD6169411A31
:1034D0001822B1FBF2F121616061DFF8A40300F072
:1034E0007DF9DFF8B413086000F0F9F8DFF8AC03F9
:1034F0000068FFF7A5F8C0B20190DFF8A4030088C8
:103500002388E2680FF2B831009004F1180001F04E
:1035100031F881B204F11800FEF78BFA18E0207937
:1035200003281CBF2079042805D1DFF84C0300F0E4
:1035300055F920600CE0207905281CBF2079062869
:1035400008D1DFF8380300F049F9DFF858130860B4
:103550000020607102B010BDF0B5E1B0FEF736FB9F
:103560000FF2883000F0E0FAFEF76FF9DFF8381359
:10357000012008704FF4C870FEF796FEFEF7A4FA1B
:10358000DFF800030168DFF80003FEF7FBFEDFF859
:10359000FC12FEF7B5FEDFF8F81200F0D9FF98BF75
:1035A000DFF8F002FEF771F900F02EFA6420FEF762
:1035B0007BFE00F0B7F80090BDF800000528C0F2CF
:1035C0008780DFF8D8020068FFF73AF8C1B20FF23F
:1035D000983000F0A9FA41AC5FF0400500F0A2F885
:1035E0000090BDF800000A2872DBBDF8020024F844
:1035F000020B6D1EF2D1402141A8FFF71FFE0446C9
:1036000021460FF2FC2000F08FFA00F003FA64204C
:10361000FEF74AFE21AD402600F084F80090BDF888
:1036200000000A2854DBBDF8020025F8020B761EC4
:10363000F2D1402121A8FFF701FE054629460FF2ED
:10364000D42000F071FA00F0EDF96420FEF72CFEB2
:1036500001AE402700F066F80090BDF800000A288F
:1036600036DBBDF8020026F8020B7F1EF2D14021A6
:1036700001A8FFF7E3FD064631460FF2AC20DFF864
:103680002C7200F051FA7B48C48005814681FFF717
:103690000BF83846FFF718F841F234213846FFF7A7
:1036A00077F8A1B28248FFF773F8A9B28148FFF713
:1036B0006FF8B1B28048FFF76BF8FEF7FEFFFEF738
:1036C00085FA0FF2782000F02FFA012061B0F0BDEA
:1036D0000FF2782000F028FA002061B0F0BD10B59C
:1036E000644C6088E188401A00B200286D4948BFE8
:1036F00000F5616049882289891A09B20029664A61
:1037000048BF01F5616152886389D21A12B2002A5A
:1037100048BF02F5616212B209B200B200F044FF84
:10372000E06010BD2DE9F041524886B000210171E2
:10373000417100240FF24420604F00684E4D00900C
:103740000DF10C0803262846FFF7C2FB3878002845
:10375000FCD02846FFF7F5FC0190A81CFFF7F1FC10
:103760000290BDF80A10BDF80600401A00B2002809
:1037700048BF00F56160BDF8041028F8020B0C1971
:10378000761EE0D10320B4FBF0F0ADF80000032179
:1037900003A8FFF753FD044640480068ADF8024017
:1037A000FEF74EFFC2B23E48BDF800100088FFF79A
:1037B000EEFD0019ADF80200BDF90200010048BF9E
:1037C00000F5616004D4B0F5616F03DDA0F56160C0
:1037D000ADF80200009806B0BDE8F08110B50446CF
:1037E0000FF29C1084B0006800902046FFF7A9FCFF
:1037F0000190A01CFFF7A5FC0290BDF80A10BDF8CF
:103800000600441A24B2002C48BF04F56164BDF8D8
:103810000400ADF80000ADF8024020480068FEF753
:103820000FFFC2B21E48BDF800100088FFF7AFFDC1
:103830000019ADF80200BDF90200010048BF00F513
:10384000616004D4B0F5616F03DDA0F56160ADF88F
:103850000200009804B010BD1448018841F23422DF
:10386000914206D103494288CA8082880A81C08871
:1038700048817047D80F002020040020080800204D
:10388000F00B00203C100020612CF93EB2DDC54257
:103890000100EE420000EE42441000200000002033
:1038A0001C000020401000201E000020007C0008AA
:1038B000027C0008047C0008067C00084D100020F3
:1038C000444953543B253035643B414D503B2530F2
:1038D00034643B54454D503B253034643B564F4C8B
:1038E000543B253033640D0A0000000043616C69CD
:1038F0006220537461727420373031410D0A000028
:103900005A65726F20506861736520313A202564D2
:103910000D0A00005A65726F20506861736520328D
:103920003A2025640D0A00005A65726F20506861C4
:10393000736520333A2025640D0A000043616C69E9
:103940006220446F6E650D0A0000000043616C69DF
:1039500062204641494C3A204C6F77205369676E8C
:10396000616C0D0A0000000043616C696220766F93
:103970006C746167653A25640D0A00000000000060
:103980000000000070B582B06C460025002660C4BF
:10399000C901B1FBF2F48DF8012002FB141104EB14
:1039A000C010A0F500748DF80440100A120B02F04C
:1039B000F0028DF800008DF80710200C00F00300D5
:1039C0008DF80200250A0C0C04F00F04A2188DF8E3
:1039D00005208DF803500A0A8DF806206946082252
:1039E000184600F067FF02B070BD70B515461E4660
:1039F00004461A233246FFF7C5FF324629462046C1
:103A0000BDE870402223BDE740F2E24301220021DD
:103A10001A20EAE740F2E24340F221324FF44871C3
:103A20001E20E2E700B583B068460021002206C0F0
:103A3000E2218DF8011004200D218DF803108DF87E
:103A400000007A218DF804108DF802204C218DF8A9
:103A500005208DF806008DF80710082269461A2007
:103A600000F028FF68460021002206C0E2218DF800
:103A7000011004200D218DF803108DF800007A212B
:103A80008DF804108DF80220CC218DF805208DF8DA
:103A900006008DF8071008226946222000F00AFF70
:103AA00003B000BD00B581B002210FF2380000F074
:103AB0008DFE02210FF2340000F088FE33210FF258
:103AC000340000F083FE02210FF2240000F07EFE9D
:103AD00001B05DF804EB02210FF20C0000F076BE9D
:103AE0000000000003FF000003FA0000BBC000005C
:103AF000B1AC00000F004F806F8080808080AA00F2
:103B00000019000AF500001304E2000AF50003366C
:103B100000010C0000000000000000000000000098
:103B200000010C00000000000EB400B582B003A933
:103B3000009102466B460121034878440A30FCF7A5
:103B4000EFFA06BC5DF810FB3117000000B5DFF896
:103B5000FC12884281B008D101214FF40060FEF7C9
:103B600076F900214FF40060C1E0B0F1804F06D13A
:103B700001210120FEF774F9002101208CE0DFF81B
:103B8000D012884206D101210220FEF769F90021F6
:103B9000022081E0DFF8BC12884206D10121042016
:103BA000FEF75EF90021042076E0DFF8AC128842CF
:103BB00006D101210820FEF753F9002108206BE00F
:103BC000DFF89812884206D101211020FEF748F94B
:103BD0000021102060E0DFF88812884206D1012120
:103BE0002020FEF73DF90021202055E0DFF8741277
:103BF000884208D101214FF40050FEF728F9002136
:103C00004FF4005073E0DFF86012884208D10121C0
:103C10004FF40020FEF71BF900214FF4002066E06E
:103C2000DFF84812884208D101214FF48010FEF7D6
:103C30000EF900214FF4801059E0DFF83412884269
:103C400008D101214FF40010FEF701F900214FF4D3
:103C500000104CE0DFF81C12884206D10121402000
:103C6000FEF7FEF80021402016E0DFF80C12884233
:103C700006D101218020FEF7F3F8002180200BE01F
:103C8000DFF8F81188420CD101214FF48070FEF763
:103C9000E7F800214FF4807001B05DF804EBFEF707
:103CA000DFB8DFF8DC11884208D101214FF4803001
:103CB000FEF7CDF800214FF4803018E0DFF8C41192
:103CC000884208D101214FF40030FEF7C0F80021EE
:103CD0004FF400300BE0DFF8B01188420CD1012125
:103CE0004FF48020FEF7B3F800214FF4802001B09C
:103CF0005DF804EBFEF7ABB801B000BD0388DFF858
:103D00004C2190421CBFDFF85CC160450ED0B0F181
:103D1000804F1CBFDFF838C1604507D0DFF834C1E1
:103D200060451CBFDFF830C1604507D14FF68F7C7E
:103D30000CEA0303B1F802C04CEA0303DFF81CC12C
:103D400060451CBFDFF818C1604507D04FF6FF4C37
:103D50000CEA0303B1F806C04CEA03030380904267
:103D60008B8883850B8803851CBFDFF8F820904281
:103D70000AD0DFF80C2190421FBFDFF808219042E3
:103D8000DFF80421904201D1097A01860121818264
:103D9000704730B4028C4FF6FE731A4002844FF61F
:103DA0008C75048C8288038B2B400D882B434FF637
:103DB000FD752C400D892C434D882C43DFF88C5029
:103DC000A8421CBFDFF89C50A8420AD0DFF8B050D0
:103DD000A8421FBFDFF8AC50A842DFF8AC50A842A1
:103DE00010D14FF6F7752C404D892C434FF6FB75DB
:103DF0002C408D882C434FF6FF452A408D892A435D
:103E0000CD892A4382800383C9888186048430BC9B
:103E100070474FF6FF71818000210180C180418091
:103E2000017270470021018041808180C180018141
:103E300041818181C18170470029018812BF41F011
:103E400001014FF6FE72114001807047002C0140C5
:103E50000004004000080040000C0040001000403A
:103E60000014004000340140004C0140005001406B
:103E70000054014000180040001C00400020004099
:103E80000040014000440140004801402DE9F04C51
:103E900004460D46164683B0DFF87803DFF8781342
:103EA00022462B46FDF77EF88B4621F00041DFF8D5
:103EB0006C23DFF86C33FDF75DF8074680F0F38084
:103EC00059460022002300F089FD104694BFDFF818
:103ED0005413DFF854133A465B46FDF76FFBFDF7CA
:103EE0005FFA070051D0FDF787FA0022CF4BFDF7AC
:103EF00059F882468B464FF0A040CD4952465B466A
:103F0000FDF750F802460B4620462946FDF78CFA8D
:103F100004460D464FF0C040C64952465B46FDF789
:103F200041F802460B4620462946FDF77DFA044635
:103F30000D464FF00050C04952465B46FDF732F83F
:103F400002460B4620462946FDF76EFA04460D460A
:103F50000020BA4952465B46FDF724F802460B465C
:103F600020462946FDF760FA04460D464FF0005002
:103F7000B34952465B46FDF715F802460B4620460C
:103F80002946FDF751FA04460D4607F0030086194D
:103F9000204629466FF00102AA4B00F01FFD0BD806
:103FA00000224FF07953FCF7E5FF05D2F00740F10E
:103FB0002B810024A44D27E122462B46FCF7F2FF7B
:103FC0000746F0078B4631D5A048A1493A465B46E3
:103FD000FCF7E8FF9F4AA04BFDF7F0FA3A465B4634
:103FE000FCF7E0FF9D4A9E4BFDF7E8FA3A465B4638
:103FF000FCF7D8FF9B4A9C4BFDF7E0FA3A465B463C
:10400000FCF7D0FF994A9A4BFDF7D8FA3A465B463F
:10401000FCF7C8FF6FF05102964BFDF7CFFA3A4616
:104020005B46FCF7BFFF0022874B37E03A465B4612
:1040300020462946FCF7B6FFCDE900013A468E48F6
:104040008E495B46FCF7AEFF8D4A8E4BFDF7B6FA04
:104050003A465B46FCF7A6FF8B4A8C4BFDF7AEFA5F
:104060003A465B46FCF79EFF894A8A4BFDF7A6FA63
:104070003A465B46FCF796FF874A884BFDF79EFA67
:104080003A465B46FCF78EFF854A864BFDF796FA6B
:10409000DDE90023FCF786FF22462B46FDF78EFA6A
:1040A00004460D46B0E0C5F30A5240F2FF739A424F
:1040B0000BD0002A04BF280354EA103013D1002E7D
:1040C00000F0F2800024604DEEE0280354EA103046
:1040D00040F0EA8000F09AFC212101604FF0FF30AF
:1040E0006FF00041E2E0CDE90045684600F094FC45
:1040F000DDE900458619204629466FF00102514B43
:1041000000F06CFC0AD800224FF07953FCF732FF24
:1041100004D2F00778D500244B4D75E022462B469B
:10412000FCF740FF0746F0078B4631D54748484922
:104130003A465B46FCF736FF464A474BFDF73EFAE8
:104140003A465B46FCF72EFF444A454BFDF736FAEC
:104150003A465B46FCF726FF424A434BFDF72EFAF0
:104160003A465B46FCF71EFF404A414BFDF726FAF4
:104170003A465B46FCF716FF6FF051023D4BFDF7E8
:104180001DFA3A465B46FCF70DFF00222E4B37E046
:104190003A465B4620462946FCF704FFCDE900017C
:1041A0003A46354835495B46FCF7FCFE344A354B08
:1041B000FDF704FA3A465B46FCF7F4FE324A334B0D
:1041C000FDF7FCF93A465B46FCF7ECFE304A314B12
:1041D000FDF7F4F93A465B46FCF7E4FE2E4A2F4B16
:1041E000FDF7ECF93A465B46FCF7DCFE2C4A2D4B1A
:1041F000FDF7E4F9DDE90023FCF7D4FE22462B4667
:10420000FDF7DCF904460D46B0074DD585F00041B9
:1042100020464BE083C8C96D305FE43F0000A0FF3B
:10422000FFFFDF410000E03F0000E0BF0000303E44
:10423000FB21B941B410114026A6513E5C14D33C79
:104240009A833B3BFFFF3FBE0000F03F09260A1068
:1042500039BA213E3BA861C6F97D92BE63AC30906D
:104260009F01FA3EF6FB51166CC156BFB10255557F
:104270005555A53FFFFFDFBFB08F2FC310D8E53DD9
:104280008F0C73A1E1E55ABE4DADE44FE31DC73E6F
:104290003EE3B519A0012ABFFAF010111111813FB8
:1042A000425555555555C5BF2046294603B0BDE872
:1042B000F08C00004FEAF17CBCF1E04C2CBFBCF567
:1042C000001F11E05FEA4C0C34BFBCF17F5F2EE0B1
:1042D0005FEA9C0C4FEA0C1C4FEA3C0CC10071F1E8
:1042E00000414CEB50707047C90241EA5051C00286
:1042F00018BF41F0010141F000414FEA6C50C0F19C
:104300000900212810D240EACC7CCCF1200C11FA13
:104310000CF070F10040CCF1200C21FA0CF00CF004
:10432000004C40EB0C0070474FEACC7070474900DE
:1043300011F5001F04D84FEACC10FF30C0057047BC
:10434000C81770475FF0FF0C1CEAD05114BF6145DD
:1043500006E0C110400721F0E04101F160517047D3
:1043600079B900F0004100020AD0B0FA80FC00FAEE
:104370000CF001F16051A1EB0C5101EBD021400593
:10438000704741020CBF40F4E0016FF000010020D3
:104390007047000040F2FF7C0B0D4DD0634566D2A4
:1043A00030B421EA035141F4801103F2FD3C5FEA8D
:1043B0005C0C01D300184941890041EA90718000EA
:1043C0004FF440140023E202D50AB1F5100107D4DE
:1043D0006D081DD2091B641900184941491BF7D506
:1043E0006D080AD20919641B00184941491BEFD511
:1043F0006D08F7D301E0520817D0C01861419B1A2D
:10440000AC4100184941801AA941F4D452080AD09D
:10441000C01AA1419B186C4100184941801AA9415A
:10442000E9D45208F4D15B1C6C4161084FEA3300B7
:1044300001EB0C5130BC704750EA0103FBD030B4A3
:10444000B1FA81F311B9B0FA80F41B190B3BB3F147
:1044500020042FBF00FA04F19940C3F1200420FA90
:1044600004F438BF21439840D3F101039DE763452D
:10447000E1D011F5801FDED850EA4101DBD0D943ED
:1044800000F07ABB38B50FB4DDE9020100F07AFB29
:104490000546DDE9000100F075FB0246012DB8BFBD
:1044A000012A2CDA0198002807D5DDE9000181F006
:1044B0000041CDE90001082400E000240398002811
:1044C00007D5DDE9020181F00041CDE9020184F068
:1044D0000604DDE90201DDE90023FCF74BFD02D211
:1044E000FCF732FE27E0002D06D5DDE90001DDE90D
:1044F0000223FCF729FE20E0002000211DE0022A13
:1045000008BFDDE900011ED0022D08BFDDE9020170
:1045100019D0954207BF00200C4900200021019BC3
:10452000002B4CBF08240024039B002B48BF84F0C1
:104530000604012A01D184F00204224605B0BDE838
:10454000304000F039BB05B030BD00BF0000F03F87
:104550004FF0807C1CEB400F94BF1CEB410F05E03B
:1045600040EA010C5FEA4C0C01D28142704718BF4F
:10457000884270470CB41CB5044604A801900A4652
:10458000009401AB6946074878441830FBF7C8FD32
:10459000009A0021117000285CBF0098001B16BC17
:1045A0005DF80CFB77C7FFFFF0B583B006460C46FD
:1045B0001546FEF71DFF4CF2AF3788B32046FEF7D5
:1045C00017FF68B32846FEF713FF48B34EF29C600E
:1045D00070434FF4616190FBF1F0B6F5E16FA4BF59
:1045E0007549081807FB04F14FF4616291FBF2F181
:1045F000B4F5E16FA4BF714A51184CF2AA126A4394
:104600004FF4616392FBF3F2B5F5E16FA4BF6C4B1D
:104610009A1808181018C02190FBF1F003B0F0BDF3
:104620004CF2AA1207FB04F102FB05F0401A654B9D
:1046300090FBF3F005F561635A43521A614B92FB0C
:10464000F3F200B212B2904207D0292A05DA00280C
:1046500002D4002A01D400B910464FF4616291FBE4
:10466000F2F107FB00104EF29C6190FBF1F0C01ECE
:1046700000B2002848BF0020811D09B201910090BE
:104680003B464EF29C622146304600F007F841114D
:1046900000EB9160801103B0F0BD00002DE9F04EF9
:1046A00050434FF4616490FBF4F092B05943BDF96C
:1046B00068E0BDF96CB00EFB02040BA802EB040C21
:1046C0000BF104073FB200970B94C0F804C04FF001
:1046D00000099444C0F808C0CA469444C0F80CC00D
:1046E000944462441092C0F810C04FF4616291FB90
:1046F000F2F1354F0EFB03110DF104024FF0050CE2
:1047000042F8041B591842F8041B5918BCF1010C5B
:10471000F6D1DE4571463CDA0BAA009CA6457346ED
:1047200032DAA4EB0E06F4070AD51468019D641B67
:1047300048BF6442BC4202DA274689469A465B1C5F
:104740005FEA560C20D01BB201ACA3EB0E0504EBC4
:10475000850415682668AE1B48BF7642BE4202DA61
:10476000374689469A4666685B1CAD1B48BF6D425A
:10477000BD4202DA2F4689469A465B1CACF1010C19
:104780000834BCF1000FE4D1491C121D09B259458F
:10479000C3DBA9EB0E0150F8210001A90FFA8AF33F
:1047A000A3EB0E0251F82210081800EBD070401055
:1047B00012B0BDE8F08E00006419FFFF513CFFFF0E
:1047C000563EFFFF50661C0040420F002DE9F043AB
:1047D00004467D4E81B0002030700D4600F03AFB5B
:1047E0004FEA0007DFF8E4814FF400314046FEF75E
:1047F00074FC20B100F02EFBC01B0528F4D301216E
:104800004046FEF736FC00F025FB0746DFF8C49172
:1048100049464046FEF754FC20B900F01BFBC01B84
:104820000528F5D3DFF8B09100F014FBC01B052874
:1048300024BF012030700022C0214046FEF72FFC2B
:1048400000F008FB074649464046FEF739FC20B910
:1048500000F000FBC01B0528F5D300F0FBFAC01BDD
:10486000052824BF01203070EDB1594F2178404612
:10487000FEF713FC00F0EEFA814639464046FEF79B
:104880001FFC28B900F0E6FAA0EB09000528F4D3D4
:1048900000F0E0FAA0EB0900052824BF01203070E9
:1048A000641C6D1EE2D1404601B0BDE8F043012119
:1048B000FEF7E9BB2DE9F0478046434EDFF80C9147
:1048C000002030700C46154600F0C4FA4FEA00078D
:1048D0004FF400314846FEF700FC20B100F0BAFA70
:1048E000C01B0528F4D301214846FEF7C2FB00F0A7
:1048F000B1FA0746DFF8DCA051464846FEF7E0FB78
:1049000020B900F0A7FAC01B0528F5D3DFF8C8A02E
:1049100000F0A0FAC01B052824BF0120307000223F
:10492000C0214846FEF7BBFB00F094FA074651460B
:104930004846FEF7C5FB20B900F08CFAC01B0528DD
:10494000F5D300F087FAC01B052824BF0120307082
:1049500041464846FEF7A1FB00F07CFA0746DFF827
:10496000708041464846FEF7ABFB20B900F072FA72
:10497000C01B0528F5D300F06DFAC01B052824BF25
:1049800001203070D5B121784846FEF786FB00F053
:1049900061FA074641464846FEF792FB20B900F00F
:1049A00059FAC01B0528F5D300F054FAC01B05289E
:1049B00024BF01203070641C6D1EE4D14846BDE860
:1049C000F0470121FEF75FBB4C100020005800406B
:1049D0008400070001000300820007004FF4001C60
:1049E0001CEB410F94BF1CEB430F09E041EA030CA1
:1049F00050EA4C0C52EA0C0C03D28B4208BF8242A4
:104A0000704714BF9942904270470000014800F07F
:104A10002FBA0000180000202DE97C4C06464748BC
:104A20004749D6E9004522462B46FCF7BBFACDE9BB
:104A3000000100220023FFF7D1FFDDE9002399BF29
:104A40000020404900204049FCF7B8FDCDE90001B5
:104A50000021684600F00DFADDE900230020002166
:104A600000F044FA4ED03949FCF79CFA82468B4656
:104A70004FF0A040364952465B46FCF793FA024697
:104A80000B4620462946FCF7CFFC04460D464FF066
:104A9000C040304952465B46FCF784FA02460B465A
:104AA00020462946FCF7C0FC04460D464FF0005056
:104AB000294952465B46FCF775FA02460B462046EA
:104AC0002946FCF7B1FC04460D4600202349524616
:104AD0005B46FCF767FA02460B4620462946FCF780
:104AE000A3FC04460D464FF000501D4952465B465C
:104AF000FCF758FA02460B4620462946FCF794FC80
:104B000004460D46C6E90045DDE90001154A164B8D
:104B1000FCF730FA04D3154A154BFFF75FFF05D8B1
:104B20000022144B00F0F2F9CDE90001DDE90001AB
:104B3000FCF736FC00F00300BDE8768C83C8C96D35
:104B4000305FE43F0000E03F0000E0BF0000303E87
:104B5000FB21B941B410114026A6513E5C14D33C50
:104B60009A833B3B0000C0FFFFFFDFC10100C0FF95
:104B7000FFFFDF410000E0411FB5FFF747FF2121A4
:104B800001601FBDC1F30A5240F2FF739A420AD07E
:104B900012B14FF0FF307047090350EA113009D0CD
:104BA0006FF001007047090350EA113001D0022074
:104BB00070470120704700002DE9F04D1746504A1C
:104BC000504BFFF70BFF04460D461CD84E4EDFF846
:104BD0003C8132464346FCF7E5F900224C4BFCF79A
:104BE000EDFC82468B463246434620462946FCF77A
:104BF000E5FC02460B4650465946FCF7A5FA04462A
:104C00000D4647F00107204629460022414BFCF79C
:104C1000B1F905D301224FF07953FFF7DFFE53D8E6
:104C200022462B46FCF7BEF90646884632464346E6
:104C300020462946FCF7B6F982468B463648374966
:104C400032464346FCF7AEF9354A364BFCF7B6FC24
:104C500032464346FCF7A6F9334A344BFCF7AEFC28
:104C600052465B46FCF79EF922462B46FCF7A6FC13
:104C700004460D462E482F4932464346FCF792F92A
:104C80002D4A2E4BFCF79AFC32464346FCF78AF934
:104C90002B4A2C4BFCF792FC32464346FCF782F938
:104CA000294A2A4BFCF78AFC32464346FCF77AF93C
:104CB0000022274BFCF782FC02460B462046294681
:104CC000FCF742FA04460D46B80748BF85F0004598
:104CD00017F007000BD00FF2800101EBC0022B464A
:104CE000D2E900012246FCF769FC04460D4638076C
:104CF00047BF85F00041204620462946BDE8F08D9B
:104D000057CD9E5E1426D13FAA4C58E87AB6FB3F99
:104D10000000F0BF000040BE845D57134B57B03F0A
:104D2000B2934C19ED5EE43FBEDE02B90240F83F9B
:104D3000DE39028FC7C0743F8AAB1283000CC83FB4
:104D400024D7E508B6D8F03F0F34580E5895FD3FEC
:104D50000000F03F00000000000000000000000024
:104D600066732D3852C1E03F182D4454FB21F93FA2
:104D700066732D3852C1F03F182D4454FB21F93F82
:104D800066732D3852C10040182D4454FB21094050
:104D90003FD038C6A6F104407047FEE7FEE7FEE7C5
:104DA000FEE77047704770472C480168491C016056
:104DB000704700B581B00220FDF7A7FEC0B1022008
:104DC000FDF7AFFE26490120087026480178012929
:104DD00008BF022109D00178032908BF042104D0AB
:104DE000017805290CBF06210021017001B000BD2A
:104DF0000420FDF78AFE08B1042004E00820FDF736
:104E000084FE28B1082001B05DF804EBFDF789BEEF
:104E100001B000BD30B5144C40F2255581B0294693
:104E20002046FDF7ADFD60B129462046FDF7A5FD02
:104E30002046FDF797FD01B0BDE83040C0B2FDF758
:104E400000BA01B030BD094801884FF6FE7211402A
:104E5000018070470148006870470000481000203A
:104E60004D100020DC0F00200038014010000040F1
:104E700070474268C2F30A5240F2FF739A4207D168
:104E80004168090303BF0068002801200220704721
:104E900043685B0004BF0368002B25D040F2334316
:104EA0009A1A521A012A1FDB352A06DB416801F0E3
:104EB000004141600021016013E0012102F01F0365
:104EC0009940491E920607D5426811404A40426007
:104ED00002681143002202E0026811404A40026069
:104EE00011B14FF0FF3070470020704790420CD155
:104EF00041EA030C50EA4C0C07D0994205D14FF41B
:104F0000001C1CEB410F38BF8942704770B540F25E
:104F1000FF7601F0004C5B0006EA11545D0D1ABFEC
:104F2000B442B54278E0B3EB410F08BF82424BD2A6
:104F3000C3F3530343F48013C1F3130141F480110D
:104F4000641B0B3C13D9C90241EA5051B1FBF3FE7B
:104F500003FB1E11A2FB0EE6DEEBC020B14101D225
:104F60008018594150EA010653D00B3CEBD80B3462
:104F7000C4F12006A14020FA06F6A0403143B1FB5F
:104F8000F3FE03FB1E11A2FB0EE6B0EB0E00B141D7
:104F900001D28018594102BF0146203D0020C1B313
:104FA000B1FA81F39940C3F1200220FA02F21143D1
:104FB0009840ED1A0A3509DBC00A40EA41504CEA34
:104FC000D12101EB055170BD23D070BDD5F10B058A
:104FD000B5F120020DDAC5F120020300E84001FA24
:104FE00002F6E940934073F10043704151EB0C012C
:104FF00070BD402D0DDC430821FA02F0C2F12005FE
:1050000011FA05F6334373F1004370415CF100017E
:1050100070BD6146002070BD53EA020E1ABFB44253
:10502000B54237E0B3EB410F08BF8242CCD25B08F8
:10503000B3FA83F504BFB2FA82F6AD190B3DB5F1B0
:10504000200624BF02FA06F305E0AB40C5F12006B6
:1050500022FA06F63343AA40D5F1010524427FF433
:105060006BAF31F00041B1FA81F404BFB0FA80F6C1
:10507000A4190B3CB4F1200624BF00FA06F105E0A8
:10508000A140C4F1200620FA06F63143A040D4F135
:10509000010455E74FF4001515EB410F2CBF6FF0DD
:1050A0000041EB4218BF6FF00041BDE87040FFF4D3
:1050B00063AD70472748284A82B0016841F001017A
:1050C0000160416811404160244A0168114001605B
:1050D000016821F480210160416821F4FE014160F2
:1050E0004FF41F0181600021C162019100910168AC
:1050F00041F480310160016801F4003100910199AF
:10510000491C0191009919B90199B1F5A06FF2D12B
:105110000168490C01F0010100910099012912D1A7
:105120004168416041684160416841604168890867
:1051300089004160416841F001014160416801F02E
:105140000C010429FAD14FF000600549086002B053
:1051500070470000001002400000FFF8FFFFF6FE5D
:1051600008ED00E019E050F8041BCB0744BFA9F19B
:1051700001035918121F0023042A41F8043BF9D2F5
:105180005FEA827C0B4604D54FF0000CA1F800C00A
:105190009B1CD10744BF0021197050F8042B002A32
:1051A000E1D1704710B450F8041B79B1026843682C
:1051B00012180830DC0744BFA9F10104E31852F8C3
:1051C000044B43F8044B091FF9D1ECE710BC7047BE
:1051D00010B5074979441831064C7C44163404E074
:1051E0000A68081D511888470146A142F8D110BD30
:1051F00008000000280000006DFFFFFF300C0000D9
:1052000020040020000000009DFFFFFF20000000A0
:105210000C00000000000020000000003333A14219
:10522000000000000102030401020304060708094C
:105230000204060800000000E803010000F00BF87B
:10524000002801D0FFF7C4FF0020C046C046FCF78D
:105250003DFF00F002F80120704700F001B80000A7
:105260000746384600F002F8FBE70000202109035A
:1052700026311820ABBEF9E738B504460D4628465E
:10528000FCF7FCFFA84218BF0024204632BD0000F6
:105290000148804701480047B5500008A152000866
:1052A000C046C046C046C046FFF7C8FFFFF774BD02
:1052B000FFF773BDFFF772BDFFF771BDFFF770BD5C
:1052C000FFF76FBDFFF76EBDFFF76DBDFFF76CBD5C
:1052D000FFF7FEBFFFF7FEBFFFF7FEBFFFF7FEBF02
:1052E000FFF7FEBFFFF7FEBFFFF7FEBFFFF7FEBFF2
:1052F000FFF7FEBFFFF7FEBFFFF7FEBFFFF759BD89
:10530000FFF7FEBFFFF7FEBFFFF7FEBFFFF7FEBFD1
:10531000FFF7FEBFFFF7FEBFFFF7FEBFFFF7FEBFC1
:10532000FFF7FEBFFFF7FEBFFFF7FEBFFFF7FEBFB1
:10533000FFF789BDFFF7FEBFFFF7FEBFFFF7FEBF18
:10534000FFF7FEBFFFF7FEBFFFF7FEBFFFF7FEBF91
:10535000FFF7FEBFFFF75EBDFFF7FEBFFFF7FEBF23
:10536000FFF7FEBFFFF7FEBFFFF7FEBFFFF7FEBF71
:04537000FFF7FEBF86
:04000005080052A1FC
:00000001FF
