:020000040800F2
:100000002804002081570008454A0008474A000894
:10001000494A00084B4A00084D4A00080000000009
:100020000000000000000000000000004F4A00082F
:10003000514A000800000000534A0008554A0008D1
:10004000E1570008E5570008E9570008ED57000898
:10005000F1570008F5570008F9570008FD57000848
:10006000015800080558000809580008614A0008AE
:100070001158000815580008195800081D580008A4
:1000800021580008255800082958000800000000E1
:100090000000000000000000000000002D580008D3
:1000A0003158000835580008395800083D580008F4
:1000B000FD4A000845580008495800084D580008F6
:1000C0005158000855580008595800085D58000854
:1000D00061580008D54A0008695800086D580008A2
:1000E0007158000875580008795800080000000091
:1000F0000000000000000000000000000000000000
:1001000000000000000000000000000000000000EF
:1001100000000000000000007D5800088158000821
:100120002DE9F04FA1B08046002017461D460291F0
:100130000B900DF1440A6FF000490AE017F8011B1B
:100140000298C0470028029000F0A1820B98401C42
:100150000B90387808B90B989BE22528EED1002047
:10016000059006900790089009900A9001E040F0F1
:10017000010017F8011F2029F9D023290DD02B29C0
:1001800004D02D2906D030290AD00CE040F002001E
:1001900080B2EEE740F00400FAE740F00800F7E72D
:1001A00040F01000F4E72A290ED12968296051F89F
:1001B000042B2960002A0D9204D5514240F004001E
:1001C0000D9180B27F1C11E000210D9109E00D9985
:1001D000494505D001EB810302EB430130390D9114
:1001E0007F1C3A78A2F130010A29F0D339782E2900
:1001F00003D04FF0FF310C911DE017F8011F2A29A1
:1002000007D1296829607F1C51F8042B29600C92C2
:1002100011E000210C9109E00C99494505D001EB52
:10022000810302EB430130390C917F1C3A78A2F133
:1002300030010A29F0D3ADF838000FF6C420397820
:1002400000F070FD08B117F8010B8DF83A009DF829
:100250003A00682802BF39786829622005D06C28E6
:1002600004BF38786C2803D171208DF83A007F1CC8
:1002700011A8049017F8014BB4F1250023D02038C1
:10028000022840F2BB80133800F0E0800B3800F009
:100290004A81401E00F02381401E022840F2AE80B9
:1002A000001F00F01C81401F79D0401E00F0CE805E
:1002B000401E24D0C01E0BD0801E00F0C780C01E80
:1002C00000F0C48039E125208DF8440001203DE193
:1002D0002868286050F8046B286003960C9C002C5A
:1002E00004D5304600F02AFD044606E022460021EF
:1002F000304600F03FFD00B1841B069427E12968D9
:1003000029603C2451F8040B29600021CDE900014B
:1003100011A80390DDE90001049E11B908B90C9AF7
:10032000B2B10206120FA0EB02123032D2B2631E3B
:100330003A2AA8BF273200099A5540EA01700909F4
:1003400008BF00281C4603D0039AA3199A42E8D399
:10035000A0190390C4F13C010C980691814209DA7E
:10036000401A08904FF6EF71BDF838000840ADF81C
:100370003800ECE0002840F1EA809DF8380000F0F9
:100380001400102840F0E3800D98059A801A089A0E
:10039000801A441A012CC0F2DA800894D7E09DF844
:1003A0003A0062281AD0682806D06A280CD06C2837
:1003B0001CD0712808D019E02868286050F8041B68
:1003C00028600B980880C2E02868286050F8042B49
:1003D00028600B98C117C2E90001B8E028682860BE
:1003E00050F8041B28600B980870B0E0286828605B
:1003F00050F8041B28600B980860A8E02868C01D0E
:1004000020F007022A60D2E9000108322A60CDE913
:100410000001002902D505982D210AE0BDF8380019
:10042000810702D505982B2103E0C00705D5059863
:10043000202100F80A10401C059011A80599081801
:1004400003902146684600F0E1F980E09DF83A000B
:100450006C280DD0712818BF6A2809D12868C01DE2
:1004600020F007022A60D2E9000108322A6005E084
:100470002968296051F8040B29600021CDE90001A9
:100480009DF83A00682803D1DDE9000180B20BE055
:10049000622803D1DDE90001C0B205E0742818BF6D
:1004A0007A2804D1DDE900010021CDE900019DF8A1
:1004B000380000072ED5DDE90001002908BF00281B
:1004C00028D044F02000782824D10598302100F865
:1004D0000A10401C411C059100F80A401AE09DF8E2
:1004E0003A00294600F0D8F8CDE90001002902DAE7
:1004F00005982D210AE0BDF83800810702D505983E
:100500002B2103E0C00705D50598202100F80A102B
:10051000401C059011A805990818039021466846CB
:1005200000F0F1F813E0012005902868286050F8E9
:10053000041B28608DF8441009E025208DF8440044
:10054000012005901CB18AF80140022005900D9809
:100550000599401A0899401A0699401A0999401AB3
:100560000799401A0A99441A9DF83800400710D498
:100570002020012C8DF840000BDB2646012310AA19
:100580006946404600F0A5FB002840F08080761EBA
:10059000F4D1DDF814B0BBF1000F11AE0CD016F899
:1005A000011B0298C0470028029070D00B98401C95
:1005B000BBF1010B0B90F2D130208DF84000089E6A
:1005C000012E09DB012310AA6946404600F081FB99
:1005D00000285CD1761EF5D1DDF818B0039EBBF182
:1005E000000F0CD016F8011B0298C047002802909B
:1005F0004DD00B98401CBBF1010B0B90F2D1302079
:100600008DF84000099E012E09DB012310AA6946DE
:10061000404600F05EFB002839D1761EF5D10398E4
:100620000699DDF81CB00E18BBF1000F0BD016F8C0
:10063000011B0298C047029048B30B98401CBBF1C5
:10064000010B0B90F3D130208DF840000A9E012E53
:1006500008DB012310AA6946404600F03AFBB0B916
:10066000761EF6D19DF8380040077FF572AD202048
:10067000012C8DF84000FFF66CAD012310AA6946ED
:10068000404600F026FB10B9641EF6D161E54FF03C
:10069000FF3021B0BDE8F08F622826D068281DD039
:1006A0006A2808D06C2827D0712804D0742823D059
:1006B0007A280CD020E00868C01D20F007000860F0
:1006C000D0E90023083008601946104670470A68D0
:1006D0000A6052F8040B0A60002170470A680A6039
:1006E00052F8040B0A6000B20BE00A680A6052F884
:1006F000040B0A6040B204E00A680A6052F8040B76
:100700000A60C11770472DE9FA4E05460A462F695F
:100710006F2A08BF082405D041F02000782814BFB4
:100720000A2410243C26D5E90001642A18BF692A4E
:1007300081468A4605D1002903DAD9F100096AEB1E
:100740004A0ABAF1000F08BFB9F1000F0CD1286BAB
:1007500050B9082C36D195F83800000732D5302032
:100760003B2687F83B002DE0E317484651462246DA
:1007700000F02CFBA4FB0023A9EB02023032D2B222
:10078000A6F1010B3A2A5E4603DB9DF80030513B8F
:100790009A180BF8072081465FEA010A08BFB9F1F1
:1007A000000F03D0E868F1198842DDD3082C09D185
:1007B00095F83800000705D5F05D302802D0761E88
:1007C0003020F055C6F13C00A861F119E960296BB1
:1007D000884208DA081A28624FF6EF71288F08401D
:1007E0002887BDE8F38E00290ED595F8381001F062
:1007F0001401102908D1696B6A69891A2A6A891A51
:100800000E1A012EA8BF2E62BDE8F38E2DE9F34F1C
:100810008BB0D0E90089006B002801AF48BF0620EB
:1008200005D404BF41F02000672802D101200B99B4
:10083000086340F2FF720B984168C1F30A5090427E
:1008400020D1080302BF0B98006800280AD10B9939
:10085000032088619DF8300061381A2858D30FF2C0
:10086000B44109E00B99032088619DF8300061389C
:100870001A284AD30FF294410B98C068032200F063
:100880001DFB00E1012807DA0B9800F052FB01285C
:1008900002DB00230026EDE00B9ADFF854B152682A
:1008A00040F2FE3161F31E520B994A6040F2FE3174
:1008B000461A404649460022002300F05BFB38BF41
:1008C00089F0004936B247F297507043494990FB8E
:1008D000F1F636B2C6F10707012F92461BDBF80787
:1008E00007D552465B464046494600F05BFB8046D2
:1008F00089465046594652465B467F1000F052FBEF
:10090000002F82468B46EAD126E00FF2FC31B3E796
:100910000FF2FC31B0E77F420024374D12E0F807B8
:1009200007D552465B462046294600F03BFB04466D
:100930000D465046594652465B4600F033FB7F1049
:1009400082468B46002FEAD14046494622462B4636
:1009500000F0FAFB804689469DF83000DFF89CB035
:1009600040F02005662D0CBF06F10A0006200B9909
:10097000096B4718142FA8BF132730208DF80400E7
:100980000DF10504012F3BDB4046494600F01EFDFA
:10099000014604F1080204234FF00A0CB1FBFCFCF1
:1009A0000CEB8C04A1EB4401303102F8011C0A214C
:1009B000BCFBF1FE0EEB8E04ACEB440430345B1E4A
:1009C000714602F8024DE7D1083F012F02F10804F9
:1009D000D8DB00F01BFD02460B464046494600F0BE
:1009E00023FD00225B4600F0DDFA80468946CBE716
:1009F00000002440A08601000000F03F84D797410A
:100A00000DF10500201A0DF1050702E0401E761ECB
:100A10007F1C39783029F9D0662D02D136B2711C8D
:100A200003E0652D0CBF012100210B9A126B8B187E
:100A30001BB29842B8BF03461BB219001AD48142B8
:100A400004DAC85D3528A8BF392000DA3020CA1979
:100A5000521E00E05B1E12F80149491E8442F9D083
:100A6000392802D1C85D401CC855002902D57F1E17
:100A70005B1C761C36B29DF830100B9800961BB2AA
:100A80003A4600F003F80DB0BDE8F08F2DE9F043D1
:100A9000054685B01E46D5F83080012E894617469A
:100AA00002DA01260FF2702749F02000BDF930402C
:100AB000662808BF641C15D0672840F0938014F1A5
:100AC000040F7CDB44457ADA95F83800641C000793
:100AD00002D44645B8BFB04624B2B8EB040848BFBC
:100AE0004FF0000824B2E868A969012C25DA4A1CF5
:100AF00030230B54B8F1010F03DA95F838100907C9
:100B000002D52E211154521CAA6118EB040FB8BF54
:100B1000C8F1000424B26142A0446962B045B8BF84
:100B20004646AB6936B2EE6132463946181800F0D7
:100B3000C5F9A8EB0600A862B4E00818A64218DAC6
:100B40003246394600F0BAF9A9697118A01BB8F10C
:100B5000010FA961686203DA95F83800000705D52E
:100B6000EA682E208854E869401CE861C5F82880AE
:100B700098E02246394600F0A1F9A8692018361BF2
:100B8000B8F1010F03DA95F83810090703D5EA68C0
:100B90002E218154401C36B2A861B045B8BF4646EC
:100BA000E868AB6936B23246E119181800F086F9E8
:100BB000A8693018A861A8EB0600686272E0464593
:100BC00004DA95F83810090758BFB046B8F10108A3
:100BD00048BF4FF00008B9F1670F0CBF4FF065092F
:100BE0004FF04509A969E8684A1CAA61B8F1010FEC
:100BF00017F8013B0B5403DA95F83810090717D59D
:100C0000531CAB612E211154B8F1010F10DB761E7D
:100C100036B2B045B8BF464636B2324639461818E5
:100C200000F04CF9A8693018A861A8EB06006862CA
:100C3000E868A9690918200081F8009003D42B20E6
:100C400048708F1C03E02D224A708F1C64420026DE
:100C50000DF1080808E00A22684600F0A5FC01989A
:100C600008F8010B761C009C21B20129F3DA022E50
:100C700006DA49F02000652804BF302007F8010B90
:100C80004EB9302007F8010B07E0761E02A8305C51
:100C9000303007F8010B012EF7DAE868A969081867
:100CA000381AE86195F8380000F0140010280DD1CA
:100CB0006869A9690818696A0818E9690818A96AB9
:100CC0000818696B8842BCBF081A286205B0BDE8E5
:100CD000F083F8B504460D4616461F46002077B14E
:100CE00016F8011BA868A047A86030B1E86A401C4C
:100CF000E86200207F1EF3D1F2BD4FF0FF30F2BD5D
:100D0000686A6C747A4C00006E616E004E414E0051
:100D1000696E6600494E460030000268531C03604D
:100D2000117070470278C9B28A421AB11CBF10F81C
:100D3000012FF9E718BF0020704703FF00F10103FE
:100D4000810704D010F8011B89B18107FAD102682C
:100D5000B2F10131914311F0803F04BF50F8042FEC
:100D6000F6E710F8011B11B110F8011BFBE7C01AE0
:100D7000704703FAC9B2830706D0521E22D310F877
:100D8000013B9942F7D11FE0083A13D302F1040264
:100D900041EA012141EA014150F8043B121F21BF01
:100DA0004B40A3F1013C2CEA030C1CF0803FF3D034
:100DB000C9B2001F083210F8013B521E28BF91EA49
:100DC000030FF8D818BF0120401E70471B4213D1F3
:100DD000094236D12AB18446B0FBF2F002FB10C2C0
:100DE000704700F0E9BBFCD30022002370470B00E2
:100DF0000200002100207047904271EB030CF6D3F3
:100E000070B5B1FA81F4B3FA83F52C1BA340C4F199
:100E1000200532FA05F63343A2405FF00046E64073
:100E200002E05B085FEA3202841A71EB030524BF1B
:100E3000204629467641F4D302000B003000002101
:100E400070BD012ACFD970B5140C20D0B1FA81F44D
:100E5000B2FA82F5C4F120046419B4F12006D6D3A5
:100E6000B2405FF00044F440002502E052085FEA1F
:100E70003303C61A71EB020E24BF3046714664413B
:100E80006D41F3D302000B002000290070BD0C4619
:100E9000B1FBF2F102FB11452D0445EA1045B5FB0B
:100EA000F2F402FB145580B240EA0545B5FBF2F0BE
:100EB00002FB105240EA044070BDBBC062B38B0716
:100EC00008D0521E11F8013B00F8013B00F02480CD
:100ED0008B07F6D1830740F0208000BF103A07D37C
:100EE00030B4B1E83810103AA0E83810F9D230BC6C
:100EF000530724BFB1E80810A0E8081044BF51F818
:100F0000043B40F8043BD20724BF31F8022B20F801
:100F1000022B44BF0B7803707047083A07D3B1E83F
:100F20000810083A40F8043B40F804CBF7D25307C6
:100F3000E4E730B4436803F0004201211B031B0BBC
:100F4000436004BF0368002B08D10DE00368DD0F88
:100F500045EA440444605B000360491E4468E302C0
:100F6000F4D523031B0B436043681A4342600846D1
:100F700030BC70474FF4001C1CEB410F94BF1CEBBE
:100F8000430F09E041EA030C50EA4C0C52EA0C0C06
:100F900003D2994208BF9042704714BF8B428242ED
:100FA0007047B1ACB0B581EA030C0CF0004C40F2D4
:100FB000FF7515EA11541DBF15EA1357AC42AF4235
:100FC00039E0E41923EA455343F48013C90241F0A0
:100FD000004141EA505EC7021100A7FB020200284F
:100FE0004FF00000EEFB01204FF00001E3FB072172
:100FF00018BF42F00102401800214941E3FB0E01F5
:10100000A4F580640F0302D252004041494154F1DB
:1010100001046CDD470872F1004250F1000051EB11
:101020000451A1F580115CBF41EA0C01B0BD4CEA4E
:1010300005510020B0BD05EA1357AC4214BFAF42C2
:1010400041E050EA410E1CBF52EA430E02E0614605
:101050000020B0BD24423C441BD15FEA070EF6D00D
:10106000090302BF01460020AEF1140EB1FA81F768
:10107000AEEB070401FA07FE0C37C7F1200100FAB6
:1010800007F7C8404EEA000E23EA455343F48013A5
:10109000A2E733F00043B3FA83F704BFB2FA82FE4B
:1010A00077440B3FE41BB7F1200E2FBF02FA0EF37B
:1010B000BB40C7F1200E22FA0EFE38BF43EA0E03F2
:1010C000BA40641C82E750EA410E14BF52EA430E54
:1010D0006FF000014FF4001717EB430F8ABF19465A
:1010E00017EB410FB5E74CEA05510020B0BDD4F134
:1010F0000104B4F120070FDAC4F12007520828BF19
:1011000042F0010210FA07F501FA07F7E1BF2A439E
:10111000E0403843E1400FE0352C98DCC7F1200473
:1011200052EA400220FA07F218BF42F0010231FAF7
:1011300007F0A1400A43002172F1004250F1000083
:1011400051EB0C01B0BD00002DE9F04140F2FF75FC
:1011500081EA030C0CF0004C15EA11541DBF15EA8E
:101160001357AC42AF42E9E0BC41C1F31301C3F3F2
:101170001303801A994143F4801304D2641E400083
:10118000494180185941C90241EA5051B1FBF3F677
:1011900003FB1611A2FB0675D7EBC020A94102D2B2
:1011A000761E80185941C90241EA5051B1FBF3FE45
:1011B00003FB1E11A2FB0E75D7EBC020A94103D281
:1011C000AEF1010E80185941890241EA905176052D
:1011D00046EA8E2EB1FBF3F603FB1611A2FB067551
:1011E000D7EB8020A94102D2761E80185941C9024E
:1011F00041EA50514EEA060EB1FBF3F603FB16111D
:10120000A2FB0675D7EBC020A94102D2761E80183A
:101210005941C90241EA5051B1FBF3F703FB1711E1
:10122000A2FB0735D3EBC020A94167F100070CBF33
:10123000004247F0010766F3D5274FEA1E31B80890
:1012400014F5806414DDBD0775F1004250EB0E50BB
:1012500051EB045111F5801F5CBF41EA0C01BDE860
:10126000F0814CF07F6141F0E0410020BDE8F08169
:10127000BD076D0840EA0E5041F48011D4F101041D
:10128000B4F120060ADAC4F120060200E04001FAB7
:1012900006F3E1401843B24015430EE0342C14DC51
:1012A000C6F1200445EA40056D0820FA06F2154310
:1012B00021FA06F0A1400D43002175F1004250F1E2
:1012C000000051EB0C01BDE8F08100205FEA0C0149
:1012D000BDE8F081CFB992185B41B3FA83F704BF40
:1012E000B2FA82F6BF190B3FB7F120062FBF02FA00
:1012F00006F3BB40C7F1200622FA06F638BF334397
:10130000BA401CB1E419641E2FE77F4231F000415E
:10131000B1FA81F404BFB0FA80F6A4190B3CB4F121
:1013200020062FBF00FA06F1A140C4F1200620FAE2
:1013300006F638BF3143A0403C1B16E7AC421ABF4B
:1013400005EA1357AF4214E050EA41061CBF52EAC7
:101350004306BFE750EA4107304661461CBF41EAF9
:101360000551BDE8F08152EA430C08BFC143BDE816
:10137000F08100204FF4001616EB410F98BF16EBDA
:10138000430F08BF16EB410F24BFC14305E016EB26
:10139000430F0CBF61464CEA0551BDE8F0810000E7
:1013A000F446400D40EAC120490006D200F014F88E
:1013B000004248BF6FF00040604700F00DF84FF06A
:1013C000004188428CBF084640426047400D40EAD9
:1013D000C120490080F00D8040F00040490DA1F58A
:1013E0008061491C05D4D1F11F0154BFC840C0170A
:1013F00070474FF000007047010040F10980F4464B
:10140000404200F005F851F000416047010000BF84
:1014100009D0B0FA80F18840C91CC1F58461090582
:1014200001EBD02140057047F0B44FF0004591EA40
:10143000030F44BF6B4000F0CBB800BF841A71EBC0
:10144000030604D26E40001BB141121973414FF4E0
:10145000001C1CEB410F34BF7CEB430684E00C0DF9
:10146000A4EB1356362E7DDC012E43DC45EAC32364
:1014700043EA525312BFD20292025B08240545EAA6
:10148000C12141EA5051D2EBC020994125D407D166
:10149000B0FA80F610FA06F164D00020203608E099
:1014A000B1FA81F6B140C6F1200220FA02F21143EE
:1014B000B0404FEAF474B4EB465434F001064FEAFE
:1014C00074040AD8D6F50016760D04F00044F040F6
:1014D00061FA06F25040F1404840C00A40EA4150EB
:1014E00021F0004128BF5FEA500550F1000044EBB5
:1014F000D12137E045EAC323DB0A45EAC121C90A05
:10150000B6F120050EDD42EA0242120CC5F12006BA
:1015100003FA06F6EB4042EA06056D42984161F196
:1015200000010DE062FA06F5F240554063FA06FC50
:1015300082EA0C02F3405A406D42904161EB030194
:1015400011F4801F05D1641E620502D06D00404178
:10155000494121F48011430875F1004350F1000026
:1015600041EB0451F0BC70471CEB410F15D223F046
:10157000004352EA43060BD04FEA4C0CBCEB410F40
:1015800004D80C0D661E342EB7DDEBE7801A9941A6
:1015900050EA410608BF0021E4E708BF1CEB430FF7
:1015A00028BF6FF00001DDE791FBF2F303FB12119E
:1015B000C0E900317047000070470000F0B44FF000
:1015C000004591EA030C44BF6B40FFF737BF00BFF3
:1015D000841A71EB030603D2001BB1411219734147
:1015E0004FF4001C1CEB410F34BF7CEB430443E081
:1015F0000C0DA4EB1356352E50DC45EAC323DB0A51
:1016000045EAC121C912B6F120050DDD63FA05F6E0
:10161000EB4086EA0305124218BF45F00105C018E9
:1016200051F100010CD213E062FA06F5F240554088
:10163000F3415A40B340F3405A408018594107D310
:1016400049085FEA30005FEA350528BF45F001052B
:1016500001F58011420875F1004250F1000041EBA4
:101660000451F0BC4FF4001C1CEB410F38BF704715
:101670000020090D090570471CEB410F10D252EAFA
:1016800043060BD0BCEB410F05D80C0DAB43661ED7
:10169000342EB5DD02E0AB4380185941F0BC7047F1
:1016A000F0BC704780B5DFF8B8060078012869D033
:1016B000DFF8B0060078002818D100F02DFC4FF4B8
:1016C000967000F067FCDFF8A006DFF8A01608604F
:1016D000DFF89806006800F051FD0120DFF884165D
:1016E00008700120DFF8781608704BE0DFF8740608
:1016F0000078022818D100F018FC4FF4967000F022
:1017000049FCDFF86C06DFF864160860DFF85C0659
:10171000006800F033FD0320DFF848160870012050
:10172000DFF83C1608702DE0DFF838060078042852
:1017300018D100F005FC4FF4967000F02BFCDFF898
:101740003406DFF828160860DFF82006006800F08D
:1017500015FD0520DFF80C1608700120DFF80016D3
:1017600008700FE0DFF8FC05007806280AD1002099
:10177000DFF8F015087000F0B4FFDFF8FC05008812
:1017800000F068FA01BD00B583B0DFF8D405007839
:1017900000286ED0DFF8CC050078012804D0DFF8EF
:1017A000C4050078022839D100F002FCDFF8CC151E
:1017B0000968411A1822B1FBF2F1DFF8C425116063
:1017C000DFF8B8150860DFF8AC0500F0F4F9DFF8D1
:1017D000B415086000F05AF9DFF8AC05006801F0B4
:1017E00065F8C0B20190DFF8A40500880090DFF82A
:1017F00088050388DFF898050268DFF89815DFF898
:10180000980501F075F8010089B2DFF88C0500F049
:1018100003FF0020DFF8481508702AE0DFF84405D0
:101820000078032804D0DFF83C05007804280BD1A9
:10183000DFF8340500F0BFF9DFF83C150860002040
:10184000DFF81C15087014E0DFF81805007805288B
:1018500004D0DFF81005007806280AD1DFF810055B
:1018600000F0A9F9DFF8341508600020DFF8F01463
:10187000087007BD00B583B00020ADF8040000205B
:10188000ADF802000020ADF8000000F0A9FFDFF87D
:10189000100501F047F800F0BDFD0120DFF8041548
:1018A000087000F082F84FF4C87001F0BBF800F047
:1018B00018FFDFF8C404008800F0CCF900F02CFB1E
:1018C000642001F0AFF800F055F8002801D10020A5
:1018D0004FE001A800F0B7F8002801D1002048E04F
:1018E000BDF90410DFF8C00401F01CF800F01DFB86
:1018F000642001F097F80DF1020000F0A4F8002830
:1019000001D1002035E0BDF90210DFF8A00401F09C
:1019100009F800F015FB642001F084F8684600F037
:1019200092F8002801D1002023E0BDF90010DFF873
:10193000800400F0F7FFBDF80400DFF87814088099
:10194000BDF80200DFF870140880BDF80000DFF871
:101950006C140880BDF90020BDF90210BDF9040027
:1019600000F0AFF900F03CFFDFF8540400F0DAFFBC
:1019700001200EBD80B500F0B0F80090BDF8000069
:10198000052805DADFF83C0400F0CCFF00200BE06E
:10199000DFF8F403006800F089FFC0B20100DFF84F
:1019A000280400F0BFFF012002BD38B5DFF81C4459
:1019B00000254FF4967001F035F8200000F04BFD43
:1019C000C82001F02FF80BE05FF07E50210001F0FD
:1019D0003FF80400200000F03EFDC82001F022F88E
:1019E0002000DFF8EC1301F075F820D200F075F854
:1019F0000090BDF80000C92800DB0125EDB2012DE3
:101A0000E2D1BDF800000528DEDADFF8C8032100C6
:101A100001F01EF8DFF8C0130860DFF8BC030168AE
:101A2000DFF8B80301F014F8DFF8B4130860DFF84A
:101A3000A803006801F060F802000B00DFF8A403BF
:101A400000F070FF31BD30B5A1B00400002506E004
:101A5000BDF8020001A9EDB221F815006D1CEDB230
:101A6000402D0BDA00F039F80090BDF800000A288C
:101A7000EEDAD44800F056FF002005E0402101A82E
:101A800001F0EEF82080012021B030BD80B5BA48C9
:101A90004088C8490988401A00B2002801D510F5CD
:101AA0006160BE494988C44A1288891A09B200296E
:101AB00001D511F56161B34A5288C04B1B88D21A17
:101AC00012B2002A01D512F5616212B209B200B257
:101AD00001F058F9AE49086001BD30B585B000206D
:101AE000A049087000209E490870BF480068009017
:101AF000BE4800680190BE480068029000240020A3
:101B0000002520E0984800F039FBBA48007800280A
:101B1000FBD0954801F048F80190B74801F044F82F
:101B20000290BDF80600BDF80A10401A00B2002865
:101B300001D510F56160BDF804100C1903A9EDB2D0
:101B400021F815006D1CEDB2032DDBDB0320B4FB87
:101B5000F0F0ADF80000032103A801F081F8ADF822
:101B60000200BDF802408848006800F09FFE0200B5
:101B7000D2B2BDF800108548008801F0BFF8001906
:101B8000ADF80200BDF90200002806D5BDF802003C
:101B900010F56160ADF802000AE0BDF90200B0F591
:101BA000616F05DDBDF80200B0F56160ADF80200BF
:101BB000009805B030BD10B584B004008F480068AF
:101BC00000908F48006801908E48006802900020C5
:101BD000200000F0E9FF0190A01C00F0E5FF02905A
:101BE000BDF80600BDF80A10401A00B2002801D561
:101BF00010F56160ADF80200BDF80400ADF800001A
:101C0000BDF802406048006800F050FE0200D2B209
:101C1000BDF800105D48008801F070F80019ADF8BB
:101C20000200BDF90200002806D5BDF8020010F53B
:101C30006160ADF802000AE0BDF90200B0F5616F25
:101C400005DDBDF80200B0F56160ADF80200009856
:101C500004B010BD10B504006B4801686B4801F07A
:101C600035FA5F49096800F0F3FE5B49096801F045
:101C700099FA01D858480068A4B240F699018C42FC
:101C800018DB6348006863490968884211D23E48FE
:101C9000006800F031FF00225F4BFFF78FFC01F07E
:101CA00093FA00F0D8FB5B48006810F5FA705849C9
:101CB000086005E0A4B2B4F5FA6F01DA00F0CBFBDE
:101CC00010BDF8B504000D001600544F01F0DFFA06
:101CD000380001F0F0FA41F23421380001F017FB2E
:101CE000210089B2B81C01F012FB290089B2381D0D
:101CF00001F00DFB310089B2B81D01F008FB364838
:101D0000006800F0D3FD010089B217F1080001F06E
:101D1000FEFA01F0C7FAF1BD80B54048018889B2EA
:101D200041F2342291421AD14188224A118081889D
:101D3000214A1180C188214A1180008980B2B0F106
:101D4000320165290BD280B201F046FB22490860BE
:101D500021480168214800F07BFE2149086001BD4F
:101D60002118002020180020F80B00200C1800205B
:101D7000E00F0020C8130020F417002010180020E6
:101D800008180020FC17002000000020240000207C
:101D900000180020B0550008B0170020F8170020E8
:101DA0000C57000826000020205700083457000870
:101DB00048570008181800201A1800201C18002086
:101DC000705700089C5600085C57000800008C42C1
:101DD0000000F6420000A0C0040000200000A0C1E6
:101DE000080000207C560008A4570008A8570008E7
:101DF000AC57000822180020FA0B0020B05700084A
:101E0000B4570008B8570008F0170020398EE33E99
:101E100004180020141800200000F0BF007C000807
:101E200080B502210D4801F059FB01BD80B50221AA
:101E30000B4801F053FB01BD80B50221094801F0B8
:101E40004DFB01BD80B50221074801F047FB01BDF4
:101E500080B53321054801F041FB01BD720D00083A
:101E60003A0D0008BA0E0008A20F00087C550008C1
:101E70002DE9FC4107000E0015001C00082100227E
:101E8000E846404601F05AFB802000FB06F0B0FB1C
:101E9000F5F105FB1100802101FB07F1802202FB17
:101EA00006F2B2FBF5F25118B1F500712A0A8DF86D
:101EB00000202A008DF801200A0C12F003028DF890
:101EC00002200A0A8DF803208DF80410290B11F066
:101ED000F001020C12F00F0251188DF80510010AE2
:101EE0008DF806108DF80700082269462000C0B260
:101EF00001F009FBBDE8F38170B5040015001E0078
:101F00001A2332002000FFF7B3FF222332002900FA
:101F10002000FFF7ADFF70BD80B540F2E243012223
:101F200000211A20FFF7E8FF01BD80B540F2E2432F
:101F300040F221324FF448711E20FFF7DDFF01BD52
:101F400080B540F2E24340F2B1424FF496611E2068
:101F5000FFF7D2FF01BD80B5FFF768FFFFF76CFF09
:101F6000FFF776FFFFF76EFFFFF75AFF01BD000096
:101F70001148006850F080700F49086000200F4938
:101F800008600F48006850F001000D490860704774
:101F9000081A704738B509490C68182101FB00F58B
:101FA000064801682000FFF7F3FFA842F8D331BDCF
:101FB0000248006870470000FCED00E0041000E0FB
:101FC000001000E0012110F01F029140804A40B251
:101FD000400942F82010704740B2002808D5090196
:101FE0007C4A40B210F00F00801800F8041C03E097
:101FF0000901794A40B28154704780B500F005F874
:1020000000F036F800F081F801BD00B587B001217D
:102010004FF4006001F0F9FB704801F07DFC03A86B
:1020200001F008FE684601F0F9FD0020ADF800005F
:1020300040F2DF10ADF804000020ADF806000020EB
:10204000ADF802006946654801F055FD6020ADF825
:102050000C000020ADF80E00F020ADF812000220B8
:10206000ADF8140003A95D4801F08EFD07B000BD76
:1020700000B585B0002001F051FB012140F20120A4
:1020800001F0C3FB564801F015FE684601F065FEFD
:102090000020009001208DF8040000208DF805003C
:1020A000002002900020039002208DF81000694665
:1020B0004B4801F02DFE042301220621484801F07F
:1020C0009EFE042302220721454801F098FE0121CB
:1020D000434801F0F6FE0121414801F058FE01217C
:1020E0003F4801F047FE3E4801F05EFE3C4801F0EB
:1020F00060FE0028FAD13A4801F065FE384801F048
:1021000067FE0028FAD105B000BD00B58BB00121F3
:10211000012001F06AFB334801F0FAFE32480090DA
:1021200032480190002002904FF4FA700390002092
:102130000490802005904FF4807006904FF48060EA
:102140000790002008904FF44050099000200A901A
:102150006946244801F061FF0121224801F07BFF1C
:10216000012202211F4801F084FF0F210B20FFF7FD
:1021700033FF0B20FFF726FF0BB000BD10B50400A6
:102180000021164801F067FD0021154801F0F2FD1D
:102190000021144801F05FFF154804604FF4FA7005
:1021A00014490860042001F081FF022001F07EFF45
:1021B00001210C4801F04FFF00200F490870012158
:1021C000074801F0D7FD0121044801F044FD10BD8E
:1021D00000E100E018ED00E000E400E0002C014028
:1021E00000240140080002404C240140F80B00206C
:1021F000140002400C00024022180020012110F0BF
:102200001F029140DFF8242640B2400942F8201016
:10221000704740B2002809D50901DFF8142640B202
:1022200010F00F00801800F8041C04E00901DFF82A
:10223000042640B28154704780B5411EB1F1807FC1
:1022400001D3012011E0401EDFF8EC1508600F21DA
:102250005FF0FF30FFF7DDFF0020DFF8E0150860DA
:102260000720DFF8DC150860002002BD00B585B04E
:1022700000F01DF9684601F05AFA00984FF47A719F
:10228000B0FBF1F0FFF7D8FF002800D0FEE7FFF722
:102290006FFE00F081F800F006F800F03CF900F065
:1022A00091F905B000BD80B501211C2001F0ADFA07
:1022B0000121DFF8900501F092FF4FF48040ADF866
:1022C000000002208DF8020010208DF803006946FE
:1022D000DFF8740501F012FF4FF48041DFF8680564
:1022E00001F07AFF4FF48070ADF800006946DFF826
:1022F0005C0501F003FF4FF48071DFF8500501F039
:1023000068FF0421DFF8440501F063FF0420ADF805
:1023100000006946DFF8340501F0F0FE0421DFF823
:102320002C0501F056FF4FF40040ADF8000069465F
:10233000DFF81C0501F0E2FE4FF40041DFF8100564
:1023400001F04AFF4FF48050ADF800006946DFF815
:10235000F80401F0D3FE4FF48051DFF8EC0401F0F3
:102360003BFFC820ADF8000003208DF802000020DC
:102370008DF803006946DFF8D40401F0BFFE4FF486
:102380000040ADF8000028208DF803006946DFF812
:10239000BC0401F0B3FE01BD00B585B001215FF0C2
:1023A000005001F042FA0121052001F02EFA302000
:1023B000ADF8000000208DF8030003208DF8020026
:1023C0006946DFF8880401F099FE01A801F063FF77
:1023D00000200190002002900020049001A900201C
:1023E00001F042FF01A9102001F03EFF0121002071
:1023F00001F05AFF40F2C961002001F06BFF01219A
:10240000102001F051FF40F2DA71002001F070FF5E
:1024100005B000BDDFF83C04006830F00400DFF8D0
:10242000341408607047DFF82C04006850F0040092
:10243000DFF820140860704780B540F23461002056
:1024400001F056FF142000F0EDFA40F27F61002009
:1024500001F04EFF01BD10B504002000DFF8F813B5
:1024600000F0A0FE01D8DFF8F4430021DFF8F0030C
:10247000210001F04DFFDFF8EC1300F027FEDFF83C
:10248000E81300F0E5FA0100DFF8E00300F01EFEBB
:10249000DFF8DC1301F0B0FF00F008FA010089B2A8
:1024A000002001F025FFDFF8CC03046010BD80B5EB
:1024B00001F078F85FF4803001F0A8F801F0D0F86E
:1024C000C0B2012826D1102000F0D1FE022000F079
:1024D000C3FE002001F006F9002001F015F90020EC
:1024E00001F009F90021002001F0E4F800215FF477
:1024F000803001F0D1F8012001F0D8F8392001F046
:10250000C4F90028FAD0022001F0DEF801F0E5F865
:102510000828FBD101BD00B585B0012144F20800B7
:1025200001F073F90121012001F06FF98020ADF86D
:10253000000003208DF8020004208DF80300694696
:10254000C14801F0DBFD4020ADF8000002208DF80D
:10255000020018208DF803006946BB4801F0CEFD4B
:102560000121042001F03BFE5FF47A30019000204D
:10257000ADF808000020ADF80A000020ADF80C000E
:102580000020ADF810000C20ADF80E00012240F242
:102590002551B94802F01CF80A212520FFF739FE21
:1025A0002520FFF72BFE01A9B34801F0A3FF01226C
:1025B0008021B14802F035F80121AF4801F0FAFF5F
:1025C00005B000BD00B58BB00121012001F00DF96F
:1025D000AA4801F09DFCAA4800900020019010201C
:1025E000029080200390002004908020059000201D
:1025F000069000200790002008904FF4805009902A
:1026000000200A9069469D4801F007FD01219B4882
:1026100001F021FD0BB000BD38B504000D00002114
:10262000964801F018FD97480460ADB296480560E1
:102630000121924801F00FFD31BD00B585B00020A9
:1026400001F06CF8012140F2012001F0DEF88F4822
:1026500001F030FB684601F080FB00200090002074
:102660008DF8040000208DF805005FF460200290D2
:102670000020039001208DF810006946834801F086
:1026800047FB0021814801F082FB01217F4801F0D6
:1026900071FB7E4801F088FB7C4801F08AFB002832
:1026A000FAD17A4801F08FFB784801F091FB0028BD
:1026B000FAD105B000BD80B5042301220100C9B2E2
:1026C000724801F09CFB0121704801F08BFB022154
:1026D0006E4801F011FC0028F9D06C4801F0FEFBB7
:1026E00002BD80B5FFF7A9FF0820FFF7E4FF6849A6
:1026F00008806748008800F003F8FFF77EFC01BD02
:1027000070B50400634DA4B2200000F065FE62497C
:1027100000F0DCFC290000F09BF90500A4B22000C9
:1027200000F05AFE5D4900F0D1FC0600A4B2200082
:1027300000F052FE310000F0C9FC290000F088F9D9
:1027400005005748056070BD00B585B001215FF4F4
:10275000800001F06AF80121082001F056F84FF4DA
:102760004060ADF8000003208DF802001C208DF8B9
:1027700003006946344801F0C1FC4A4801F0AAFF51
:1027800001A802F02BF80020ADF808004BF6FF700E
:10279000ADF80A000020ADF80C004FF48060ADF8F1
:1027A0000E004FF48040ADF810003F480190012129
:1027B0003C4802F023F801A93A4801F0A5FF5FF474
:1027C0000031384802F074F8002807D0012135485C
:1027D00002F04CF80021334802F048F805B000BD83
:1027E00010B5002410E04FF48041174801F0F1FCCF
:1027F000FA20FFF7CFFB4FF48041134801F0ECFCC7
:10280000FA20FFF7C7FB641CA4B2B4F5167FEADB1D
:1028100010BD80B54FF400410C4801F0CFFC0128F9
:1028200001D1012000E0002002BD000000E100E035
:1028300018ED00E000E400E014E000E018E000E043
:1028400010E000E000023000000C014000080140F0
:10285000001001400C0801400100EE420000EE4271
:102860001498B142F9171D3C5C8FA23F00F07F45E0
:102870003D0A57400000002000380140440002405B
:10288000043801405000024048000240002401404A
:10289000240000209EAF8542FB40F2BCAF670E369D
:1028A000F017002000580040801A06004100090E71
:1028B0007F3915D4D1F11F0114D4400007D2C001D3
:1028C00040F00040C84048BF6FF000407047C00172
:1028D00040F00040C8404CBF4FF0004040427047BD
:1028E0000020704700424FF0004058BFC04370477F
:1028F0000CB41CB5044604A801900A46009401AB30
:102900006946074878441830FDF70AFC009A002110
:10291000117000285CBF0098001B16BC5DF80CFB12
:10292000FBE3FFFF0EB400B582B003A9009102469D
:102930006B460121034878440A30FDF7F1FB06BCE1
:102940005DF810FBB12D000080B5FFF78FFC00F0A3
:10295000FBF8FFF7E1F9142000F064F8FFF7F4FE4C
:10296000C82000F05FF8FFF755FDFFF746FBFFF7C3
:1029700063FD322000F056F8FFF7EDFA642000F016
:1029800051F8FFF7C9FA2348FFF7CCFF2248007837
:10299000012803D1FEF786FEFEF7F5FE1F480078FA
:1029A000012804D1FEF766FF00201C490870FFF7DC
:1029B00030FF0028EAD0012018490870E6E780B50A
:1029C000C0B2432810D013D3452801D006D30FE05E
:1029D000FFF720FD01201049087009E0FFF723FDF3
:1029E00000200D49087003E001200C490870FFE742
:1029F00001BD10B504002100C9B289B2084801F038
:102A00001CFE8021064801F020FE0028F9D020009D
:102A100010BD00009C570008260000201F18002051
:102A20000038014010B586B0040001A800F07FFE18
:102A3000029842F21071B0FBF1F06043009002E0A6
:102A40000098401E009000980028F9D106B010BDF3
:102A500090EA010F44BF81F0004101F061BC00BF6A
:102A6000421A3CBF801A89184FF0004CC0F3C7527D
:102A7000FF2A24D0C1F3C75313B3D21AD2F11903DA
:102A800027DD4CEA01214CFA03F321EA0303D1408C
:102A9000C20D4CEA0020401834BF20EA0C004CEA7A
:102AA0005000D20553EA006373EB0C0C52EB10207C
:102AB000420012F1807F38BF7047C00DC0057047DB
:102AC000490212BF9A4200EB5120F8E7D2F11703F6
:102AD000D9D570474FF0807C1CEB400F94BF1CEBA6
:102AE000410F05E040EA010C5FEA4C0C01D288423C
:102AF000704718BF814270475FF0FF0C1CEAD0514D
:102B000014BF614506E0C110400721F0E04101F12A
:102B10006051704779B900F0004100020AD0B0FA64
:102B200080FC00FA0CF001F16051A1EB0C5101EBBB
:102B3000D0214005704741020CBF40F4E0016FF026
:102B4000000100207047000010B5002428E0A4B266
:102B50002000FEF75BFC784A784BFEF723FA01F081
:102B6000C8FE0022764BFEF71DFAFEF719FC7549E8
:102B7000A4B241F82400A4B22000FEF747FC6E4A3C
:102B80006E4BFEF70FFA01F0B7FE00226C4BFEF71A
:102B900009FAFEF705FC6C49A4B241F82400641C54
:102BA000A4B2FA2CD3DB10BD38B5002400210022DA
:102BB00012E0644B92B253F8223092B230F82250B5
:102BC00005FB0344604B92B253F8223092B230F8C6
:102BD000225005FB0311521C92B2FA2AE9DB7D2038
:102BE00094FBF0F47D2091FBF0F1080000F0EAFB8B
:102BF00001000D00200000F0E5FB290000F001F8C5
:102C000032BD70B582B004000D002800290000F02C
:102C10005DFA06002000210000F058FA3100FFF7AD
:102C200017FF01F06DFE5FF0894101F0E5FBFFF752
:102C30003DFEADF800002100280001F09AFE434956
:102C400000F044FAFFF758FF414A424BFEF77CFA86
:102C500000F0BAFAFFF72AFEADF80200009876BD40
:102C600070B400240022002309E09BB230F9135015
:102C7000963D40F6E546B54200D301245B1C9BB26D
:102C800089B28B42F1D3E4B2002C10D1002304E0CE
:102C90009BB230F91340A2185B1C9BB289B28B42E5
:102CA000F6D389B292FBF1F2100000B224E00023C7
:102CB00006E09BB230F91340D4F5E164A2185B1C26
:102CC0009BB289B28B420CD29BB230F91340B4F55F
:102CD000E16FEEDD41F218549BB230F91350641BE2
:102CE000ECE789B292FBF1F2D2F5E162002A01D55C
:102CF00012F56162100000B270BC704710B5164842
:102D00000168164800F0E2F904001348016814480D
:102D100000F0DCF91049096800F0D8F92100FFF74C
:102D200097FE040094F000440E48210000F0CEF914
:102D3000FFF7BCFD00B210BD03799A762F1BE43F6C
:102D40000000904028040020100800200000E1440A
:102D500044174154FB210940F0170020DF6B683E07
:102D6000EB45A3BB0000204100B2962801DA012008
:102D700007E000B240F67B51884201DB012000E011
:102D8000002070477CB505000C00160000202800CC
:102D900000B2FFF7E9FF002851D0200000B2FFF792
:102DA000E3FF00284BD0300000B2FFF7DDFF002822
:102DB00045D02DB2B5F5E16F08DA00224EF29C61E4
:102DC000280000B200F034F9050008E05FF0FF329F
:102DD0004EF29C61280000B200F02AF9050024B2EE
:102DE000B4F5E16F08DA00224CF2AF31200000B2F6
:102DF00000F01EF9040008E05FF0FF324CF2AF3142
:102E0000200000B200F014F9040036B2B6F5E16F0C
:102E100007DA00224CF2AA11300000B200F008F9E3
:102E200007E05FF0FF324CF2AA11300000B200F070
:102E3000FFF861194018C02190FBF1F024E04CF23A
:102E4000AA134CF2AF32310009B2200000B200F0F8
:102E5000C9F84EF29C6190FBF1F0C01E00B2002850
:102E600000D50020811D09B2019100B200904CF202
:102E7000AF334EF29C62210009B2280000B200F08C
:102E800004F8402190FBF1F076BD2DE9F24F92B0AD
:102E900093461C0000250026BDF97470391DADF85D
:102EA0000010DFF81881BDF970904A4612B25946F9
:102EB00000B200F0BDF85FF0000A08E001A90FFAC7
:102EC0008AFA41F82A001BEB00001AF1010A0FFAF6
:102ED0008AFABAF1060FF1DB4A4612B22100BDF9B7
:102EE000480000F0A5F85FF0000B07E007A90FFA13
:102EF0008BFB41F82B0020181BF1010B0FFA8BFB09
:102F0000BBF10A0FF2DBCA462DE001A80FFA8AFADC
:102F10000FFA89F9BAEB090150F8210007A90FFA55
:102F20008BFB0FFA89F9BBEB090251F82210401A0A
:102F300001F084FD404502DA804655465E461BF1AD
:102F4000010BBDF900000FFA8BFB834509DA4A46F5
:102F500012B2594609B2504600B200F031F80028CA
:102F6000D3D11AF1010A0FFA8AFA3FB2BA4501DA4F
:102F7000CB46E6E74A4612B2310009B2280000B259
:102F800000F01EF8002802D15FF0FF3013E001A826
:102F90002DB20FFA89F9B5EB090150F8210007A904
:102FA00036B20FFA89F9B6EB090251F82210081867
:102FB000022190FBF1F013B0BDE8F08F40420F000A
:102FC000801A891A00B2002808D409B2002905D451
:102FD00000B2062802DA09B20A2901DB002000E06B
:102FE000012070472DE9F04104000D0016001F007C
:102FF0003B003200290009B2200000B200F045F881
:1030000080463B003200290009B2200000B200F0E7
:103010004AF8010009B2404600B200F013F802007D
:1030200012B23100200000B200F002F8BDE8F081D9
:1030300012B200B248434FF4616390FBF3F002FB1D
:103040000100704700B209B2884201D100B21BE012
:1030500009B2292901DB00B216E000B2002802D52E
:10306000080000B210E009B2002901D500B20BE05F
:1030700000B2002802D1080000B205E009B2002920
:1030800001D100B200E000B2704709B201FB03F1C8
:1030900000B200FB1210D11A4FF46162514390FB51
:1030A000F1F000B2704709B201FB03F100B200FB7E
:1030B00012104FF4616101FB0300D11A4FF46162F9
:1030C000514390FBF1F000B270470000FF2212EA7A
:1030D000D05C1DBF12EAD153944593422BE09C442F
:1030E000D30780EA01021A4043EA002043EA0121A3
:1030F000A1FB0030410038BF40007CF17F010BDBB9
:10310000FE294ADA5B0842EAC15153EA006373F1CF
:10311000004C51EB10207047D1F1080CDCF120017C
:103120002FDB5B0810FA01F10B4373F1004120FA29
:103130000CF05041704794451CBF02EAD1539342B2
:1031400080EA010202F000421DD0400019D049007F
:1031500017D05BB9634514D00902B1FA81F39940E5
:10316000BCEB030CC00140F00040C1E70002B0FA24
:1031700080FC10FA0CF0B3EB0C0CC90141F00041DB
:10318000B6E71000704740000AD0490008D010F19F
:10319000807F94BF11F1807F02E042F0FF407047D2
:1031A000D04370474FF0807C1CEB400F94BF1CEB6A
:1031B000410F05E040EA010C5FEA4C0C01D281426C
:1031C000704718BF884270474FEAF17CBCF1E04C71
:1031D0002CBFBCF5001F11E05FEA4C0C34BFBCF102
:1031E0007F5F2EE05FEA9C0C4FEA0C1C4FEA3C0C20
:1031F000C10071F100414CEB50707047C90241EAC7
:103200005051C00218BF41F0010141F000414FEAA6
:103210006C50C0F10900212810D240EACC7CCCF1DE
:10322000200C11FA0CF070F10040CCF1200C21FAC6
:103230000CF00CF0004C40EB0C0070474FEACC70E7
:103240007047490011F5001F04D84FEACC10FF3039
:10325000C0057047C81770470021DFF824110968BE
:1032600011F038010143DFF8180101607047DFF801
:103270001011096831F01001DFF804211160DFF846
:10328000001109680843DFF8F81008607047DFF89C
:10329000F400DFF8F4100860DFF8F000DFF8E81061
:1032A00008607047DFF8E800006850F08000DFF841
:1032B000E0100860704710B5040004205FF430206F
:1032C00000F06CF8C0B204281FD1DFF8C400006819
:1032D00050F00200DFF8B8100860DFF8B8000460B2
:1032E000DFF8AC00006850F04000DFF8A410086080
:1032F0005FF4302000F052F8DFF89410096841F6CE
:10330000FD721140DFF888201160C0B210BD38B5E1
:1033100004000D0004204FF4005000F03FF8C0B24C
:10332000042815D1DFF86800006850F00100DFF8CC
:103330006010086025804FF4005000F02FF8DFF88F
:103340005010096841F6FE721140DFF84420116008
:10335000C0B232BD042010480068C00701D501206A
:103360000CE00D480068400701D5022006E00A483D
:103370000068C00601D5032000E00420C0B27047F9
:10338000002002402301674504200240AB89EFCDB5
:1033900010200240142002400C20024010B504000E
:1033A0000420FFF7D7FF02E0FFF7D4FF641EC0B28E
:1033B000012801D1002CF7D1002C00D10520C0B28A
:1033C00010BD0000002840F10980F446404200F0A2
:1033D00005F850F000406047002800BF0AD0B0FA5E
:1033E00080F18840D1F19D01C905020672F10042C9
:1033F00041EB10207047000070B504000D0001F093
:1034000085FB06002900200001F03DFA002804D1C8
:1034100001F07CFB801B0528F4D301F077FB801BB7
:10342000052802D3012027490870012070BD80B50E
:103430000100C9B2244801F00BFA24492248FFF7E1
:10344000DBFF0028F9D001BD80B501211E4801F045
:10345000F1F901BD70B504000D0000201949087094
:1034600001F054FB06005FF40031174801F020FA28
:10347000002804D001F04AFB801B0528F3D301216A
:10348000114801F0C9F912490F48FFF7B5FF0028AC
:10349000F9D02200D2B22900C9B20B4801F0DBF901
:1034A000E4B2002C06D10B490748FFF7A5FF00281E
:1034B00006D1F8E708490448FFF79EFF0028F9D035
:1034C00070BD00001E180020005800408400070056
:1034D00001000300820007000200030070B5040031
:1034E0000D00C0210020FFF7B5FF002604E0B6B2B2
:1034F000305DFFF79CFF761CB6B2ADB2AE42F6D39C
:10350000FFF7A2FF70BD70B504000D001600C021CA
:103510000020FFF79FFF2000C0B2FFF788FF0024C4
:1035200004E0A4B2605DFFF782FF641CA4B2B6B2EF
:10353000B442F6D3FFF788FF70BD000062F30F229C
:1035400062F31F42401810F0030308D0C91A1FD3BA
:10355000DB0748BF00F8012D28BF20F8022D13001B
:1035600030B414461546103928BF20E93C00FAD87B
:10357000490728BF20E90C0048BF40F8042D890006
:1035800028BF20F8022D48BF00F8012D30BC70473D
:10359000C91818BF00F8012DCB0728BF00F8012D6E
:1035A00070470000DFF82003006850F00100DFF8EA
:1035B00018130860DFF814030068DFF814130840DC
:1035C000DFF808130860DFF800030068DFF8041371
:1035D0000840DFF8F4120860DFF8EC02006830F40D
:1035E0008020DFF8E4120860DFF8E002006830F4C1
:1035F000FE00DFF8D81208605FF41F00DFF8D81271
:1036000008600020DFF8D41208607047DFF8B812B5
:10361000096831F48031DFF8B0221160DFF8A812B8
:10362000096831F48021DFF8A0221160B0F5803FF5
:1036300003D0B0F5802F09D011E0DFF88C020068CC
:1036400050F48030DFF88012086008E0DFF878027C
:10365000006850F4A020DFF870120860FFE77047A0
:1036600080B50020009000200020312000F00DF9EE
:103670000099491C00910099B1F5A06F02D0C0B229
:103680000028F2D0312000F000F9002801D00120FC
:1036900000E00020C0B202BD00228C4A126832F461
:1036A000741208430243894802607047C0B28C49D3
:1036B000086070470022894A12688A4B1A40084302
:1036C00002438648026070470021804909688908E2
:1036D000890001437D48016070477C48006810F014
:1036E0000C00704700217949096831F0F00101436D
:1036F00076480160704700217449096831F4E0613F
:10370000014372480160704700217049096831F433
:10371000605151EAC0016D480160704700216B495A
:10372000096831F440410143684801607047002155
:1037300000210022002100226449096811F00C01D7
:10374000002904D0042905D0082906D021E06749C2
:10375000016020E0664901601DE05C49096811F4E0
:1037600070115A4A126812F48032890C891C002A9E
:1037700003D1604A514301600AE0584A126812F0CE
:103780000F02521C5A4BB3FBF2F201FB02F1016033
:1037900001E0564901604D49096811F0F00109093D
:1037A000554A895C0268CA4042604849096811F478
:1037B000E061090A504A895C4268CA408260434914
:1037C000096811F46051C90A4B4A895C4268CA40D1
:1037D000C2603E49096811F44041890B474A895C3F
:1037E000C268B2FBF1F101617047C9B2002905D08E
:1037F0004349096808434249086005E040490968AF
:1038000031EA00003E4908607047C9B2002905D07E
:103810003C49096808433B49086005E039490968A3
:1038200031EA0000374908607047C9B2002905D065
:103830003549096808433449086005E03249096898
:1038400031EA0000304908607047C9B2002905D04C
:103850002E49096808432D49086005E02B4909688D
:1038600031EA0000294908607047C9B2002905D033
:103870002749096808432649086005E02449096882
:1038800031EA00002249086070470021002200212F
:103890000100C9B24909C9B2012902D10A490A681D
:1038A00006E0022902D110490A6801E019490A68B4
:1038B000C0B210F01F01CA40D00701D5012100E0BD
:1038C00000210800C0B270470010024004100240FE
:1038D0000000FFF8FFFFF6FE081002402C10024027
:1038E00060004242F0FFFEFF2010024000127A000A
:1038F000001BB70000093D000C0000201C00002048
:1039000014100240181002401C1002400C1002401B
:10391000101002402410024080B5DFF8581388428E
:103920000AD101214FF40060FFF78FFF00214FF40F
:103930000060FFF78AFFDDE0B0F1804F08D1012180
:103940000120FFF792FF00210120FFF78EFFD1E059
:10395000DFF82413884208D101210220FFF785FFF8
:1039600000210220FFF781FFC4E0DFF81013884236
:1039700008D101210420FFF778FF00210420FFF780
:1039800074FFB7E0DFF8F812884208D1012108205F
:10399000FFF76BFF00210820FFF767FFAAE0DFF8C1
:1039A000E412884208D101211020FFF75EFF0021B8
:1039B0001020FFF75AFF9DE0DFF8CC12884208D1B3
:1039C00001212020FFF751FF00212020FFF74DFFAC
:1039D00090E0DFF8B81288420AD101214FF400507C
:1039E000FFF733FF00214FF40050FFF72EFF81E077
:1039F000DFF89C1288420AD101215FF40020FFF712
:103A000024FF00215FF40020FFF71FFF72E0DFF8C2
:103A1000841288420AD101215FF48010FFF715FF5C
:103A200000215FF48010FFF710FF63E0DFF86812F9
:103A300088420AD101215FF40010FFF706FF002140
:103A40005FF40010FFF701FF54E0DFF850128842E6
:103A500008D101214020FFF708FF00214020FFF797
:103A600004FF47E0DFF83812884208D101218020A6
:103A7000FFF7FBFE00218020FFF7F7FE3AE0DFF8BA
:103A8000241288420AD101214FF48070FFF7EDFE25
:103A900000214FF48070FFF7E8FE2BE0DFF80812FA
:103AA00088420AD101215FF48030FFF7CEFE002169
:103AB0005FF48030FFF7C9FE1CE0DFF8F0118842A8
:103AC0000AD101215FF40030FFF7BFFE00215FF44F
:103AD0000030FFF7BAFE0DE0DFF8D411884209D1BB
:103AE00001215FF48020FFF7B0FE00215FF4802009
:103AF000FFF7ABFE01BD00220288DFF87831984263
:103B000012D0DFF8883198420ED0B0F1804F0BD040
:103B1000DFF86431984207D0DFF86031984203D073
:103B2000DFF85C31984204D14FF68F731A404B880E
:103B30001A43DFF85031984208D0DFF84C319842F0
:103B400004D04FF6FF431A40CB881A4302808A887C
:103B500082850A880285DFF81C2190420FD0DFF8A9
:103B60002C2190420BD0DFF84021904207D0DFF8A3
:103B70003C21904203D0DFF83821904201D1097AEC
:103B8000018601218182704730B400230024002285
:103B9000028C4FF6FE731A400284048C8288038BD9
:103BA0004FF68F752B404FF6FC752B400D882B433D
:103BB0004FF6FD752C400D892C434D882C43DFF8C2
:103BC000B450A8420FD0DFF8C450A8420BD0DFF8A1
:103BD000D850A84207D0DFF8D450A84203D0DFF86D
:103BE000D050A84213D14FF6F7752C404D892C4385
:103BF0004FF6FB752C408D882C434FF6FF652A400D
:103C00004FF6FF552A408D892A43CD892A43828069
:103C10000383C9888186048430BC70474FF6FF71E6
:103C20008180002101800021C1800021418000218C
:103C300001727047002101800021418000218180B4
:103C40000021C18000210181002141810021818169
:103C50000021C1817047C9B2002904D0018851F008
:103C60000101018004E001884FF6FE7211400180DD
:103C700070470000002C0140000400400008004094
:103C8000000C0040001000400014004000340140CF
:103C9000004C014000500140005401400018004019
:103CA000001C004000200040004001400044014052
:103CB0000048014080B5DFF82C1288420AD101216A
:103CC0004FF40070FFF7C1FD00214FF40070FFF7C3
:103CD000BCFD1CE0DFF8101288420AD101214FF42C
:103CE0008060FFF7B2FD00214FF48060FFF7ADFD6B
:103CF0000DE0DFF8F811884209D101214FF40040AE
:103D0000FFF7A3FD00214FF40040FFF79EFD01BD2A
:103D100030B4002200234268DFF8D44122400C680E
:103D20000D7954EA0524224342608268DFF8C441D9
:103D30002240CC688D682C434D7954EA45042243D7
:103D40008260C26A32F47002097C491E0B43DBB206
:103D500052EA0352C26230BC704700210160002168
:103D6000017100214171002181600021C1600121A8
:103D700001747047C9B2002904D0816851F0010173
:103D8000816003E081684908490081607047C9B2D9
:103D9000002904D0816851F48071816003E081685A
:103DA00031F4807181607047816851F00801816051
:103DB000704700218068000701D5012100E0002143
:103DC0000800C0B27047816851F0040181607047FB
:103DD00000218068400701D5012100E00021080092
:103DE000C0B27047C9B2002904D0816851F4A00163
:103DF000816003E0816831F4A00181607047F0B414
:103E000000240025C9B20A2911DBC4680725B1F1D5
:103E10000A0603277E43B540AC43DBB2B1F10A0585
:103E20000326754313FA05F52C43C4600EE00469BC
:103E30000725032606FB01F6B540AC43DBB203259C
:103E400005FB01F513FA05F52C430461D2B2072AEC
:103E500010DA446B1F23551E0526754313FA05F52A
:103E6000AC43C9B2521E05235A4311FA02F52C4342
:103E7000446324E0D2B20D2A10DA046B1F23D51F4D
:103E80000526754313FA05F5AC43C9B2D21F0523C5
:103E90005A4311FA02F52C43046310E0C46A1F234D
:103EA000B2F10D050526754313FA05F5AC43C9B209
:103EB0000D3A05235A4311FA02F52C43C462F0BCB3
:103EC0007047C9B2002904D0816851F48011816023
:103ED00003E0816831F4801181607047C06C80B26A
:103EE000704700000024014000280140003C0140D0
:103EF000FFFEF0FFFDF7F1FF00220068C9B20842A3
:103F000001D0012200E000221000C0B27047000082
:103F100001684FF6FE72114001600021016000212E
:103F20004160002181600021C1606449884206D15E
:103F30006348006850F00F00614908606CE0614917
:103F4000884206D15E48006850F0F0005C49086085
:103F500062E05D49884206D15948006850F47060BB
:103F60005749086058E05949884206D154480068CA
:103F700050F47040524908604EE05549884206D1DD
:103F80004F48006850F470204D49086044E05149A2
:103F9000884206D14A48006850F4700048490860D9
:103FA0003AE04D49884206D14548006850F07060BB
:103FB0004349086030E04949884206D148480068D2
:103FC00050F00F004649086026E04649884206D175
:103FD0004348006850F0F000414908601CE0424945
:103FE000884206D13E48006850F470603C49086041
:103FF00012E03E49884206D13948006850F47040CA
:104000003749086008E03A49884205D134480068D9
:1040100050F4702032490860704710B400220268E2
:104020006FF30E128B680C6A23430C6923434C69AF
:1040300023438C692343CC6923434C6A23438C6A12
:1040400023431A430260CA6842600A688260496872
:10405000C16010BC7047C9B2002904D0016851F09A
:104060000101016004E001684FF6FE721140016039
:104070007047D2B2002A03D002681143016003E006
:10408000026832EA01010160704700210021C1008D
:1040900002D51849096801E017490968014201D0B1
:1040A000012100E000210800C0B27047C10002D524
:1040B0000B49086001E002490860704708000240AF
:1040C000040002401C000240300002404400024054
:1040D000580002406C000240800002400804024088
:1040E000040402401C040240300402404404024024
:1040F00058040240000402400000024070B4002254
:1041000000250023002600240025CA7812F00F02A3
:10411000CB78DB0601D58B781A430B781B0621D0B0
:104120000468002306E0CD78482D02D101259D408A
:1041300005615B1C082B14D2012515FA03F60D88C6
:104140003540B542F5D19E000F25B540AC4312FA7B
:1041500006F52C43CD78282DE5D101259D404561FC
:10416000E7E704600B88FF2B26DD4468002320E08E
:10417000012513F1080615FA06F60D883540B542FB
:1041800016D19E000F25B540AC4312FA06F52C431C
:10419000CD78282D04D1012513F10806B5404561DD
:1041A000CD78482D04D1012513F10806B5400561ED
:1041B0005B1C082BDCD3446070BC70470022806815
:1041C00089B2084201D0012200E000221000C0B2F2
:1041D000704789B20161704789B24161704730B45C
:1041E0000022002400230024002802D51C4A136862
:1041F00001E01C4A1368C0F3034482B210F4401576
:10420000B5F5401F08D133F07063164C246834F0C4
:104210007064144D2C6010E0C50206D5032515FA14
:1042200004F4A34353F0706307E0440DE4B22401A7
:1042300012FA04F4A34353F07063C9B2002905D005
:10424000410DC9B2090112FA01F10B43002802D550
:104250000348036001E00348036030BC704700007E
:104260001C0001400400014010B400220023274A32
:10427000126840F6FE7383409A430B684C682343F0
:104280008C682343C9680B4313FA00F002431F48AC
:10429000026010BC704700210160002141600021D4
:1042A00081600021C1607047C9B2002908D0174958
:1042B0000968012212FA00F008431449086008E076
:1042C00012490968012212FA00F031EA00000F4990
:1042D0000860704781B0002200920C4A0092009A58
:1042E00008308018009089B20098016001B07047D2
:1042F00081B000220092054A0092009A1430801882
:10430000009089B20098016001B0704700740040CD
:1043100090EA010F44BF81F00041FEF7A1BB00BF4E
:10432000431A4FF000423EBF5340C01AC91800BFA5
:10433000D3095FEAD05C13EB400F34BFB3EB410FFE
:1043400040E07CEBD1530CD342EA012122D8D1EBDF
:10435000402009D3400A28BF5FEA500140EBCC500F
:104360007047401A15D04002B0FA80F2521C9040BB
:10437000400A4FEA3C23B3EB026384BF00EB7300B7
:1043800007E040F400001A16DB07C2F10102D0403A
:1043900018437047182BFCDC31FA03F202FA03F3DE
:1043A000591A38BF42F00102D2EB40203CBF400016
:1043B000ACF1010C5FEACC5CC20572F100414CEB40
:1043C0005020704713EB400F0FD24B0009D0ACEBDD
:1043D000D153022B03DB4902172BDDDD70479143DC
:1043E000401A4300D5D10020704713EB410FD0D3C2
:1043F0006FF000007047000010B5FF2313EAD0549F
:104400001DBF13EAD1529C429A4239E0A41ADA073E
:1044100080EA0103134042EA012142EA0020421AE5
:104420003CBF641E01EB4202090AB2FBF1FE01FB34
:104430001E221202B2FBF1F001FB10226EF30F20DC
:104440001202B2FBF1FE4EEA00207F3406DDFE2CA4
:1044500024DA53EA500050EBC45010BDD4F10204EA
:1044600001FB1E2240F08071192C1DDC21FA04F0A2
:10447000C4F12004A140114371F10042584110BD24
:104480009C421ABF03EAD1529A420FE080EA010E21
:104490000EF00043400004D0490016D143F0FF4025
:1044A00010BD490008BFD343180010BD9C4205D180
:1044B000D21AF7D001F00041484010BD4A0212BFA5
:1044C0000846484000F0004010BD4AB90902B1FA60
:1044D00081F2914044B1A418C00140F000409EE731
:1044E000C90141F0004152420002B0FA80F4A040FC
:1044F000141B94E770B586B004000D000020002066
:10450000002100210026A88900282600208A4CF6D8
:10451000FF710840E98808432082A0894EF6F31114
:104520000840A9882A8911436A8911430843A08158
:10453000A08A4FF6FF410840A9890843A082684637
:10454000FFF7F5F81A48864201D1039800E0029877
:10455000A189090406D51921484329684900B0FBFF
:10456000F1F105E01921484329688900B0FBF1F118
:104570006420B1FBF0F000010209642303FB121177
:10458000A289120408D5C90032316422B1FBF2F1CC
:1045900011F00701084307E0090132316422B1FB41
:1045A000F2F111F00F010843208106B070BD000048
:1045B00000380140C9B2002904D0818951F400516A
:1045C000818104E081894DF6FF721140818170473D
:1045D00030B4002300240024002589B240F66A1379
:1045E000994205000800C0B24309DBB289B211F05C
:1045F0001F04012010FA04F4012B01D10C3504E052
:10460000022B01D1103500E01435D2B2002A03D0BC
:1046100028682043286002E02868A043286030BC56
:104620007047D2B2002A03D0828A1143818203E00C
:10463000828A32EA010181827047C905C90D8180F1
:1046400070478088C005C00D7047002289B2B1F55F
:10465000007F0088084201D0012200E00022100003
:10466000C0B2704789B28A0589B2C94301807047D8
:1046700010B4002200230022002289B240F66A1200
:1046800091420A00D2B25209D2B289B211F01F038C
:10469000012414FA03F3012A02D18289134006E0AF
:1046A000022A02D1028A134001E0828A134089B2B1
:1046B0000A0A92B2012111FA02F200880240002B8C
:1046C00003D0002A01D0012200E000221000C0B275
:1046D00010BC704780B53D4988420AD101215FF482
:1046E0000010FFF7C2F800215FF40010FFF7BDF8DB
:1046F00009E001215FF48000FFF7B7F800215FF4C3
:104700008000FFF7B2F801BD70B586B004000D005F
:104710000026002004212E49A6884FF6C0700640CE
:104720006846FFF704F802992A48B1FBF0F0064307
:10473000A68022884FF6FE731A40228000262A683F
:10474000254B9A420BD22A685200B1FBF2F189B292
:10475000042900DA04210E43401C208422E0EA8868
:104760004BF6FF739A4205D12A6803235A43B1FBE3
:10477000F2F106E02A6819235A43B1FBF2F151F431
:1047800080410A0501D151F0010151F400410E436D
:1047900080B24FF4967148434FF47A7190FBF1F078
:1047A000401C2084A683208850F0010020802688A9
:1047B0004FF6F5300640A8886989084306432680ED
:1047C000A88929890843208106B070BD00540040A3
:1047D00000127A0040420F00A186010041F28831A8
:1047E0000160002181804BF6FF71C18000210181B1
:1047F000002141814FF4804181817047C9B2002975
:1048000004D0018851F00101018004E001884FF6D5
:10481000FE72114001807047C9B2002904D001889E
:1048200051F48071018004E001884FF6FF6211406D
:1048300001807047C9B2002904D0018851F4007189
:10484000018004E001884FF6FF521140018070475B
:10485000C9B201827047D2B2002A02D051F00101E0
:1048600001E011F0FE01C9B201827047C9B200290E
:1048700004D0018851F40041018003E0018849041B
:10488000490C018070470022002200230022828A06
:10489000038B1B0453EA02000202120A11EA02000F
:1048A000884201D1012200E000221000C0B270470E
:1048B00082B00200002000200190002000900092B1
:1048C000080F01900902090A0198002803D00098F6
:1048D0001430009003E0090C009818300090009804
:1048E0000068084201D0012000E00020C0B202B000
:1048F0007047002200F018B9012200F015B900003D
:104900004FF40002C10D23D0FF2929D230EAC15053
:1049100010437D31490828BF001880004FF0C07354
:10492000B0F1906006D452080ED2C01A9B18D2EB98
:104930004000F8D5520806D2C0189B1AD2EB4000AE
:10494000F1D55208F8D35B1E580850EBC1507047A0
:10495000B0FA80F108398840F9D0D1F10101D8E7E7
:10496000FF29F4D0D042F2D84000F0D0C84300F084
:10497000EFBA38B50B46C3F3C751FF29024609D039
:1049800011B14FF0FF3409E058020CBF00246FF062
:10499000010403E0580214BF02240124C2F3C751EA
:1049A000FF2908D011B14FF0FF3108E0500206D0C6
:1049B0006FF0010103E0500214BF02210121012C1C
:1049C000B8BF01291CDA002A46BF82F00042082540
:1049D0000025002B44BF83F0004385F006051846F0
:1049E0001146FEF777F802D2FFF706FD1FE0002C14
:1049F00004D510461946FFF7FFFC1AE0002018E026
:104A0000022901D1104632BD022C01D1184632BD17
:104A10008C420CBF4FF07E500020002A4CBF08256E
:104A20000025002B48BF85F00605012901D185F03E
:104A300002052946BDE8344000F090BA002848BF7E
:104A4000404270477047FEE7FEE7FEE7FEE770472B
:104A5000704770472F480068401C2E490860704717
:104A600080B50220FFF711FB002821D00220FFF7BC
:104A70001DFB01202849087028480078012803D12F
:104A800002202649087024E024480078032803D136
:104A90000420224908701CE020480078052803D132
:104AA00006201E49087014E000201C49087010E020
:104AB0000420FFF7EAFA002803D00420FFF7F6FAF3
:104AC00007E00820FFF7E1FA002802D00820FFF7EE
:104AD000EDFA01BD80B540F225511148FFF7C8FD40
:104AE00000280AD040F225510D48FFF7BBFD0C48C5
:104AF000FFF7A7FDC0B2FDF762FF01BD09480088BE
:104B00004FF6FE7108400749088070470148006869
:104B100070470000141800202218002020180020E0
:104B200000380140100000402DE9F04C04460D46CD
:104B3000164683B0DFF87803DFF8781322462B4659
:104B4000FCF730FA8B4621F00041DFF86C23DFF8E8
:104B50006C33FCF70FFA074680F0F38059460022C9
:104B6000002300F075FA104694BFDFF85413DFF805
:104B700054133A465B46FCF721FDFCF711FC070095
:104B800051D0FCF739FC0022CF4BFCF70BFA8246E0
:104B90008B464FF0A040CD4952465B46FCF702FAE7
:104BA00002460B4620462946FCF73EFC04460D46CD
:104BB0004FF0C040C64952465B46FCF7F3F9024647
:104BC0000B4620462946FCF72FFC04460D464FF0C5
:104BD0000050C04952465B46FCF7E4F902460B46DA
:104BE00020462946FCF720FC04460D460020BA4921
:104BF00052465B46FCF7D6F902460B46204629464C
:104C0000FCF712FC04460D464FF00050B3495246E3
:104C10005B46FCF7C7F902460B4620462946FCF7DF
:104C200003FC04460D4607F003008619204629467A
:104C30006FF00102AA4B00F00BFA0BD800224FF0E4
:104C40007953FCF797F905D2F00740F12B81002446
:104C5000A44D27E122462B46FCF7A4F90746F007AE
:104C60008B4631D5A048A1493A465B46FCF79AF9F4
:104C70009F4AA04BFCF7A2FC3A465B46FCF792F930
:104C80009D4A9E4BFCF79AFC3A465B46FCF78AF934
:104C90009B4A9C4BFCF792FC3A465B46FCF782F938
:104CA000994A9A4BFCF78AFC3A465B46FCF77AF93C
:104CB0006FF05102964BFCF781FC3A465B46FCF7DD
:104CC00071F90022874B37E03A465B462046294679
:104CD000FCF768F9CDE900013A468E488E495B46FB
:104CE000FCF760F98D4A8E4BFCF768FC3A465B4650
:104CF000FCF758F98B4A8C4BFCF760FC3A465B4654
:104D0000FCF750F9894A8A4BFCF758FC3A465B4657
:104D1000FCF748F9874A884BFCF750FC3A465B465B
:104D2000FCF740F9854A864BFCF748FCDDE9002397
:104D3000FCF738F922462B46FCF740FC04460D46AA
:104D4000B0E0C5F30A5240F2FF739A420BD0002A3A
:104D500004BF280354EA103013D1002E00F0F28073
:104D60000024604DEEE0280354EA103040F0EA8061
:104D700000F086F9212101604FF0FF306FF0004113
:104D8000E2E0CDE90045684600F080F9DDE9004544
:104D90008619204629466FF00102514B00F058F960
:104DA0000AD800224FF07953FCF7E4F804D2F00758
:104DB00078D500244B4D75E022462B46FCF7F2F8DF
:104DC0000746F0078B4631D5474848493A465B4687
:104DD000FCF7E8F8464A474BFCF7F0FB3A465B46DF
:104DE000FCF7E0F8444A454BFCF7E8FB3A465B46E3
:104DF000FCF7D8F8424A434BFCF7E0FB3A465B46E7
:104E0000FCF7D0F8404A414BFCF7D8FB3A465B46EA
:104E1000FCF7C8F86FF051023D4BFCF7CFFB3A4668
:104E20005B46FCF7BFF800222E4B37E03A465B4664
:104E300020462946FCF7B6F8CDE900013A46354848
:104E400035495B46FCF7AEF8344A354BFCF7B6FB08
:104E50003A465B46FCF7A6F8324A334BFCF7AEFB0A
:104E60003A465B46FCF79EF8304A314BFCF7A6FB0E
:104E70003A465B46FCF796F82E4A2F4BFCF79EFB12
:104E80003A465B46FCF78EF82C4A2D4BFCF796FB16
:104E9000DDE90023FCF786F822462B46FCF78EFB63
:104EA00004460D46B0074DD585F0004120464BE045
:104EB00083C8C96D305FE43F0000A0FFFFFFDF4102
:104EC0000000E03F0000E0BF0000303EFB21B941A0
:104ED000B410114026A6513E5C14D33C9A833B3B50
:104EE000FFFF3FBE0000F03F09260A1039BA213EFD
:104EF0003BA861C6F97D92BE63AC30909F01FA3E3B
:104F0000F6FB51166CC156BFB10255555555A53F1C
:104F1000FFFFDFBFB08F2FC310D8E53D8F0C73A10B
:104F2000E1E55ABE4DADE44FE31DC73E3EE3B51982
:104F3000A0012ABFFAF010111111813F42555555B9
:104F40005555C5BF2046294603B0BDE8F08C00008A
:104F50001FB500F095F8212101601FBDF8B50C4682
:104F60002B49FEF71FF9054612D82A4E3146FEF7A7
:104F7000ADF82949FDF76CFD074628463146FDF797
:104F800067FD01463846FFF737FA054644F001044D
:104F900028462249FDF79EFD03D32149FEF702F979
:104FA00021D82946FEF792F8064628463146FEF7F4
:104FB0008DF81C49FEF78AF82946FDF749FD05469C
:104FC00019483146FEF782F81849FDF741FD314690
:104FD000FEF77CF84FF07E51FDF73AFD014628467A
:104FE000FFF70AFA0546A00748BF85F0004514F010
:104FF000070007D00FF2380151F820002946FDF7CD
:1050000027FD0546200748BF85F000452846F2BD2C
:10501000A430893ED7B3DD3F000080BF000080B9D7
:10502000010080396AD5033F2B94A93DB82A593F26
:1050300000000000920A063FDB0FC93F920A863F3C
:10504000DB0FC93F920A0640DB0F4940368D2740EF
:105050004FF4001C1CEB410F94BF1CEB430F09E005
:1050600041EA030C50EA4C0C52EA0C0C03D28B427E
:1050700008BF8242704714BF9942904270470000B7
:10508000014800F0B3B80000200000202DE97C4C5E
:10509000064647484749D6E9004522462B46FBF7D6
:1050A00081FFCDE9000100220023FFF7D1FFDDE9F8
:1050B000002399BF0020404900204049FCF77EFAB8
:1050C000CDE900010021684600F091F8DDE90023F8
:1050D0000020002100F0C8F84ED03949FBF762FFEC
:1050E00082468B464FF0A040364952465B46FBF75E
:1050F00059FF02460B4620462946FCF795F904461F
:105100000D464FF0C040304952465B46FBF74AFF20
:1051100002460B4620462946FCF786F904460D4612
:105120004FF00050294952465B46FBF73BFF0246D1
:105130000B4620462946FCF777F904460D46002029
:10514000234952465B46FBF72DFF02460B4620469D
:105150002946FCF769F904460D464FF000501D49F9
:1051600052465B46FBF71EFF02460B462046294689
:10517000FCF75AF904460D46C6E90045DDE9000191
:10518000154A164BFBF7F6FE04D3154A154BFFF7ED
:105190005FFF05D80022144B00F076F8CDE900013E
:1051A000DDE90001FCF7FCF800F00300BDE8768CB7
:1051B00083C8C96D305FE43F0000E03F0000E0BFFE
:1051C0000000303EFB21B941B410114026A6513EEB
:1051D0005C14D33C9A833B3B0000C0FFFFFFDFC160
:1051E0000100C0FFFFFFDF410000E041704742685F
:1051F000C2F30A5240F2FF739A4207D14168090391
:1052000003BF0068002801200220704743685B004C
:1052100004BF0368002B25D040F233439A1A521A78
:10522000012A1FDB352A06DB416801F0004141609D
:105230000021016013E0012102F01F039940491E83
:10524000920607D5426811404A4042600268114305
:10525000002202E0026811404A40026011B14FF0A2
:10526000FF3070470020704790420CD141EA030C98
:1052700050EA4C0C07D0994205D14FF4001C1CEBAE
:10528000410F38BF8942704770B540F2FF7601F098
:10529000004C5B0006EA11545D0D1ABFB442B542E2
:1052A00078E0B3EB410F08BF82424BD2C3F3530304
:1052B00043F48013C1F3130141F48011641B0B3CD0
:1052C00013D9C90241EA5051B1FBF3FE03FB1E1191
:1052D000A2FB0EE6DEEBC020B14101D2801859419D
:1052E00050EA010653D00B3CEBD80B34C4F1200636
:1052F000A14020FA06F6A0403143B1FBF3FE03FBC8
:105300001E11A2FB0EE6B0EB0E00B14101D28018D7
:10531000594102BF0146203D0020C1B3B1FA81F3DB
:105320009940C3F1200220FA02F211439840ED1A8D
:105330000A3509DBC00A40EA41504CEAD12101EBB1
:10534000055170BD23D070BDD5F10B05B5F120021C
:105350000DDAC5F120020300E84001FA02F6E94047
:10536000934073F10043704151EB0C0170BD402D2F
:105370000DDC430821FA02F0C2F1200511FA05F60E
:10538000334373F1004370415CF1000170BD61462D
:10539000002070BD53EA020E1ABFB442B54237E096
:1053A000B3EB410F08BF8242CCD25B08B3FA83F55E
:1053B00004BFB2FA82F6AD190B3DB5F1200624BF49
:1053C00002FA06F305E0AB40C5F1200622FA06F624
:1053D0003343AA40D5F1010524427FF46BAF31F08D
:1053E0000041B1FA81F404BFB0FA80F6A4190B3C75
:1053F000B4F1200624BF00FA06F105E0A140C4F193
:10540000200620FA06F63143A040D4F1010455E706
:105410004FF4001515EB410F2CBF6FF00041EB422C
:1054200018BF6FF00041BDE87040FFF491AD7047C8
:1054300080B53B48006850F00100394908603948A0
:1054400000683949084037490860354800683749DD
:105450000840334908603248006830F48020304901
:1054600008603048006830F4FE002E4908605FF4A0
:105470001F002F49086000202E49086000F005F841
:105480005FF000602C49086001BD80B500F001F8B4
:1054900001BD82B0002001900020009020480068EB
:1054A00050F480301E4908601D48006810F4003038
:1054B00000900198401C01900098002803D10198A9
:1054C000B0F5A06FF0D116480068800302D5012026
:1054D000009001E000200090009801281DD11148A3
:1054E0000068104908600F4800680E4908600D48C0
:1054F00000680C4908600B48006880088000094972
:1055000008600848006850F0010006490860054836
:10551000006810F00C000428F9D102B070470000B8
:1055200000100240041002400000FFF8FFFFF6FEEA
:10553000081002402C10024008ED00E019E050F87D
:10554000041BCB0744BFA9F101035918121F002304
:10555000042A41F8043BF9D25FEA827C0B4604D569
:105560004FF0000CA1F800C09B1CD10744BF0021E4
:10557000197050F8042B002AE1D170470F004F80BA
:105580006F8080808080AA000019000AF500001357
:1055900004E2000AF500033600010C0000000000E0
:1055A000000000000000000000010C0000000000EE
:1055B000444953543B253035643B414D503B2530E5
:1055C00034643B54454D503B253034643B564F4C7E
:1055D000543B253033640D0A0000000010B450F82D
:1055E000041B79B10268436812180830DC0744BF15
:1055F000A9F10104E31852F8044B43F8044B091FC6
:10560000F9D1ECE710BC704710B50749794418315F
:10561000064C7C44163404E00A68081D511888477B
:105620000146A142F8D110BD30000000500000003A
:105630003333A1420000E6420000BE4200000000F9
:105640000102030401020304060708090204060814
:1056500000000000E8030100E5FEFFFFFC1300006E
:10566000280400200000000075FFFFFF2800000054
:10567000C0FFFFFF00000020000000004150442058
:1056800053617475726174696F6E20566F6C7461CA
:1056900067653A20252E31660D0A000043616C696A
:1056A00062204641494C3A204C6F77205369676E1F
:1056B000616C0D0A0000000000F00BF8002801D01A
:1056C000FFF7A2FF0020C046C046FDF73DF900F0FD
:1056D00002F80120704700F001B800000746384684
:1056E00000F002F8FBE70000202109032631182012
:1056F000ABBEF9E738B504460D462846FDF779F903
:10570000A84218BF0024204632BD000043616C69E6
:105710006220537461727420373031410D0A0000E9
:105720005A65726F20506861736520313A20256494
:105730000D0A00005A65726F20506861736520324F
:105740003A2025640D0A00005A65726F2050686186
:10575000736520333A2025640D0A000043616C69AB
:105760006220766F6C746167653A25640D0A0000EB
:1057700043616C696220446F6E650D0A0000000091
:1057800001488047014800473154000891570008FC
:10579000C046C046C046C046FFF78EFF53746172D4
:1057A000740D0A000000000000000000000000006E
:1057B000000000000000000000000000FFF742B9F8
:1057C000FFF741B9FFF740B9FFF73FB9FFF73EB91F
:1057D000FFF73DB9FFF73CB9FFF73BB9FFF73AB91F
:1057E000FFF7FEBFFFF7FEBFFFF7FEBFFFF7FEBFED
:1057F000FFF7FEBFFFF7FEBFFFF7FEBFFFF7FEBFDD
:10580000FFF7FEBFFFF7FEBFFFF7FEBFFFF728B9A8
:10581000FFF7FEBFFFF7FEBFFFF7FEBFFFF7FEBFBC
:10582000FFF7FEBFFFF7FEBFFFF7FEBFFFF7FEBFAC
:10583000FFF7FEBFFFF7FEBFFFF7FEBFFFF7FEBF9C
:10584000FFF75CB9FFF7FEBFFFF7FEBFFFF7FEBF34
:10585000FFF7FEBFFFF7FEBFFFF7FEBFFFF7FEBF7C
:10586000FFF7FEBFFFF736B9FFF7FEBFFFF7FEBF3A
:10587000FFF7FEBFFFF7FEBFFFF7FEBFFFF7FEBF5C
:04588000FFF7FEBF71
:040000050800579107
:00000001FF
