:020000040800F2
:1000000018040020D52500087D1900087F19000874
:1000100000000000000000000000000000000000E0
:10002000000000000000000000000000831900082C
:100030000000000000000000851900088719000872
:10004000BB260008BD260008BF260008C126000800
:10005000C3260008C5260008C7260008C9260008D0
:10006000CB26000893190008CD260008CF260008EB
:10007000D1260008D3260008D5260008D726000878
:10008000D9260008DB26000800000000DD26000855
:10009000DF260008E1260008E3260008E526000820
:1000A000E7260008E9260008EB260008ED260008F0
:1000B000EF26000800000000F12600080000000004
:1000C0003748006801210143354801603548006820
:1000D00035490140334801603148006833490140E7
:1000E0002F4801602E480068374901402C480160C4
:1000F0002C480068354901402A48016034480068AE
:100100000F21884332490860324800683249014073
:10011000304801603E480068012188433C4908603E
:1001200000203C49086070474C4A12684C4B134011
:100130004A4A1360494A12680B0003431343474A73
:100140001360704700B5C0B2002807D01449096891
:10015000802252040A4312490A6005E010490968E6
:10016000404A0A400E490A6000BD00213B4A12681D
:100170001100032291430143384A11607047374808
:1001800001680C20084070470021344A12681100B1
:10019000F02291430143314A116070470000000092
:1001A00000100240041002400CB8FF08FFFFF6FEEA
:1001B00000212A4A126811000A002B49114001430C
:1001C000264A116070470000FFFFFBFFFFFFC0FFE2
:1001D0002C10024030100240ACFEF0FF1F490968AD
:1001E000224A0A401D490A601C49096882B20A4332
:1001F0001A490A60A84909681D4A0A40A6490A60C6
:10020000A5490968020C0A43A3490A607047000027
:10021000341002400810024000B50021020F110006
:10022000012906D19C4A126803239A439A4B1A600B
:100230000EE0022906D1984A1268984B1340964A5C
:10024000136005E0944A1268954B1340924A13607C
:10025000914A12680243904B1A6000BD041002409C
:10026000FF7FC2FFFFFFFFFEFFF8FFFFFFBFFFFFA3
:10027000FFFEFFFFFEB504000025002600200290CF
:10028000002001900020009000279F4800680C216A
:1002900001400D002800002806D0042807D00828B7
:1002A00008D00C2829D02BE0984820602AE09748F5
:1002B000206027E094480068F021890301400E0087
:1002C00091480068C021490201400291B60CB61C59
:1002D0000298002803D18E48704307000BE0954830
:1002E00000680007000F401C01908848019900F049
:1002F00094F970430700276004E09748206001E00C
:100300008248206080480068F02101400D002D09DE
:100310009248405D009020680099C84060607A482B
:100320000068E021C90001400D002D0A8B48405DA6
:10033000009060680099C840A06057480068C005F8
:1003400002D48748E0600AE06F480068400403D4A4
:10035000A0684008E06002E0A0688008E0604E48C5
:100360000068400602D47F48206102E0802000023D
:10037000206149480068C00602D46448606101E019
:1003800020686061444800688007800F002802D11F
:10039000A068A0611AE0404800688007800F01282B
:1003A00002D12068A06111E03B4800688007800FFF
:1003B000022803D180200002A06107E036480068CF
:1003C0008007800F032801D15048A061324800689F
:1003D000C02189020140002902D1A068E06123E028
:1003E0002D480068C02189020140802040028142DE
:1003F00002D12068E06117E027480068C021890227
:10040000014080208002814203D180200002E0610F
:100410000AE021480068C02189020140C020800212
:10042000814201D13948E0611B480068C0210903BD
:100430000140002902D1A068206223E0164800682C
:10044000C021090301408020C002814202D12068FE
:10045000206217E010480068C02109030140802095
:100460000003814203D18020000220620AE00A4892
:100470000068C02109030140C0200003814201D16E
:100480002248206204480068000602D432486062B4
:1004900000E06762F7BD000030100240FFFFFCFF84
:1004A000FFFFF3FF00B5C9B2002905D0464A126824
:1004B0000243454B1A6004E0434A12688243424BB0
:1004C0001A6000BD00B5C9B2002905D03F4A1268C4
:1004D00002433E4B1A6004E03C4A126882433B4BA5
:1004E0001A6000BD00B5C9B2002905D0384A1268AB
:1004F0000243374B1A6004E0354A12688243344B9A
:100500001A6000BD000000000410024000127A00D2
:1005100000093D0000B5C9B2002905D02D4A126876
:1005200002432C4B1A6004E02A4A12688243294B8A
:100530001A6000BD2C10024000B5C9B2002905D0D8
:10054000254A12680243244B1A6004E0224A1268CA
:100550008243214B1A6000BD006CDC0200000020C9
:10056000809FD5001280000010B5010000220023FA
:1005700000200C00E4B26409E4B22200002A03D196
:10058000164C246823000EE0012A03D10D4C246888
:10059000230008E0022A03D1114C2468230002E062
:1005A000104C24682300C9B2CC06E40E22001C00C3
:1005B000D440E40702D50124200001E000242000FB
:1005C000C0B210BD201002401410024018100240AA
:1005D0001C1002400C10024010100240001002409B
:1005E0002410024034100240F446002804D449424A
:1005F00000F013F8404260474042002905D45FD024
:1006000000F00BF8404249426047494200F005F8CB
:100610004942604703460B43E6D40022030A8B425B
:100620000BD203098B4219D243088B422ED2411AB6
:1006300000D20146524110467047FF2209023FD0C6
:1006400012068B4205D3121209028B4201D31212F9
:10065000090203098B4219D300E0090AC3098B423E
:1006600001D3CB01C01A524183098B4201D38B01C4
:10067000C01A524143098B4201D34B01C01A524167
:1006800003098B4201D30B01C01A5241C3088B42AC
:1006900001D3CB00C01A524183088B4201D38B0097
:1006A000C01A524143088B4201D34B00C01A524139
:1006B000884200D3401A5241CFD2014610467047BB
:1006C00008B500F001F808BD70472C1010B5040003
:1006D000684884420AD1012180200001FFF71AFFF7
:1006E000002180200001FFF715FF67E08020C00592
:1006F000844208D101210120FFF71EFF00210120C3
:10070000FFF71AFF5AE05C48844208D10121022019
:10071000FFF712FF00210220FFF70EFF4EE05748BF
:10072000844208D101211020FFF706FF002110208C
:10073000FFF702FF42E05248844208D10121202005
:10074000FFF7FAFE00212020FFF7F6FE36E04D48C5
:1007500084420AD1012180204000FFF7EDFE0021F4
:1007600080204000FFF7E8FE28E0474884420AD195
:10077000012180204002FFF7CDFE002180204002B1
:10078000FFF7C8FE1AE04B4884420AD101218020BD
:100790008002FFF7BFFE002180208002FFF7BAFE33
:1007A0000CE06E48844209D101218020C002FFF78D
:1007B000B1FE00218020C002FFF7ACFE10BD00B5E5
:1007C000002203881A002B4B984206D08023DB05B9
:1007D000984202D0284B984205D11300364A1A405D
:1007E00013004A881A43254B984205D01300334A18
:1007F0001A4013000A891A4302804B68C3620B88AF
:1008000003851C4B984208D01F4B984205D0294BBA
:10081000984202D0514B984201D18B7A0386012332
:10082000838200BD0021C943416000210180002175
:1008300001810021418000218172704700B5C9B259
:10084000002904D0028880231343038003E0028838
:10085000804B1340038000BD00B5C9B2002904D00D
:10086000028801231343038003E002887A4B13407C
:10087000038000BD002C0140000400400010004037
:1008800000140040002000400040014000B5C9B203
:10089000002907D04422825A80231B02134344229A
:1008A000835205E04422825A5204520C4423C2521D
:1008B00000BD0000004401408FFF0000FFFC00006D
:1008C00070B5002200230024058C734E2E40068450
:1008D000058C2B0085882C00058B2A0015006F4A9B
:1008E0002A4015006E4A2A4015000A8812022A433F
:1008F0001D00724B2B401D008B891B012B431D00DB
:100900004B881B012B43564DA84202D05E4DA84296
:100910001ED12500744C2C4025000C8AA4002C43C9
:100920004F4DA84214D11D004A4B2B401D00CB89CE
:100930001B012B431D006E4B2B401D008B881B01A0
:100940002B4325006C4C2C4025004C8AA4002C43E2
:10095000848002838D688563038470BD00480140F4
:1009600070B5002200230024058C4A4E2E400684D8
:10097000058C2B0085882C00858B2A0015005D4A8C
:100980002A401500354A2A4015000A882A431D00CE
:10099000564B2B401D008B891B022B431D004B889F
:1009A0001B022B432E4DA8421BD11D00524B2B4046
:1009B0001D00CB891B022B431D004B4B2B401D0000
:1009C0008B881B022B4325004D4C2C4025004D4CA1
:1009D0002C4025000C8A24012C4325004C8A24013C
:1009E0002C43848082838D68C563038470BD70B599
:1009F000002200230024058C414E2E400684058CE5
:100A00002B0085882C00858B2A001500234A2A405C
:100A10001500234A2A4015000A8812022A431D00A5
:100A2000384B2B401D008B891B032B431D004B882B
:100A30001B032B430A4DA84206D12500324C2C4003
:100A400025000C8AA4012C43848082838D68056470
:100A5000038470BD7FFF0000FEFF0000FCFF00006C
:100A6000002C014000210180002141800021818073
:100A700000218160002181810021C181002101824A
:100A800000214182704700000040014081637047AF
:100A9000C1637047FFFE0000EFFF0000FF8F000002
:100AA000FFFC00000022038B1A001300134A1A40B7
:100AB00013000A021A43028370470000DFFF0000A0
:100AC0000022838B1A001300104A1A400A438283C3
:100AD00070470022838B1A001300084A1A40130043
:100AE0000A021A4382837047FFFB0000FFFD0000EB
:100AF000BFFF00008FFF0000FFF70000FFF70000BE
:100B0000FFEF0000FFDF0000FFBF0000F7FF000065
:100B1000F0B540B2002821D5A94C40B20207120F0F
:100B2000083A950804225543A54A40B203071B0F13
:100B3000083B9B0804267343D258FF238607B60F51
:100B400008277E43B3409A438B01DBB28607B60F7A
:100B500008277E43B340134363511AE0994A40B2D9
:100B6000830804246343D258FF238407A40F082575
:100B70006C43A3409A438B01DBB28407A40F082582
:100B80006C43A34013438F4A40B2840804256C434E
:100B90001351F0BD10B50400601E80214904884245
:100BA00001D301200EE0601E874908600321002068
:100BB000C043FFF7ADFF0020844908600720D649F5
:100BC0000860002010BD00B58BB000F00FF968463A
:100BD000FFF750FB0098FA218900FFF71EFDFFF791
:100BE000D9FF002800D0FEE700F009F800F022F954
:100BF00000F067F8142000F079F90BB000BD00B5E3
:100C000083B001218C20C003FFF74CFC80200090B2
:100C100000206946487101206946087169469020A4
:100C2000C00500F095F980219020C00500F001FA80
:100C300080204000009069469020C00500F088F9AF
:100C4000802149009020C00500F0F3F902200090B7
:100C50006946B24800F07CF90221B04800F0E6F99C
:100C600030200090032069464871032069460871CE
:100C700069469020C00500F06BF90220009000202A
:100C800069464871002069468871022069460871EA
:100C900069469020C00500F05BF9022201219020F6
:100CA000C00500F0C8F90420009069469020C005F6
:100CB00000F04EF9022202219020C00500F0BBF99D
:100CC00007BD00B589B001218020C001FFF7FAFB04
:100CD0009348FFF7A1FA684600F099F980200002D6
:100CE0000090002069464871022069460871022080
:100CF0006946C87169469020C00500F029F90122B3
:100D00000F219020C00500F096F98020C0010090CE
:100D100000206946C87169469020C00500F018F9A6
:100D200001220E219020C00500F085F9FA208002F2
:100D300002900020039000200490002005900020E5
:100D400007900C20069002A9764800F0A9F901212D
:100D5000744800F017FA09B000BDF8B5040020008F
:100D6000714900F041FA04D92000704900F050FAAE
:100D700000D223E000256E4F6E48210000F05BFAA0
:100D80000100380000F0E7FA6B4900F054FA6B49B3
:100D900000F0A9FA05006A48290000F04CFA6949F8
:100DA00000F031FB0600300000F082FB80B2010051
:100DB0008020C005FFF76AFE63480460F1BD0000B3
:100DC0001CED00E000E400E014E000E018E000E0CA
:100DD00080B5C0218020C005FFF75AFE01BD80B557
:100DE00000218020C005FFF753FE01BD80B5FFF74D
:100DF00067F9012000F084FB012000F077FB002060
:100E0000FFF7C2F90020FFF7D3F9A02189030020E2
:100E1000FFF78AF90120FFF795F91920FFF7A4FBE6
:100E20000028FAD00220FFF7A0F9FFF7A8F9082858
:100E3000FBD101BD00B589B001210120FFF752FBB4
:100E40008020C005FFF742FC6846FFF70BFE05A8AF
:100E5000FFF7E8FC002069468882FF20E03006901A
:100E6000002005A90881002005A9488005A9802047
:100E7000C005FFF7A4FC7020694608800120694680
:100E800048800A20029002206946888169468020B5
:100E9000C005FFF715FD70206946088001206946EE
:100EA0004880C020029002206946888169468020DF
:100EB000C005FFF755FD08218020C005FFF7F2FDB2
:100EC00008218020C005FFF7FBFD01218020C0051F
:100ED000FFF7B4FC01218020C005FFF7D7FC0121FA
:100EE0008020C005FFF7B8FC09B000BD10B58CB07C
:100EF000040001A8FFF7BEF902981449FFF78DFB23
:100F0000604300900098002803D00098401E009095
:100F1000F8E70CB010BD000010E000E0001400483D
:100F200001000010003801400100E64200008C4240
:100F30001498B1425305833FF9171D3C5C8FA23FC3
:100F40000000F04333335340000800201027000016
:100F5000F0B500220023002400252A00102A55D2D3
:100F6000012595402B000D681D402C009C424BD163
:100F70000D79012D02D00D79022D1DD18668032730
:100F8000BC46150002277D436746AF40BE438660DE
:100F900086684F79BC46150002277D436746AF40FF
:100FA00037438760858801269640B54385808588CC
:100FB0008E7996402E43868006680327BC4615002E
:100FC00002277D436746AF40BE43066006680F793F
:100FD000BC46150002277D436746AF403743076094
:100FE000C6680327BC46150002277D436746AF400D
:100FF000BE43C660C668CF79BC46150002277D4354
:101000006746AF403743C760521CA7E7F0BD0649AB
:1010100001600021017101214171002181710021D4
:10102000C171704700000000FFFF000089B28161BC
:10103000704701857047F8B400230024D2B20D0038
:101040006D076D0F042675431600AE40330089B25C
:10105000CD10042675434519009589B2CD1004269C
:10106000754345192F6A0F25AC460D006E07760FA4
:1010700004256E436546B540AF43009D2F6289B29B
:10108000CD100426754345192D6A1D432C0089B2E5
:10109000CD100426754345192C62F1BC70473C10F5
:1010A000F0B58BB006000F00002500200090002452
:1010B00030680121884330607068040020003B4C98
:1010C00004402000BC6804437460306804002000C1
:1010D0003B4C04407868F968014338690843204371
:1010E00004003460B06804002000364C0440200046
:1010F0007C690443B46001A8FFF7BCF82848864225
:1011000002D1079800900DE02648864202D1089847
:10111000009007E02448864202D10998009001E03F
:1011200003980090306800040ED5009802214843CF
:101130003968FFF772FA05000098022148433968C0
:10114000FFF76BFA0C0009E000983968FFF765FAC1
:10115000050000983968FFF760FA0C00386840080D
:10116000844200D36D1C3068000407D5680840072E
:10117000400F04002800144D054025432800B0818D
:101180000BB0F0BD00B5C9B2002904D0026801233C
:101190001343036003E0026801239A43026000BD29
:1011A000003801400044004000480040FFCFFFFFEE
:1011B000CA05D20D02857047808CC005C00D7047EE
:1011C000F3E9FFFFFFFCFFFFF0FF000000B50200A6
:1011D0000020D3690B40002B02D00123180001E04E
:1011E00000231800C0B200BD0CB40122120603187F
:1011F000DA4207D84B18DA4204D802000A439218A0
:1012000002D281420CBC7047FCD088420CBC7047B3
:101210000CB4012212060318DA4207D84B18DA423E
:1012200004D802000A43921802D288420CBC7047CC
:10123000FCD08142FAE730B405004D400122D207CC
:1012400015404B180418240E2ED01B0E32D0FF2C44
:1012500034D0FF2B3AD0E4180002090210431143A6
:10126000000A090A9446C2B24A43000AC3B24B4379
:10127000000A4843110A5B181A43D2B2190A091826
:1012800001D44918641E080A7F3C23DBFE2C08DACF
:10129000E40509061143634699416041284330BC87
:1012A0007047FF20C005F9E728001B0EFF2BF6D181
:1012B000D043F4E72800FF2CF1D1F9E74002F7D141
:1012C000FF2B01D14902F3D1E005E7E7D805490238
:1012D000E4D0EDE743020020641CDFD15B129B1CCD
:1012E000DCD9D805DAE70122D20703004B402ED41F
:1012F000431A01D2C01AC91830B44B180418240E6E
:101300001B0E22D0FF2C20D0E31A182B1DDC090263
:101310001143C40D641E0002104394461925ED1AB2
:101320000A00AA40D940451801D36D08A41CE40561
:10133000D209280A2D062A436546AA4160410318AE
:101340001B0EFF2B01D3C00DC00530BC70475140B0
:1013500006E05140CCE70122D20703004B40F8D40D
:10136000431A03D2C01AC9185040514030B44B1828
:10137000090211430418240E1B0E40D0FF2C3AD052
:1013800025009D410BD31ED8C50D4002401A0BD33A
:10139000ED050100400AC90591416841D5E7C50D39
:1013A00040024918401AD0D001214008491C0018B9
:1013B000FCD58C4204D36D1A000AED054019C4E730
:1013C000E8051040C1E7182DBFDCAC1C0D00E14062
:1013D000E5414D40012D4941C40D00021043451A1D
:1013E00001D46D199543641EE405280A2D06954124
:1013F000604130BC7047FF2BA7D1D843A5E72442FA
:10140000A3D10020A1E730B405004D400122D2074E
:1014100015404B180418240E28D01B0E2FD0FF2C7B
:1014200034D0FF2B37D0E41A0002090210431143D5
:1014300043084808D10D1B1A02D2641EDB181B1882
:10144000DB18834200D31B1A4941F9D37F3426DDD0
:10145000FE2C08DAE4054808C907194391416041A8
:10146000284330BC7047FF20C005F9E728001B0E59
:1014700003D0FF2BF5D14902F3D0D043F1E7FF2C85
:1014800001D14002F9D1FF20C005E9E74002F4D1C3
:10149000FF2BF8D1F1E728004902E2D0EDE70B027B
:1014A00000202442DCD15B129B1CD9D9D805D7E798
:1014B0000122D2070118090E7F3910D449421F3189
:1014C0000FD4001805D2C0011043C84000D5D04346
:1014D0007047C0011043C84005D440427047002007
:1014E00070470042F3D5100070472C0C00210D4AC4
:1014F000126811000122914301430A4A11607047AA
:1015000000B5C0B2002806D00649096810220A4377
:1015100004490A6005E00349096810229143014A21
:10152000116000BD0020024000B589B0012180207B
:101530008003FEF7D7FFB54800F0E1F9C020C000F6
:101540000090002069464871012069468871022098
:101550006946087169469020C005FFF7F9FC04222E
:101560000A219020C005FFF766FD04220921902082
:10157000C005FFF760FDA54800F050F902A800F093
:10158000A0F9002005900020069000200790002080
:1015900008909F48029002A99C4800F05AF9012146
:1015A0009A4800F09EF909B000BD38B505000C005E
:1015B0002A002100C9B2C02000F00EF831BD70B57C
:1015C00006000C00150023002A00D2B23100C9B277
:1015D000C02000F06FF870BDF1B582B00E001700AA
:1015E00000F0F6F9050080210902884800F0B5F9FD
:1015F000002804D000F0ECF9401B0A28F3D300F0D7
:10160000E7F9401B0A2806D382480088401C81491C
:10161000088000204DE080208001009080239B0402
:101620003200D2B26846017A89B2784800F078F97F
:1016300000200400E4B2F6B2B4421DD20221734885
:1016400000F08BF9002804D100F0C2F9401B0A28F1
:10165000F4D300F0BDF9401B0A2806D36D4800887A
:10166000401C6C490880002023E0E4B2395D6748E3
:1016700000F070F9641CDDE72021644800F06DF98A
:10168000002804D100F0A4F9401B0A28F4D300F08C
:101690009FF9401B0A2806D35E480088401C5D491C
:1016A0000880002005E05C480088401C5A490880FA
:1016B0000120FEBDF3B581B016001F0000F088F9CF
:1016C000040080210902514800F047F9002804D0A5
:1016D00000F07EF9001B0A28F3D300F079F9001B13
:1016E0000A2806D34B480088401C4A49088000203D
:1016F0008BE080208001009080235B0401226846FB
:10170000017989B2414800F00BF902213F4800F00D
:1017100024F9002804D100F05BF9001B0A28F4D357
:1017200000F056F9001B0A2806D33A480088401CEE
:1017300038490880002068E06846017A334800F0A4
:1017400009F98021314800F008F9002804D100F09F
:101750003FF9001B0A28F4D300F03AF9001B0A28CD
:1017600006D32C480088401C2A49088000204CE001
:101770000020009080239B043200D2B26846017999
:1017800089B2224800F0CCF800200500EDB2F6B294
:10179000B5421DD202211D4800F0DFF8002804D117
:1017A00000F016F9001B0A28F4D300F011F9001B11
:1017B0000A2806D317480088401C164908800020D4
:1017C00023E0EDB2795D114800F0C4F86D1CDDE74F
:1017D00020210E4800F0C1F8002804D100F0F8F8EC
:1017E000001B0A28F4D300F0F3F8001B0A2806D3E4
:1017F00008480088401C07490880002005E006488A
:101800000088401C044908800120FEBD00540040AF
:101810000B0200000A0800200808002010B5040090
:101820003C4884420AD1012180208003FEF784FED7
:10183000002180208003FEF77FFE09E00121802047
:10184000C003FEF779FE00218020C003FEF774FE7E
:1018500010BD10B4002203680124A3430360036891
:101860001A0013002C4A1A4014004B688A681202AE
:101870001A43224302600B68284C1C400461036831
:1018800001241C43046000231A008260C2608B693B
:101890000C691C43220082608368802424021C435C
:1018A0008460CB681A0003681343036043681A001E
:1018B0001300264A1A4013004A691A43426010BCBA
:1018C00070470021016000214160002181600021FA
:1018D000C160002101618021090241610021816113
:1018E000704700B5C9B2002904D002680123134330
:1018F000036003E0026801239A43026000BD0168AF
:101900000122914301600168016801220A430260DB
:101910007047000000540040FFE0CF00FFFFFFF0E1
:10192000F0B4049C0025466835002E00084D354073
:101930002F0089B28E05B60DD2B2150435431D4372
:1019400025433D434560F0BC70470000FF7FFF0723
:10195000009800FCC9B28162704710B502000023F4
:101960000020946923000B40002B02D001242000AA
:1019700001E000242000C0B210BD3C0C704700B54F
:10198000FEE77047704714480068401C1249086021
:10199000704780B5042000F0EBF8002803D0042045
:1019A00000F0FCF813E0022000F0E2F8002806D076
:1019B000022000F0F3F801200849087007E0082031
:1019C00000F0D6F8002802D0082000F0E7F801BDAA
:1019D0000148006870470000040800200E0800203D
:1019E00000B50168724A0A400260002101600021CE
:1019F0004160002181600021C1606E49884206D1AA
:101A00006D4909680F220A436B490A6074E06B490B
:101A1000884206D168490968F0220A4366490A608B
:101A20006AE06749884207D163490968F0221201D8
:101A30000A4361490A605FE06249884207D15E4912
:101A40000968F02212020A435B490A6054E05E49C9
:101A5000884207D158490968F02212030A435649BF
:101A60000A6049E05949884207D153490968F02280
:101A700012040A4350490A603EE05549884207D1A2
:101A80004D490968F02212050A434B490A6033E0C8
:101A90005049884206D1504909680F220A434E49ED
:101AA0000A6029E04D49884206D14B490968F02275
:101AB0000A4349490A601FE04949884207D146491B
:101AC0000968F02212010A4343490A6014E04549BB
:101AD000884207D140490968F02212020A433E4970
:101AE0000A6009E04049884206D13B490968F02272
:101AF00012030A4338490A6000BD30B4002302686B
:101B000013001A00394B13401A008B680C6A1C43EF
:101B10000B6923434C691C438B692343CC691C43E9
:101B20004D6A25438B6A2B4313430360CA684260A6
:101B30000A6882604A68C26030BC704700B5C9B2AA
:101B4000002904D0026801231343036003E0026804
:101B5000174B1340036000BD00B5D2B2002A03D07A
:101B600003680B43036002E003688B43036000BD1E
:101B700000B5010000200022CB0003D51D4B1B68DF
:101B80001A0002E01A4B1B681A000A4202D0012315
:101B9000180001E000231800C0B200BD00B5C1006C
:101BA00002D50D49086001E00349086000BD00004E
:101BB000FEFF000008000240040002401C0002403A
:101BC0003000024044000240580002406C000240D5
:101BD0008000024008040240040402401C04024049
:101BE0003004024044040240580402400F80FFFFCA
:101BF00000000240000402400121C206D20E9140C2
:101C00009B4A11607047F0B540B2002821D5994C2D
:101C100040B20207120F083A950804225543954A2C
:101C200040B203071B0F083B9B0804267343D2589E
:101C3000FF238607B60F08277E43B3409A438B01E4
:101C4000DBB28607B60F08277E43B34013436351C8
:101C50001AE0894A40B2830804246343D258FF2320
:101C60008407A40F08256C43A3409A438B01DBB281
:101C70008407A40F08256C43A34013437E4A40B257
:101C8000840804256C431351F0BD80B500F005F8BD
:101C900000F04FF800F08BF801BD00B589B00121CC
:101CA00080200001FEF70EFC7448FEF70FFD03A82C
:101CB000FEF7D8FE6846FEF7B5FD052069460880A8
:101CC0006F4800680621FEF7A8FC6E49FEF7A5FCE8
:101CD00080B2401E019000206946088100206946BC
:101CE000488069466548FEF76AFD6020694688813C
:101CF000012003A94880624800680621FEF78DFC98
:101D00006049FEF78AFC80B20221FEF783FC059051
:101D1000022003A9888103A95848FEF768FE08211C
:101D20005648FEF7D6FE01215448FEF7AFFD09B034
:101D300000BD00B587B0012180208000FEF7C2FB06
:101D40005148FEF74BFA684600F0C6F800200090B4
:101D5000002069460871402003908020C000029056
:101D600000200490042005906946484800F09CF843
:101D700000223021454800F0CAF8444800F0D2F86B
:101D80000021424800F000F90121404800F0EEF83F
:101D900001213E4800F0ADF801213C4800F0FCF87C
:101DA0000028F9D0394800F0DCF807B000BD00B5D4
:101DB0008BB001210120FEF775FB3548FFF710FEBF
:101DC000344800903448019000200290FA204000EE
:101DD0000390002004908020059080204000069011
:101DE0008020C000079000200890C020800109904A
:101DF00000200A9069462648FFF77FFE012124480B
:101E0000FFF79CFE012202212148FFF7A5FE0F21CA
:101E10000920FFF7F8FE0920FFF7EEFE0BB000BD2A
:101E200080B500211548FEF717FD0021174800F086
:101E300060F800211648FFF781FE1748174908602F
:101E4000FA2040001649086001211148FFF776FE8C
:101E500000201449087001210C4800F04AF80B4892
:101E600000F07FF801210548FEF7F6FC01BD0000F7
:101E700000E100E01CED00E000E400E0002C014087
:101E80001000002050C30000004000010024014069
:101E900008000240402401401804002014000240C1
:101EA0000C0002400E08002030B40023C26813006A
:101EB0001A00444B13401A000B680C7964031C434E
:101EC0008B682343CC681C430D6925434B692B4326
:101ED0001343C36030BC70470021016000210171D1
:101EE000002181600021C160002101610021416168
:101EF000704700B5C9B2002904D08268012313439A
:101F0000836003E0826802231343836000BD10B442
:101F10000023846A0C4384620724A3431343436170
:101F200010BC704730B501000020002300228C68EF
:101F300080252D0625438D608C6880252D062C403C
:101F400022005B1CF0242402A34201D0002AF3D11A
:101F50008C68002C02D40C6C200001E000242000CE
:101F600030BD816804220A438260704700B5C9B25F
:101F7000002904D0C26801231343C36003E0C26890
:101F800001239A43C26000BDC26802239A43C26023
:101F9000C2680A43C260704730B5020000200023C7
:101FA000CC0104D59468084D25402B0001E014684D
:101FB00023000B4202D00124200001E00024200075
:101FC000C0B230BD03D2FFFFFFFFFFFE80B502218C
:101FD0007148FFF7EAFA01BD80B502216F48FFF7AB
:101FE000E4FA01BD80B502216D48FFF7DEFA01BDBC
:101FF00080B502216B48FFF7D8FA01BD80B5FFF725
:10200000EBFFFFF7EFFF33216748FFF7CEFAFFF74B
:10201000EFFFFFF7DBFF01BDF9B587B00E0015003C
:1020200008200590002004906F46049A0599380016
:1020300000F0D2F80295802070432900FEF7EDFAF7
:1020400003910798802148430400802070432900B1
:10205000FEF7E3FA2418554824180298000A694646
:1020600008700298694648702000000C8007800FB5
:1020700069468870200A6946C87020006946087160
:102080000298000BF02101400398000C0007000F9C
:102090000818694648710398000A694688710398D0
:1020A0006946C8710822694608A80078FFF787FAD0
:1020B00009B0F0BDF8B505000F0016001C001A238A
:1020C000220039002800FFF7A7FF22232200310059
:1020D0002800FFF7A1FFFFF78BFFFFF777FFF1BDA8
:1020E00080B500F044F8324B012200211A20FFF79E
:1020F000E1FF01BD80B51A232E4A2F491920FFF7B1
:102100008BFF22232D4A2E491920FFF785FFFFF769
:102110006FFFFFF75BFF00F02AF801BD80B500F00C
:1021200012F8234B042200211020FFF7C3FF01BD4A
:1021300080B500F01CF81E4B224A9621C9001E20D3
:10214000FFF7B8FF01BD80B500A8801C1E490A88B2
:10215000028068461D490A880280022100A8801C6E
:10216000FFF723FA02216846FFF71FFA01BD80B589
:1021700000A8801C16490A880280684615490A880A
:102180000280022100A8801CFFF70FFA0221684696
:10219000FFF70BFA01BD00006E260008D2230008ED
:1021A0007A260008B82600087025000800FEFFFF08
:1021B000E2040000093D0000F3370000127A00003D
:1021C000CE6F0000B2040000CA0600089E1000088E
:1021D000EA1400087A1900081206130A1A43130CAD
:1021E0001A4300BF094205D0830705D00270401C86
:1021F000491EF9D170470000130030B414001500D7
:10220000103902D310393CC0FCD2490700D30CC0AE
:1022100000D504C0890002D30280801C002900D5AB
:10222000027030BC7047000010B5FA208000FEF745
:102230005DFEFEF7C8FCFFF777F9C820FEF756FEF3
:10224000FEF7C6FD5148FEF788FD3220FEF74EFE30
:10225000FFF7D4FE6420FEF749FEFFF741FF64203C
:10226000FEF744FEFFF711FDFFF7DAFD2021484895
:10227000FEF7ACFF0028F9D04548FEF79DFF0400AB
:102280002000C0B200F001F8F0E710B504004148AA
:102290000078002809D0E4B2200000F08BF8FEF7A7
:1022A0005CFD00203B49087047E0E4B22000312883
:1022B00036D041282BD042282CD043282DD044287A
:1022C0000DD0452808D0482819D04C281BD04D28BF
:1022D00008D053280FD026E0FEF77AFD23E0FEF762
:1022E0007EFD20E0FFF79CFD2B4800780028FBD006
:1022F00000F040F817E02948FEF72FFD13E02848CA
:10230000FEF72BFD0FE02748FEF727FD0BE0FFF758
:10231000E7FE08E0FFF7EEFE05E0FFF7FFFE02E054
:10232000FFF706FFFFE7E4B2562C03D1012019495D
:10233000087002E000201749087010BD70B5060053
:102340000C0019480078002813D100200500ADB218
:10235000A4B2A5420DD280210D48FEF737FF002818
:10236000F9D0ADB2715D89B20948FEF721FF6D1C4D
:10237000EDE770BD80B504210C48FFF7DFFFFA21BF
:1023800089000B48FFF7DAFF01BD00003333C94273
:10239000003801400D0800200E0800200000E64231
:1023A0003333C5423333A1420C080020B026000865
:1023B000180400209D2102000AD002D4491E921860
:1023C000FCD5C905100A1206524100D3012A484122
:1023D000704703FF80B54A4800680121014348481F
:1023E0000160484800684849014046480160444847
:1023F000006846490140424801604148006844493C
:1024000001403F4801603F480068424901403D4863
:102410000160414800680F2188433F4908603F48F8
:1024200000683F4901403D4801603E480068012185
:1024300088433C49086000203B49086000F001F8EF
:1024400001BDC0B500200190002000902C4800681C
:102450008021490201432A480160294800688021FF
:102460008902084000900198401C019000980028C3
:1024700004D10198A021C9018842EED1204800680A
:10248000800302D50120009001E000200090009818
:10249000012834D11120254908601A4800681949DB
:1024A0000860184800681749086016480068204905
:1024B0000140144801601348006888214903014322
:1024C000104801600E4800688021490401430C480F
:1024D00001600B4800688001FBD50A4800680321B1
:1024E00088430849086007480068022101430548FD
:1024F0000160044800680C2101400829F9D103BD9E
:1025000000100240041002400CB8FF08FFFFF6FE66
:10251000FFFFFBFFFFFFC0FF2C1002403010024006
:10252000ACFEFFFF341002400810024000200240C1
:10253000FF7FC0FF70B40121002313E00468001D79
:102540000C4202D04D466D1E64192360241D121FDB
:10255000042AFAD22500960701D52380AD1C0A4033
:1025600000D02B700268001D002AE7D170BC7047B4
:102570000F004F806F8080808080AAFF0019000AC2
:10258000F500001304E2000AF500033600010C0018
:1025900000000000000000000000000000010C002E
:1025A0000000000030B401210268001D002A0FD095
:1025B0000368C318446808300C4202D04D466D1EB3
:1025C00064191D6825601B1D241D121FECD0F8E73F
:1025D00030BC70470548064900220260001D884251
:1025E000FBD3044880470448004700000000002057
:1025F000FF0F0020D5230008A526000810B50749C5
:1026000079441831064C7C44163404E0081D0A68ED
:10261000891888470100A142F8D110BD08000000C8
:102620002800000011FFFFFFF8030000180400203D
:102630000000000071FFFFFF1400000054000000C4
:10264000000000200000000000F00BF8002801D07E
:10265000FFF7D4FF0020C046C046FFF7E5FD00F0BD
:1026600002F80120704780B500F002F801BD03FABE
:102670000746384600F002F8FBE7BBC080B5C0460D
:10268000C046024A11001820ABBEFBE7260002003C
:102690000000000001020304010203040607080908
:1026A000006CDC02C046C046C046C046FFF7CCFF07
:1026B0004142434400000000B1ACFEE7FEE7FEE704
:1026C000FEE7FEE7FEE7FEE7FEE7FEE7FEE7FEE7E2
:1026D000FEE7FEE7FEE7FEE7FEE7FEE7FEE7FEE7D2
:1026E000FEE7FEE7FEE7FEE7FEE7FEE7FEE7FEE7C2
:0226F000FEE703
:04000005080026A524
:00000001FF
