:020000040800F2
:10000000C0040020B5470008A53E0008A73E000830
:1000100000000000000000000000000000000000E0
:10002000000000000000000000000000A93E0008E1
:100030000000000000000000AB3E0008AD3E0008DC
:1000400063090008EB1A0008F72300082B240008B6
:100050004B2400089F2900087B2C0008F73A000871
:10006000A33D0008B73E0008A33E0008B3470008C0
:100070004B480008574800088F4800089948000876
:100080009B4800089D480008000000009F480008A9
:10009000A1480008A3480008A5480008A748000890
:1000A000A9480008AB480008AD480008F53E000824
:1000B000AF48000800000000B14800080000000040
:1000C000F9B595B014004A487844FF3025300CC883
:1000D00013A80CC0099108AD0020E86101E0009868
:1000E000241800206946C88013AB0022D2432100A7
:1000F00001A8801C00F004FC0090012805DA20789B
:10010000411E8941C943C90F00916846C08825280E
:10011000009E00D1761E012E0EDB2700397809984B
:10012000159A90470990002800D1ECE0E869401C3E
:10013000E8617F1C761EF1D16846C088252804D16D
:10014000002028616861A86108E06846C08800282E
:10015000C5D1E869D9E0010001200843641C217879
:100160002029F8D023290ED02B2904D02D2907D0FF
:1001700030290BD00DE001000220084380B2EDE7EA
:1001800001000420F9E701000820F6E70100102033
:10019000F3E72A2912D116990968169A11600A689C
:1001A000091D169B19606A62002A05D551426962D1
:1001B00001000420084380B2641C12E0002169623F
:1001C0000AE06A6A0B4B9A4205D093009A185200D3
:1001D000511830396962641C21780A00303A0A2AC1
:1001E000EFD321782E2907D00021C943296225E0C9
:1001F000A0460000FFFFFF7F641C21782A290AD156
:1002000016990968169A11600A68091D169B1960EB
:100210002A62641C12E0002129620AE02A6AC34BA8
:100220009A4205D093009A18520051183039296229
:10023000641C21780A00303A0A2AEFD328852678F0
:10024000310000BFBAA000F069FB002801D0641C97
:1002500000E000262A202E54285C682806D1207849
:10026000682803D162202A216854641C02A8E8602F
:100270002678641C252E15D0582E55D0632E00D11B
:10028000B3E0642E00D18EE0692E00D18BE06F2E9A
:100290004AD0702E3BD0732E0AD0752E44D0782EC3
:1002A00042D0CAE001202861252069460872CFE0CB
:1002B0002A20285C6C28169800681699086017D0C8
:1002C0000668001D16990860AE602F6A002F03D5DE
:1002D000300000F02DFB09E03A000021300000F072
:1002E0002FFB002801D0801B00E038006861AFE0E0
:1002F0000268001D1699086008A9159800F042F9D7
:10030000002800D4A4E00020C04317B0F0BD169828
:100310000068169908600168001D169A106008911F
:1003200002A8A86078215CE02A20285C6C2801D112
:10033000169810E0712801D1169802E06A281698E4
:1003400009D10268D21D072082431698026003CAB1
:10035000169B1A6005E0016801600868091D169A7D
:10036000116008902A20285C682802D1089880B281
:1003700003E0622802D10898C0B208902820285CC7
:10038000000729D50898002826D020203043782857
:1003900022D12869302102AA1154401C411C296134
:1003A00002A90E5418E016992A20285C00F0C4F81F
:1003B0000890002802D528692D2109E0288D8107A1
:1003C00002D528692B2103E0C00705D52869202123
:1003D00002AA1154401C286102A829694018A8608B
:1003E000310008A800F0F8F932E02A20285C6C28D7
:1003F0000CD00120286116980068169908600168E1
:10040000001D169A10606846017221E01698006877
:10041000169908600168001D169A106068460180F0
:10042000002069464880C04328626A4608A915989A
:1004300000F0A8F800280BD565E7012028612520E9
:1004400069460872002E03D00220286102A8467077
:10045000686A2969401AA969401A6969401A0090B6
:100460002820285C400711D4202069460871009894
:1004700001280BDB009E012301AA08A9159800F0B2
:1004800027FA002800D03EE7761EF4D12F6902AE8D
:10049000002F0DD031780998159A904709900028BF
:1004A00000D130E7E869401CE861761C7F1EF1D17D
:1004B000302069460871AE69012E0ADB012301AACA
:1004C00008A9159800F004FA002800D01BE7761E52
:1004D000F4D1AE686F69002F0DD031780998159A64
:1004E00090470990002800D10DE7E869401CE861B9
:1004F000761C7F1EF1D12820285C400700D4F0E54F
:100500002020694608710098012800DAE9E5009E7C
:10051000012301AA08A9159800F0DAF9002800D0F3
:10052000F1E6761E00D1DCE5F2E700BFFFFFFF7FBA
:10053000686C747A4C000000622815D068280CD0D2
:100540006C2818D0742816D07A2814D10A680A604A
:100550001068121D0A60002170470A680A6010685E
:10056000121D0A6000B20BE00A680A601068121DD2
:100570000A6040B204E00A680A601068121D0A604E
:10058000C1177047F4B59AB007000C00206A002824
:1005900000D58E48039000F0DFF9616A08180690D4
:1005A0008BA003C807AA03C22820205C400702D4FE
:1005B0000698412806D209A8029040200690002003
:1005C00005900EE000F0CEF902900028F7D100204F
:1005D000C043F8E01A98801C1A9003980199401AB9
:1005E00003900398012800DA93E007AA1A9801887B
:1005F00000A8401C00F012FA0190002800D59FE0EE
:100600001A980088002804D10198401E019000D556
:1006100096E00398019988427BDB20690699019A4C
:100620008218914264D2002161624142A069081A95
:100630006169401A04902820205C400710D42020D3
:1006400069460870049801280ADB049D01236A4664
:100650002100380000F03CF9002871D16D1EF5D161
:100660002669029D002E0BD029786068B84760602B
:10067000002865D0E069401CE0616D1C761EF3D156
:10068000302069460870A569012D09DB01236A46FF
:100690002100380000F01CF9002851D16D1EF5D161
:1006A000A5686669002E0BD029786068B84760603D
:1006B000002845D0E069401CE0616D1C761EF3D136
:1006C0002820205C400710D5202069460870049837
:1006D00001280ADB049D01236A462100380000F04E
:1006E000F7F800282CD16D1EF5D10020059020616F
:1006F000019A00A9491C02982369C01800F09AF9D0
:1007000020690199401820611A980088002800D0BB
:1007100060E7059800284FD1606A2169401AA169F5
:10072000401A6169461A2820205C400711D4012E26
:100730000FDB350020216068B8476060002803D1D6
:100740000020C043059037E0E069401CE0616D1E69
:10075000F0D12369029A2100380000F0B9F800288E
:10076000EED1A569012D0ADB30216068B8476060D1
:100770000028E5D0E069401CE0616D1EF4D163699A
:10078000A2682100380000F0A3F80028D8D1282062
:10079000205C40070DD5012E0BDB35002021606861
:1007A000B84760600028CBD0E069401CE0616D1E56
:1007B000F4D1002020616062029809A9884201D02A
:1007C00000F066F905981BB0F0BD0000FFFFFF7F49
:1007D0000000000000000000F2B582B00400E068F4
:1007E00000906846007A6F2801D1082506E0202293
:1007F0000243782A01D00A2500E010251827216835
:100800000E00642801D0692803D1002901D5704267
:100810000600002E0DD1206A00280AD1082D31D102
:100820002820205C00072DD5172730200099C87597
:1008300028E07F1E01973000290000F086F9303152
:10084000C9B23A2903DB6846007A51380918009882
:10085000C1553000290000F078F9060004D0A068E6
:100860000099C9198842E4D3082D0BD12820205CB7
:10087000000707D50098C05D302803D07F1E3020C8
:100880000099C8551820C01B60610099C919A16062
:10089000216A884206DA081AA061208D0B490140BE
:1008A000218510E000290ED52821615C14220A4020
:1008B000102A08D1616A2269891AA269891A0F1A55
:1008C000012F00DBA76103B0F0BD0000EFFF0000C7
:1008D000F1B50E0014000027002B0FD01D00217869
:1008E0007068009A90477060002806D0F069401C3C
:1008F000F061641C6D1E01D0F1E7FF433800F2BDCA
:10090000F8B504000F0015001E0000F075F9330063
:100910002A003900200000F083F9F2BDC9B200E0DE
:10092000401C02788A4202D0002AF9D10020704788
:10093000010000E0491C0A78002AFBD1081A704720
:10094000C9B201E0401C521E002A03D003788B423A
:10095000F8D170470020704780B500F04DF90120B4
:1009600002BDFEE770B505002C000F34072084435C
:10097000C046C046A54233D2082C04D2082402E067
:10098000083000F085F82448026811000CD1011DE0
:100990000A68002A20D01368A34212D2111DF7E77B
:1009A0001D68A5420DD2191D0B68002BF8D11268E5
:1009B000011D00E0191D0B6893420DD01D68A54272
:1009C000F8D300290CD00D682A681300083BA34215
:1009D0000AD26A680A600FE000F040F90028CFD11F
:1009E000C046C046002070BD2B190B606E685E606B
:1009F000121B0B681A602C600968002904D04A6831
:100A0000002A01D0091D00E000210160C046C04657
:100A10000835280070BD0000B40A002070B504003D
:100A20000D00160000F0E8F832002900200000F068
:100A3000EDF870BD124207D08B0706D00B78491C29
:100A40000370401C521EF7D87047830706D00B78FE
:100A5000491C0370401C521EF9D1704770B4103A03
:100A600003D378C9103A78C0FBD2530701D318C911
:100A700018C001D508C908C0D20704D30B88038069
:100A8000891C801C002A01D50B78037070BC70474C
:100A9000002800D1704738B50838040020680828BD
:100AA00036D3400734D1C046C0461A4841680029B1
:100AB00001D08C4203D26160446019E019004B6898
:100AC000002B01D0A342F9D30B68CD18AC421DD343
:100AD000A54204D122689A180A600C0008E04A680E
:100AE000002A03D02368E3189A420FD362604C6057
:100AF000616800290AD02268A3188B4206D100231E
:100B0000036008681018206048686060C046C046EE
:100B100031BD0000B40A0020F446002804D4494244
:100B200000F013F8404260474042002905D45FD0EE
:100B300000F00BF8404249426047494200F005F896
:100B40004942604703460B43E6D40022030A8B4226
:100B50000BD203098B4219D243088B422ED2411A81
:100B600000D20146524110467047FF2209023FD091
:100B700012068B4205D3121209028B4201D31212C4
:100B8000090203098B4219D300E0090AC3098B4209
:100B900001D3CB01C01A524183098B4201D38B018F
:100BA000C01A524143098B4201D34B01C01A524132
:100BB00003098B4201D30B01C01A5241C3088B4277
:100BC00001D3CB00C01A524183088B4201D38B0062
:100BD000C01A524143088B4201D34B00C01A524104
:100BE000884200D3401A5241CFD201461046704786
:100BF00008B500F049F808BD80B5034800F045F895
:100C0000806902BD000000004C000020002804D1D3
:100C10000EA003C803C20020704701700120704776
:100C2000002904D10BA003C803C300207047002A89
:100C300002D10120C0437047002801D00A78028009
:100C40000978481E8041C043C00F70470000000073
:100C500000000000000000000000000007490868D4
:100C6000002801D000207047054807229043086003
:100C700004499143091A0160704700BFD00A00205F
:100C8000C7040020C006002070477047F0B5E3B0ED
:100C900058A000F073FA00F0D9FB012072490870E7
:100CA00000F0A0F9C820400000F02BFC00F0EEFDA1
:100CB000854F388800F074FC00F084FE642000F05A
:100CC00020FC00F045F9009068460088052800DA0D
:100CD0008AE07E48006800F0EBFEC1B25DA000F043
:100CE0004DFA42AC4025402600F032F900906846AB
:100CF0000088322878DB684640882080A41C761E55
:100D0000F2D1402142A800F080FF69468880019915
:100D100009B200BF3CA000F031FA00F05DFE642093
:100D200000F0EFFB22AC402600F012F9009068467C
:100D30000088322858DB684640882080A41C761E34
:100D4000F2D1402122A800F060FF0400210000BF82
:100D500032A000F013FA00F04FFE642000F0D1FB47
:100D600002AE00F0F5F800906846008832283BDBC0
:100D7000684640883080B61C6D1EF2D1402102A822
:100D800000F043FF0500290029A000F0F7F90198C1
:100D900000B2B880FC803D8101F017F8684E300049
:100DA00001F022F86749300001F094F8019800B290
:100DB00081B2B01C01F08EF8A1B2634801F08AF84C
:100DC000A9B2624801F086F8386900F071FE81B27C
:100DD000814801F07FF801F001F800BF19A000F090
:100DE000CDF9012063B0F0BD20A000F0C7F90020CC
:100DF000F8E7000043616C696220537461727420EB
:100E00003835550D0A0000005A65726F2050686130
:100E1000736520313A2025640D0A00005A65726F0F
:100E200020506861736520323A2025640D0A000065
:100E30005A65726F20506861736520333A202564CB
:100E40000D0A000043616C696220446F6E650D0AF3
:100E50000000000043616C696220766F6C7461670A
:100E6000653A25640D0A0000B800002043616C69F2
:100E700062204641494C3A204C6F77205369676E97
:100E8000616C0D0A0000000010B500F09BFD962477
:100E90006400200001F0B5F800F05AF80A49086033
:100EA00000F09AFD200001F0ACF800F051F8844900
:100EB000086000F0A1FD200001F0A3F800F048F860
:100EC0008F49086010BD00000400002000000020D1
:100ED00030B581B08B4C6088A188401A00B20028E0
:100EE00002D5E1210901401875494988E288891A2B
:100EF00009B2002902D5E12212018918804A5288DC
:100F00002389D21A12B2002A02D5E1231B01D2187A
:100F100012B209B200B201F095F80500E5607A4816
:100F2000006800F0C5FD80B2009064480388228804
:100F3000290000BF7DA000F021F901B030BD000004
:100F4000007C000834120000047C0008067C0008C5
:100F500010B584B080A00068009000F06FFC1F48BE
:100F600001780029FCD01E4C200000F0D8FD019033
:100F7000A01C00F0D4FD029001A80221405E02A94D
:100F80000222895E401A010402D5E12109014018BC
:100F9000694689886A46118084B25B48006800F01F
:100FA00087FD2300C2B2684601884448008800F0EB
:100FB000DBFE69464880002803D5E121090140187D
:100FC00004E04E49884203DB491E401A69464880C6
:100FD000009804B010BD0000087C0008D70A00206B
:100FE000C0060020F0B583B0484C00206946087167
:100FF0009620400000F085FA200000F0F5F9C820A6
:1010000000F07FFA424E434F00F018FC3878002879
:10101000FCD0300000F083FD0090B01C00F07FFD9C
:10102000029068460221405E02A90222895E401AAF
:10103000010402D5E1210901401869460D8883B2F7
:1010400000933148006800F033FD009BC2B22900D4
:101050001A48008800F088FEC92D1EDB0120694671
:101060000871FE208005210001F022F9040000F043
:10107000BBF9C82000F045FA2000274901F0A8F983
:10108000C2D32048006901F0B7F902000B0000BF8D
:1010900032A000F073F803B0F0BD68460079002874
:1010A000DFD0052DDDDA1D48210001F001F9154CD6
:1010B00020611B4901F0FCF86061E2E7D40A0020DE
:1010C000C40A002017480188174A914200D070478F
:1010D00010B50C4C4188A1808188E180C1882181B4
:1010E000008901003239652907D201F09FF901001A
:1010F00021610B4801F0DCF8606110BD110E0000A9
:10110000C80A0020040000200000002000009642D1
:10111000C0060020D70A00200000F6420000A0C050
:101120000000A0C1007C0008341200004449535460
:101130003B253035643B414D503B253034643B54B6
:10114000454D503B253034643B564F4C543B253085
:1011500033640D0A000000000000000041504420EC
:1011600053617475726174696F6E20566F6C74612F
:1011700067653A20252E31660D0A00000EB400B5D1
:1011800082B003A900916B46020001210348784414
:101190000A30FEF795FF029906B00847D1360000E5
:1011A00000B58BB001F052F9012000F002FE0120E1
:1011B00000F0F8FD002001F091F9002001F095F910
:1011C000A0218903002001F065F9012001F06EF9EA
:1011D000192001F0AFFA0028FAD0022001F072F9CC
:1011E00001F077F90828FBD101F040FB9448006832
:1011F000FA218900FFF7A9FC401E8021490488429A
:101200003BD290494860904802681202120AC023FB
:101210001B0613430360002088600720086000F06D
:101220002DF800F025F900F084F801A801F09AF9F2
:101230000298C849FFF789FC8100081880000090D7
:101240000098002817D00098401E009000980028B1
:1012500011D00098401E0090009800280BD00098F4
:10126000401E00900098002805D00098401E009075
:1012700000980028E7D10BB000BDFEE7F0B583B0C1
:1012800001218C20C00301F019FA80200090002673
:101290006C4666710127277169469020C00501F0F0
:1012A00025FB80219020C00501F066FB3D020095E2
:1012B00069469020C00501F019FB29009020C00567
:1012C00001F05AFB022500956946A34801F00EFB88
:1012D0000221A14801F04EFB3020009003206071F4
:1012E000207169469020C00501F000FB0097694617
:1012F000A84801F0FBFA00956671A6712571694650
:101300009020C00501F0F2FA022201219020C005D0
:1013100001F034FB0420009069469020C00501F0E4
:10132000E5FA022202219020C00501F027FB03B05C
:10133000F0BDF0B589B08027FF010121380001F030
:10134000C7F9954801F0EAF8684601F008FB7E000D
:10135000009600246D466C7102202871E871694680
:101360009020C00501F0C2FA01220F219020C00593
:1013700001F004FB9020C005008A304203D1012017
:10138000864908702EE00097EC7169469020C005F0
:1013900001F0ACFA01220E219020C00501F0EEFA16
:1013A000FA208002029003940494059407940C2080
:1013B0000690954C01229549200001F061FB94486C
:1013C00001680902090A802212060A4302603003FA
:1013D0009049086002A9200001F0E2FA01212000F2
:1013E00001F02CFB09B0F0BD10B504008A4901F0F2
:1013F00083FB01D84C1E04E0884900F0E9FF00D2CD
:101400000C008748210001F08BFB864900F050FF5B
:10141000854901F085FB0100844800F081FF844983
:1014200001F07EFB834901F0D3FB00F041FB81B268
:101430008020C00501F07EFD7F48046010BD0000E3
:101440003C00002010E000E020ED00E000B581B09D
:10145000C0218020C00501F06FFD01B000BD00B5C6
:1014600081B000218020C00501F066FD01B000BD03
:10147000F0B589B00121012001F034F98024E405A0
:10148000200001F0FBFB03A801F04AFD684601F0D3
:1014900078FC002069460880FF22E0320192088132
:1014A0004880200001F040FC03AD70202880012717
:1014B0006F800A2005900226AE8103A9200001F06A
:1014C0009FFC702028806F80C0200590AE8103A90A
:1014D000200001F0D1FC0821200001F031FD08219D
:1014E000200001F037FD0121200001F053FC012113
:1014F000200001F067FC0121200001F055FC09B03B
:10150000F0BD10B58CB0040001A801F02BF80298D2
:101510001049FFF71AFB604300900098002817D08D
:101520000098401E00900098002811D00098401E9E
:101530000090009800280BD00098401E0090009862
:10154000002805D00098401E009000980028E7D1A0
:101550000CB010BD102700000014004830B581B059
:1015600000F064FF05003548290001F0D9FA34493C
:1015700000F09EFE04003348290001F0D1FA290052
:1015800001F0CEFA210000F093FE2F49086001B06F
:1015900030BD00000004004801000010D60A002001
:1015A00010B529480168294801F0BAFA284900F025
:1015B0007FFE0400184901F09FFA01D84C1E04E098
:1015C000164900F005FF00D20C001548210001F07B
:1015D000A7FA144900F06CFE134901F0A1FA0100CA
:1015E000124800F09DFE124901F09AFA114901F0EB
:1015F000EFFA00F05DFA81B28020C00501F09AFC9C
:101600000D48046010BD00000038014005010500D0
:1016100018E400E000E100E00100E64200008C4236
:101620005305833F1498B1C2F9171D3C5C8FA23F4C
:101630000000F0433333534000000020FB40F2BC75
:101640009EAF8542AF670E36C00A0020612CF93E7E
:101650000000BC4200B581B000F006F800F048F888
:1016600000F084F801B000BD70B588B00121C80257
:1016700001F02EF8954C200001F000FB03A801F0CA
:101680004FFC684601F07DFB6E4605203080904D92
:1016900028680621FFF759FA8E49FFF756FA80B2FB
:1016A000401E01900020308170806946200001F0CA
:1016B0003BFB03AE6020308001207080286806214B
:1016C000FFF743FA8349FFF740FA0004400C059006
:1016D0000220B08103A9200001F0FCFB08212000BA
:1016E00001F042FC0121200001F06CFB08B070BD4C
:1016F00010B586B00121480200F0EAFF764800F0FC
:10170000FBFE684601F077FC744C200001F052FCAF
:10171000002000906A461071402103910901029156
:101720000490042005906946200001F052FC01223B
:101730003021200001F070FC200001F072FC00213B
:10174000200001F094FC0121200001F085FC012122
:10175000200001F058FC0121200001F090FC00283D
:10176000F9D0200001F070FC06B010BD10B58CB0AF
:101770000121012000F0A2FF594C200001F092FC51
:10178000584800905848019000200290FA214900E2
:101790000391049080210591803106918900079181
:1017A0000890C021890109910A906946200001F042
:1017B000DDFC0121200001F0F4FC012202212000C7
:1017C00001F0F9FC49480168494A0A40C021090270
:1017D00011430160600D474908600CB010BD10B5A1
:1017E00086B00121480200F073FF3B4800F084FE00
:1017F0003A4C200001F0DEFB684601F0FCFB0020C3
:1018000000906A461071039002900490059069461A
:10181000200001F0DEFB200001F003FC002120008D
:1018200001F01AFC0121200001F0EDFB0121200054
:1018300001F025FC0028F9D006B010BD70B5234E8C
:101840000021300001F0B0FA244C0021200001F00A
:10185000DAFB234D0021280001F0A3FC2248E860B8
:10186000FA20400068600121280001F09AFC002065
:10187000214908700121200001F0C5FB200001F082
:10188000E3FB0121300001F08FFA70BD10B5FFF7C6
:10189000A6FF124C04229101200001F0BDFB2000A4
:1018A00001F0D2FB0421200001F0E9FB0028F9D06F
:1018B000200001F0CEFB11490880FFF74FFEFFF733
:1018C000D3FEFFF715FFFFF751FF10BD002C0140BD
:1018D0003C00002050C300000040000100240140F3
:1018E0000800024040240140C006002008E400E057
:1018F000FF00FFFF00E100E0D70A0020D40A00202B
:1019000000B581B0022100BF58A001F0BBFC02214C
:1019100058A001F0B7FC332158A001F0B3FC02211C
:1019200055A001F0AFFC022151A001F0ABFC01B0C9
:1019300000BDF8B582B006000F0014006846002113
:10194000002206C0F8012100FFF7FFF80D00F601A4
:10195000F8012100FFF7F9F83018244940186946CA
:10196000220A0A704C708203920F8A70020ACA70AF
:101970000871200BF02202402803000F1018487154
:10198000280A8871CD7108226846007A01F0D6FCD9
:1019900003B0F0BD70B5050016001C001A2322002C
:1019A000FFF7C7FF2223220031002800FFF7C1FF05
:1019B000022100BF30A001F065FC02212CA001F043
:1019C00061FC70BD00B581B0094B012200211A20D5
:1019D000FFF7E0FF01B000BD00B581B0044B054A40
:1019E000511E1E20FFF7D6FF01B000BD00FEFFFF15
:1019F000E204000021030000F0B583B06846002136
:101A0000002206C0042568460570E22141700024CA
:101A100084700D27C7707A260671447185714C2138
:101A2000C171082269461A2001F088FC684600212D
:101A3000002206C068460570E22141708470C770BC
:101A4000067144718571CC21C1710822694622203A
:101A500001F074FC022100BF07A001F013FC022179
:101A600003A001F00FFC03B0F0BD000003FF000075
:101A700003FA0000BBC00000B1AC00000F004F80B3
:101A80006F8080808080AAFF0019000AF500001393
:101A900004E2000AF500033600010C00000000001B
:101AA000000000000000000000010C000000000029
:101AB0000122D2070118090E7F3910D449421F3183
:101AC0000FD4001805D2C0011043C84000D5D04340
:101AD0007047C0011043C84005D440427047002001
:101AE00070470042F3D510007047FEE710B5A44CD4
:101AF0000022A7A003C801F0B9FC01F0D7FE2060C6
:101B00000122A3A003C801F0B1FC01F0CFFE606088
:101B100001468020C00501F003F8A06010BDF0B5BB
:101B200083B00024002605007D27954880682100A9
:101B300000F0F6FF310000F0F3FB0600288800F00B
:101B400075FC310000F0B4FB06008D488068310060
:101B500000F0E6FF210000F0E3FB0400A88800F09D
:101B600065FC210000F0A4FB040008357F1EDCD1D9
:101B700083480068310000F0D3FF824901F028F863
:101B800005007F484068310000F0CAFF01002000D6
:101B900000F0C6FB7B4901F01BF804002800290077
:101BA00000F0BEFF06002000210000F0B9FF310068
:101BB00000F07EFB00F020FC01F0A9FE06000F0003
:101BC000200000F019FC00900191280000F014FCA6
:101BD000009A019B01F0FAFE04000D00300039006C
:101BE00001F072FF694608812000290001F05EFEC5
:101BF000654900F095FF684900F0EAFFFFF758FFDC
:101C000002A94880029803B0F0BDF2B581B001008E
:101C10000024002600206B469B88002B62D06B4678
:101C20009B8800939D07AD0F584B002D08D04700AF
:101C3000CF5F963F9F4200D30124401C6D1EF6D11A
:101C4000009DAD081DD04700CF5F963F9F4200D357
:101C50000124401C4700CF5F963F9F4200D30124E0
:101C6000401C4700CF5F963F9F4200D30124401C99
:101C70004700CF5F963F9F4200D30124401C6D1E5A
:101C8000E1D1002C30466A4692880ED0009295072A
:101C9000AD0FE122D200414B541C002D2ED0470045
:101CA000CF5FA74225DBDF1B24E093079B0F05D006
:101CB00044000C5F3619401C5B1EF9D1920811D00C
:101CC0004300CB5EF318401C44000C5F1B19401C02
:101CD00044000C5F1B19401C44000C5F1E19401C83
:101CE000521EEDD1300069468988FEF72BFF00B205
:101CF00038E0D71BF619401C6D1ED0D1009DAD08F1
:101D000025D04700CF5FA74201DBDF1B00E0D71BD8
:101D1000F619401C4700CF5FA74201DBDF1B00E044
:101D2000D71BF619401C4700CF5FA74201DBDF1B22
:101D300000E0D71BF619401C4700CF5FA74201DB2C
:101D4000DF1B00E0D71BF619401C6D1ED9D1140013
:101D5000300069468988FEF7F5FE261A01D5600035
:101D6000361830B202B0F0BD18B27047962802DBC8
:101D70000B49884201DB01207047002070470000BA
:101D8000A80A00200000FA420000E144E50C00002F
:101D9000000000802F1BE43FDB0F494018150000B6
:101DA0007B0D000045490A6801239A4310430860EF
:101DB000704742490028086803D0102202430A6095
:101DC000704710229043086070473D48C16809067B
:101DD00003D53C4901603C49016070473B480168BC
:101DE00080220A4302607047F1B4B0242403042126
:101DF00004200122364B1D68154001D0012008E067
:101E00001D68ED0601D5022003E01D680D4000D0DD
:101E10000320102604E01F680F4000D00320641E3A
:101E200001280CD1002C0CD004201F68174001D0D1
:101E30000120F4E71F683740EDD00220EFE7002CC7
:101E400000D10520042836D15868022404435C6080
:101E5000009898605868402404435C60B0242403D0
:101E600004201D68154001D001200EE01D68ED061C
:101E700001D5022009E01D680D4006D0032004E0D2
:101E80001F680F4000D00320641E01280CD1002CD5
:101E90000CD004201F68174001D00120F4E71F6810
:101EA0003740EDD00220EFE7002C00D10520596823
:101EB00002229143596001B0F0BC704700200240FB
:101EC0000420024023016745AB89EFCD102002407A
:101ED0000C200240F3B4B024240304210420012286
:101EE0002F4B1D68154001D0012008E01D68ED064C
:101EF00001D5022003E01D680D4000D0032010260C
:101F000004E01F680F4000D00320641E01280CD19C
:101F1000002C0CD004201F68174001D00120F4E7EA
:101F20001F683740EDD00220EFE7002C00D10520DC
:101F3000042832D158681043586068468088009C55
:101F40002080B024240304201D68154001D0012006
:101F50000EE01D68ED0601D5022009E01D680D4068
:101F600006D0032004E01F680F4000D00320641E49
:101F700001280CD1002C0CD004201F68174001D080
:101F80000120F4E71F683740EDD00220EFE7002C76
:101F900000D1052059689143596002B0F0BC7047E8
:101FA0000C20024030B589B00121022000F09AFBDC
:101FB0001E4D280000F062FE03A800F0B1FF684645
:101FC00000F0DFFE6C461A48006801F09FFD002219
:101FD000184B01F0ABFD0022174B01F008FE01F099
:101FE00061FD2080154801900020208160806946B5
:101FF000280000F099FE0121280000F0D5FE09B06C
:1020000030BD002810D00D49884200D1481E0C492F
:102010000A6892B2101880B2904202DA0B689342BA
:10202000FCD30A688242FCD37047000000040040E1
:102030003C00002080842E410000F0BFFFFF000024
:1020400024040040F1B582B00D001400FFF78EFEAD
:10205000002839D02800FFF789FE002834D020005E
:10206000FFF784FE00282FD08EA0FFF787F8029F8D
:102070003FB284487843E1210901FEF763FDE12680
:10208000F600B74201DB8049401801902F007F48DD
:10209000784300907100FEF755FDB74201DA050064
:1020A00001E07B4945187B4F674338007100FEF71C
:1020B00049FDB44201DB78494018019949190818D3
:1020C000C021FEF73FFD41E02F00704847430097D5
:1020D000704F200078430099401A7049FEF732FD96
:1020E0000600E1200001201878430099401A6B494E
:1020F000FEF728FD36B200B2864208D0292806DA5B
:10210000002E03D4002802D4002E00D106005F4C1C
:1021100074430098E1210901FEF714FD2018594984
:10212000FEF710FDC11E09B2002900D50021881D4F
:1021300000B201900091554B524A2900029800B21A
:1021400000F006F84111890E0818801103B0F0BDA7
:10215000F0B593B00C0015001E0000216A465160D6
:10216000199909B2091D09B202914D4F189909B286
:10217000694300916843E1210901FEF7E3FC0099FE
:1021800008180390401904904019059040190690D2
:102190004019079040190890189D2DB2754374435B
:1021A0002000E1210901FEF7CDFC281809A905222C
:1021B00008608019486080190831521EF8D11899BA
:1021C00009B2189800B2199A12B2904244DA03AADE
:1021D000189800B2189B1BB2029CA34235DA234622
:1021E000189C24B21B1BDC070BD51468099D641BCB
:1021F00000D56442BC4203DA27006C46E180A0802F
:10220000401C5B0821D009AC00B2189D2DB2451BC3
:10221000AD00641915682668AE1B00D57642BE4233
:1022200003DA37006E46F180B080401C6668AD1B53
:1022300000D56D42BD4203DA2F006D46E980A880CB
:10224000401C5B1E0834002BE4D1491C121D199858
:1022500000B209B28142BBDB03A801990914189AA4
:1022600012B2891A8900405809A9019A12B2189B22
:102270001BB2D21A920089584018C10F081840109A
:1022800013B0F0BD9CE600006419FFFFAFC300006F
:10229000513CFFFFAAC10000563EFFFF50661C00E4
:1022A00040420F005A65726F206D6F64650D0A0021
:1022B0000122D20703004B402ED4431A01D2C01A88
:1022C000C91830B44B180418240E1B0E22D0FF2C52
:1022D00020D0E31A182B1DDC09021143C40D641E23
:1022E0000002104394461925ED1A0A00AA40D9406D
:1022F000451801D36D08A41CE405D209280A2D064F
:102300002A436546AA41604103181B0EFF2B01D3E7
:10231000C00DC00530BC7047514006E05140CCE7CD
:102320000122D20703004B40F8D4431A03D2C01A4B
:10233000C9185040514030B44B18090211430418D9
:10234000240E1B0E40D0FF2C3AD025009D410BD30C
:102350001ED8C50D4002401A0BD3ED050100400AFE
:10236000C90591416841D5E7C50D40024918401A99
:10237000D0D001214008491C0018FCD58C4204D360
:102380006D1A000AED054019C4E7E8051040C1E7E1
:10239000182DBFDCAC1C0D00E140E5414D40012D86
:1023A0004941C40D00021043451A01D46D199543EB
:1023B000641EE405280A2D069541604130BC704733
:1023C000FF2BA7D1D843A5E72442A3D10020A1E742
:1023D0000CB4012212060318DA4207D84B18DA426D
:1023E00004D802000A43921802D288420CBC7047FB
:1023F000FCD08142FAE7FEE7012212060118CA4228
:102400000AD28A420DD83822120609098918C20F49
:10241000D20711434007704700D04908090901431A
:1024200001E0C10FC90700207047FEE79D210200AF
:102430000AD002D4491E9218FCD5C905100A12060A
:10244000524100D3012A48417047FEE73E480168E7
:1024500001220A43026041683C4A0A404260016826
:102460003B4A0A40026001683A4A0A4002604168F9
:10247000394A0A404260C16A0F229143C162016B2E
:10248000364A0A400263416B0122914341630021B5
:102490008160704710B4324A1368864C1C40146047
:1024A000136801431943116010BC70472649002886
:1024B000086803D080225204024301E07E4A0240B1
:1024C0000A60704726490A6803239A43104308604C
:1024D0007047234801680C200840704720490A686B
:1024E000F0239A431043086070471D490A68874BE0
:1024F000134018430860704719490A68844B134019
:102500000B600A6883B213430B60CA6A864B1340A0
:10251000CB62CA6A000C1043C8627047020F83493D
:10252000012A04D10A6803239A430A6007E0022AB9
:102530000A6801D17E4B00E0894B13400B600A68AA
:102540001043086070470000001002400CB8FF08FC
:10255000FFFFF6FEFFFFFBFFFFFFC0FFACFEF0FF3B
:102560000410024070B5050000207E4E31680C2238
:102570000A40082A02D00C2A17D018E030683268C6
:102580000F21840C0C40A41CC0204002104003D139
:1025900020007549484306E0B26A74481140491C5E
:1025A000FEF7D3FA6043010002E0714900E06F4991
:1025B000296034686F4A0F212B6824092140515C3F
:1025C000CB406B6031684905490F515CCB40AB6033
:1025D000F16AC90501D4684905E03168490401D4AC
:1025E000590800E09908E960F16A490601D4634995
:1025F00001E0802109022961F16AC90601D45B4921
:1026000000E0296869610321F26A0A4001D1A968E2
:1026100011E0F26A0A40012A01D129680BE0F26A4E
:102620000A40022A02D18021090204E0F26A114024
:10263000032901D14D49A961C0218902F26A0A40EA
:1026400001D1A96813E0F26A0A4080235B029A4232
:1026500001D129680BE0F26A0A405B009A4201D17D
:10266000990804E0F26A0A408A4201D13F49E961CF
:10267000C0210903F26A0A4001D1A96813E0F26A95
:102680000A408023DB029A4201D129680BE0F26AFA
:102690000A405B009A4201D1190904E0F26A0A403B
:1026A0008A4201D131492962F16A090600D43048D1
:1026B000686270BDFF7FC2FFFFFFFFFE304A002946
:1026C000116802D008431060704781431160704761
:1026D0002C4A0029116802D00843106070478143DA
:1026E00011607047284A0029116802D00843106021
:1026F0007047814311607047244A0029116802D055
:10270000084310607047814311607047FFF8FFFF76
:10271000FFBFFFFF1E4A0029116802D00843106066
:102720007047814311607047FFFEFFFF3010024089
:10273000FFFFFCFF4109174A002901D1116808E099
:10274000012901D1116A04E0022901D1516A00E096
:10275000516BC006C00EC140C807C00F70470000D3
:10276000FFFFF3FF0410024000093D0000127A0051
:10277000006CDC021C000020809FD500128000004D
:1027800014100240181002401C1002400C100240AD
:10279000101002400010024082B048480168012237
:1027A0000A4302604168464A0A4042600168454A5D
:1027B0000A4002600168444A0A4002604168434A94
:1027C0000A404260C16A0F229143C162016B404AD4
:1027D0000A400263416B0122914341630021816001
:1027E00001910091016812040A430260A021C9010D
:1027F00080229202036813400093019B5B1C0193AB
:10280000009B002B02D1019B8B42F3D1016889030D
:10281000CA0F00920099012926D111212D4A116079
:10282000416841604168416041682B4A0A4042600A
:102830004168882252030A434260016880225204A0
:102840000A4302608021890402680A40FCD0416882
:10285000032291434160416802220A4342600C21F5
:1028600042680A40082AFBD102B0704770B51B4C81
:1028700020680F250C210140082914D12068216807
:10288000860C2E40B61CC0204002084003D11448DC
:102890004643300008E0A16A12482940491CFEF76F
:1028A00054F9704300E00F480F49086120680A6935
:1028B00000090540485DC2400A6170BD0010024039
:1028C0000CB8FF08FFFFF6FEFFFFFBFFFFFFC0FF96
:1028D000ACFEFFFF00200240FF7FC0FF041002405B
:1028E00000093D0000127A002C00002070B4002383
:1028F0000022012494400D682540A54229D10D797C
:10290000012D01D0022D11D1856803269E40B543CB
:10291000856085684E799E402E4386608588A543F4
:10292000858084888D7995402543858003259D4049
:10293000EC4305682540056005680E799E402E43EE
:102940000660C5682C40C460C468CD799D402543AD
:10295000C560521C9B1C102ACBD370BC7047044925
:10296000016000210171012242718171C1717047C2
:10297000FFFF0000816170470185704710B4CB08EC
:102980009B00C0184907C90E036A0F248C40A3435B
:102990000362036A8A401A43026210BC7047FEE772
:1029A000F0B58BB004000D00206801218843206041
:1029B00060682F490140A8680843606020682D497D
:1029C000014068680843E9680143286908432060BA
:1029D000A0682949014068690843A0606846FFF77C
:1029E000C1FD1C48844201D1069E0AE01A48844277
:1029F00001D1079E05E01948844201D1089E00E0FC
:102A0000029E2D682068000400D576003000290061
:102A1000FEF79BF8070030002900FEF796F86808DB
:102A2000814200D37F1C2068000404D5134838403D
:102A300039074F0F0743A7810BB0F0BD002901688C
:102A400003D001220A4302607047012291430160D2
:102A5000704700000038014000440040004800403A
:102A6000C905C90D01857047808CC005C00D704730
:102A7000FFCFFFFFF3E9FFFFFFFCFFFFF0FF0000C8
:102A800010B40B041B0E01248C40022B01D1001D3D
:102A900002E0032B00D10830002A016802D00C4369
:102AA000046001E0A143016010BC704702000020F7
:102AB000D269114000D0012070470162704730B4E4
:102AC000020000200C04240E01258D40012C01D1B0
:102AD000146804E0022C01D1546800E094682C4092
:102AE000090C01258D40D1692940002C02D0002914
:102AF00000D0012030BC70470CB40122120603182C
:102B0000DA4207D84B18DA4204D802000A43921876
:102B100002D281420CBC7047FCD088420CBC70478A
:102B200030B405004D400122D20715404B1804185F
:102B3000240E2ED01B0E32D0FF2C34D0FF2B3AD0D7
:102B4000E4180002090210431143000A090A9446DE
:102B5000C2B24A43000AC3B24B43000A4843110AB7
:102B60005B181A43D2B2190A091801D44918641E15
:102B7000080A7F3C23DBFE2C08DAE4050906114332
:102B8000634699416041284330BC7047FF20C0052F
:102B9000F9E728001B0EFF2BF6D1D043F4E72800FD
:102BA000FF2CF1D1F9E74002F7D1FF2B01D1490207
:102BB000F3D1E005E7E7D8054902E4D0EDE74302A9
:102BC0000020641CDFD15B129B1CDCD9D805DAE73E
:102BD00030B405004D400122D20715404B180418AF
:102BE000240E28D01B0E2FD0FF2C34D0FF2B37D033
:102BF000E41A000209021043114343084808D10DAA
:102C00001B1A02D2641EDB181B18DB18834200D388
:102C10001B1A4941F9D37F3426DDFE2C08DAE4057E
:102C20004808C907194391416041284330BC7047A7
:102C3000FF20C005F9E728001B0E03D0FF2BF5D1BC
:102C40004902F3D0D043F1E7FF2C01D14002F9D182
:102C5000FF20C005E9E74002F4D1FF2BF8D1F1E7EE
:102C600028004902E2D0EDE70B0200202442DCD12B
:102C70005B129B1CD9D9D805D7E7FEE710B55049A0
:102C8000884201D1CC0C46E08021C905884206D19A
:102C900001210120FFF73EFD0021012027E05249DC
:102CA000884206D101210220FFF734FD00210220D5
:102CB0001DE04E49884206D101211020FFF72AFD70
:102CC0000021102013E04A49884206D1012120202A
:102CD000FFF720FD0021202009E04649884209D164
:102CE0008C0D01212000FFF715FD00212000FFF7CA
:102CF00011FD10BD4049884202D1802464020AE0DF
:102D00003E49884202D18024A40204E083498842DB
:102D100009D18024E40201212000FFF7EDFC00210D
:102D20002000FFF7E9FC10BD10B40388244A90424C
:102D300006D08024E405A04202D02B4CA04203D14F
:102D40004B4C1C404B882343284CA04203D0494C99
:102D50001C400B89234303804B68C3620B880385A7
:102D6000904208D0244A904205D0244A904202D092
:102D70006A4A904201D1897A01860121818210BC80
:102D800070470021C94341600021018001814180D9
:102D9000817270470029018802D080220A4301E035
:102DA0006F4A0A40028070470029018802D0012240
:102DB0000A4301E0614A0A400280704700000000B7
:102DC000002C0140002907D04421415A80221202E0
:102DD0000A434430028070474421415A4904490C57
:102DE00044300180704700000004004000100040A3
:102DF0000014004000200040004001400044014019
:102E000070B4028C5D4B13400384048C8288038B66
:102E10005B4D1D400B881B022B435A4D25408C896E
:102E20004E88264334012C434E4DA84202D0564EC4
:102E3000B04215D1554E16400A8A92003243A8423C
:102E40000ED1474D2540CC8924012C43504D2540BF
:102E50008C8824012C434F4D15404A8A92002A4306
:102E60008280038389688163048470BC704700009A
:102E70008FFF0000FFFC000070B4028C464B134033
:102E80000384058C8288838B314C1C400B88234340
:102E9000424C2C408D894E882E4335022543314CBF
:102EA000A04210D13B4C2C40CD892D022543374CFC
:102EB0002C408D882D022543394C14400A8A4E8AB5
:102EC000164332012243828083838968C16305846B
:102ED00070BC704770B4028C324B13400384038C77
:102EE0008288848B264D25400C8824022C432E4D4D
:102EF0001D408B894E881E4333032B43194DA84236
:102F000004D12A4D15400A8A92012A438280848383
:102F100089680164038470BC704700000048014068
:102F2000002101804180818081608181C181018295
:102F30004182704781637047C1637047FEFF0000A4
:102F4000028B1B4B13400902194301837047000099
:102F50008CFF0000828B084B13401943818370471C
:102F60007FFF0000002C0140828B114B13400902AF
:102F70001943818370470000F7FF0000EFFF000056
:102F8000FF8C0000DFFF000000400140FFFB00005D
:102F9000BFFF0000FFF70000FFFE0000FFFD000084
:102FA000FFCF0000FFEF0000FFDF0000FFBF0000C9
:102FB000FFF700003849884200D0704710B54C0D2B
:102FC00001212000FFF798FB00212000FFF794FB70
:102FD00010BDC268314B13400A681A430B795B037A
:102FE00013438A681A43CB6813430A691A43496931
:102FF0001143C16070470021016001718160C160AF
:103000000161416170470029816801D0012200E01F
:1030100002220A4382607047836A194381624261D7
:103020007047010000208A6880231B0613438B60D1
:10303000F02212028B68521E01D0002BFAD48A684B
:10304000002A00D4086C7047816804220A43826019
:103050007047006C80B270470029C16803D001221C
:103060000A43C260704701229143C1607047C26841
:1030700002239A43C260C2681143C16070470200D4
:103080000020CB0103D59368054A1A4000E012687E
:10309000114000D0012070470024014003D2FFFFFF
:1030A000FFFFFFFE0168524A0A40026000210160F2
:1030B00041608160C1604F49884203D14E48016838
:1030C0000F2250E01431884203D14B480168F022AE
:1030D00049E01431884204D147480168F0221201C6
:1030E00041E01431884204D143480168F0221202C1
:1030F00039E01431884201D13F4831E0143188422F
:1031000004D13D480168F02212042CE014318842B9
:1031100004D139480168F022120524E03749884279
:1031200003D1374801680F221DE01431884203D1D2
:1031300033480168F02216E01431884204D1304847
:103140000168F02212010EE01431884204D12C48AB
:103150000168F022120206E01431884205D12848A5
:103160000168F02212030A43026070470268254B8F
:1031700013408A681A430B6A13430A691A434B695E
:1031800013438A691A43CB6913434A6A1A438B6A09
:1031900013430360CA6842600A6882604968C1607C
:1031A00070470029016802D001220A4301E0104A59
:1031B0000A4002607047002A026802D01143016091
:1031C00070478A430260704701000020CA0001D5A1
:1031D0000D4A00E00D4A1268114000D001207047EE
:1031E000C10001D5064900E00349086070470000AE
:1031F000FEFF0000080002400400024008040240F4
:10320000040402400F80FFFF00040240000002405F
:1032100070B58AB001214805FFF764FA904D280087
:1032200000F014FEC020C0000090002468464471E5
:1032300001218171022101719026F6056946300055
:10324000FFF754FB04220A213000FFF797FB04220A
:1032500009213000FFF792FB280000F0A3FD02A82F
:1032600000F0DEFD05940694079408947D480290D2
:1032700002A9280000F0A8FD0121280000F0DBFDD4
:103280000AB070BDF0B583B005006846017100F06A
:1032900047FE0600724FFC0B2100380000F0FAFDDB
:1032A000002804D000F03CFE801B0A28F4D300F074
:1032B00037FE801B0A283BD2A00800900303684613
:1032C0000279C021380000F0CAFD68460079002864
:1032D00019D02C00684605790221380000F0DAFD8B
:1032E000002804D100F01CFE801B0A28F4D300F053
:1032F00017FE801B0A281BD22178380000F0C8FD79
:10330000641C6D1EE8D12021380000F0C3FD0028A8
:1033100004D100F005FE801B0A28F4D300F000FE63
:10332000801B0A2804D250480188491C018003E010
:103330004D484188491C418003B0F0BD00B581B0C3
:103340000B00D2B20100C02000F002F801B000BDB5
:10335000FBB582B0150000F0E3FD0600404FFC0B0A
:103360002100380000F096FD002804D000F0D8FDC0
:10337000801B0A28F4D300F0D3FD801B0A2861D2F9
:103380006846047A780C0090C302012221003800BC
:1033900000F065FD0221380000F07CFD002804D11A
:1033A00000F0BEFD801B0A28F4D300F0B9FD801B9D
:1033B0000A2847D26846017B380000F069FD802169
:1033C000380000F067FD002804D100F0A9FD801B43
:1033D0000A28F4D300F0A4FD801B0A2832D2002072
:1033E000009080239B042A002100380000F037FD64
:1033F000002D17D0049C0221380000F04BFD00285E
:1034000004D100F08DFD801B0A28F4D300F088FD64
:10341000801B0A2816D22178380000F039FD641C80
:103420006D1EE8D12021380000F034FD002804D1C1
:1034300000F076FD801B0A28F4D300F071FD801B9C
:103440000A2805D308484188491C4180002004E02F
:1034500005480188491C0180012005B0F0BD00002D
:10346000005400400B020000BC0A0020F7B5040025
:103470000D00C6A003C822002B0000F05DFD060071
:103480000F0049004908C3A20CCA00F017FE00D380
:10349000F2E039000022002300F029FE104601D896
:1034A000B94900E0B04932003B0000F0A0FB00F059
:1034B000F9FA0090009800284DD000F01DFB002282
:1034C000AA4B00F039FD06000F00A9A003C8320086
:1034D0003B0000F031FD02000B002000290000F04D
:1034E000E9FB04000D00A4A003C832003B0000F07B
:1034F00023FD02000B002000290000F0DBFB04008C
:103500000D009FA003C832003B0000F015FD020033
:103510000B002000290000F0CDFB04000D0000206E
:10352000D54932003B0000F007FD02000B002000EF
:10353000290000F0BFFB04000D00D0A003C832003A
:103540003B0000F0F9FC02000B002000290000F015
:10355000B1FB04000D00029800998907890F4018FB
:10356000029020002900B5A20CCA00F0C0FD0CD8C2
:103570000022F9239B0500F0A1FD06D20298C007A6
:1035800000D447E10024BB4D44E122002B0000F0B1
:10359000D3FC06000F000298C00730D5A9A003C8CD
:1035A00032003B0000F0C8FCA8A20CCA00F01FFBD0
:1035B00032003B0000F0C0FCA6A20CCA00F017FBD2
:1035C00032003B0000F0B8FCA4A20CCA00F00FFBD4
:1035D00032003B0000F0B0FCA2A20CCA00F007FBD6
:1035E00032003B0000F0A8FCA0A20CCA00F0FFFAD9
:1035F00032003B0000F0A0FC00229E4B37E032007E
:103600003B002000290000F097FC009001919DA054
:1036100003C832003B0000F08FFC9CA20CCA00F0F3
:10362000E6FA32003B0000F087FC9AA20CCA00F0D8
:10363000DEFA32003B0000F07FFC98A20CCA00F0DA
:10364000D6FA32003B0000F077FC96A20CCA00F0DC
:10365000CEFA32003B0000F06FFC75A20CCA00F0FD
:10366000C6FA009A019B00F067FC22002B0000F0D4
:10367000BEFA04000D00CDE020006900490D6E4A3D
:1036800091420CD0002917D12903090B084313D10B
:103690000298002800D1C6E00024764DC3E029033B
:1036A000090B084300D0BEE000F03AFD2121016083
:1036B0000020C0434108B8E0684630C0029C68461C
:1036C00000F036FD20180290684630C8200029001E
:1036D0005AA20CCA00F00BFD0CD80022F9239B055E
:1036E00000F0ECFC06D20298C00700D492E000245F
:1036F000604D8FE022002B0000F01EFC06000F0042
:103700000298C0074AD54FA003C832003B0000F022
:1037100013FC4EA20CCA00F06AFA32003B0000F023
:103720000BFC4CA20CCA00F062FA32003B0000F025
:1037300003FC4AA20CCA00F05AFA32003B0000F027
:10374000FBFB48A20CCA00F052FA32003B0000F02A
:10375000F3FB46A20CCA00F04AFA32003B0000F02C
:10376000EBFB0022434B51E00000E0BF0000303E85
:1037700000000050FB21B94100000060B41011406E
:103780000000002026A6513E0000E03F83C8C96D1E
:10379000305FE43F0000A0FFFFFFDF4132003B004D
:1037A0002000290000F0C8FB0090019135A003C85B
:1037B00032003B0000F0C0FB34A20CCA00F017FA44
:1037C00032003B0000F0B8FB32A20CCA00F00FFA46
:1037D00032003B0000F0B0FB30A20CCA00F007FA48
:1037E00032003B0000F0A8FB2EA20CCA00F0FFF94B
:1037F00032003B0000F0A0FB0DA20CCA00F0F7F96C
:10380000009A019B00F098FB22002B0000F0EFF9DA
:1038100004000D000298800705D580200006454071
:103820002000290001E02000290003B0F0BD00BF06
:10383000425555555555C5BFFF070000FEFFFFFF18
:10384000FFFF3FBE09260A1039BA213E3BA861C6D8
:10385000F97D92BE63AC30909F01FA3EF6FB5116A3
:103860006CC156BFB10255555555A53FAEFFFFFF80
:10387000FFFFDFBF0000F03F5C14D33C00000020DE
:103880009A833B3BB08F2FC310D8E53D8F0C73A1BB
:10389000E1E55ABE4DADE44FE31DC73E3EE3B51929
:1038A000A0012ABFFAF010111111813F0122520527
:1038B0004B18DA4201D9581570475B0D0722D20127
:1038C0009B1A10D9FF2B1DD2DB050122D2070A401B
:1038D00013430903020D1143490AC200524100D9A2
:1038E000491CC81870470AD1800A0A0302435212C1
:1038F000921C04D9D3070B40D00518437047C80F5A
:10390000C0077047C80F0002FF30C0057047012292
:1039100052054B1850D2D3424DD25B0D4BD030B430
:103920001C05A14355082943D40AE41E1B195B0852
:1039300001D3001849411B059C466C19091B00184E
:10394000494100184941641900239202491B07D4D8
:103950006D081DD2091B641900184941491BF7D590
:103960006D080AD20919641B00184941491BEFD59B
:103970006D08F7D301E0520817D0C01861419B1AB7
:10398000AC4100184941801AA941F4D452080AD028
:10399000C01AA1419B186C4100184941801AA941E5
:1039A000E9D45208F4D15B1C6C415808E20710437B
:1039B0006108614430BC70470020590DFBD0C943F9
:1039C000D342F8D802B500F06DFC02BD38B50FB493
:1039D00002A803C800F06CFC0400684603C800F0AD
:1039E00067FC0200012C35DA012A33DA019800283D
:1039F00008D5684603C88022120651406A4603C2B1
:103A0000082500E000250398002809D502A803C86E
:103A100080221206514002AA03C228000625454012
:103A200002A803C86A460CCA00F048FB06D202A8E6
:103A300003C86A460CCA00F079F829E0002C06D5C4
:103A4000684603C802AA0CCA00F070F823E0002000
:103A5000002120E0022A01D1684602E0022C02D1B6
:103A600002A803C81AE0944202D100200C4901E0E8
:103A700000200021019B002B01D5082500E0002536
:103A8000039B002B02D52B0006255D40012A02D1A5
:103A90002A00022555402A0000F046FC05B030BD42
:103AA0000000F03FF4464A1805D200F00FF801D5A7
:103AB00080174008604700F009F80121C9078842D3
:103AC00000D90800404260474A1812D2400DC9028E
:103AD00008430121C9070843520D40210901521A28
:103AE000521C06D452421F3201D4D0407047C01736
:103AF000704700207047FEE7010009D5F4464042B8
:103B000000F006F80122D20711436047010000BF10
:103B100042221201D21E004207D002D4521E0018C7
:103B2000FCD5C10A4005120589187047F0B40E0093
:103B30005E400125ED072E40B446AE0ADF184C1852
:103B4000F4423BD2F74241D2640D43D07F0D38D0CE
:103B5000E41BC902DB0229432B43CF0ADB0A060020
:103B6000B61A9F4104D2641EB6197F41B6185F4150
:103B70006812800D24180018844222DAE80C002113
:103B8000B6197F41B61A9F4102D2B6185F413F1C59
:103B900040414941F4D3241C21DD2405B6197F415D
:103BA000B61A9F4105D33743C60737430026012F76
:103BB0007041614166463143F0BC7047FCD1F74229
:103BC00005D20020C14349054908F3E704D000208D
:103BD000C143F1E77F0DFAD000206146ECE72442B3
:103BE000FAD1401C61410F03F6D30020E2E7F0B4A4
:103BF0000125ED070F005F404FD48B4200D1824278
:103C000005D98446100062468C4619006346DF18C9
:103C10004C18640D7F0D3AD0661C760537D0E61B34
:103C2000352E34DCDB022B43DB0A0C0DC9022943A1
:103C3000C912202E0DDB1700203E06D01F00F741D1
:103C4000F3405F400026012A7741C01871410DD230
:103C500017E01700F741F2405740F3415A40B34094
:103C6000F3405A400026801859410AD3A21C52053D
:103C70000FD0C207012F724117004008CB0718432D
:103C80004908641C24054208AF4170416141F0BC01
:103C90007047641C21050020F9E76B4010E06B4081
:103CA000ABE7F742F3D1E943F1E72442EFD100203B
:103CB0000021ECE7F0B40125ED070F005F40EED4E2
:103CC0000C00871A9C4105D2C01BA141D219634147
:103CD00069406B40AE0ADF184C18F442E1D2640D23
:103CE0007F0DE2D0E61B362ED1DCDB022B43DB0A54
:103CF000A4460C0DC9022943C90A012E28DC04D1AF
:103D0000D6075208DF073A435B08EF0A7642904134
:103D1000994114D039423BD1B61940414941761CF2
:103D2000394204D1761C001849413942FAD0B943CE
:103D30006746B74208D9A41B24052143A7E70042E0
:103D4000EAD13642E8D1A2E7E40AE10700209EE783
:103D5000202E0BDD203E1F00F340F7415F40012A7B
:103D6000002257417E42984191410BE01700F741F4
:103D7000F2405740F3415A40B340F3405A407E422C
:103D8000904199410A0303D2641EB619404149414A
:103D90000027641E24054208AE4178416141F0BC11
:103DA0007047FEE710B53549884202D18024A4034C
:103DB00001E08024E40301212000FEF7ABFC002198
:103DC0002000FEF7A7FC10BD026801239A430260A1
:103DD00002682B4B13404A681A438B681B0213433B
:103DE00003600A68274B13400361026801231343F1
:103DF000036000228260C2608A690B69134383609A
:103E0000826880231B02134383600268CB681343DC
:103E1000036042681C4B1340496919434160704775
:103E20000021016041608160C16001618022120255
:103E30004261816170470029016803D001220A4371
:103E400002607047012291430160704701680122BE
:103E500091430160016801680A430260704730B411
:103E600044680A4D25408905890D294312040A43F7
:103E7000134302991943416030BC7047005400401D
:103E8000FFE0CF00FFFFFFF0FF7FFF07009800FC7F
:103E900081627047020000209269114000D0012029
:103EA0007047FEE77047FEE7704770471E4801689D
:103EB000491C0160704700B581B00420FFF784F908
:103EC000002801D0042011E00220FFF77DF900282E
:103ED00006D00220FFF784F901201449087007E09A
:103EE0000820FFF771F9002802D00820FFF778F9C1
:103EF00001B000BD30B581B00D4D0E4C2100280041
:103F0000FEF7DDFD002809D021002800FEF7D5FDD1
:103F10002800FEF7A9FDC0B200F037FB01B030BDAC
:103F20000148006870470000CC0A0020D70A002032
:103F30000038014005010500F0B50E005E40012586
:103F4000ED072E40B446AE0ADF184C18F44208D2F2
:103F5000F7420ED2640D01D07F0D12D100206146D0
:103F6000F0BD05D1F74201D87F0D05D10020C14336
:103F7000F0BDFBD1640DF9D00020C14349054908CB
:103F80008FE0E419C902DB0229432B43DB0A460D0B
:103F9000C00231438E4630B487B295B27D432E0CB9
:103FA000ADB2140C7C43A419260C240425439CB206
:103FB0007C43A419190C7943270CC919A4B20F0426
:103FC0003C43090C000C97B247432E0CBE193543F5
:103FD000ADB2170C4743360CBF19A6B2BF193E0449
:103FE0003543240C3E0C36199FB24743BF19BCB26F
:103FF0003E0C89191F0C47437F183E043443390C8B
:10400000704680B297B247432E0CBE193543ADB20D
:10401000170C4743360CBF19A6B2BF193E043543EF
:10402000240C3E0C36199FB24743BF19BCB23E0C5C
:1040300089191F0C47437F183E043443390C7746D7
:104040003F0C90B278432E0C80190604ADB22E437B
:10405000050CA0B22D18120C7A435019020C80B234
:10406000240CA4189AB27A43121914042043120C97
:1040700089181B0C7B43C91830BCEF0A394203D1A5
:10408000B61940414941641E6F12BF0DE41B0BDBA2
:10409000FF19BC4211DA240500274208AE417841DD
:1040A000614166463143F0BD641C05D1401C61414D
:1040B000CF0201D34908F4E750E75DE730B40124AB
:1040C00064054D00EC420BD85D00EC4208D80C00B2
:1040D0001C4364000443144304D2994200D190422B
:1040E00030BC7047FCD08B42FAD18242F8E730B442
:1040F000012464054D00EC420BD85D00EC4208D869
:104100000C001C4364000443144304D28B4200D1CE
:10411000824230BC7047FCD09942FAD19042F8E715
:1041200080B50248FCF7B1FD02BD00004000002050
:10413000F1B582B030C849A003C822002B00FFF7B8
:10414000FBFE6A4603C2684603C800220023FFF74D
:10415000CEFF68460CC802D80020424901E000208A
:104160004149FFF744FD6A4603C20021684600F05A
:1041700047FA68460CC80020002100F087FA4AD0B0
:104180003A49FFF7D9FE06000F0039A003C83200F4
:104190003B00FFF7D1FE02000B0020002900FFF7D3
:1041A00089FD04000D0034A003C832003B00FFF776
:1041B000C3FE02000B0020002900FFF77BFD040076
:1041C0000D002FA003C832003B00FFF7B5FE020030
:1041D0000B0020002900FFF76DFD04000D000020FA
:1041E000294932003B00FFF7A7FE02000B00200028
:1041F0002900FFF75FFD04000D0024A003C8320072
:104200003B00FFF799FE02000B0020002900FFF79A
:1042100051FD04000D00029830C0684603C81DA27D
:104220000CCAFFF74BFF06D3684603C81B4A1C4B5A
:10423000FFF75DFF07D80022074B684603C800F070
:1042400037FA6A4603C2684603C8FFF72BFC8007AB
:10425000800F03B0F0BD00BF0000E04183C8C96D0E
:10426000305FE43F0000E03F0000E0BF0000303E70
:1042700000000050FB21B94100000060B410114063
:104280000000002026A6513E5C14D33C0000002014
:104290009A833B3B0000C0FFFFFFDFC10100C0FF6E
:1042A000FFFFDF411FB5FFF73BFF212101601FBD6D
:1042B00002004800400D0C4B98420CD0002801D061
:1042C000002004E00803000B024302D00120C04399
:1042D0007047002070470803000B024301D0022002
:1042E00070470120704700BFFF07000070B4012134
:1042F000002313E00468001D0C4202D04D466D1EE1
:1043000064192360241D121F042AFAD2250096077F
:1043100001D52380AD1C0A4000D02B700268001D1F
:10432000002AE7D170BC7047F7B504000D0050A219
:104330000CCAFFF7DCFE1DD850A003C822002B00DA
:10434000FFF7FAFD00224C4BFFF751FC06000F006F
:104350004AA003C822002B00FFF749FC02000B0013
:1043600030003900FFF7E2FB04000D000298012144
:1043700001430291200029000022424BFFF79EFEDC
:1043800005D30122F9239B05FFF7B1FE53D8220084
:104390002B00FFF7D1FD06000F0032003B0020008C
:1043A0002900FFF7C9FD0090019137A003C8320032
:1043B0003B00FFF7C1FD36A20CCAFFF718FC320024
:1043C0003B00FFF7B9FD34A20CCAFFF710FC009ABE
:1043D000019BFFF7B1FD22002B00FFF708FC040052
:1043E0000D002FA003C832003B00FFF7A5FD2EA251
:1043F0000CCAFFF7FCFB32003B00FFF79DFD2CA22F
:104400000CCAFFF7F4FB32003B00FFF795FD2AA230
:104410000CCAFFF7ECFB32003B00FFF78DFD0022DA
:10442000274BFFF7E4FB02000B0020002900FFF7F9
:104430007DFB04000D000298800702D58020000655
:1044400045400298400709D01FA1800E081803C8F4
:1044500022002B00FFF7CBFB04000D0002980007A1
:1044600002D58020000645402000290003B0F0BDA1
:1044700057CD9E5E1426D13F0000F0BFAA4C58E8ED
:104480007AB6FB3F000040BE845D57134B57B03FE8
:10449000B2934C19ED5EE43FBEDE02B90240F83F34
:1044A000DE39028FC7C0743F8AAB1283000CC83F4D
:1044B00024D7E508B6D8F03F0F34580E5895FD3F85
:1044C0000000F03F000000000000000000000000BD
:1044D00066732D3852C1E03F182D4454FB21F93F3B
:1044E00066732D3852C1F03F182D4454FB21F93F1B
:1044F00066732D3852C10040182D4454FB210940E9
:104500003FD038C6A6F1044070B5FA208000FCF711
:10451000F8FFFCF745FEFDF745FDFDF7E7FAFCF770
:10452000D1FDFEF775FEC820FCF7EBFFFCF78EFF10
:104530002C48FCF759FF3220FCF7E3FFFDF7E0F9C8
:104540006420FCF7DEFFFDF73DFA6420FCF7D9FF9D
:10455000FDF780F8FDF772F927A0FCF70FFE0024A5
:10456000214D224E3078012808D1FDF78FF9FCF754
:104570008BFCFCF7ADFC2888FDF712F87078012859
:10458000F0D1FCF783FB7470ECE700B581B04328F1
:104590000ED010D3452801D004D30CE0FCF756FF11
:1045A000012002E0FCF75BFF00201049087002E0E8
:1045B00001200E49487001B000BD30B581B0040043
:1045C0000B48007800280AD10A4DE1B22800FEF716
:1045D00047FA80212800FEF769FA0028F9D0200068
:1045E00001B030BD3333C94204000020B8000020C0
:1045F000D60A00200038014053746172740D0A001D
:1046000042685200520D1F4B9A4209D1416809037A
:1046100004D10068002801D10120704702207047B2
:1046200043685B0002D10368002B28D0164B9A1A0E
:10463000521A012A23DB352A07DB41688022120641
:10464000114041600021016016E00121D306DB0E1C
:104650009940491E920608D542680A404168514077
:10466000416003681343002103E003680B400168C5
:1046700059400160002B02D00020C0437047002049
:10468000704700BFFF0700003304000090420ED1C6
:10469000A4460C001C430128644107D0994205D16F
:1046A0004C006415641C644000D30C0364467047DE
:1046B000F0B401277F05DB184C18FB4259D85D0D7B
:1046C00050D0FC424DD2BF02A34200D1824239D227
:1046D000640D0E003E409B023B43DB0AC902394396
:1046E000C90A641B641C801A994104D2641E001814
:1046F00049418018594101D100420AD0641E08D0B6
:1047000000184941801A9941F5D280185941641E18
:10471000F6D18902820D8002114303D101001DD020
:10472000203D002003D46D1E00184941FBD5C00A6E
:104730004C05C90A204331432D4207D42D054919A0
:10474000F0BC7047FCD139400020F9E76D1C05D161
:10475000FF0AB943401C69410F03F1D23100002028
:10476000EEE7EDD10021C9437446FFF79BFDA64655
:10477000E6E71900E4E730B50168411844686208CB
:104780008A188368E40701D54C461B190C30914206
:1047900000D130BD0C7864B2491C0D78491C1D70E5
:1047A0005B1C002C02D5641CF9D1F0E7641EF4D523
:1047B000EDE7FEE70548064900220260001D884239
:1047C000FBD3044880470448004700000000002055
:1047D000FF0F0020992700088348000810B50749FB
:1047E00079441831064C7C44163404E0081D0A68EC
:1047F000891888470100A142F8D110BD08000000C7
:1048000024000000E9FAFFFF18040000C0060020A1
:104810000000000063FFFFFF9A000000620000003C
:104820000000002000F00BF8002801D0FFF7D6FFB1
:104830000020C046C046FFF767FE00F002F80120E6
:10484000704780B500F002F801BDFEE70746384624
:1048500000F002F8FBE7FEE780B5C046C046024A1A
:1048600011001820ABBEFBE72600020038B505009A
:104870000C002000FFF7A1FEA04200D00025280078
:1048800032BDC046C046C046C046FFF7CBFFFEE77C
:104890000000000000000000FEE7FEE7FEE7FEE784
:1048A000FEE7FEE7FEE7FEE7FEE7FEE7FEE7FEE7E0
:1048B000FEE7030000A042EE0005E4420000BC4217
:1048C000FC000B010203040102030406070809F8B7
:1048D000000B0102030406070809006CDC028800D3
:0348E000010100D3
:040000050800488324
:00000001FF
