:020000040800F2
:1000000008040020194D0008114700081347000894
:1000100000000000000000000000000000000000E0
:10002000000000000000000000000000154700086C
:1000300000000000000000001747000819470008F2
:10004000430E00081711000843140008E71C0008BD
:10005000C33F000813400008A34400080F460008EF
:100060000F47000823470008AF4D0008BB4D0008AC
:10007000F34D0008FD4D0008FF4D0008014E00083B
:10008000034E0008054E000800000000074E00085F
:10009000094E00080B4E00080D4E00080F4E0008D8
:1000A000114E0008134E0008154E00088547000841
:1000B000174E000800000000194E00080000000064
:1000C00070470000F0B581B0002400262AA102008C
:1000D000264B7D2510880F684743E4191F68474366
:1000E000F61990884F684743E4195F684743F6194B
:1000F0000833083208316D1EECD130007D2100F04C
:1001000017FC00F06FFC060020007D2100F010FCC1
:1001100000F068FC04003000310000F07EFC0500B7
:100120002000210000F079FC290000F0CEFC00F056
:1001300061FD05002100300000F08FFD0400EA2081
:100140008005290000F069FC00F0F6FD6946088092
:100150000748210000F061FC064900F00AFE00F0AB
:10016000EBFD69464880009801B0F0BDB848000832
:100170000000E144DB0F494000000000590200008C
:10018000CD030000CD030000590200000000000074
:10019000A7FDFFFF33FCFFFF33FCFFFFA7FDFFFFC1
:1001A0000000000059020000CD030000CD03000054
:1001B0005902000000000000A7FDFFFF33FCFFFF15
:1001C00033FCFFFFA7FDFFFF000000005902000005
:1001D000CD030000CD030000590200000000000024
:1001E000A7FDFFFF33FCFFFF33FCFFFFA7FDFFFF71
:1001F0000000000059020000CD030000CD03000004
:100200005902000000000000A7FDFFFF33FCFFFFC4
:1002100033FCFFFFA7FDFFFF0000000059020000B4
:10022000CD030000CD0300005902000000000000D3
:10023000A7FDFFFF33FCFFFF33FCFFFFA7FDFFFF20
:100240000000000059020000CD030000CD030000B3
:100250005902000000000000A7FDFFFF33FCFFFF74
:1002600033FCFFFFA7FDFFFF000000005902000064
:10027000CD030000CD030000590200000000000083
:10028000A7FDFFFF33FCFFFF33FCFFFFA7FDFFFFD0
:100290000000000059020000CD030000CD03000063
:1002A0005902000000000000A7FDFFFF33FCFFFF24
:1002B00033FCFFFFA7FDFFFF000000005902000014
:1002C000CD030000CD030000590200000000000033
:1002D000A7FDFFFF33FCFFFF33FCFFFFA7FDFFFF80
:1002E0000000000059020000CD030000CD03000013
:1002F0005902000000000000A7FDFFFF33FCFFFFD4
:1003000033FCFFFFA7FDFFFF0000000059020000C3
:10031000CD030000CD0300005902000000000000E2
:10032000A7FDFFFF33FCFFFF33FCFFFFA7FDFFFF2F
:100330000000000059020000CD030000CD030000C2
:100340005902000000000000A7FDFFFF33FCFFFF83
:1003500033FCFFFFA7FDFFFF000000005902000073
:10036000CD030000CD030000590200000000000092
:10037000A7FDFFFF33FCFFFF33FCFFFFA7FDFFFFDF
:100380000000000059020000CD030000CD03000072
:100390005902000000000000A7FDFFFF33FCFFFF33
:1003A00033FCFFFFA7FDFFFF000000005902000023
:1003B000CD030000CD030000590200000000000042
:1003C000A7FDFFFF33FCFFFF33FCFFFFA7FDFFFF8F
:1003D0000000000059020000CD030000CD03000022
:1003E0005902000000000000A7FDFFFF33FCFFFFE3
:1003F00033FCFFFFA7FDFFFF0000000059020000D3
:10040000CD030000CD0300005902000000000000F1
:10041000A7FDFFFF33FCFFFF33FCFFFFA7FDFFFF3E
:100420000000000059020000CD030000CD030000D1
:100430005902000000000000A7FDFFFF33FCFFFF92
:1004400033FCFFFFA7FDFFFF000000005902000082
:10045000CD030000CD0300005902000000000000A1
:10046000A7FDFFFF33FCFFFF33FCFFFFA7FDFFFFEE
:100470000000000059020000CD030000CD03000081
:100480005902000000000000A7FDFFFF33FCFFFF42
:1004900033FCFFFFA7FDFFFF000000005902000032
:1004A000CD030000CD030000590200000000000051
:1004B000A7FDFFFF33FCFFFF33FCFFFFA7FDFFFF9E
:1004C0000000000059020000CD030000CD03000031
:1004D0005902000000000000A7FDFFFF33FCFFFFF2
:1004E00033FCFFFFA7FDFFFF0000000059020000E2
:1004F000CD030000CD030000590200000000000001
:10050000A7FDFFFF33FCFFFF33FCFFFFA7FDFFFF4D
:100510000000000059020000CD030000CD030000E0
:100520005902000000000000A7FDFFFF33FCFFFFA1
:1005300033FCFFFFA7FDFFFF000000005902000091
:10054000CD030000CD0300005902000000000000B0
:10055000A7FDFFFF33FCFFFF33FCFFFFA7FDFFFFFD
:10056000F2B581B001000024002600206B469B8874
:10057000002B62D06B469B8800939D07AD0F764B96
:10058000002D08D04700CF5F963F9F4200D3012443
:10059000401C6D1EF6D1009DAD081DD04700CF5FF9
:1005A000963F9F4200D30124401C4700CF5F963FF7
:1005B0009F4200D30124401C4700CF5F963F9F42DB
:1005C00000D30124401C4700CF5F963F9F4200D3D9
:1005D0000124401C6D1EE1D1002C30466A469288F1
:1005E0000ED000929507AD0FE122D200AF4B541C04
:1005F000002D2ED04700CF5FA74225DBDF1B24E074
:1006000093079B0F05D044000C5F3619401C5B1EFE
:10061000F9D1920811D04300CB5EF318401C44007E
:100620000C5F1B19401C44000C5F1B19401C44004C
:100630000C5F1E19401C521EEDD13000694689889E
:1006400000F076F900B238E0D71BF619401C6D1E99
:10065000D0D1009DAD0825D04700CF5FA74201DB78
:10066000DF1B00E0D71BF619401C4700CF5FA742F5
:1006700001DBDF1B00E0D71BF619401C4700CF5FF2
:10068000A74201DBDF1B00E0D71BF619401C470027
:10069000CF5FA74201DBDF1B00E0D71BF619401C30
:1006A0006D1ED9D1140030006946898800F040F9E8
:1006B000261A01D56000361830B202B0F0BDF0B590
:1006C00081B00D001E007F4807687F49380000F0A8
:1006D000A4F904007D49380000F09FF901003800BA
:1006E00000F09BF90100200000F0EFF90400194F21
:1006F000300000F083F9764900F08FF901003800EE
:1007000000F08BF9734900F034FB0600280000F07C
:1007100075F9714900F081F9704900F0D6F90100CE
:10072000380000F07AF96B4900F023FB310000F04B
:1007300015F8684900F071F9394600F01AFB2100FC
:1007400000F0FBF9664900F068F900F0F5FA00B234
:1007500001B0F0BDDB0F4940E50C0000F3B581B0FE
:100760000146029800F0B1F9594900F0AEF9009045
:10077000FE27BF053D000298019900F0DEF95949B6
:1007800000F0A3F906003400009900F047FB22D2E4
:100790000021200000F056FB019900F03EF9010015
:1007A000029800F092F9210000F0C7F900F068FC0F
:1007B0004900490800F07DFC290000F02FFB01D220
:1007C000050026004248210000F07FF9040000994E
:1007D00000F024FBDCD34448310000F076F90090AF
:1007E0003D004248310000F070F9060034000099E5
:1007F00000F014FB22D20021200000F023FB01991D
:1008000000F00BF90100029800F05FF9210000F000
:1008100094F900F035FC4900490800F04AFC290031
:1008200000F0FCFA01D2050026003148210000F05A
:100830004CF90400009900F0F1FADCD32D483100A6
:1008400000F043F900903D002B48310000F03DF9E5
:1008500006003400294F009900F0E0FA23D200216D
:10086000200000F0EFFA0100019800F0D6F8010036
:10087000029800F02AF9210000F05FF900F000FC76
:100880004900490800F015FC290000F0C7FA01D220
:10089000050026002000390000F017F90400009937
:1008A00000F0BCFADBD3300003B0F0BD1815000037
:1008B000962802DB1249884201DB012070470020A4
:1008C00070470000340C0020DF6B683EEB45A3BB93
:1008D000CDCCCC3D000034438FC2F53C000018C1A4
:1008E00000002041CDCCCCBDCDCC4C3ECDCC4CBEBF
:1008F0000AD7233C0AD7A33C0AD7A3BC6F12033BF9
:100900007B0D0000F446002804D4494200F013F89F
:10091000404260474042002905D45FD000F00BF808
:10092000404249426047494200F005F84942604769
:1009300003460B43E6D40022030A8B420BD2030981
:100940008B4219D243088B422ED2411A00D2014663
:10095000524110467047FF2209023FD012068B42D7
:1009600005D3121209028B4201D3121209020309A4
:100970008B4219D300E0090AC3098B4201D3CB0192
:10098000C01A524183098B4201D38B01C01A5241D4
:1009900043098B4201D34B01C01A524103098B42D8
:1009A00001D30B01C01A5241C3088B4201D3CB00C3
:1009B000C01A524183088B4201D38B00C01A5241A6
:1009C00043088B4201D34B00C01A5241884200D3E6
:1009D000401A5241CFD201461046704708B500F088
:1009E00099FB08BD9D2102000AD5F446524200F051
:1009F00007F80122D2071043604700009D21020042
:100A00000AD002D4491E9218FCD5C905100A120654
:100A1000524100D3012A4841704730B405004D408F
:100A20000122D20715404B180418240E2ED01B0E9D
:100A300032D0FF2C34D0FF2B3AD0E4180002090248
:100A400010431143000A090A9446C2B24A43000AFD
:100A5000C3B24B43000A4843110A5B181A43D2B28F
:100A6000190A091801D44918641E080A7F3C23DBBF
:100A7000FE2C08DAE40509061143634699416041FA
:100A8000284330BC7047FF20C005F9E728001B0E43
:100A9000FF2BF6D1D043F4E72800FF2CF1D1F9E782
:100AA0004002F7D1FF2B01D14902F3D1E005E7E77E
:100AB000D8054902E4D0EDE743020020641CDFD1F1
:100AC0005B129B1CDCD9D805DAE70122D2070300B0
:100AD0004B402ED4431A01D2C01AC91830B44B1857
:100AE0000418240E1B0E22D0FF2C20D0E31A182B42
:100AF0001DDC09021143C40D641E0002104394461C
:100B00001925ED1A0A00AA40D940451801D36D08ED
:100B1000A41CE405D209280A2D062A436546AA41E9
:100B2000604103181B0EFF2B01D3C00DC00530BC64
:100B30007047514006E05140CCE70122D207030044
:100B40004B40F8D4431A03D2C01AC9185040514040
:100B500030B44B18090211430418240E1B0E40D068
:100B6000FF2C3AD025009D410BD31ED8C50D400265
:100B7000401A0BD3ED050100400AC90591416841B7
:100B8000D5E7C50D40024918401AD0D001214008D0
:100B9000491C0018FCD58C4204D36D1A000AED05DF
:100BA0004019C4E7E8051040C1E7182DBFDCAC1CB4
:100BB0000D00E140E5414D40012D4941C40D0002C9
:100BC0001043451A01D46D199543641EE405280AA3
:100BD0002D069541604130BC7047FF2BA7D1D8430B
:100BE000A5E72442A3D10020A1E70268531C0360BB
:100BF000117070470122D205011825D2090E22D0AA
:100C0000FF2920D0CB05984310437D31490800D3FC
:100C100000189318C01A80009B18801A06D4520836
:100C20000ED2C01A9B180018801AF8D5520806D2A6
:100C3000C0189B1A0018801AF1D55208F8D35B1E11
:100C4000C905580848417047D042FCD8080EFAD070
:100C5000C04301B500F060FA01BD38B502000B00D9
:100C60005900090EFF290AD0002901D0002502E011
:100C7000580202D00125ED4306E0002504E05802A9
:100C800001D0022500E001255100090EFF2908D0FE
:100C9000002901D0002102E0500207D00121C94300
:100CA00004E0500201D0022100E00121012D22DAEE
:100CB000012920DA002A04D58020000642400824B9
:100CC00000E00024002B05D58020000643402000D2
:100CD000062444401800110000F0A0F802D200F0F1
:100CE00048F822E0002D04D51000190000F041F86A
:100CF0001EE000201CE0022901D1100032BD022DAF
:100D000001D1180032BD8D4202D1FE20800500E0E5
:100D10000020002A01D5082400E00024002B02D581
:100D2000220006245440012902D1210002244C4013
:100D3000210000F0F7F932BD0122D2070118090E97
:100D40007F3910D449421F310FD4001805D2C00199
:100D50001043C84000D5D0437047C0011043C8407D
:100D600005D440427047002070470042F3D5100080
:100D7000704730B405004D400122D20715404B1892
:100D80000418240E28D01B0E2FD0FF2C34D0FF2B9C
:100D900037D0E41A000209021043114343084808FF
:100DA000D10D1B1A02D2641EDB181B18DB188342FC
:100DB00000D31B1A4941F9D37F3426DDFE2C08DA13
:100DC000E4054808C907194391416041284330BCF4
:100DD0007047FF20C005F9E728001B0E03D0FF2B4A
:100DE000F5D14902F3D0D043F1E7FF2C01D1400205
:100DF000F9D1FF20C005E9E74002F4D1FF2BF8D17B
:100E0000F1E728004902E2D0EDE70B02002024427E
:100E1000DCD15B129B1CD9D9D805D7E70CB40122D1
:100E200012060318DA4207D84B18DA4204D8020037
:100E30000A43921802D288420CBC7047FCD081420F
:100E4000FAE7FEE7F8B504000E007F482100FFF73F
:100E5000E4FD0500680040089E21C905FFF7DEFF9C
:100E600000D38BE02800002100F0D8F902D8FC2044
:100E7000800501E0BF2000062900FFF726FEFFF7EE
:100E80005BFF050033D0FFF7ADFDE2218905FFF7D9
:100E9000C4FD07006D483900FFF7BFFD01002000C9
:100EA000FFF74BFE04006A483900FFF7B6FD01006A
:100EB0002000FFF742FE040066483900FFF7ADFD51
:100EC00001002000FFF739FE040063483900FFF7F6
:100ED000A4FD01002000FFF730FE04005F48390048
:100EE000FFF79BFD01002000FFF727FE0400A80785
:100EF000800F361820005A4900F090F90AD8E621F0
:100F00008905FFF78BFF05D2F00700D493E0FE249C
:100F1000A40590E02100FFF780FD0700F00712D53F
:100F200050483900FFF779FD4F49FFF7CEFD3900F2
:100F3000FFF773FD4D49FFF7C8FD3900FFF76DFD61
:100F4000FE21890516E020003900FFF766FD050047
:100F500047483900FFF761FD01004648FFF7B5FD3E
:100F60003900FFF75AFD4449FFF7AFFD2900FFF7AD
:100F700054FD2100FFF7A9FD04005CE06100090EAB
:100F8000FF2908D000290ED160020CD1002E59D0C3
:100F9000FE24A40556E0600254D100F053F921214B
:100FA00001603648F2BD0094684600F053F93618E7
:100FB000009C20002A4900F031F909D8E621890572
:100FC000FFF72CFF04D2F00735D5FE24A40532E04C
:100FD0002100FFF722FD0700F00712D52148390054
:100FE000FFF71BFD2049FFF770FD3900FFF715FDE6
:100FF0001E49FFF76AFD3900FFF70FFDFE21890545
:1010000016E020003900FFF708FD050018483900F8
:10101000FFF703FD01001748FFF757FD3900FFF701
:10102000FCFC1549FFF751FD2900FFF7F6FC2100F4
:10103000FFF74BFD0400B00704D5802000064440B4
:101040002000F2BD2000F2BD83F9223F0000C94616
:1010500000A0FD400020A23A000034330030C22E30
:10106000FEFF7FB99349B2BA36A02A3DDFFFFFBE2B
:101070006E8C4CB94283083CA1AA2ABEFFFFFF7FB9
:10108000012212060118CA420AD28A420DD8382219
:10109000120609098918C20FD20711434007704789
:1010A00000D049080909014301E0C10FC907002028
:1010B0007047012252054B18DA4201D95815704782
:1010C0005B0D0722D2019B1A10D9FF2B1DD2DB0525
:1010D0000122D2070A4013430903020D1143490AB2
:1010E000C200524100D9491CC81870470AD1800A71
:1010F0000A0302435212921C04D9D3070B40D005B5
:1011000018437047C80FC0077047C80F0002FF3070
:10111000C00570477047FEE71FB500F093F8212126
:1011200001601FBDF8B505000C002C4900F076F8F1
:1011300013D82B4E3100FFF770FC2A49FFF7C5FC8E
:10114000070028003100FFF7C0FC01003800FFF75E
:1011500010FE050020000124044328002249FFF767
:101160005DFE03D3214900F059F821D82900FFF78B
:1011700054FC060028003100FFF74FFC1C49FFF724
:101180004CFC2900FFF7A1FC05001A483100FFF7CD
:1011900044FC1949FFF799FC3100FFF73EFCFE21A2
:1011A0008905FFF792FC01002800FFF7E2FD05002A
:1011B000A00702D5802000064540600707D000BF89
:1011C0000EA1C00E08582900FFF77FFC050020077C
:1011D00002D58020000645402800F2BDA430893E9B
:1011E000D7B3DD3F000080BF000080B90100803927
:1011F0006AD5033F2B94A93DB82A593F000000004F
:10120000920A063FDB0FC93F920A863FDB0FC93FB8
:10121000920A0640DB0F4940368D27400CB401226C
:1012200012060318DA4207D84B18DA4204D8020033
:101230000A43921802D281420CBC7047FCD088420B
:101240000CBC704780B5024800F07AF802BD00007F
:101250008C00002070B582B005002C683148210058
:10126000FFF7DBFB00900021FFF7D8FF014602D813
:10127000FC20800501E0BF200006FFF726FC00905F
:101280000021684600F05DF80098002100F084F825
:1012900032D00146E2208005FFF7BFFB060022485E
:1012A0003100FFF7BAFB01002000FFF746FC040005
:1012B0001E483100FFF7B1FB01002000FFF73DFCA5
:1012C00004001B483100FFF7A8FB01002000FFF7D6
:1012D00034FC040017483100FFF79FFB0100200099
:1012E000FFF72BFC040014483100FFF796FB0100C8
:1012F0002000FFF722FC04002C600098CF21090693
:10130000FFF78CFD03D30D49FFF788FF04D89E211A
:10131000C90500F051F800900098FFF70DFD800717
:10132000800F76BD83F9223F0000C94600A0FD4032
:101330000020A23A000034330030C22E0100004FDA
:10134000704702685200120EFF2A06D10068400260
:1013500001D1012070470220704703685B0019D05B
:1013600096239A1A521A012A14DB182A05DB0168FF
:10137000802212061140016009E0012393405B1EA8
:101380000168194002684A400260002902D000202A
:10139000C043704700207047944602000A439218E9
:1013A00008D0884206D1012212060018D042084611
:1013B00000D880426246704730B401231B064918AA
:1013C0000418D9423BD80A0E32D0DC422FD2DB01BE
:1013D000A14221D2C901194305021D430340240E35
:1013E000A8088908A41A401A244202D200184018FA
:1013F000641E04D000188842FAD3401AF8D10018AD
:1014000013D002D4521E0018FCD5000A1843D2058E
:1014100005D2801830BC7047FCD11840FAE7521C46
:1014200003D1401C40080402F4D21800F2E7F1D1C5
:101430000020C0437446FFF76FFEA646EAE70800A7
:10144000E8E7FEE7F9B595B014004A487844FF3064
:1014500025300CC813A80CC0099108AD0020E86124
:1014600001E00098241800206946C88013AB0022D0
:10147000D243210001A8801C00F004FC0090012848
:1014800005DA2078411E8941C943C90F0091684699
:10149000C0882528009E00D1761E012E0EDB270075
:1014A00039780998159A90470990002800D1ECE006
:1014B000E869401CE8617F1C761EF1D16846C0884F
:1014C000252804D1002028616861A86108E06846E9
:1014D000C0880028C5D1E869D9E00100012008438F
:1014E000641C21782029F8D023290ED02B2904D080
:1014F0002D2907D030290BD00DE001000220084330
:1015000080B2EDE701000420F9E701000820F6E7CA
:1015100001001020F3E72A2912D116990968169ABA
:1015200011600A68091D169B19606A62002A05D5B8
:101530005142696201000420084380B2641C12E039
:10154000002169620AE06A6A0B4B9A4205D0930057
:101550009A185200511830396962641C21780A00C7
:10156000303A0A2AEFD321782E2907D00021C94327
:10157000296225E080380000FFFFFF7F641C21788E
:101580002A290AD116990968169A11600A68091D54
:10159000169B19602A62641C12E0002129620AE08D
:1015A0002A6AC34B9A4205D093009A1852005118E8
:1015B00030392962641C21780A00303A0A2AEFD3B4
:1015C00028852678310000BFBAA000F069FB00280A
:1015D00001D0641C00E000262A202E54285C6828D4
:1015E00006D12078682803D162202A216854641C1F
:1015F00002A8E8602678641C252E15D0582E55D0F8
:10160000632E00D1B3E0642E00D18EE0692E00D1AC
:101610008BE06F2E4AD0702E3BD0732E0AD0752EE1
:1016200044D0782E42D0CAE00120286125206946A6
:101630000872CFE02A20285C6C281698006816995A
:10164000086017D00668001D16990860AE602F6A02
:10165000002F03D5300000F02DFB09E03A000021F7
:10166000300000F02FFB002801D0801B00E0380084
:101670006861AFE00268001D1699086008A9159816
:1016800000F042F9002800D4A4E00020C04317B0C5
:10169000F0BD16980068169908600168001D169A3A
:1016A0001060089102A8A86078215CE02A20285CDC
:1016B0006C2801D1169810E0712801D1169802E02B
:1016C0006A28169809D10268D21D0720824316980D
:1016D000026003CA169B1A6005E001680160086891
:1016E000091D169A116008902A20285C682802D1EA
:1016F000089880B203E0622802D10898C0B208902E
:101700002820285C000729D50898002826D020200A
:101710003043782822D12869302102AA1154401C74
:10172000411C296102A90E5418E016992A20285C50
:1017300000F0C4F80890002802D528692D2109E09E
:10174000288D810702D528692B2103E0C00705D524
:101750002869202102AA1154401C286102A8296985
:101760004018A860310008A800F0F8F932E02A20FB
:10177000285C6C280CD00120286116980068169906
:1017800008600168001D169A10606846017221E029
:1017900016980068169908600168001D169A106076
:1017A00068460180002069464880C04328626A4636
:1017B00008A9159800F0A8F800280BD565E70120C6
:1017C0002861252069460872002E03D00220286176
:1017D00002A84670686A2969401AA969401A6969AD
:1017E000401A00902820285C400711D42020694628
:1017F0000871009801280BDB009E012301AA08A9AB
:10180000159800F027FA002800D03EE7761EF4D1A4
:101810002F6902AE002F0DD031780998159A9047A4
:101820000990002800D130E7E869401CE861761C87
:101830007F1EF1D1302069460871AE69012E0ADBA6
:10184000012301AA08A9159800F004FA002800D085
:101850001BE7761EF4D1AE686F69002F0DD031788A
:101860000998159A90470990002800D10DE7E8697A
:10187000401CE861761C7F1EF1D12820285C4007BF
:1018800000D4F0E52020694608710098012800DAAC
:10189000E9E5009E012301AA08A9159800F0DAF9EC
:1018A000002800D0F1E6761E00D1DCE5F2E700BFAB
:1018B000FFFFFF7F686C747A4C000000622815D02F
:1018C00068280CD06C2818D0742816D07A2814D127
:1018D0000A680A601068121D0A60002170470A68D1
:1018E0000A601068121D0A6000B20BE00A680A6004
:1018F0001068121D0A6040B204E00A680A601068AD
:10190000121D0A60C1177047F4B59AB007000C00A9
:10191000206A002800D58E48039000F0DFF9616A44
:10192000081806908BA003C807AA03C22820205CD1
:10193000400702D40698412806D209A80290402008
:101940000690002005900EE000F0CEF902900028ED
:10195000F7D10020C043F8E01A98801C1A90039831
:101960000199401A03900398012800DA93E007AA2E
:101970001A98018800A8401C00F012FA0190002873
:1019800000D59FE01A980088002804D10198401ED5
:10199000019000D596E00398019988427BDB20698D
:1019A0000699019A8218914264D2002161624142F3
:1019B000A069081A6169401A04902820205C400739
:1019C00010D4202069460870049801280ADB049D81
:1019D00001236A462100380000F03CF9002871D14B
:1019E0006D1EF5D12669029D002E0BD02978606806
:1019F000B8476060002865D0E069401CE0616D1C5C
:101A0000761EF3D1302069460870A569012D09DBE7
:101A100001236A462100380000F01CF9002851D14A
:101A20006D1EF5D1A5686669002E0BD02978606817
:101A3000B8476060002845D0E069401CE0616D1C3B
:101A4000761EF3D12820205C400710D5202069465F
:101A50000870049801280ADB049D01236A462100CE
:101A6000380000F0F7F800282CD16D1EF5D10020C9
:101A700005902061019A00A9491C02982369C018A9
:101A800000F09AF920690199401820611A9800889D
:101A9000002800D060E7059800284FD1606A2169CE
:101AA000401AA169401A6169461A2820205C400743
:101AB00011D4012E0FDB350020216068B84760602B
:101AC000002803D10020C043059037E0E069401CA6
:101AD000E0616D1EF0D12369029A2100380000F008
:101AE000B9F80028EED1A569012D0ADB3021606824
:101AF000B84760600028E5D0E069401CE0616D1ED9
:101B0000F4D16369A2682100380000F0A3F800282E
:101B1000D8D12820205C40070DD5012E0BDB3500E5
:101B200020216068B84760600028CBD0E069401C85
:101B3000E0616D1EF4D1002020616062029809A965
:101B4000884201D000F066F905981BB0F0BD000096
:101B5000FFFFFF7F0000000000000000F2B582B030
:101B60000400E06800906846007A6F2801D10825DB
:101B700006E020220243782A01D00A2500E0102541
:101B8000182721680E00642801D0692803D1002994
:101B900001D570420600002E0DD1206A00280AD11E
:101BA000082D31D12820205C00072DD517273020A3
:101BB0000099C87528E07F1E019730002900FEF7C4
:101BC000BAFE3031C9B23A2903DB6846007A51388F
:101BD00009180098C15530002900FEF7ACFE060038
:101BE00004D0A0680099C9198842E4D3082D0BD10C
:101BF0002820205C000707D50098C05D302803D05E
:101C00007F1E30200099C8551820C01B60610099C4
:101C1000C919A160216A884206DA081AA061208DDC
:101C20000B490140218510E000290ED52821615C77
:101C300014220A40102A08D1616A2269891AA2690D
:101C4000891A0F1A012F00DBA76103B0F0BD000055
:101C5000EFFF0000F1B50E0014000027002B0FD09D
:101C60001D0021787068009A90477060002806D0A7
:101C7000F069401CF061641C6D1E01D0F1E7FF4368
:101C80003800F2BDF8B504000F0015001E0000F08A
:101C900005F933002A003900200000F013F9F2BDE5
:101CA000C9B200E0401C02788A4202D0002AF9D171
:101CB00000207047010000E0491C0A78002AFBD18F
:101CC000081A7047C9B201E0401C521E002A03D016
:101CD00003788B42F8D170470020704780B500F040
:101CE000DDF8012002BDFEE770B505002C000F34C1
:101CF00007208443C046C046A54233D2082C04D2F4
:101D0000082402E0083000F085F824480268110039
:101D10000CD1011D0A68002A20D01368A34212D2F8
:101D2000111DF7E71D68A5420DD2191D0B68002B88
:101D3000F8D11268011D00E0191D0B6893420DD007
:101D40001D68A542F8D300290CD00D682A6813003D
:101D5000083BA3420AD26A680A600FE000F0D0F89C
:101D60000028CFD1C046C046002070BD2B190B60A3
:101D70006E685E60121B0B681A602C60096800298F
:101D800004D04A68002A01D0091D00E0002101604A
:101D9000C046C0460835280070BD0000280C002051
:101DA00070B504000D00160000F078F8320029002C
:101DB000200000F07DF870BD124207D08B0706D0DE
:101DC0000B78491C0370401C521EF7D870478307DC
:101DD00006D00B78491C0370401C521EF9D1704785
:101DE00070B4103A03D378C9103A78C0FBD25307C5
:101DF00001D318C918C001D508C908C0D20704D337
:101E00000B880380891C801C002A01D50B78037085
:101E100070BC7047002800D1704738B508380400FE
:101E20002068082836D3400734D1C046C0461A4837
:101E30004168002901D08C4203D26160446019E0FE
:101E400019004B68002B01D0A342F9D30B68CD18C1
:101E5000AC421DD3A54204D122689A180A600C0036
:101E600008E04A68002A03D02368E3189A420FD397
:101E700062604C60616800290AD02268A3188B4216
:101E800006D100230360086810182060486860606D
:101E9000C046C04631BD0000280C002080B5034874
:101EA000FFF74EFA806902BD000000009800002094
:101EB000002804D10EA003C803C20020704701709F
:101EC00001207047002904D10BA003C803C30020E0
:101ED0007047002A02D10120C0437047002801D07A
:101EE0000A7802800978481E8041C043C00F7047BD
:101EF00000000000000000000000000000000000E2
:101F000007490868002801D00020704705480722CB
:101F10009043086004499143091A0160704700BF6B
:101F2000440C00200F0400205804002010B5744C0D
:101F30006079012858D02079002816D100F060FB84
:101F40009620400000F001FC6B486C4922698A42EF
:101F500002D10200080000E00A0060612261104620
:101F600000F00CFD0120207132E02079022815D10B
:101F700000F050FB9620400000F0E7FB5E485F4910
:101F800022698A4202D10200080000E00A00606172
:101F90002261104600F0F2FC032017E020790428AB
:101FA00018D100F047FB9620400000F0CEFB5248CD
:101FB000524922698A4202D10200080000E00A0068
:101FC00060612261104600F0D9FC052020710120DB
:101FD000607110BD2079062806D10020207100F024
:101FE000F7FC208800F0CAFE10BD000010B582B0DA
:101FF000434C6079002840D02079012802D0207914
:10200000022822D100F0B5FBE189411AA181E081CB
:10201000606900F0B5F9AE49086000F047F8AD48D6
:102020000068FEF789FEC0B20190AB4800880090BE
:102030002388A26912A12000243000F0F3FE81B2AF
:102040002000243000F093FF15E02079032802D00F
:102050002079042804D1606900F092F920600AE038
:102060002079052802D02079062806D1606900F081
:1020700087F9B24908600020607102B010BD00000D
:10208000444953543B253035643B414D503B25304A
:1020900034643B54454D503B253034643B564F4CE3
:1020A000543B253033640D0A0000000010B5144C79
:1020B0006088E188401A00B2002802D5E1210901B8
:1020C00040189E4949882289891A09B2002902D5F7
:1020D000E122120189187E4A52886389D21A12B20B
:1020E000002A02D5E1231B01D21812B209B200B2B4
:1020F00000F06AFFA06110BD4008002058040020D5
:1021000004000020F0B5E3B074A001F093F800F0F3
:102110008BFD01208F49087000F078F9C82040003D
:1021200000F0DDFD00F054FC8B4C208800F026FE12
:1021300000F066FA642000F0D2FD0020207160718A
:10214000864800F01BFC864F38780028FCD0834876
:1021500000F016F9009068460088052800DAB1E022
:102160005C480068FEF7E8FDC1B200BF74A001F052
:1021700061F842AD4026002020716071774800F080
:10218000FDFB38780028FCD0744800F0F9F8009086
:1021900068460088322800DA94E068464088288043
:1021A000AD1C761EE7D1402142A8FEF7D9F9694659
:1021B000C8800199091400BF4DA001F03BF800F060
:1021C00029FA642000F08BFD22AD4026002020710A
:1021D0006071624800F0D2FB38780028FCD05F487C
:1021E00000F0CEF800906846008832286ADB684626
:1021F00040882880AD1C761EE8D1402122A8FEF739
:10220000AFF969468880019909B200BF3DA001F08D
:1022100011F800F00FFA642000F061FD02AD4026D5
:102220000020207160714D4800F0A8FB387800282C
:10223000FCD04A4800F0A4F8009068460088322894
:1022400040DB684640882880AD1C761EE8D14021DE
:1022500002A8FEF785F90500290000BF2EA000F0B6
:10226000E9FF01980014E080019800B220816581A7
:1022700001F005F8614E300001F010F860493000BF
:1022800001F082F80198001481B2B01C01F07CF8D2
:10229000019800B281B25B4801F076F8A9B25A48C1
:1022A00001F072F8E069FEF747FD81B27F4801F066
:1022B0006BF800F0EDFF00BF1CA000F0BBFF012099
:1022C00063B0F0BD27A000F0B5FF0020F8E70000E4
:1022D0003C0C002000000020480C002043616C6989
:1022E00062205374617274203835550D0A00000065
:1022F0005A65726F20506861736520313A202564F9
:102300000D0A00005A65726F2050686173652032B3
:102310003A2025640D0A00005A65726F20506861EA
:10232000736520333A2025640D0A000043616C690F
:102330006220446F6E650D0A00000000380C00201A
:1023400043616C696220766F6C746167653A2564DD
:102350000D0A0000040100200400002058040020A1
:102360004A0C002043616C6962204641494C3A2086
:102370004C6F77205369676E616C0D0A0000000096
:1023800010B584B0040000BF63A000680090200076
:10239000FDF798FE0190A01CFDF794FE029001A8A5
:1023A0000221405E02A90222895E401A010402D580
:1023B000E12109014018694689886A46118084B282
:1023C00049480068FEF7B8FC2300C2B2684601889D
:1023D00049480088FEF773F969464880010003D533
:1023E000E1210901401804E0444A904203DB511EF8
:1023F000401A69464880009804B010BD007C00086F
:1024000034120000047C0008067C0008F0B583B09C
:102410003B4D0027684607709620400000F05FFCA7
:10242000280000F0D6FBC82000F059FC314E2F4C9C
:10243000277167712E4800F0A1FA30780028FCD08F
:102440002B48FFF79DFF019068468088C9281CDB58
:10245000012069460870FE2189052800FEF735FB3A
:10246000050000F0B6FBC82000F039FC2800254923
:10247000FEF7D4FCDCD3E069FEF702FE02000B009D
:1024800026A000F0D7FE03B0F0BD69460978002908
:10249000E1D00528DFDA1C482900FEF716FBE061D1
:1024A0001A49FEF712FB2062E5E70000087C0008ED
:1024B00017480188174A914200D0704710B50B4C5D
:1024C0004188E18081882181C18861810089010082
:1024D0003239652907D2FEF791FA0100E1610B4814
:1024E000FEF7F3FA206210BD000000200400002077
:1024F000580400204A0C0020480C0020110E000057
:10250000000096420000F6420000A0C00000A0C1FA
:10251000007C0008341200000000000041504420FC
:1025200053617475726174696F6E20566F6C74615B
:1025300067653A20252E31660D0A000000B581B08E
:10254000022100BF58A000F0C1FF022158A000F0F6
:10255000BDFF332158A000F0B9FF022155A000F0C3
:10256000B5FF022151A000F0B1FF01B000BDF8B5E8
:1025700082B006000F00140068460021002206C049
:10258000F8012100FEF7D7F90D00F601F80121004E
:10259000FEF7D1F93018244940186946220A0A701A
:1025A0004C708203920F8A70020ACA700871200B65
:1025B000F02202402803000F10184871280A887181
:1025C000CD7108226846007A00F0DCFF03B0F0BD50
:1025D00070B5050016001C001A232200FFF7C7FF84
:1025E0002223220031002800FFF7C1FF022100BF93
:1025F00030A000F06BFF02212CA000F067FF70BD3F
:1026000000B581B0094B012200211A20FFF7E0FF3D
:1026100001B000BD00B581B0044B054A511E1E201B
:10262000FFF7D6FF01B000BD00FEFFFFE20400008F
:1026300021030000F0B583B068460021002206C0E7
:10264000042568460570E2214170002484700D273E
:10265000C7707A260671447185714C21C1710822B8
:1026600069461A2000F08EFF68460021002206C04D
:1026700068460570E22141708470C770067144712C
:102680008571CC21C17108226946222000F07AFFB1
:10269000022100BF07A000F019FF022103A000F0F3
:1026A00015FF03B0F0BD000003FF000003FA0000B7
:1026B000BBC00000B1AC00000F004F806F80808075
:1026C0008080AAFF0019000AF500001304E2000A46
:1026D000F500033600010C000000000000000000BF
:1026E0000000000000010C000000000030B589B0BF
:1026F0000121022001F02AF9204D280001F080F983
:1027000003A801F0CFFA684601F0FDF96C461C48B9
:10271000006801F011FB00221A4B01F01DFB0022A2
:10272000194B01F07AFB01F04DFC20801748019015
:102730000020208160806946280001F0B7F901215E
:10274000280001F0F3F909B030BD002810D00F497E
:10275000884200D1481E0E490A6892B2101880B211
:10276000904202DA0B689342FCD30A688242FCD39F
:1027700070470748006880B27047000000040040BE
:102780008800002080842E410000F0BFFFFF000081
:102790002404004000B581B000F006F800F048F8CD
:1027A00000F084F801B000BD70B588B00121C80206
:1027B00001F0C2F8964C200001F022F903A801F0C4
:1027C00071FA684601F09FF96E4605203080914D00
:1027D00028680621FEF7AFF88F49FEF7ACF880B203
:1027E000401E01900020308170806946200001F079
:1027F0005DF903AE602030800120708028680621DA
:10280000FEF799F88449FEF796F80004400C05900D
:102810000220B08103A9200001F01EFA0821200047
:1028200001F064FA0121200001F08EF908B070BDBA
:1028300010B586B00121480201F07EF8774800F01B
:102840008FFF684601F007FC754C200001F0E2FBA9
:10285000002000906A461071402103910901029105
:102860000490042005906946200001F0E2FB00225C
:102870003021200001F000FC200001F002FC0021CA
:10288000200001F024FC0121200001F015FC0121B1
:10289000200001F0E8FB0121200001F020FC0028CD
:1028A000F9D0200001F000FC06B010BD10B58CB0CE
:1028B0000121012001F036F85A4C200001F022FCE1
:1028C000594800905948019000200290FA2149008F
:1028D0000391049080210591803106918900079130
:1028E0000890C021890109910A906946200001F0F1
:1028F0006DFC0121200001F084FC01220221200056
:1029000001F099FC4A4801684A4A0A40C02109027C
:1029100011430160600D484908600CB010BD10B54E
:1029200086B00121480201F007F83C4800F018FF8A
:102930003B4C200001F06EFB684601F08CFB002050
:1029400000906A46107103900290049005906946C9
:10295000200001F06EFB200001F093FB002120001D
:1029600001F0AAFB0121200001F07DFB01212000E4
:1029700001F0B5FB0028F9D006B010BDF0B581B06C
:102980000400234F0021380001F0D0F8244E00212C
:10299000300001F068FB234D0021280001F031FCDC
:1029A000EC60FA20400068600121280001F029FC59
:1029B0000020224908700121300001F054FB300052
:1029C00001F072FB0121380001F0B0F801B0F0BD58
:1029D00010B5FFF7A4FF124C04229101200001F072
:1029E0004BFB200001F060FB0421200001F077FB8D
:1029F0000028F9D0200001F05CFB1149088000F0AC
:102A00009DF9FFF7D1FEFFF713FFFFF74FFF10BD52
:102A1000002C01408800002050C30000004000014D
:102A200000240140080002404024014040080020EA
:102A300008E400E0FF00FFFF00E100E04A0C002096
:102A4000480C002000B58BB000F034FE012000F0EF
:102A50000AFC012000F000FC002000F073FE0020C2
:102A600000F077FEA0218903002000F047FE01203E
:102A700000F050FE192000F091FF0028FAD002204B
:102A800000F054FE00F059FE0828FBD101F070FC64
:102A9000A7480068FA218900FDF74DFF401E8021FC
:102AA0004904884239D2A3494860A3480268120207
:102AB000120AC0231B06134303600020886007200E
:102AC000086000F02BF800F0C1F801A800F07EFECD
:102AD0000298A849FDF72FFF810008188000009098
:102AE0000098002817D00098401E009000980028F9
:102AF00011D00098401E0090009800280BD000983C
:102B0000401E00900098002805D00098401E0090BC
:102B100000980028E7D10BB000BDFEE7F0B583B008
:102B200001218C20C00300F0FDFE802000900026D3
:102B30006C4666710127277169469020C00501F037
:102B400057FC80219020C00501F098FC3D020095C3
:102B500069469020C00501F04BFC29009020C0057B
:102B600001F08CFC022500956946834801F040FC89
:102B70000221814801F080FC302000900320607128
:102B8000207169469020C00501F032FC009769462B
:102B9000944801F02DFC00956671A6712571694677
:102BA0009020C00501F024FC022201219020C005E4
:102BB00001F066FC0420009069469020C00501F0F9
:102BC00017FC022202219020C00501F059FC03B03D
:102BD000F0BD10B504008449FEF720FB01D84C1E5F
:102BE00004E08249FEF71AF900D20C008048210067
:102BF000FDF713FF7F49FDF768FF7F49FDF70DFFE4
:102C000001007E48FDF799FF7D49FDF706FF7D49EC
:102C1000FEF7AFF8FEF790F881B28020C00501F012
:102C20004BF87948046010BD00B581B0C021802008
:102C3000C00501F043F801B000BD00B581B000212E
:102C40008020C00501F03AF801B000BDF0B589B0B0
:102C50000121012000F07AFE8024E405200000F02C
:102C6000CFFE03A801F01EF8684600F04CFF0020DC
:102C700069460880FF22E0320192088148802000E6
:102C800000F014FF03AD7020288001276F800A2018
:102C900005900226AE8103A9200000F073FF70208A
:102CA00028806F80C0200590AE8103A9200000F02D
:102CB000A5FF0821200001F005F80821200001F0FF
:102CC0000BF80121200000F027FF0121200000F077
:102CD0003BFF0121200000F029FF09B0F0BD10B535
:102CE0008CB0040001A800F071FD02982149FDF7A5
:102CF00022FE604300900098002817D00098401EE4
:102D000000900098002811D00098401E0090009874
:102D100000280BD00098401E00900098002805D095
:102D20000098401E009000980028E7D10CB010BD1C
:102D30008800002010E000E020ED00E030B581B018
:102D4000FDF75CFE050031482900FDF766FE3049BD
:102D5000FDF7BBFE04002F482900FDF75EFE2900A9
:102D6000FDF75BFE2100FDF7B0FE2B49086001B0C6
:102D700030BD0000102700000014004810B52648A0
:102D800001682648FDF749FE2549FDF79EFE04002F
:102D90001549FEF743FA01D84C1E04E01349FEF72B
:102DA0003DF800D20C0012482100FDF736FE114913
:102DB000FDF78BFE1049FDF730FE01000F48FDF7CF
:102DC000BCFE0F49FDF729FE0E49FDF7D2FFFDF7C6
:102DD000B3FF81B28020C00500F06EFF0A48046096
:102DE00010BD0000000400480100E64200008C42D3
:102DF0005305833F1498B1C2F9171D3C5C8FA23F65
:102E00000000F0433333534000000020FB40F2BC8D
:102E10009EAF8542AF670E36340C0020612CF93E20
:102E20000000BC420CB41CB5040004A8019000943E
:102E300001AB0A006946084878441C30FEF702FBE3
:102E40000021009A1170002801D40098001B02B0E4
:102E5000019910BC03B0084793DDFFFFF0B589B0BE
:102E60008027FF010121380000F066FD4C4800F08A
:102E700089FC684601F0F5FA7E00009600246D4654
:102E80006C7102202871E87169469020C00501F03C
:102E9000AFFA01220F219020C00501F0F1FA902035
:102EA000C005008A304203D101203E49087035E058
:102EB00000F036F80097EC7169469020C00501F0EB
:102EC00097FA01220E219020C00501F0D9FAFA20CC
:102ED0008002029003940494059407940C200690B9
:102EE000314C01223149200001F055FB3048016886
:102EF0000902090A802212060A43026030032D49A2
:102F0000086001228021200001F03CFB02A9200082
:102F100001F0C8FA0121200001F012FB09B0F0BD58
:102F200010B58CB00121012000F0FCFC224C2000E7
:102F300001F0E8F8214800908020800501901020E1
:102F400002900A20039000200490802105910690B1
:102F500007900890490109910A901949194801F010
:102F60005AF96946200001F031F90CB010BD70B576
:102F700004000D000B480078002810D10E4E0021EF
:102F8000300001F03EF9F4607560202001F05CF93A
:102F9000802001F059F90121300001F032F970BDB3
:102FA000010000104B0C0020003801400501050015
:102FB00018E400E000E100E01C0002402838014075
:102FC0008000001000000240F1B582B00D00140036
:102FD000FDF76EFC002839D02800FDF769FC0028B9
:102FE00034D02000FDF764FC00282FD08EA000F024
:102FF00021F9029F3FB284487843E1210901FDF79E
:1030000097FCE126F600B74201DB804940180190A9
:103010002F007F48784300907100FDF789FCB7428C
:1030200001DA050001E07B4945187B4F6743380012
:103030007100FDF77DFCB44201DB7849401801992D
:1030400049190818C021FDF773FC41E02F007048B2
:1030500047430097704F200078430099401A704909
:10306000FDF766FC0600E120000120187843009976
:10307000401A6B49FDF75CFC36B200B2864208D0BC
:10308000292806DA002E03D4002802D4002E00D10D
:1030900006005F4C74430098E1210901FDF748FCEC
:1030A00020185949FDF744FCC11E09B2002900D57A
:1030B0000021881D00B201900091554B524A290011
:1030C000029800B200F006F84111890E081880112C
:1030D00003B0F0BDF0B593B00C0015001E00002148
:1030E0006A465160199909B2091D09B202914D4F02
:1030F000189909B2694300916843E1210901FDF77C
:1031000017FC009908180390401904904019059085
:10311000401906904019079040190890189D2DB24B
:10312000754374432000E1210901FDF701FC2818D3
:1031300009A9052208608019486080190831521ECB
:10314000F8D1189909B2189800B2199A12B290429F
:1031500044DA03AA189800B2189B1BB2029CA3423F
:1031600035DA2346189C24B21B1BDC070BD51468E8
:10317000099D641B00D56442BC4203DA27006C46FB
:10318000E180A080401C5B0821D009AC00B2189DF2
:103190002DB2451BAD00641915682668AE1B00D51D
:1031A0007642BE4203DA37006E46F180B080401CA2
:1031B0006668AD1B00D56D42BD4203DA2F006D4637
:1031C000E980A880401C5B1E0834002BE4D1491C18
:1031D000121D199800B209B28142BBDB03A8019904
:1031E0000914189A12B2891A8900405809A9019A3B
:1031F00012B2189B1BB2D21A920089584018C10F04
:103200000818401013B0F0BD9CE600006419FFFFE1
:10321000AFC30000513CFFFFAAC10000563EFFFFB4
:1032200050661C0040420F005A65726F206D6F643B
:10323000650D0A000EB400B582B003A900916B467B
:1032400002000121034878440A30FEF7FBF8029996
:1032500006B008477D1B000045490A6801239A43D0
:1032600010430860704742490028086803D01022C4
:1032700002430A60704710229043086070473D483F
:10328000C168090603D53C4901603C4901607047AB
:103290003B48016880220A4302607047F1B4B024C1
:1032A0002403042104200122364B1D68154001D05F
:1032B000012008E01D68ED0601D5022003E01D682D
:1032C0000D4000D00320102604E01F680F4000D0FE
:1032D0000320641E01280CD1002C0CD004201F6890
:1032E000174001D00120F4E71F683740EDD00220DD
:1032F000EFE7002C00D10520042836D158680224BD
:1033000004435C60009898605868402404435C6003
:10331000B024240304201D68154001D001200EE0D4
:103320001D68ED0601D5022009E01D680D4006D09C
:10333000032004E01F680F4000D00320641E012812
:103340000CD1002C0CD004201F68174001D00120A4
:10335000F4E71F683740EDD00220EFE7002C00D1E2
:103360000520596802229143596001B0F0BC7047B2
:10337000002002400420024023016745AB89EFCDC5
:10338000102002400C200240F3B4B0242403042196
:10339000042001222F4B1D68154001D0012008E0B8
:1033A0001D68ED0601D5022003E01D680D4000D028
:1033B0000320102604E01F680F4000D00320641E85
:1033C00001280CD1002C0CD004201F68174001D01C
:1033D0000120F4E71F683740EDD00220EFE7002C12
:1033E00000D10520042832D158681043586068463F
:1033F0008088009C2080B024240304201D68154090
:1034000001D001200EE01D68ED0601D5022009E083
:103410001D680D4006D0032004E01F680F4000D057
:103420000320641E01280CD1002C0CD004201F683E
:10343000174001D00120F4E71F683740EDD002208B
:10344000EFE7002C00D1052059689143596002B084
:10345000F0BC70470C20024070B58AB001214805CD
:1034600000F074FA904D280001F026F9C020C00049
:10347000009000246846447101218171022101718C
:103480009026F6056946300000F0B2FF04220A21BA
:10349000300000F0F5FF04220921300000F0F0FFB9
:1034A000280001F0B5F802A801F0F0F805940694A0
:1034B000079408947D48029002A9280001F0BAF808
:1034C0000121280001F0EDF80AB070BDF0B583B01D
:1034D00005006846017101F06BF90600724FFC0BA4
:1034E0002100380001F00CF9002804D001F060F947
:1034F000801B0A28F4D301F05BF9801B0A283BD219
:10350000A0080090030368460279C021380001F04A
:10351000DCF868460079002819D02C006846057947
:103520000221380001F0ECF8002804D101F040F944
:10353000801B0A28F4D301F03BF9801B0A281BD218
:103540002178380001F0DAF8641C6D1EE8D12021E2
:10355000380001F0D5F8002804D101F029F9801BCA
:103560000A28F4D301F024F9801B0A2804D2504819
:103570000188491C018003E04D484188491C418075
:1035800003B0F0BD00B581B00B00D2B20100C02085
:1035900000F002F801B000BDFBB582B0150001F0EB
:1035A00007F90600404FFC0B2100380001F0A8F895
:1035B000002804D001F0FCF8801B0A28F4D301F0A5
:1035C000F7F8801B0A2861D26846047A780C0090CC
:1035D000C30201222100380001F077F802213800EF
:1035E00001F08EF8002804D101F0E2F8801B0A28CF
:1035F000F4D301F0DDF8801B0A2847D26846017B2E
:10360000380001F07BF88021380001F079F80028BB
:1036100004D101F0CDF8801B0A28F4D301F0C8F8DA
:10362000801B0A2832D20020009080239B042A00AD
:103630002100380001F049F8002D17D0049C022128
:10364000380001F05DF8002804D101F0B1F8801BCA
:103650000A28F4D301F0ACF8801B0A2816D221788E
:10366000380001F04BF8641C6D1EE8D120213800B1
:1036700001F046F8002804D101F09AF8801B0A28CE
:10368000F4D301F095F8801B0A2805D30848418837
:10369000491C4180002004E005480188491C018044
:1036A000012005B0F0BD0000005400400B020000F6
:1036B000300C00203E48016801220A430260416844
:1036C0003C4A0A40426001683B4A0A400260016885
:1036D0003A4A0A4002604168394A0A404260C16A77
:1036E0000F229143C162016B364A0A400263416B6B
:1036F00001229143416300218160704710B4324A36
:103700001368864C1C401460136801431943116010
:1037100010BC704726490028086803D08022520454
:10372000024301E07E4A02400A60704726490A6867
:1037300003239A43104308607047234801680C2014
:103740000840704720490A68F0239A4310430860F4
:1037500070471D490A68874B13401843086070473B
:1037600019490A68844B13400B600A6883B21343FB
:103770000B60CA6A864B1340CB62CA6A000C1043C6
:10378000C8627047020F8349012A04D10A680323E3
:103790009A430A6007E0022A0A6801D17E4B00E0E2
:1037A000894B13400B600A681043086070470000A3
:1037B000001002400CB8FF08FFFFF6FEFFFFFBFF02
:1037C000FFFFC0FFACFEF0FF0410024070B5050023
:1037D00000207E4E31680C220A40082A02D00C2AB2
:1037E00017D018E0306832680F21840C0C40A41CFC
:1037F000C0204002104003D120007549484306E034
:10380000B26A74481140491CFDF795F86043010005
:1038100002E0714900E06F49296034686F4A0F2166
:103820002B6824092140515CCB406B60316849050D
:10383000490F515CCB40AB60F16AC90501D46849BE
:1038400005E03168490401D4590800E09908E960AD
:10385000F16A490601D4634901E080210902296126
:10386000F16AC90601D45B4900E029686961032156
:10387000F26A0A4001D1A96811E0F26A0A40012AFD
:1038800001D129680BE0F26A0A40022A02D18021A4
:10389000090204E0F26A1140032901D14D49A961EE
:1038A000C0218902F26A0A4001D1A96813E0F26AD4
:1038B0000A4080235B029A4201D129680BE0F26A38
:1038C0000A405B009A4201D1990804E0F26A0A407A
:1038D0008A4201D13F49E961C0210903F26A0A40E5
:1038E00001D1A96813E0F26A0A408023DB029A4200
:1038F00001D129680BE0F26A0A405B009A4201D1CB
:10390000190904E0F26A0A408A4201D13149296268
:10391000F16A090600D43048686270BDFF7FC2FFBB
:10392000FFFFFFFE304A0029116802D008431060F3
:1039300070478143116070472C4A0029116802D0FA
:10394000084310607047814311607047284A00297E
:10395000116802D0084310607047814311607047BE
:10396000244A0029116802D008431060704781433F
:1039700011607047FFF8FFFFFFBFFFFF1E4A0029DD
:10398000116802D00843106070478143116070478E
:10399000FFFEFFFF30100240FFFFFCFF4109174A06
:1039A000002901D1116808E0012901D1116A04E060
:1039B000022901D1516A00E0516BC006C00EC1401E
:1039C000C807C00F70470000FFFFF3FF041002405C
:1039D00000093D0000127A00006CDC026800002043
:1039E000809FD50012800000141002401810024081
:1039F0001C1002400C100240101002400010024047
:103A000010B55049884201D1CC0C46E08021C9054F
:103A1000884206D101210120FFF7B0FF00210120DB
:103A200027E05249884206D101210220FFF7A6FF74
:103A3000002102201DE04E49884206D101211020BC
:103A4000FFF79CFF0021102013E04A49884206D16D
:103A500001212020FFF792FF0021202009E04649A4
:103A6000884209D18C0D01212000FFF787FF00213A
:103A70002000FFF783FF10BD4049884202D1802417
:103A800064020AE03E49884202D18024A40204E094
:103A90008349884209D18024E40201212000FFF7F4
:103AA0005FFF00212000FFF75BFF10BD10B403880B
:103AB000244A904206D08024E405A04202D02B4C38
:103AC000A04203D14B4C1C404B882343284CA042BE
:103AD00003D0494C1C400B89234303804B68C362CD
:103AE0000B880385904208D0244A904205D0244A8E
:103AF000904202D06A4A904201D1897A018601211E
:103B0000818210BC70470021C943416000210180BF
:103B100001814180817270470029018802D0802292
:103B20000A4301E06F4A0A40028070470029018879
:103B300002D001220A4301E0614A0A400280704734
:103B400000000000002C0140002907D04421415A08
:103B5000802212020A434430028070474421415AB5
:103B60004904490C443001807047000000040040C3
:103B700000100040001400400020004000400140C0
:103B80000044014070B4028C5D4B13400384048CEC
:103B90008288038B5B4D1D400B881B022B435A4DC3
:103BA00025408C894E88264334012C434E4DA84233
:103BB00002D0564EB04215D1554E16400A8A920098
:103BC0003243A8420ED1474D2540CC8924012C43D5
:103BD000504D25408C8824012C434F4D15404A8A76
:103BE00092002A438280038389688163048470BCC5
:103BF000704700008FFF0000FFFC000070B4028CD3
:103C0000464B13400384058C8288838B314C1C40C7
:103C10000B882343424C2C408D894E882E4335021D
:103C20002543314CA04210D13B4C2C40CD892D0274
:103C30002543374C2C408D882D022543394C1440A8
:103C40000A8A4E8A1643320122438280838389681E
:103C5000C163058470BC704770B4028C324B134052
:103C60000384038C8288848B264D25400C88240293
:103C70002C432E4D1D408B894E881E4333032B430E
:103C8000194DA84204D12A4D15400A8A92012A43AF
:103C90008280848389680164038470BC704700005B
:103CA0000048014000210180418081808160818144
:103CB000C18101824182704781637047C16370474F
:103CC000FEFF0000028B1B4B1340090219430183C6
:103CD000704700008CFF0000828B084B1340194393
:103CE000818370477FFF0000002C0140828B114BC5
:103CF000134009021943818370470000F7FF000059
:103D0000EFFF0000FF8C0000DFFF000000400140DB
:103D1000FFFB0000BFFF0000FFF70000FFFE0000F8
:103D2000FFFD0000FFCF0000FFEF0000FFDF0000FD
:103D3000FFBF0000FFF70000010000BF4222120198
:103D4000D21E004207D002D4521E0018FCD5C10A70
:103D50004005120589187047F0B40E005E40012539
:103D6000ED072E40B446AE0ADF184C18F4423BD2A1
:103D7000F74241D2640D43D07F0D38D0E41BC90215
:103D8000DB0229432B43CF0ADB0A0600B61A9F4108
:103D900004D2641EB6197F41B6185F416812800DC7
:103DA00024180018844222DAE80C0021B6197F4159
:103DB000B61A9F4102D2B6185F413F1C40414941AB
:103DC000F4D3241C21DD2405B6197F41B61A9F4186
:103DD00005D33743C60737430026012F70416141A1
:103DE00066463143F0BC7047FCD1F74205D2002053
:103DF000C14349054908F3E704D00020C143F1E776
:103E00007F0DFAD000206146ECE72442FAD1401C35
:103E100061410F03F6D30020E2E7F0B40125ED077E
:103E20000F005F404FD48B4200D1824205D98446B7
:103E3000100062468C4619006346DF184C18640D6A
:103E40007F0D3AD0661C760537D0E61B352E34DC64
:103E5000DB022B43DB0A0C0DC9022943C912202EB9
:103E60000DDB1700203E06D01F00F741F3405F40F6
:103E70000026012A7741C01871410DD217E01700C2
:103E8000F741F2405740F3415A40B340F3405A40A3
:103E90000026801859410AD3A21C52050FD0C20730
:103EA000012F724117004008CB0718434908641CD2
:103EB00024054208AF4170416141F0BC7047641C69
:103EC00021050020F9E76B400AE06B40ABE7F742C1
:103ED000F3D1E943F1E72442EFD100200021ECE7E0
:103EE0000C00871A9C4105D2C01BA141D219634125
:103EF00069406B40AE0ADF184C18F442E7D2640DFB
:103F00007F0DE8D0E61B362ED7DCDB022B43DB0A25
:103F1000A4460C0DC9022943C90A012E28DC04D18C
:103F2000D6075208DF073A435B08EF0A7642904112
:103F3000994114D039423BD1B61940414941761CD0
:103F4000394204D1761C001849413942FAD0B943AC
:103F50006746B74208D9A41B24052143ADE70042B8
:103F6000EAD13642E8D1A8E7E40AE1070020A4E755
:103F7000202E0BDD203E1F00F340F7415F40012A59
:103F8000002257417E42984191410BE01700F741D2
:103F9000F2405740F3415A40B340F3405A407E420A
:103FA000904199410A0303D2641EB6194041494128
:103FB0000027641E24054208AE4178416141F0BCEF
:103FC0007047FEE7F4464A1805D200F00DF801D517
:103FD00080174008604700F007F80121C9078842B0
:103FE00000D9080040426047400DC9020843012142
:103FF000C9070843520D40210901521A521C06D428
:1040000052421F3201D4D0407047C0177047002081
:104010007047FEE73849884200D0704710B54C0D14
:1040200001212000FFF79CFC00212000FFF798FCF5
:1040300010BDC268314B13400A681A430B795B0309
:1040400013438A681A43CB6813430A691A434969C0
:104050001143C16070470021016001718160C1603E
:104060000161416170470029816801D0012200E0AF
:1040700002220A4382607047836A19438162426167
:104080007047010000208A6880231B0613438B6061
:10409000F02212028B68521E01D0002BFAD48A68DB
:1040A000002A00D4086C7047816804220A438260A9
:1040B0007047006C80B270470029C16803D00122AC
:1040C0000A43C260704701229143C1607047C268D1
:1040D00002239A43C260C2681143C1607047020064
:1040E0000020CB0103D59368054A1A4000E012680E
:1040F000114000D0012070470024014003D2FFFF8F
:10410000FFFFFFFE01685D4A0A4002600021016076
:1041100041608160C1605A49884203D159480168B1
:104120000F2250E01431884203D156480168F02232
:1041300049E01431884204D152480168F02212014A
:1041400041E01431884204D14E480168F022120245
:1041500039E01431884201D14A4831E014318842B3
:1041600004D148480168F02212042CE0143188423E
:1041700004D144480168F022120524E042498842F3
:1041800003D1424801680F221DE01431884203D157
:104190003E480168F02216E01431884204D13B48C1
:1041A0000168F02212010EE01431884204D1374830
:1041B0000168F022120206E01431884205D133482A
:1041C0000168F02212030A43026070470268304B14
:1041D00013408A681A430B6A13430A691A434B69EE
:1041E00013438A691A43CB6913434A6A1A438B6A99
:1041F00013430360CA6842600A6882604968C1600C
:1042000070470029016802D001220A4301E01B4ADD
:104210000A400260704710B4A83002680F230C0FE8
:10422000A400A3409A4302600268090109091143EE
:10423000016010BC7047002A026802D0114301607F
:1042400070478A4302607047C10001D50F4900E002
:104250000C490860704701000020CA0001D50D4AD2
:1042600000E00D4A1268114000D001207047C100E3
:1042700001D5064900E0034908607047FEFF0000D1
:104280000800024004000240080402400404024006
:104290000F80FFFF000402400000024082B0484847
:1042A000016801220A4302604168464A0A404260AE
:1042B0000168454A0A4002600168444A0A400260B7
:1042C0004168434A0A404260C16A0F229143C16279
:1042D000016B404A0A400263416B012291434163F2
:1042E0000021816001910091016812040A4302607B
:1042F000A021C90180229202036813400093019B10
:104300005B1C0193009B002B02D1019B8B42F3D1DC
:1043100001688903CA0F00920099012926D1112151
:104320002D4A1160416841604168416041682B4AF3
:104330000A4042604168882252030A434260016891
:10434000802252040A4302608021890402680A40E4
:10435000FCD04168032291434160416802220A4334
:1043600042600C2142680A40082AFBD102B0704723
:1043700070B51B4C20680F250C210140082914D171
:1043800020682168860C2E40B61CC02040020840E0
:1043900003D114484643300008E0A16A124829407E
:1043A000491CFCF7C8FA704300E00F480F49086148
:1043B00020680A6900090540485DC2400A6170BD75
:1043C000001002400CB8FF08FFFFF6FEFFFFFBFFE6
:1043D000FFFFC0FFACFEFFFF00200240FF7FC0FFD9
:1043E0000410024000093D0000127A00780000200D
:1043F00070B400230022012494400D682540A5429A
:1044000029D10D79012D01D0022D11D18568032606
:104410009E40B543856085684E799E402E438660F8
:104420008588A543858084888D799540254385803E
:1044300003259D40EC4305682540056005680E791D
:104440009E402E430660C5682C40C460C468CD7988
:104450009D402543C560521C9B1C102ACBD370BCC9
:10446000704704490160002101710122427181718C
:10447000C1717047FFFF000081617047018570477F
:1044800010B4CB089B00C0184907C90E036A0F245B
:104490008C40A3430362036A8A401A43026210BC41
:1044A0007047FEE7F0B58BB004000D0020680121D5
:1044B0008843206060682F490140A8680843606015
:1044C00020682D49014068680843E968014328696C
:1044D00008432060A0682949014068690843A0603A
:1044E0006846FFF773F91C48844201D1069E0AE032
:1044F0001A48844201D1079E05E01948844201D13F
:10450000089E00E0029E2D682068000400D5760019
:1045100030002900FCF70FFA070030002900FCF7F3
:104520000AFA6808814200D37F1C2068000404D581
:104530001348384039074F0F0743A7810BB0F0BD30
:104540000029016803D001220A430260704701225A
:104550009143016070470000003801400044004072
:1045600000480040C905C90D01857047808CC00511
:10457000C00D7047FFCFFFFFF3E9FFFFFFFCFFFF18
:10458000F0FF0000002A826802D01143816070476A
:104590008A438260704710B40B041B0E01248C40C8
:1045A000022B01D1001D02E0032B00D10830002AAC
:1045B000016802D00C43046001E0A143016010BC1B
:1045C000704702000020D269114000D001207047DE
:1045D0000162704730B4020000200C04240E012553
:1045E0008D40012C01D1146804E0022C01D15468E3
:1045F00000E094682C40090C01258D40D1692940C8
:10460000002C02D0002900D0012030BC7047FEE70A
:1046100010B53549884202D18024A40301E08024EA
:10462000E40301212000FFF7A9F900212000FFF792
:10463000A5F910BD026801239A43026002682B4B62
:1046400013404A681A438B681B02134303600A68CD
:10465000274B1340036102680123134303600022C8
:104660008260C2608A690B69134383608268802319
:104670001B02134383600268CB68134303604268E4
:104680001C4B134049691943416070470021016088
:1046900041608160C16001618022120242618161DA
:1046A00070470029016803D001220A430260704765
:1046B000012291430160704701680122914301602A
:1046C000016801680A430260704730B444680A4DCB
:1046D00025408905890D294312040A431343029991
:1046E0001943416030BC704700540040FFE0CF00E8
:1046F000FFFFFFF0FF7FFF07009800FC816270471B
:10470000020000209269114000D001207047FEE7AE
:104710007047FEE77047704727480168491C0160F1
:10472000704700B581B00420FFF795FD002801D047
:10473000042023E00220FFF78EFD002818D002207D
:10474000FFF795FD01201D4908701D4801780129DA
:1047500001D102210AE00178032901D1042105E0F9
:104760000178052901D1062100E00021017007E050
:104770000820FFF770FD002802D00820FFF777FD22
:1047800001B000BD30B581B00E4D0F4C21002800A6
:10479000FFF720FF002809D021002800FFF718FFAD
:1047A0002800FFF7E3FEC0B200F04DF801B030BDC5
:1047B0000148006870470000400C00204A0C0020AF
:1047C00008000020003801400501050030B581B027
:1047D000FA208000FEF783FAFEF734F9FEF73EFB7D
:1047E000FDF784FFFBF76CFCFDF762FEFEF734FE7D
:1047F000C820FEF774FAFEF717FA2948FEF7E9F920
:104800003220FEF76CFAFDF799FE6420FEF767FA96
:10481000FDF7F6FE6420FEF762FAFDF7BBFF00BF6E
:1048200023A0FEF707FD00241E4D2878012803D1A0
:10483000FDF77CFBFDF7DAFB68780128F5D1FDF781
:1048400061FC6C70F1E700B581B043280ED010D345
:10485000452801D004D30CE0FEF7E6F9012002E080
:10486000FEF7EBF900200F49087002E001200D4926
:10487000487001B000BD30B581B004000A4800782E
:1048800000280AD1094DE1B22800FFF76BFE802114
:104890002800FFF796FE0028F9D0200001B030BDB7
:1048A0003333C942040100204B0C00200038014082
:1048B00053746172740D0A00000400003C03000090
:1048C0003C010000C4FEFFFFC4FCFFFF00FCFFFF33
:1048D000C4FCFFFFC4FEFFFF3C0100003C030000DE
:1048E000000400003C0300003C010000C4FEFFFF88
:1048F000C4FCFFFF00FCFFFFC4FCFFFFC4FEFFFF82
:104900003C0100003C030000000400003C030000E8
:104910003C010000C4FEFFFFC4FCFFFF00FCFFFFE2
:10492000C4FCFFFFC4FEFFFF3C0100003C0300008D
:10493000000400003C0300003C010000C4FEFFFF37
:10494000C4FCFFFF00FCFFFFC4FCFFFFC4FEFFFF31
:104950003C0100003C030000000400003C03000098
:104960003C010000C4FEFFFFC4FCFFFF00FCFFFF92
:10497000C4FCFFFFC4FEFFFF3C0100003C0300003D
:10498000000400003C0300003C010000C4FEFFFFE7
:10499000C4FCFFFF00FCFFFFC4FCFFFFC4FEFFFFE1
:1049A0003C0100003C030000000400003C03000048
:1049B0003C010000C4FEFFFFC4FCFFFF00FCFFFF42
:1049C000C4FCFFFFC4FEFFFF3C0100003C030000ED
:1049D000000400003C0300003C010000C4FEFFFF97
:1049E000C4FCFFFF00FCFFFFC4FCFFFFC4FEFFFF91
:1049F0003C0100003C030000000400003C030000F8
:104A00003C010000C4FEFFFFC4FCFFFF00FCFFFFF1
:104A1000C4FCFFFFC4FEFFFF3C0100003C0300009C
:104A2000000400003C0300003C010000C4FEFFFF46
:104A3000C4FCFFFF00FCFFFFC4FCFFFFC4FEFFFF40
:104A40003C0100003C030000000400003C030000A7
:104A50003C010000C4FEFFFFC4FCFFFF00FCFFFFA1
:104A6000C4FCFFFFC4FEFFFF3C0100003C0300004C
:104A7000000400003C0300003C010000C4FEFFFFF6
:104A8000C4FCFFFF00FCFFFFC4FCFFFFC4FEFFFFF0
:104A90003C0100003C030000000400003C03000057
:104AA0003C010000C4FEFFFFC4FCFFFF00FCFFFF51
:104AB000C4FCFFFFC4FEFFFF3C0100003C030000FC
:104AC000000400003C0300003C010000C4FEFFFFA6
:104AD000C4FCFFFF00FCFFFFC4FCFFFFC4FEFFFFA0
:104AE0003C0100003C030000000400003C03000007
:104AF0003C010000C4FEFFFFC4FCFFFF00FCFFFF01
:104B0000C4FCFFFFC4FEFFFF3C0100003C030000AB
:104B1000000400003C0300003C010000C4FEFFFF55
:104B2000C4FCFFFF00FCFFFFC4FCFFFFC4FEFFFF4F
:104B30003C0100003C030000000400003C030000B6
:104B40003C010000C4FEFFFFC4FCFFFF00FCFFFFB0
:104B5000C4FCFFFFC4FEFFFF3C0100003C0300005B
:104B6000000400003C0300003C010000C4FEFFFF05
:104B7000C4FCFFFF00FCFFFFC4FCFFFFC4FEFFFFFF
:104B80003C0100003C030000000400003C03000066
:104B90003C010000C4FEFFFFC4FCFFFF00FCFFFF60
:104BA000C4FCFFFFC4FEFFFF3C0100003C0300000B
:104BB000000400003C0300003C010000C4FEFFFFB5
:104BC000C4FCFFFF00FCFFFFC4FCFFFFC4FEFFFFAF
:104BD0003C0100003C030000000400003C03000016
:104BE0003C010000C4FEFFFFC4FCFFFF00FCFFFF10
:104BF000C4FCFFFFC4FEFFFF3C0100003C030000BB
:104C0000000400003C0300003C010000C4FEFFFF64
:104C1000C4FCFFFF00FCFFFFC4FCFFFFC4FEFFFF5E
:104C20003C0100003C030000000400003C030000C5
:104C30003C010000C4FEFFFFC4FCFFFF00FCFFFFBF
:104C4000C4FCFFFFC4FEFFFF3C0100003C0300006A
:104C5000000400003C0300003C010000C4FEFFFF14
:104C6000C4FCFFFF00FCFFFFC4FCFFFFC4FEFFFF0E
:104C70003C0100003C030000000400003C03000075
:104C80003C010000C4FEFFFFC4FCFFFF00FCFFFF6F
:104C9000C4FCFFFFC4FEFFFF3C0100003C0300001A
:104CA00070B40121002313E00468001D0C4202D0FF
:104CB0004D466D1E64192360241D121F042AFAD26A
:104CC0002500960701D52380AD1C0A4000D02B702B
:104CD0000268001D002AE7D170BC704730B501683A
:104CE0004118446862088A188368E40701D54C4675
:104CF0001B190C30914200D130BD0C7864B2491CB4
:104D00000D78491C1D705B1C002C02D5641CF9D168
:104D1000F0E7641EF4D5EDE705480649002202607D
:104D2000001D8842FBD30448804704480047000028
:104D300000000020FF0F00209D420008E74D000802
:104D400010B5074979441831064C7C44163404E008
:104D5000081D0A68891888470100A142F8D110BDD2
:104D6000080000002400000039FFFFFFF4070000E6
:104D7000580400200000000065FFFFFF9E000000B7
:104D8000780000000000002000F00BF8002801D09F
:104D9000FFF7D6FF0020C046C046FFF717FD00F022
:104DA00002F80120704780B500F002F801BDFEE76F
:104DB0000746384600F002F8FBE7FEE780B5C0463C
:104DC000C046024A11001820ABBEFBE726000200D5
:104DD00038B505000C002000FFF74DFDA04200D0C3
:104DE0000025280032BDC046C046C046C046FFF779
:104DF000CBFFFEE70000000000000000FEE7FEE73A
:104E0000FEE7FEE7FEE7FEE7FEE7FEE7FEE7FEE77A
:104E1000FEE7FEE7FEE7FEE7FEE7030000A042F044
:104E200000075804002040080020FA0005E4420072
:104E300000BC42BC000B010203040102030406078C
:104E40000809F8000B0102030406070809006CDCDE
:064E5000028800010100D0
:0400000508004DE7BB
:00000001FF
