:020000040800F2
:100000009004002089450008F13F0008F33F0008F4
:1000100000000000000000000000000000000000E0
:10002000000000000000000000000000F73F000892
:100030000000000000000000F93F0008FB3F00083E
:100040008B2B0008532E00086F3800089B3B0008DC
:10005000EF3F00081F4600082B46000857460008DF
:10006000E146000807400008E3460008E5460008AE
:10007000E7460008E9460008EB460008ED460008A0
:10008000EF460008F146000800000000F3460008B3
:10009000F5460008F7460008F9460008FB46000848
:1000A000FD460008FF460008014700080347000816
:1000B0000547000800000000074700080000000096
:1000C000F9B595B014004A487844FF3025300CC883
:1000D00013A80CC0099108AD0020E86101E0009868
:1000E000241800206946C88013AB0022D2432100A7
:1000F00001A8801C00F004FC0090012805DA20789B
:10010000411E8941C943C90F00916846C08825280E
:10011000009E00D1761E012E0EDB2700397809984B
:10012000159A90470990002800D1ECE0E869401C3E
:10013000E8617F1C761EF1D16846C088252804D16D
:10014000002028616861A86108E06846C08800282E
:10015000C5D1E869D9E0010001200843641C217879
:100160002029F8D023290ED02B2904D02D2907D0FF
:1001700030290BD00DE001000220084380B2EDE7EA
:1001800001000420F9E701000820F6E70100102033
:10019000F3E72A2912D116990968169A11600A689C
:1001A000091D169B19606A62002A05D551426962D1
:1001B00001000420084380B2641C12E0002169623F
:1001C0000AE06A6A0B4B9A4205D093009A185200D3
:1001D000511830396962641C21780A00303A0A2AC1
:1001E000EFD321782E2907D00021C943296225E0C9
:1001F000DC440000FFFFFF7F641C21782A290AD11C
:1002000016990968169A11600A68091D169B1960EB
:100210002A62641C12E0002129620AE02A6AC34BA8
:100220009A4205D093009A18520051183039296229
:10023000641C21780A00303A0A2AEFD328852678F0
:10024000310000BFBAA000F069FB002801D0641C97
:1002500000E000262A202E54285C682806D1207849
:10026000682803D162202A216854641C02A8E8602F
:100270002678641C252E15D0582E55D0632E00D11B
:10028000B3E0642E00D18EE0692E00D18BE06F2E9A
:100290004AD0702E3BD0732E0AD0752E44D0782EC3
:1002A00042D0CAE001202861252069460872CFE0CB
:1002B0002A20285C6C28169800681699086017D0C8
:1002C0000668001D16990860AE602F6A002F03D5DE
:1002D000300000F02DFB09E03A000021300000F072
:1002E0002FFB002801D0801B00E038006861AFE0E0
:1002F0000268001D1699086008A9159800F042F9D7
:10030000002800D4A4E00020C04317B0F0BD169828
:100310000068169908600168001D169A106008911F
:1003200002A8A86078215CE02A20285C6C2801D112
:10033000169810E0712801D1169802E06A281698E4
:1003400009D10268D21D072082431698026003CAB1
:10035000169B1A6005E0016801600868091D169A7D
:10036000116008902A20285C682802D1089880B281
:1003700003E0622802D10898C0B208902820285CC7
:10038000000729D50898002826D020203043782857
:1003900022D12869302102AA1154401C411C296134
:1003A00002A90E5418E016992A20285C00F0C4F81F
:1003B0000890002802D528692D2109E0288D8107A1
:1003C00002D528692B2103E0C00705D52869202123
:1003D00002AA1154401C286102A829694018A8608B
:1003E000310008A800F0F8F932E02A20285C6C28D7
:1003F0000CD00120286116980068169908600168E1
:10040000001D169A10606846017221E01698006877
:10041000169908600168001D169A106068460180F0
:10042000002069464880C04328626A4608A915989A
:1004300000F0A8F800280BD565E7012028612520E9
:1004400069460872002E03D00220286102A8467077
:10045000686A2969401AA969401A6969401A0090B6
:100460002820285C400711D4202069460871009894
:1004700001280BDB009E012301AA08A9159800F0B2
:1004800027FA002800D03EE7761EF4D12F6902AE8D
:10049000002F0DD031780998159A904709900028BF
:1004A00000D130E7E869401CE861761C7F1EF1D17D
:1004B000302069460871AE69012E0ADB012301AACA
:1004C00008A9159800F004FA002800D01BE7761E52
:1004D000F4D1AE686F69002F0DD031780998159A64
:1004E00090470990002800D10DE7E869401CE861B9
:1004F000761C7F1EF1D12820285C400700D4F0E54F
:100500002020694608710098012800DAE9E5009E7C
:10051000012301AA08A9159800F0DAF9002800D0F3
:10052000F1E6761E00D1DCE5F2E700BFFFFFFF7FBA
:10053000686C747A4C000000622815D068280CD0D2
:100540006C2818D0742816D07A2814D10A680A604A
:100550001068121D0A60002170470A680A6010685E
:10056000121D0A6000B20BE00A680A601068121DD2
:100570000A6040B204E00A680A601068121D0A604E
:10058000C1177047F4B59AB007000C00206A002824
:1005900000D58E48039000F0DFF9616A08180690D4
:1005A0008BA003C807AA03C22820205C400702D4FE
:1005B0000698412806D209A8029040200690002003
:1005C00005900EE000F0CEF902900028F7D100204F
:1005D000C043F8E01A98801C1A9003980199401AB9
:1005E00003900398012800DA93E007AA1A9801887B
:1005F00000A8401C00F012FA0190002800D59FE0EE
:100600001A980088002804D10198401E019000D556
:1006100096E00398019988427BDB20690699019A4C
:100620008218914264D2002161624142A069081A95
:100630006169401A04902820205C400710D42020D3
:1006400069460870049801280ADB049D01236A4664
:100650002100380000F03CF9002871D16D1EF5D161
:100660002669029D002E0BD029786068B84760602B
:10067000002865D0E069401CE0616D1C761EF3D156
:10068000302069460870A569012D09DB01236A46FF
:100690002100380000F01CF9002851D16D1EF5D161
:1006A000A5686669002E0BD029786068B84760603D
:1006B000002845D0E069401CE0616D1C761EF3D136
:1006C0002820205C400710D5202069460870049837
:1006D00001280ADB049D01236A462100380000F04E
:1006E000F7F800282CD16D1EF5D10020059020616F
:1006F000019A00A9491C02982369C01800F09AF9D0
:1007000020690199401820611A980088002800D0BB
:1007100060E7059800284FD1606A2169401AA169F5
:10072000401A6169461A2820205C400711D4012E26
:100730000FDB350020216068B8476060002803D1D6
:100740000020C043059037E0E069401CE0616D1E69
:10075000F0D12369029A2100380000F0B9F800288E
:10076000EED1A569012D0ADB30216068B8476060D1
:100770000028E5D0E069401CE0616D1EF4D163699A
:10078000A2682100380000F0A3F80028D8D1282062
:10079000205C40070DD5012E0BDB35002021606861
:1007A000B84760600028CBD0E069401CE0616D1E56
:1007B000F4D1002020616062029809A9884201D02A
:1007C00000F066F905981BB0F0BD0000FFFFFF7F49
:1007D0000000000000000000F2B582B00400E068F4
:1007E00000906846007A6F2801D1082506E0202293
:1007F0000243782A01D00A2500E010251827216835
:100800000E00642801D0692803D1002901D5704267
:100810000600002E0DD1206A00280AD1082D31D102
:100820002820205C00072DD5172730200099C87597
:1008300028E07F1E01973000290000F086F9303152
:10084000C9B23A2903DB6846007A51380918009882
:10085000C1553000290000F078F9060004D0A068E6
:100860000099C9198842E4D3082D0BD12820205CB7
:10087000000707D50098C05D302803D07F1E3020C8
:100880000099C8551820C01B60610099C919A16062
:10089000216A884206DA081AA061208D0B490140BE
:1008A000218510E000290ED52821615C14220A4020
:1008B000102A08D1616A2269891AA269891A0F1A55
:1008C000012F00DBA76103B0F0BD0000EFFF0000C7
:1008D000F1B50E0014000027002B0FD01D00217869
:1008E0007068009A90477060002806D0F069401C3C
:1008F000F061641C6D1E01D0F1E7FF433800F2BDCA
:10090000F8B504000F0015001E0000F075F9330063
:100910002A003900200000F083F9F2BDC9B200E0DE
:10092000401C02788A4202D0002AF9D10020704788
:10093000010000E0491C0A78002AFBD1081A704720
:10094000C9B201E0401C521E002A03D003788B423A
:10095000F8D170470020704780B500F04DF90120B4
:1009600002BD03FF70B505002C000F34072084433F
:10097000C046C046A54233D2082C04D2082402E067
:10098000083000F085F82448026811000CD1011DE0
:100990000A68002A20D01368A34212D2111DF7E77B
:1009A0001D68A5420DD2191D0B68002BF8D11268E5
:1009B000011D00E0191D0B6893420DD01D68A54272
:1009C000F8D300290CD00D682A681300083BA34215
:1009D0000AD26A680A600FE000F040F90028CFD11F
:1009E000C046C046002070BD2B190B606E685E606B
:1009F000121B0B681A602C600968002904D04A6831
:100A0000002A01D0091D00E000210160C046C04657
:100A10000835280070BD0000780A002070B5040079
:100A20000D00160000F0E8F832002900200000F068
:100A3000EDF870BD124207D08B0706D00B78491C29
:100A40000370401C521EF7D87047830706D00B78FE
:100A5000491C0370401C521EF9D1704770B4103A03
:100A600003D378C9103A78C0FBD2530701D318C911
:100A700018C001D508C908C0D20704D30B88038069
:100A8000891C801C002A01D50B78037070BC70474C
:100A9000002800D1704738B50838040020680828BD
:100AA00036D3400734D1C046C0461A4841680029B1
:100AB00001D08C4203D26160446019E019004B6898
:100AC000002B01D0A342F9D30B68CD18AC421DD343
:100AD000A54204D122689A180A600C0008E04A680E
:100AE000002A03D02368E3189A420FD362604C6057
:100AF000616800290AD02268A3188B4206D100231E
:100B0000036008681018206048686060C046C046EE
:100B100031BD0000780A0020F446002804D4494280
:100B200000F013F8404260474042002905D45FD0EE
:100B300000F00BF8404249426047494200F005F896
:100B40004942604703460B43E6D40022030A8B4226
:100B50000BD203098B4219D243088B422ED2411A81
:100B600000D20146524110467047FF2209023FD091
:100B700012068B4205D3121209028B4201D31212C4
:100B8000090203098B4219D300E0090AC3098B4209
:100B900001D3CB01C01A524183098B4201D38B018F
:100BA000C01A524143098B4201D34B01C01A524132
:100BB00003098B4201D30B01C01A5241C3088B4277
:100BC00001D3CB00C01A524183088B4201D38B0062
:100BD000C01A524143088B4201D34B00C01A524104
:100BE000884200D3401A5241CFD201461046704786
:100BF00008B500F049F808BD80B5034800F045F895
:100C0000806902BD0000000024000020002804D1FB
:100C10000EA003C803C20020704701700120704776
:100C2000002904D10BA003C803C300207047002A89
:100C300002D10120C0437047002801D00A78028009
:100C40000978481E8041C043C00F70470000000073
:100C500000000000000000000000000007490868D4
:100C6000002801D000207047054807229043086003
:100C700004499143091A0160704700BFA00A00208F
:100C8000970400209006002070477047374800689E
:100C9000012101433548016035480068354901406C
:100CA0003348016031480068334901402F480160F2
:100CB0002E480068374901402C4801602C480068E4
:100CC000354901402A480160344800680F218843B3
:100CD00032490860324800683249014030480160BA
:100CE0003E480068012188433C49086000203C4997
:100CF000086070474C4A12684C4B13404A4A1360D4
:100D0000494A12680B0003431343474A1360704774
:100D100000B5C0B2002807D01449096880225204E7
:100D20000A4312490A6005E010490968404A0A402E
:100D30000E490A6000BD00213B4A126811000322DF
:100D400091430143384A11607047374801680C20CD
:100D5000084070470021344A12681100F022914384
:100D60000143314A1160704700000000001002404A
:100D7000041002400CB8FF08FFFFF6FE00212A4ACB
:100D8000126811000A002B4911400143264A1160E4
:100D900070470000FFFFFBFFFFFFC0FF2C10024069
:100DA00030100240ACFEF0FF1F490968224A0A4099
:100DB0001D490A601C49096882B20A431A490A603F
:100DC000A84909681D4A0A40A6490A60A549096858
:100DD000020C0A43A3490A60704700003410024025
:100DE0000810024000B50021020F1100012906D1B0
:100DF0009C4A126803239A439A4B1A600EE0022918
:100E000006D1984A1268984B1340964A136005E041
:100E1000944A1268954B1340924A1360914A1268A3
:100E20000243904B1A6000BD04100240FF7FC2FFD6
:100E3000FFFFFFFEFFF8FFFFFFBFFFFFFFFEFFFF0B
:100E4000FEB504000025002600200290002001903D
:100E50000020009000279F4800680C2101400D00F1
:100E60002800002806D0042807D0082808D00C281D
:100E700029D02BE0984820602AE09748206027E09E
:100E800094480068F021890301400E0091480068F1
:100E9000C021490201400291B60CB61C02980028FC
:100EA00003D18E48704307000BE0954800680007A7
:100EB000000F401C019088480199FFF746FE7043DF
:100EC0000700276004E09748206001E08248206026
:100ED00080480068F02101400D002D099248405DD6
:100EE000009020680099C84060607A480068E0215E
:100EF000C90001400D002D0A8B48405D00906068DC
:100F00000099C840A06057480068C00502D48748CF
:100F1000E0600AE06F480068400403D4A06840081D
:100F2000E06002E0A0688008E0604E48006840068B
:100F300002D47F48206102E08020000220614948FD
:100F40000068C00602D46448606101E02068606106
:100F5000444800688007800F002802D1A068A06183
:100F60001AE0404800688007800F012802D12068FD
:100F7000A06111E03B4800688007800F022803D180
:100F800080200002A06107E0364800688007800FDB
:100F9000032801D15048A06132480068C02189026D
:100FA0000140002902D1A068E06123E02D480068DB
:100FB000C0218902014080204002814202D1206884
:100FC000E06117E027480068C021890201408020C5
:100FD0008002814203D180200002E0610AE02148C2
:100FE0000068C02189020140C0208002814201D1F5
:100FF0003948E0611B480068C0210903014000290D
:1010000002D1A068206223E016480068C0210903CD
:1010100001408020C002814202D12068206217E096
:1010200010480068C021090301408020000381426C
:1010300003D18020000220620AE00A480068C02133
:1010400009030140C0200003814201D122482062EF
:1010500004480068000602D43248606200E067621B
:10106000F7BD000030100240FFFFFCFFFFFFF3FF61
:1010700000B5C9B2002905D0464A12680243454B63
:101080001A6004E0434A12688243424B1A6000BD72
:1010900000B5C9B2002905D03F4A126802433E4B51
:1010A0001A6004E03C4A126882433B4B1A6000BD60
:1010B00000B5C9B2002905D0384A12680243374B3F
:1010C0001A6004E0354A12688243344B1A6000BD4E
:1010D000000000000410024000127A0000093D00E8
:1010E00000B5C9B2002905D02D4A126802432C4B25
:1010F0001A6004E02A4A12688243294B1A6000BD34
:101100002C10024000B5C9B2002905D0254A12684A
:101110000243244B1A6004E0224A12688243214BA6
:101120001A6000BD006CDC0204000020809FD50026
:101130001280000010B501000022002300200C00E6
:10114000E4B26409E4B22200002A03D1164C2468F8
:1011500023000EE0012A03D10D4C2468230008E08F
:10116000022A03D1114C2468230002E0104C2468A9
:101170002300C9B2CC06E40E22001C00D440E407D0
:1011800002D50124200001E000242000C0B210BDDF
:101190002010024014100240181002401C1002409F
:1011A0000C100240101002400010024024100240B7
:1011B00034100240F0B540B2002821D5AD4C40B209
:1011C0000207120F083A950804225543A94A40B273
:1011D00003071B0F083B9B0804267343D258FF23C9
:1011E0008607B60F08277E43B3409A438B01DBB2D4
:1011F0008607B60F08277E43B340134363511AE0B6
:101200009D4A40B2830804246343D258FF238407D5
:10121000A40F08256C43A3409A438B01DBB28407DB
:10122000A40F08256C43A3401343934A40B284089B
:1012300004256C431351F0BD10B50400601E8021DD
:101240004904884201D301200EE0601E8B490860EA
:1012500003210020C043FFF7ADFF0020884908604C
:101260000720D7490860002010BD00B58BB000F002
:1012700010F96846FFF7E4FD0098FA218900FFF7AE
:1012800064FCFFF7D9FF002800D0FEE700F009F862
:1012900000F023F900F06DF8142000F07AF90BB09B
:1012A00000BD00B583B001218C20C003FFF7E0FE34
:1012B000802000900020694648710120694608712D
:1012C00069469020C00500F0DBF980219020C00520
:1012D00000F047FA80204000009069469020C00549
:1012E00000F0CEF9802149009020C00500F039FAC5
:1012F000022000906946B34800F0C2F90221B148CB
:1013000000F02CFA30200090032069464871032039
:101310006946087169469020C00500F0B1F90120C6
:1013200000906946C24800F0ABF90220009000200E
:101330006946487100206946887102206946087133
:1013400069469020C00500F09BF9022201219020FF
:10135000C00500F008FA0420009069469020C005FE
:1013600000F08EF9022202219020C00500F0FBF966
:1013700007BD00B589B001218020C001FFF788FEBC
:10138000AC48FFF72FFD684600F0D9F98020000235
:1013900000900020694648710220694608710220C9
:1013A0006946C87169469020C00500F069F90122BC
:1013B0000F219020C00500F0D6F98020C0010090D8
:1013C00000206946C87169469020C00500F058F9B0
:1013D00001220E219020C00500F0C5F9FA208002FC
:1013E000029000200390002004900020059000202F
:1013F00007900C20069002A98F4800F0E9F901211E
:101400008D4800F057FA09B000BDF8B5040020007F
:101410008A4900F07DFA01D88948040020008949F2
:1014200000F08AFA01D2874804000025864F8748D9
:10143000210000F094FA0100380000F020FB8449FC
:1014400000F08DFA834900F0E2FA05008248290095
:1014500000F085FA814900F06AFB0600300000F0D8
:10146000BBFB80B201008020C00500F0B3FD7C48CA
:101470000460F1BD1CED00E000E400E014E000E0D9
:1014800018E000E080B5C0218020C00500F0A4FD78
:1014900001BD80B5FFF7FAFB012000F0E7FD012058
:1014A00000F0DAFD0020FFF755FC0020FFF766FC96
:1014B000A02189030020FFF71DFC0120FFF728FC75
:1014C0001920FFF737FE0028FAD00220FFF733FC7F
:1014D000FFF73BFC0828FBD101BD00B589B0012115
:1014E0000120FFF7E5FD8020C00500F093FB684672
:1014F00000F05CFD05A800F039FC002069468882F8
:10150000FF20E0300690002005A90881002005A9F1
:10151000488005A98020C00500F0F5FB70206946D1
:1015200008800120694648800A200290022069460E
:10153000888169468020C00500F066FC70206946FD
:101540000880012069464880C02002900220694638
:10155000888169468020C00500F0A6FC0821802013
:10156000C00500F043FD08218020C00500F04CFDBF
:1015700001218020C00500F005FC01218020C0056C
:1015800000F028FC01218020C00500F009FC09B012
:1015900000BD10B58CB0040001A8FFF751FC029803
:1015A0003049FFF7D2FA604300900098002803D03A
:1015B0000098401E0090F8E70CB010BD000000003D
:1015C00010E000E00014004870B50500264EADB2F2
:1015D000280000F05FFD254900F0C1F9310000F05E
:1015E00016FA0600ADB2280000F054FD204900F0C4
:1015F000B6F901000C00ADB2280000F04BFD21004F
:1016000000F0ADF9310000F002FA0600194806605A
:1016100070BD38B5040017480168174800F09FF9FD
:10162000164900F0F4F905002800FFF7EEFE31BD81
:101630000004004801000010003801400100E642AB
:101640000000E64200008C421498B1425305833FEB
:10165000F9171D3C5C8FA23F0000F0433333534029
:1016600000000020102700009EAF8542FB40F2BC26
:10167000AF670E368C0A0020612CF93E0000BC4298
:10168000F0B500220023002400252A00102A55D29C
:10169000012595402B000D681D402C009C424BD12C
:1016A0000D79012D02D00D79022D1DD186680327F9
:1016B000BC46150002277D436746AF40BE438660A7
:1016C00086684F79BC46150002277D436746AF40C8
:1016D00037438760858801269640B5438580858895
:1016E0008E7996402E43868006680327BC461500F7
:1016F00002277D436746AF40BE43066006680F7908
:10170000BC46150002277D436746AF40374307605C
:10171000C6680327BC46150002277D436746AF40D5
:10172000BE43C660C668CF79BC46150002277D431C
:101730006746AF403743C760521CA7E7F0BD064974
:10174000016000210171012141710021817100219D
:10175000C171704700000000FFFF000089B2816185
:10176000704701857047F8B400230024D2B20D0001
:101770006D076D0F042675431600AE40330089B225
:10178000CD10042675434519009589B2CD10042665
:10179000754345192F6A0F25AC460D006E07760F6D
:1017A00004256E436546B540AF43009D2F6289B264
:1017B000CD100426754345192D6A1D432C0089B2AE
:1017C000CD100426754345192C62F1BC704703FA0D
:1017D000F0B58BB006000F0000250020009000241B
:1017E00030680121884330607068040020003B4C61
:1017F00004402000BC68044374603068040020008A
:10180000394C04407868F96801433869084320433B
:1018100004003460B06804002000344C0440200010
:101820007C690443B46001A8FFF70AFB284886429C
:1018300002D1079800900DE02648864202D1089810
:10184000009007E02448864202D10998009001E008
:1018500003980090306800040ED500980221484398
:101860003968FFF772F9050000980221484339688A
:10187000FFF76BF90C0009E000983968FFF765F98C
:10188000050000983968FFF760F90C0038684008D7
:10189000844200D36D1C3068000407D568084007F7
:1018A000400F04002800124D054025432800B08158
:1018B0000BB0F0BD00B5C9B2002904D00268012305
:1018C0001343036003E0026801239A43026000BDF2
:1018D000003801400044004000480040FFCFFFFFB7
:1018E000CA05D20D02857047F3E9FFFFFFFCFFFF39
:1018F000F0FF000000B502000020D3690B40002B70
:1019000002D00123180001E000231800C0B200BD7E
:101910000CB4012212060318DA4207D84B18DA4237
:1019200004D802000A43921802D281420CBC7047CC
:10193000FCD088420CBC70470CB40122120603187C
:10194000DA4207D84B18DA4204D802000A43921848
:1019500002D288420CBC7047FCD08142FAE730B416
:1019600005004D400122D20715404B180418240EE3
:101970002ED01B0E32D0FF2C34D0FF2B3AD0E418DF
:101980000002090210431143000A090A9446C2B238
:101990004A43000AC3B24B43000A4843110A5B188A
:1019A0001A43D2B2190A091801D44918641E080A48
:1019B0007F3C23DBFE2C08DAE4050906114363466D
:1019C00099416041284330BC7047FF20C005F9E7CA
:1019D00028001B0EFF2BF6D1D043F4E72800FF2C84
:1019E000F1D1F9E74002F7D1FF2B01D14902F3D140
:1019F000E005E7E7D8054902E4D0EDE7430200201F
:101A0000641CDFD15B129B1CDCD9D805DAE701220C
:101A1000D20703004B402ED4431A01D2C01AC91872
:101A200030B44B180418240E1B0E22D0FF2C20D0EB
:101A3000E31A182B1DDC09021143C40D641E0002B9
:101A4000104394461925ED1A0A00AA40D9404518BA
:101A500001D36D08A41CE405D209280A2D062A43E7
:101A60006546AA41604103181B0EFF2B01D3C00D30
:101A7000C00530BC7047514006E05140CCE7012220
:101A8000D20703004B40F8D4431A03D2C01AC91836
:101A90005040514030B44B18090211430418240E31
:101AA0001B0E40D0FF2C3AD025009D410BD31ED8F1
:101AB000C50D4002401A0BD3ED050100400AC905CF
:101AC00091416841D5E7C50D40024918401AD0D070
:101AD00001214008491C0018FCD58C4204D36D1A22
:101AE000000AED054019C4E7E8051040C1E7182DCC
:101AF000BFDCAC1C0D00E140E5414D40012D4941EA
:101B0000C40D00021043451A01D46D199543641E9B
:101B1000E405280A2D069541604130BC7047FF2B33
:101B2000A7D1D843A5E72442A3D10020A1E730B430
:101B300005004D400122D20715404B180418240E11
:101B400028D01B0E2FD0FF2C34D0FF2B37D0E41A17
:101B5000000209021043114343084808D10D1B1A23
:101B600002D2641EDB181B18DB18834200D31B1A39
:101B70004941F9D37F3426DDFE2C08DAE405480814
:101B8000C907194391416041284330BC7047FF2089
:101B9000C005F9E728001B0E03D0FF2BF5D1490241
:101BA000F3D0D043F1E7FF2C01D14002F9D1FF205F
:101BB000C005E9E74002F4D1FF2BF8D1F1E7280096
:101BC0004902E2D0EDE70B0200202442DCD15B1297
:101BD0009B1CD9D9D805D7E70122D2070118090ED5
:101BE0007F3910D449421F310FD4001805D2C001EB
:101BF0001043C84000D5D0437047C0011043C840CF
:101C000005D440427047002070470042F3D51000D1
:101C10007047BBC010B50400684884420AD1012156
:101C200080200001FFF75CFA002180200001FFF70F
:101C300057FA67E08020C005844208D101210120C5
:101C4000FFF760FA00210120FFF75CFA5AE05C48D8
:101C5000844208D101210220FFF754FA002102201A
:101C6000FFF750FA4EE05748844208D10121102076
:101C7000FFF748FA00211020FFF744FA42E05248EB
:101C8000844208D101212020FFF73CFA00212020C6
:101C9000FFF738FA36E04D4884420AD1012180200E
:101CA0004000FFF72FFA002180204000FFF72AFABA
:101CB00028E0474884420AD1012180204002FFF7F2
:101CC0000FFA002180204002FFF70AFA1AE04B4881
:101CD00084420AD1012180208002FFF701FA00210D
:101CE00080208002FFF7FCF90CE06E48844209D1A5
:101CF00001218020C002FFF7F3F900218020C002FB
:101D0000FFF7EEF910BD00B5002203881A002B4B37
:101D1000984206D08023DB05984202D0284B984297
:101D200005D11300364A1A4013004A881A43254B3E
:101D3000984205D01300334A1A4013000A891A4307
:101D400002804B68C3620B8803851C4B984208D005
:101D50001F4B984205D0294B984202D0514B9842D4
:101D600001D18B7A03860123838200BD0021C94300
:101D7000416000210180002101810021418000217A
:101D80008172704700B5C9B2002904D0028880234F
:101D90001343038003E00288804B1340038000BD9F
:101DA00000B5C9B2002904D002880123134303807F
:101DB00003E002887A4B1340038000BD002C0140F1
:101DC00000040040001000400014004000200040CB
:101DD0000040014000B5C9B2002907D04422825A10
:101DE00080231B0213434422835205E04422825A7B
:101DF0005204520C4423C25200BD00000044014072
:101E00008FFF0000FFFC000070B5002200230024BB
:101E1000058C734E2E400684058C2B0085882C0083
:101E2000058B2A0015006F4A2A4015006E4A2A4089
:101E300015000A8812022A431D00724B2B401D0018
:101E40008B891B012B431D004B881B012B43564DD7
:101E5000A84202D05E4DA8421ED12500744C2C40F1
:101E600025000C8AA4002C434F4DA84214D11D001C
:101E70004A4B2B401D00CB891B012B431D006E4B91
:101E80002B401D008B881B012B4325006C4C2C40E4
:101E900025004C8AA4002C43848002838D688563CE
:101EA000038470BD0048014070B500220023002467
:101EB000058C4A4E2E400684058C2B0085882C000C
:101EC000858B2A0015005D4A2A401500354A2A40B4
:101ED00015000A882A431D00564B2B401D008B8994
:101EE0001B022B431D004B881B022B432E4DA84287
:101EF0001BD11D00524B2B401D00CB891B022B43D5
:101F00001D004B4B2B401D008B881B022B432500D3
:101F10004D4C2C4025004D4C2C4025000C8A2401B2
:101F20002C4325004C8A24012C43848082838D68B5
:101F3000C563038470BD70B5002200230024058CA6
:101F4000414E2E400684058C2B0085882C00858B05
:101F50002A001500234A2A401500234A2A4015006A
:101F60000A8812022A431D00384B2B401D008B8922
:101F70001B032B431D004B881B032B430A4DA84218
:101F800006D12500324C2C4025000C8AA4012C439C
:101F9000848082838D680564038470BD7FFF0000A8
:101FA000FEFF0000FCFF0000002C0140002101802A
:101FB00000214180002181800021816000218181F8
:101FC0000021C1810021018200214182704700006F
:101FD0000040014081637047C1637047FFFE00000D
:101FE000EFFF0000FF8F0000FFFC00000022038BCA
:101FF0001A001300134A1A4013000A021A430283FC
:1020000070470000DFFF00000022838B1A001300DE
:10201000104A1A400A43828370470022838B1A00B9
:102020001300084A1A4013000A021A4382837047B9
:10203000FFFB0000FFFD0000BFFF00008FFF00005E
:10204000FFF70000FFF70000FFEF0000FFDF0000D8
:10205000FFBF0000F7FF000000210D4A12681100C9
:102060000122914301430A4A1160704700B5C0B292
:10207000002806D00649096810220A4304490A606C
:1020800005E00349096810229143014A116000BD2F
:10209000002002409D2102000AD002D4491E92185D
:1020A000FCD5C905100A1206524100D3012A484145
:1020B0007047B1AC0121C206D20E9140B64A116000
:1020C0007047F0B540B2002821D5B44C40B20207A9
:1020D000120F083A950804225543B04A40B203074C
:1020E0001B0F083B9B0804267343D258FF23860727
:1020F000B60F08277E43B3409A438B01DBB28607B5
:10210000B60F08277E43B340134363511AE0DF4AFA
:1021100040B2830804246343D258FF238407A40FEA
:1021200008256C43A3409A438B01DBB28407A40FBC
:1021300008256C43A3401343D44A40B284080425C5
:102140006C431351F0BD80B500F005F800F04FF876
:1021500000F08EF801BD00B589B00121802000019A
:10216000FEF796FFD448FFF755FD03A8FFF71EFFC3
:102170006846FFF7FBFD052069460880884800682F
:102180000621FEF7E2FC8749FEF7DFFC80B2401E25
:102190000190002069460881002069464880694610
:1021A000C548FFF7B0FD602069468881012003A97A
:1021B00048807B4800680621FEF7C7FC7949FEF796
:1021C000C4FC80B20221FEF7BDFC0590022003A9E9
:1021D000888103A9B848FFF7AEFE0821B648FFF78B
:1021E0001CFF0121B448FFF7F5FD09B000BD00B5A3
:1021F00087B0012180208000FEF74AFFB648FEF735
:10220000D3FD684600F0B0F9B44800F085F900202D
:102210000090002069460871402003908020C00093
:10222000029000200490042005906946AB4800F01D
:1022300083F900223021A94800F0B1F9A74800F045
:10224000B9F90021A54800F0EAF90121A34800F0FE
:10225000D8F90121A14800F094F901219F4800F02C
:10226000E6F90028F9D09D4800F0C3F907B000BD99
:1022700000B58BB001210120FEF7FAFE984800F06E
:10228000F3F9984800909848019000200290FA20B5
:1022900040000390002004908020059080204000A2
:1022A00006908020C000079000200890C020800188
:1022B000099000200A906946894800F062FA0121DD
:1022C000874800F07FFA01220221854800F088FA51
:1022D0000F210920FFF7F5FE0920FFF7EBFE0BB0F9
:1022E00000BD00B587B0012180208000FEF7D0FE40
:1022F0007948FEF759FD794800F00EF9684600F07C
:1023000033F90020009000206946087100200390F6
:1023100000200290002004900020059069466F483C
:1023200000F00AF96D4800F045F900216B4800F013
:1023300068F90121694800F024F90121674800F09B
:1023400076F90028F9D007B000BD80B500215A48C1
:10235000FFF726FD0021614800F013F900216048D5
:1023600000F030FA604861490860FA204000604996
:10237000086001215A4800F025FA00205D490870E4
:102380000121564800F0FDF8544800F032F90121CF
:102390004948FFF705FD01BD00E100E01CED00E04C
:1023A0001400002050C30000FEB5534800680090A0
:1023B00052480068019052480068029000250024AD
:1023C00000200600F6B2002E23D1FFF7BEFF4948D9
:1023D00000780028FBD0444800F071FA0190494889
:1023E00000F06DFA029001A8408802A94988401ABD
:1023F000040024B2002C02D5E12000012418684614
:1024000080882D184048F6B2022171434452761C50
:10241000D8E728000121FEF798FB694608800121D2
:10242000394800F0CCFA6946488068464088030085
:102430009BB21F0035480068FFF7CEFB3B0002004F
:10244000D2B2684601883248008800F016FB69461F
:10245000488068460221405E002807D568464088CB
:10246000E12109014018694648800CE068460221D4
:10247000405E2849884206DB68464088E121090120
:10248000401A694648800098FEBD000000E400E064
:1024900010B5040004222100104800F080F80F4815
:1024A00000F0A7F804210D4800F0C1F80028F9D089
:1024B0000A4800F0A3F810BD002C014080B5FFF7DA
:1024C00010FF80204000FFF7E3FF1149088010480B
:1024D0000088FFF779F801BD0040000100240140A9
:1024E00008000240402401409006002014000240F1
:1024F0000C000240AD0A0020D4460008D84600086F
:10250000DC46000892060020A40A002000000020FB
:10251000AA0A0020110E000010B504004F488442A2
:1025200009D1012180208000FEF7DAFD0021802002
:102530008000FEF7D5FD10BD30B40023C268130043
:102540001A00474B13401A000B680C7964031C43B4
:102550008B682343CC681C430D6925434B692B438F
:102560001343C36030BC704700210160002101713A
:10257000002181600021C1600021016100214161D1
:10258000704700B5C9B2002904D082680123134303
:10259000836003E0826802231343836000BD10B4AC
:1025A0000023846A0C4384620724A34313434361DA
:1025B00010BC704730B501000020002300228C6859
:1025C00080252D0625438D608C6880252D062C40A6
:1025D00022005B1CF0242402A34201D0002AF3D184
:1025E0008C68002C02D40C6C200001E00024200038
:1025F00030BD816804220A4382607047006C80B25B
:10260000704700B5C9B2002904D0C2680123134342
:10261000C36003E0C26801239A43C26000BDC26880
:1026200002239A43C260C2680A43C260704730B551
:10263000020000200023CC0104D59468094D2540F8
:102640002B0001E0146823000B4202D0012420007B
:1026500001E000242000C0B230BD00000024014091
:1026600003D2FFFFFFFFFFFE00B50168724A0A4078
:102670000260002101600021416000218160002191
:10268000C1606E49884206D16D4909680F220A432C
:102690006B490A6074E06B49884206D16849096851
:1026A000F0220A4366490A606AE06749884207D116
:1026B00063490968F02212010A4361490A605FE038
:1026C0006249884207D15E490968F02212020A4332
:1026D0005B490A6054E05E49884207D1584909685D
:1026E000F02212030A4356490A6049E059498842D8
:1026F00007D153490968F02212040A4350490A607D
:102700003EE05549884207D14D490968F02212053B
:102710000A434B490A6033E05049884206D1504988
:1027200009680F220A434E490A6029E04D49884250
:1027300006D14B490968F0220A4349490A601FE063
:102740004949884207D146490968F02212010A43E3
:1027500043490A6014E04549884207D14049096865
:10276000F02212020A433E490A6009E040498842C9
:1027700006D13B490968F02212030A4338490A602E
:1027800000BD30B40023026813001A00394B134017
:102790001A008B680C6A1C430B6923434C691C4369
:1027A0008B692343CC691C434D6A25438B6A2B43B9
:1027B00013430360CA6842600A6882604A68C26064
:1027C00030BC704700B5C9B2002904D002680123AB
:1027D0001343036003E00268174B1340036000BD1E
:1027E00000B5D2B2002A03D003680B43036002E0B5
:1027F00003688B43036000BD00B501000020002288
:10280000CB0003D51D4B1B681A0002E01A4B1B6856
:102810001A000A4202D00123180001E00023180028
:10282000C0B200BD00B5C10002D50D49086001E08D
:102830000349086000BD0000FEFF000008000240E0
:10284000040002401C0002403000024044000240EC
:10285000580002406C000240800002400804024020
:10286000040402401C0402403004024044040240BC
:10287000580402400F80FFFF0000024000040240A5
:1028800080B595A003C800F045F900F048F99149DA
:10289000086091A003C800F073F900F040F9904976
:1028A00008608F48006800F071F900228023DB0582
:1028B00000F085F900F033F98B49086001BDF0B5EF
:1028C00087B00600874D00200290002007000020FE
:1028D000019000200400A4B2FA2C18DA82480068A3
:1028E0003900FFF73CF80199FFF7C9F801000091A2
:1028F000A4B204206043305AFFF7CCFB0099FFF7E5
:1029000086F80290019702980700641CE3E701999A
:1029100073480068FFF723F801003800FFF7AFF8AD
:102920002900FFF704F9059001996A480068FFF74C
:1029300016F82900FFF7FBF804900499059800F0B9
:1029400004F80390039807B0F0BDFEB505000C0035
:1029500020002100FFF703F801000E0028002900E5
:10296000FEF7FDFF3100FFF752F80600300000F0DF
:102970000DF900F0E6F900F055FA694608812800E3
:1029800000F004F902000B0000920193200000F017
:10299000FDF8009A019B00F05DFA00F0C0F8070016
:1029A00052483900FEF7DBFF5149FFF7C0F8070036
:1029B0003800FFF711F902A948800298FEBDF0B572
:1029C00004000D000026002000210F00BFB2ADB2B0
:1029D000AF4210D2BFB202217943615E962906DB75
:1029E000BFB202217943615E424A914201DB01217B
:1029F0000E007F1CEAE7F6B2002E12D100210F0074
:102A0000BFB2ADB2AF4206D2BFB202217943615E1E
:102A100040187F1CF4E7ADB22900FEF793F800B22E
:102A20002AE000210F00BFB2ADB2AF4217D2BFB251
:102A300002217943615E304A914206DB2F49BFB2E1
:102A400002227A43A25E891A06E0E121C900BFB2E0
:102A500002227A43A25E891A40187F1CE3E7ADB2D6
:102A60002900FEF76FF8E121C900081A002802D5F5
:102A7000E1210901401800B2F0BDF1B50C001500CC
:102A80001E001F4801681F48FEF769FF07001C4829
:102A900001681D48FEF763FF010019480068FEF752
:102AA0005EFF3900FEF7B3FF0700B6B23000FFF754
:102AB000F1FA01001548FEF752FF01000800390045
:102AC000FEF7DDFF01001248FEF749FFFFF784F82B
:102AD00000B2F2BD800A0020000000802F1BE43FFE
:102AE000840A00200000FA42880A00200000E14425
:102AF000DB0F49407B0D000009070000181500009E
:102B00008C0A0020DF6B683EEB45A3BBCDCCCC3DEF
:102B10000000204180B5002200F008FA04BD012227
:102B200052054B18DA4201D9581570475B0D072240
:102B3000D2019B1A10D9FF2B1DD2DB050122D2072F
:102B40000A4013430903020D1143490AC2005241CE
:102B500000D9491CC81870470AD1800A0A030243E9
:102B60005212921C04D9D3070B40D005184370476A
:102B7000C80FC0077047C80F0002FF30C00570477C
:102B800080B5012200F0D2F904BDFEE70122120651
:102B90000118CA420AD28A420DD8382212060909FF
:102BA0008918C20FD20711434007704700D0490867
:102BB0000909014301E0C10FC90700207047F0B5C2
:102BC0000E005E400125ED072E40B446AE0ADF1828
:102BD0004C18F44208D2F7420ED2640D01D07F0D9A
:102BE00012D100206146F0BD05D1F74201D87F0D1A
:102BF00005D10020C143F0BDFBD1640DF9D0002008
:102C0000C143490549088FE0E419C902DB022943A1
:102C10002B43DB0A460DC00231438E4630B487B2E7
:102C200095B27D432E0CADB2140C7C43A419260C36
:102C3000240425439CB27C43A419190C7943270C26
:102C4000C919A4B20F043C43090C000C97B24743C6
:102C50002E0CBE193543ADB2170C4743360CBF19C5
:102C6000A6B2BF193E043543240C3E0C36199FB260
:102C70004743BF19BCB23E0C89191F0C47437F184C
:102C80003E043443390C704680B297B247432E0C51
:102C9000BE193543ADB2170C4743360CBF19A6B267
:102CA000BF193E043543240C3E0C36199FB24743EE
:102CB000BF19BCB23E0C89191F0C47437F183E0454
:102CC0003443390C77463F0C90B278432E0C801970
:102CD0000604ADB22E43050CA0B22D18120C7A4397
:102CE0005019020C80B2240CA4189AB27A4312191B
:102CF00014042043120C89181B0C7B43C91830BCE8
:102D0000EF0A394203D1B61940414941641E6F129E
:102D1000BF0DE41B0BDBFF19BC4211DA24050027B1
:102D20004208AE417841614166463143F0BD641CC2
:102D300005D1401C6141CF0201D34908F4E750E7B7
:102D40005DE7012252054B1850D2D3424DD25B0DA4
:102D50004BD030B41C05A14355082943D40AE41EC6
:102D60001B195B0801D3001849411B059C466C19CF
:102D7000091B0018494100184941641900239202B7
:102D8000491B07D46D081DD2091B6419001849415D
:102D9000491BF7D56D080AD20919641B001849416F
:102DA000491BEFD56D08F7D301E0520817D0C018C2
:102DB00061419B1AAC4100184941801AA941F4D4E1
:102DC00052080AD0C01AA1419B186C410018494111
:102DD000801AA941E9D45208F4D15B1C6C4158080F
:102DE000E20710436108614430BC70470020590D70
:102DF000FBD0C943D342F8D802B500F0B7FA02BD00
:102E0000F4464A1805D200F00FF801D580174008A3
:102E1000604700F009F80121C907884200D908007D
:102E2000404260474A1812D2400DC90208430121AE
:102E3000C9070843520D40210901521A521C06D4F9
:102E400052421F3201D4D0407047C0177047002053
:102E50007047FEE738B50FB402A803C800F08CFA3B
:102E60000400684603C800F087FA0200012C35DA36
:102E7000012A33DA0198002808D5684603C8802261
:102E8000120651406A4603C2082500E00025039857
:102E9000002809D502A803C880221206514002AAC0
:102EA00003C228000625454002A803C86A460CCA8A
:102EB00000F080FA06D202A803C86A460CCA00F0E5
:102EC00092FA29E0002C06D5684603C802AA0CCA6B
:102ED00000F089FA23E00020002120E0022A01D13D
:102EE000684602E0022C02D102A803C81AE094420C
:102EF00002D100200C4901E000200021019B002BA1
:102F000001D5082500E00025039B002B02D52B00EE
:102F100006255D40012A02D12A00022555402A00DB
:102F200000F0C2FA05B030BD0000F03FF7B5040074
:102F30000D00C6A003C822002B00FFF740FE0600CC
:102F40000F0049004908C3A20CCA00F033FA00D3AD
:102F5000F2E039000022002300F096FB104601D871
:102F6000B94900E0B04932003B0000F0A6FBFFF792
:102F700047FF0090009800284DD000F079FC002217
:102F8000AA4BFFF71CFE06000F00A9A003C83200E1
:102F90003B00FFF714FE02000B002000290000F0A8
:102FA000EFFB04000D00A4A003C832003B00FFF7B4
:102FB00006FE02000B002000290000F0E1FB0400E7
:102FC0000D009FA003C832003B00FFF7F8FD020090
:102FD0000B002000290000F0D3FB04000D000020AE
:102FE000D54932003B00FFF7EAFD02000B0020004C
:102FF000290000F0C5FB04000D00D0A003C832007A
:103000003B00FFF7DCFD02000B002000290000F070
:10301000B7FB04000D00029800998907890F40183A
:10302000029020002900B5A20CCA00F02DFB0CD89C
:103030000022F9239B0500F0BDF906D20298C007D3
:1030400000D447E10024BB4D44E122002B00FFF7F0
:10305000B6FD06000F000298C00730D5A9A003C82E
:1030600032003B00FFF7ABFDA8A20CCA00F025FB25
:1030700032003B00FFF7A3FDA6A20CCA00F01DFB27
:1030800032003B00FFF79BFDA4A20CCA00F015FB29
:1030900032003B00FFF793FDA2A20CCA00F00DFB2B
:1030A00032003B00FFF78BFDA0A20CCA00F005FB2D
:1030B00032003B00FFF783FD00229E4B37E03200D9
:1030C0003B0020002900FFF77AFD009001919DA0B0
:1030D00003C832003B00FFF772FD9CA20CCA00F04F
:1030E000ECFA32003B00FFF76AFD9AA20CCA00F02E
:1030F000E4FA32003B00FFF762FD98A20CCA00F030
:10310000DCFA32003B00FFF75AFD96A20CCA00F031
:10311000D4FA32003B00FFF752FD75A20CCA00F052
:10312000CCFA009A019BFFF74AFD22002B0000F029
:10313000C4FA04000D00CDE020006900490D6E4A7C
:1031400091420CD0002917D12903090B084313D150
:103150000298002800D1C6E00024764DC3E0290380
:10316000090B084300D0BEE000F09AFB212101606A
:103170000020C0434108B8E0684630C0029C684661
:1031800000F096FB20180290684630C82000290005
:103190005AA20CCA00F078FA0CD80022F9239B0539
:1031A00000F008F906D20298C00700D492E000248B
:1031B000604D8FE022002B00FFF701FD06000F009D
:1031C0000298C0074AD54FA003C832003B00FFF762
:1031D000F6FC4EA20CCA00F070FA32003B00FFF77A
:1031E000EEFC4CA20CCA00F068FA32003B00FFF77C
:1031F000E6FC4AA20CCA00F060FA32003B00FFF77E
:10320000DEFC48A20CCA00F058FA32003B00FFF77F
:10321000D6FC46A20CCA00F050FA32003B00FFF781
:10322000CEFC0022434B51E00000E0BF0000303EE6
:1032300000000050FB21B94100000060B4101140B3
:103240000000002026A6513E0000E03F83C8C96D63
:10325000305FE43F0000A0FFFFFFDF4132003B0092
:1032600020002900FFF7ABFC0090019135A003C8B6
:1032700032003B00FFF7A3FC34A20CCA00F01DFA99
:1032800032003B00FFF79BFC32A20CCA00F015FA9B
:1032900032003B00FFF793FC30A20CCA00F00DFA9D
:1032A00032003B00FFF78BFC2EA20CCA00F005FA9F
:1032B00032003B00FFF783FC0DA20CCA00F0FDF9C1
:1032C000009A019BFFF77BFC22002B0000F0F5F930
:1032D00004000D000298800705D5802000064540B7
:1032E0002000290001E02000290003B0F0BD00BF4C
:1032F000425555555555C5BFFF070000FEFFFFFF5E
:10330000FFFF3FBE09260A1039BA213E3BA861C61D
:10331000F97D92BE63AC30909F01FA3EF6FB5116E8
:103320006CC156BFB10255555555A53FAEFFFFFFC5
:10333000FFFFDFBF0000F03F5C14D33C0000002023
:103340009A833B3BB08F2FC310D8E53D8F0C73A100
:10335000E1E55ABE4DADE44FE31DC73E3EE3B5196E
:10336000A0012ABFFAF010111111813F1FB500F022
:1033700097FA212101601FBD02004800400D0C4B4F
:1033800098420CD0002801D0002004E00803000B74
:10339000024302D00120C043704700207047080359
:1033A000000B024301D0022070470120704700BF8C
:1033B000FF07000030B4012464054D00EC420BD837
:1033C0005D00EC4208D80C001C4364000443144325
:1033D00004D2994200D1904230BC7047FCD08B425D
:1033E000FAD18242F8E7F0B40E005E400125ED0705
:1033F0002E40B446AE0ADF184C18F4423BD2F742D6
:1034000041D2640D43D07F0D38D0E41BC902DB02EA
:1034100029432B43CF0ADB0A0600B61A9F4104D288
:10342000641EB6197F41B6185F416812800D2418DA
:103430000018844222DAE80C0021B6197F41B61A3E
:103440009F4102D2B6185F413F1C40414941F4D32D
:10345000241C21DD2405B6197F41B61A9F4105D3EE
:103460003743C60737430026012F70416141664646
:103470003143F0BC7047FCD1F74205D20020C14374
:1034800049054908F3E704D00020C143F1E77F0D67
:10349000FAD000206146ECE72442FAD1401C614199
:1034A0000F03F6D30020E2E7F7B504000D0050A2A9
:1034B0000CCA00F0E9F81DD850A003C822002B0068
:1034C000FFF77DFB00224C4B00F0F7F806000F00E1
:1034D0004AA003C822002B0000F0EFF802000B0006
:1034E00030003900FFF77FFF04000D000298012132
:1034F00001430291200029000022424BFFF75AFFAE
:1035000005D30122F9239B0500F0BEF853D8220011
:103510002B00FFF754FB06000F0032003B00200099
:103520002900FFF74CFB0090019137A003C832003F
:103530003B00FFF744FB36A20CCA00F0BEF8320095
:103540003B00FFF73CFB34A20CCA00F0B6F8009A2F
:10355000019BFFF734FB22002B0000F0AEF80400C3
:103560000D002FA003C832003B00FFF728FB2EA25E
:103570000CCA00F0A2F832003B00FFF720FB2CA29F
:103580000CCA00F09AF832003B00FFF718FB2AA2A1
:103590000CCA00F092F832003B00FFF710FB00224B
:1035A000274B00F08AF802000B0020002900FFF7EB
:1035B0001AFF04000D000298800702D58020000643
:1035C00045400298400709D01FA1800E081803C883
:1035D00022002B0000F071F804000D000298000793
:1035E00002D58020000645402000290003B0F0BD30
:1035F00057CD9E5E1426D13F0000F0BFAA4C58E87C
:103600007AB6FB3F000040BE845D57134B57B03F76
:10361000B2934C19ED5EE43FBEDE02B90240F83FC2
:10362000DE39028FC7C0743F8AAB1283000CC83FDB
:1036300024D7E508B6D8F03F0F34580E5895FD3F13
:103640000000F03F0000000000000000000000004B
:1036500066732D3852C1E03F182D4454FB21F93FC9
:1036600066732D3852C1F03F182D4454FB21F93FA9
:1036700066732D3852C10040182D4454FB21094077
:103680003FD038C6A6F1044030B4012464054D0093
:10369000EC420BD85D00EC4208D80C001C436400DF
:1036A0000443144304D28B4200D1824230BC7047A1
:1036B000FCD09942FAD19042F8E7F0B40125ED0729
:1036C0000F005F404FD48B4200D1824205D984461F
:1036D000100062468C4619006346DF184C18640DD2
:1036E0007F0D3AD0661C760537D0E61B352E34DCCC
:1036F000DB022B43DB0A0C0DC9022943C912202E21
:103700000DDB1700203E06D01F00F741F3405F405D
:103710000026012A7741C01871410DD217E0170029
:10372000F741F2405740F3415A40B340F3405A400A
:103730000026801859410AD3A21C52050FD0C20797
:10374000012F724117004008CB0718434908641C39
:1037500024054208AF4170416141F0BC7047641CD0
:1037600021050020F9E76B4010E06B40ABE7F74222
:10377000F3D1E943F1E72442EFD100200021ECE747
:10378000F0B40125ED070F005F40EED40C00871A5E
:103790009C4105D2C01BA141D219634169406B40D5
:1037A000AE0ADF184C18F442E1D2640D7F0DE2D06E
:1037B000E61B362ED1DCDB022B43DB0AA4460C0DC4
:1037C000C9022943C90A012E28DC04D1D6075208B0
:1037D000DF073A435B08EF0A76429041994114D0E3
:1037E00039423BD1B61940414941761C394204D196
:1037F000761C001849413942FAD0B9436746B742AE
:1038000008D9A41B24052143A7E70042EAD1364288
:10381000E8D1A2E7E40AE10700209EE7202E0BDDB5
:10382000203E1F00F340F7415F40012A002257412C
:103830007E42984191410BE01700F741F24057401A
:10384000F3415A40B340F3405A407E42904199417F
:103850000A0303D2641EB619404149410027641E81
:1038600024054208AE4178416141F0BC7047FEE753
:10387000010007D5F446404200F004F80122D207C7
:103880001143604742221201D21E004207D002D4E7
:10389000521E0018FCD5C10A400512058918704750
:1038A00080B50248FDF7F1F902BD000018000020C4
:1038B000F1B582B030C849A003C822002B00FFF741
:1038C0007EF96A4603C2684603C800220023FFF758
:1038D000DBFE68460CC802D80020424901E0002007
:1038E0004149FFF7EAFE6A4603C20021684600F03C
:1038F00099F868460CC80020002100F0D9F84AD099
:103900003A49FFF75CF906000F0039A003C83200FE
:103910003B00FFF754F902000B0020002900FFF7DD
:103920002FFF04000D0034A003C832003B00FFF756
:1039300046F902000B0020002900FFF721FF0400D8
:103940000D002FA003C832003B00FFF738F902003A
:103950000B0020002900FFF713FF04000D000020DA
:10396000294932003B00FFF72AF902000B00200032
:103970002900FFF705FF04000D0024A003C8320052
:103980003B00FFF71CF902000B0020002900FFF7A5
:10399000F7FE04000D00029830C0684603C81DA25F
:1039A0000CCAFFF707FD06D3684603C81B4A1C4B29
:1039B000FFF76AFE07D80022074B684603C800F0ED
:1039C00089F86A4603C2684603C8FFF719FA8007F8
:1039D000800F03B0F0BD00BF0000E04183C8C96D97
:1039E000305FE43F0000E03F0000E0BF0000303EF9
:1039F00000000050FB21B94100000060B4101140EC
:103A00000000002026A6513E5C14D33C000000209C
:103A10009A833B3B0000C0FFFFFFDFC10100C0FFF6
:103A2000FFFFDF4142685200520D1F4B9A4209D1FD
:103A30004168090304D10068002801D101207047C2
:103A40000220704743685B0002D10368002B28D036
:103A5000164B9A1A521A012A23DB352A07DB4168D2
:103A600080221206114041600021016016E0012110
:103A7000D306DB0E9940491E920608D542680A40DB
:103A800041685140416003681343002103E003682B
:103A90000B40016859400160002B02D00020C04358
:103AA00070470020704700BFFF070000330400008C
:103AB00090420ED1A4460C001C430128644107D05B
:103AC000994205D14C006415641C644000D30C037A
:103AD00064467047F0B401277F05DB184C18FB42A1
:103AE00059D85D0D50D0FC424DD2BF02A34200D147
:103AF000824239D2640D0E003E409B023B43DB0AFA
:103B0000C9023943C90A641B641C801A994104D252
:103B1000641E001849418018594101D100420AD061
:103B2000641E08D000184941801A9941F5D28018C6
:103B30005941641EF6D18902820D8002114303D1DE
:103B400001001DD0203D002003D46D1E0018494106
:103B5000FBD5C00A4C05C90A204331432D4207D486
:103B60002D054919F0BC7047FCD139400020F9E718
:103B70006D1C05D1FF0AB943401C69410F03F1D206
:103B800031000020EEE7EDD10021C9437446FFF774
:103B9000EDFBA646E6E71900E4E7FEE700B589B0CD
:103BA000012180208003FDF783FAB54800F0E1F998
:103BB000C020C0000090002069464871012069467D
:103BC000887102206946087169469020C005FDF79A
:103BD00057FD04220A219020C005FDF7C4FD0422F0
:103BE00009219020C005FDF7BEFDA54800F050F961
:103BF00002A800F0A0F90020059000200690002007
:103C00000790002008909F48029002A99C4800F06D
:103C10005AF901219A4800F09EF909B000BD38B563
:103C200005000C002A002100C9B2C02000F00EF8E7
:103C300031BD70B506000C00150023002A00D2B279
:103C40003100C9B2C02000F06FF870BDF1B582B08C
:103C50000E00170000F0F6F90500802109028848DF
:103C600000F0B5F9002804D000F0ECF9401B0A2858
:103C7000F3D300F0E7F9401B0A2806D382480088F6
:103C8000401C8149088000204DE080208001009088
:103C900080239B043200D2B26846017A89B2784808
:103CA00000F078F900200400E4B2F6B2B4421DD26C
:103CB0000221734800F08BF9002804D100F0C2F90A
:103CC000401B0A28F4D300F0BDF9401B0A2806D394
:103CD0006D480088401C6C490880002023E0E4B255
:103CE000395D674800F070F9641CDDE72021644805
:103CF00000F06DF9002804D100F0A4F9401B0A2857
:103D0000F4D300F09FF9401B0A2806D35E480088D0
:103D1000401C5D490880002005E05C480088401C8C
:103D20005A4908800120FEBDF3B581B016001F007E
:103D300000F088F9040080210902514800F047F999
:103D4000002804D000F07EF9001B0A28F3D300F00D
:103D500079F9001B0A2806D34B480088401C4A49C1
:103D6000088000208BE080208001009080235B048D
:103D700001226846017989B2414800F00BF902211D
:103D80003F4800F024F9002804D100F05BF9001B43
:103D90000A28F4D300F056F9001B0A2806D33A4843
:103DA0000088401C38490880002068E06846017A95
:103DB000334800F009F98021314800F008F9002863
:103DC00004D100F03FF9001B0A28F4D300F03AF9BF
:103DD000001B0A2806D32C480088401C2A4908806A
:103DE00000204CE00020009080239B043200D2B2DF
:103DF0006846017989B2224800F0CCF8002005001D
:103E0000EDB2F6B2B5421DD202211D4800F0DFF836
:103E1000002804D100F016F9001B0A28F4D300F0A2
:103E200011F9001B0A2806D317480088401C1649C0
:103E30000880002023E0EDB2795D114800F0C4F85D
:103E40006D1CDDE720210E4800F0C1F8002804D1E8
:103E500000F0F8F8001B0A28F4D300F0F3F8001B78
:103E60000A2806D308480088401C0749088000201B
:103E700005E006480088401C044908800120FEBD7A
:103E8000005400400B020000A80A0020A60A0020EF
:103E900010B504003C4884420AD1012180208003EF
:103EA000FDF730F9002180208003FDF72BF909E0B0
:103EB00001218020C003FDF725F900218020C003E7
:103EC000FDF720F910BD10B4002203680124A343BC
:103ED000036003681A0013002C4A1A4014004B6850
:103EE0008A6812021A43224302600B68284C1C4065
:103EF0000461036801241C43046000231A008260EB
:103F0000C2608B690C691C43220082608368802434
:103F100024021C438460CB681A00036813430360C7
:103F200043681A001300264A1A4013004A691A43CC
:103F3000426010BC704700210160002141600021F7
:103F400081600021C160002101618021090241617D
:103F500000218161704700B5C9B2002904D0026810
:103F600001231343036003E0026801239A430260C4
:103F700000BD0168012291430160016801680122CE
:103F80000A4302607047000000540040FFE0CF0089
:103F9000FFFFFFF0F0B4049C0025466835002E00BA
:103FA000084D35402F0089B28E05B60DD2B21504EA
:103FB00035431D4325433D434560F0BC7047000039
:103FC000FF7FFF07009800FCC9B28162704710B5FF
:103FD000020000230020946923000B40002B02D034
:103FE0000124200001E000242000C0B210BDFEE743
:103FF000704700B5FEE77047704714480068401CE2
:1040000012490860704780B50420FEF7F5FB0028D0
:1040100003D00420FEF706FC13E00220FEF7ECFBC1
:10402000002806D00220FEF7FDFB01200849087099
:1040300007E00820FEF7E0FB002802D00820FEF78A
:10404000F1FB01BD01480068704700009C0A002098
:10405000AD0A002080B502215048FFF7E0FD01BD08
:1040600080B502214E48FFF7DAFD01BD80B502217F
:104070004C48FFF7D4FD01BD80B502214A48FFF747
:10408000CEFD01BD80B5FFF7EBFFFFF7EFFF33215A
:104090004648FFF7C4FDFFF7EFFFFFF7DBFF01BD69
:1040A000F9B587B00E001500082005900020049097
:1040B0006F46049A0599380000F082F80295802036
:1040C00070432900FCF741FD039107988021484384
:1040D0000400802070432900FCF737FD2418344881
:1040E00024180298000A69460870029869464870C8
:1040F0002000000C8007800F69468870200A6946FE
:10410000C8702000694608710298000BF021014038
:104110000398000C0007000F0818694648710398BF
:10412000000A6946887103986946C8710822694681
:1041300008A80078FFF77DFD09B0F0BDF8B50500CF
:104140000F0016001C001A23220039002800FFF778
:10415000A7FF2223220031002800FFF7A1FFFFF76D
:104160008BFFFFF777FFF1BD80B5124B01220021D5
:104170001A20FFF7E3FF01BD80B50E4B0E4AC821A0
:1041800089001E20FFF7DAFF01BD80B5094B0B4AFD
:104190009621C9001E20FFF7D1FF01BDCE170008F0
:1041A00062090008121C0008B220000854450008EB
:1041B00000FEFFFFE204000021030000B104000044
:1041C0001206130A1A43130C1A4300BF094205D002
:1041D000830705D00270401C491EF9D170470000CA
:1041E000130030B414001500103902D310393CC04C
:1041F000FCD2490700D30CC000D504C0890002D30B
:104200000280801C002900D5027030BC704700007D
:1042100080B54A4800680121014348480160484888
:1042200000684849014046480160444800684649E2
:1042300001404248016041480068444901403F480C
:1042400001603F480068424901403D4801604148E3
:1042500000680F2188433F4908603F4800683F4994
:1042600001403D4801603E480068012188433C49C7
:10427000086000203B49086000F001F801BDC0B5AE
:1042800000200190002000902C4800688021490205
:1042900001432A48016029480068802189020840BA
:1042A00000900198401C01900098002804D10198CA
:1042B000A021C9018842EED120480068800302D5C0
:1042C0000120009001E0002000900098012834D1E6
:1042D0001120254908601A480068194908601848E3
:1042E00000681749086016480068204901401448D2
:1042F00001601348006888214903014310480160A8
:104300000E4800688021490401430C4801600B48B5
:1043100000688001FBD50A480068032188430849EA
:10432000086007480068022101430548016004480D
:1043300000680C2101400829F9D103BD001002409A
:10434000041002400CB8FF08FFFFF6FEFFFFFBFF62
:10435000FFFFC0FF2C10024030100240ACFEFFFFF8
:10436000341002400810024000200240FF7FC0FFCE
:1043700080B5FA208000FDF70CF9FCF776FFFEF718
:104380007FFAFFF70BFCC820FDF703F9FDF77AF879
:104390003B48FDF73AF83220FDF7FBF8FFF772FED5
:1043A0006420FDF7F6F8FFF7DFFE6420FDF7F1F873
:1043B000FDF7C9FEFDF7C9FFFEF780F800F02AF807
:1043C00030480188304800F077F83048018830489C
:1043D00000F072F82F480068FDF7FEFB80B2010084
:1043E0002D4800F069F827480221415E2B4800F073
:1043F00063F82B480221415E2A4800F05DF82A4804
:104400000221415E294800F057F81E480088FDF758
:1044100000F9D1E780B5FDF796FEFFF7A5FE012074
:10442000FDF7B7F8FDF7C0FF16490860FFF7A4FED7
:104430000120FDF7AEF8FDF7B7FF19490860FFF757
:10444000A4FE0120FDF7A5F8FDF7AEFF16490860B0
:1044500001BD10B5040016480078002801D02000E6
:104460000CE02100C9B289B21248FDF739FA802167
:104470001048FDF73FFA0028F9D0200010BD0000D9
:104480003333C942900A002094460008AA0A00204B
:10449000A446000800000020B44600085846000862
:1044A000940A00206C460008980A00208046000804
:1044B000AC0A0020003801400EB400B582B003A958
:1044C00000916B4602000121034878440A30FBF753
:1044D000F7FD029906B008476901000070B4012198
:1044E000002313E00468001D0C4202D04D466D1EEF
:1044F00064192360241D121F042AFAD2250096078E
:1045000001D52380AD1C0A4000D02B700268001D2D
:10451000002AE7D170BC704730B501684118446883
:1045200062088A188368E40701D54C461B190C30D1
:10453000914200D130BD0C7864B2491C0D78491C01
:104540001D705B1C002C02D5641CF9D1F0E7641EC1
:10455000F4D5EDE70F004F806F8080808080AAFF48
:104560000019000AF500001304E2000AF500033602
:1045700000010C000000000000000000000000002E
:1045800000010C00000000000548064900220260FE
:10459000001D8842FBD304488047044800470000C0
:1045A00000000020FF0F002011420008C146000853
:1045B00010B5074979441831064C7C44163404E0A0
:1045C000081D0A68891888470100A142F8D110BD6A
:1045D000080000002400000005FFFFFF2004000089
:1045E000900600200000000031FFFFFF1C010000CA
:1045F000340000000000002000F00BF8002801D07B
:10460000FFF7D6FF0020C046C046FFF7B1FE00F01E
:1046100002F80120704780B500F002F801BDFEE706
:104620000746384600F002F8FBE7FEE780B5C046D3
:10463000C046024A11001820ABBEFBE7260002006C
:1046400038B505000C002000FFF703FFA04200D0A2
:104650000025280032BDFEE766726571415F706813
:104660006173653A25640D0A000000006672657189
:10467000425F70686173653A25640D0A00000000AE
:1046800066726571435F70686173653A25640D0AEF
:104690000000000066726571415F616D703A2564CB
:1046A0000D0A00004150442074656D703A25640D78
:1046B0000A000000566F6C743A25640D0A00000071
:1046C000C046C046C046C046FFF796FF0000000047
:1046D00000000000000000000000000000000000DA
:1046E000FEE7FEE7FEE7FEE7FEE7FEE7FEE7FEE7A2
:1046F000FEE7FEE7FEE7FEE7FEE7FEE7FEE7FEE792
:10470000FEE7FEE7FEE7FEE7030000A042FC000F25
:10471000010203040102030406070809006CDC021D
:0247200088000F
:04000005080046C1E8
:00000001FF
